{
  "contractName": "AaveTerminal",
  "abi": [
    {
      "inputs": [],
      "name": "DAI",
      "outputs": [
        {
          "internalType": "address",
          "name": "",
          "type": "address"
        }
      ],
      "stateMutability": "view",
      "type": "function"
    },
    {
      "inputs": [
        {
          "internalType": "uint256",
          "name": "_amount",
          "type": "uint256"
        },
        {
          "internalType": "uint256",
          "name": "_borrowME",
          "type": "uint256"
        }
      ],
      "name": "depositMoney",
      "outputs": [],
      "stateMutability": "nonpayable",
      "type": "function"
    },
    {
      "inputs": [
        {
          "internalType": "uint256",
          "name": "_amount",
          "type": "uint256"
        }
      ],
      "name": "repayDebts",
      "outputs": [
        {
          "internalType": "uint256",
          "name": "",
          "type": "uint256"
        }
      ],
      "stateMutability": "nonpayable",
      "type": "function"
    }
  ],
  "bytecode": "0x6080604052738dff5e27ea6b7ac08ebfdf9eb090f32ee9a30fcf6000806101000a81548173ffffffffffffffffffffffffffffffffffffffff021916908373ffffffffffffffffffffffffffffffffffffffff16021790555034801561006457600080fd5b50610a4e806100746000396000f3fe608060405234801561001057600080fd5b50600436106100415760003560e01c806336828b3c14610046578063a005c7a114610062578063e0bab4c414610092575b600080fd5b610060600480360381019061005b919061074d565b6100b0565b005b61007c600480360381019061007791906106fb565b6102f8565b6040516100899190610955565b60405180910390f35b61009a61048b565b6040516100a791906107d4565b60405180910390f35b738f3cf7ad23cd3cadbd9735aff958023239c6a06373ffffffffffffffffffffffffffffffffffffffff166323b872dd3330856040518463ffffffff1660e01b8152600401610101939291906107ef565b602060405180830381600087803b15801561011b57600080fd5b505af115801561012f573d6000803e3d6000fd5b505050506040513d601f19601f8201168201806040525081019061015391906106d2565b50738f3cf7ad23cd3cadbd9735aff958023239c6a06373ffffffffffffffffffffffffffffffffffffffff1663095ea7b360008054906101000a900473ffffffffffffffffffffffffffffffffffffffff16846040518363ffffffff1660e01b81526004016101c392919061084f565b602060405180830381600087803b1580156101dd57600080fd5b505af11580156101f1573d6000803e3d6000fd5b505050506040513d601f19601f8201168201806040525081019061021591906106d2565b50610234738f3cf7ad23cd3cadbd9735aff958023239c6a063836104a3565b60008054906101000a900473ffffffffffffffffffffffffffffffffffffffff1673ffffffffffffffffffffffffffffffffffffffff16635a3b74b9738f3cf7ad23cd3cadbd9735aff958023239c6a06360016040518363ffffffff1660e01b81526004016102a4929190610826565b600060405180830381600087803b1580156102be57600080fd5b505af11580156102d2573d6000803e3d6000fd5b505050506102f4738f3cf7ad23cd3cadbd9735aff958023239c6a06382610539565b5050565b6000738f3cf7ad23cd3cadbd9735aff958023239c6a06373ffffffffffffffffffffffffffffffffffffffff166323b872dd3330856040518463ffffffff1660e01b815260040161034b939291906107ef565b602060405180830381600087803b15801561036557600080fd5b505af1158015610379573d6000803e3d6000fd5b505050506040513d601f19601f8201168201806040525081019061039d91906106d2565b50738f3cf7ad23cd3cadbd9735aff958023239c6a06373ffffffffffffffffffffffffffffffffffffffff1663095ea7b360008054906101000a900473ffffffffffffffffffffffffffffffffffffffff16846040518363ffffffff1660e01b815260040161040d92919061084f565b602060405180830381600087803b15801561042757600080fd5b505af115801561043b573d6000803e3d6000fd5b505050506040513d601f19601f8201168201806040525081019061045f91906106d2565b506000610480738f3cf7ad23cd3cadbd9735aff958023239c6a063846105d2565b905080915050919050565b738f3cf7ad23cd3cadbd9735aff958023239c6a06381565b60008054906101000a900473ffffffffffffffffffffffffffffffffffffffff1673ffffffffffffffffffffffffffffffffffffffff1663e8eda9df83833060006040518563ffffffff1660e01b81526004016105039493929190610878565b600060405180830381600087803b15801561051d57600080fd5b505af1158015610531573d6000803e3d6000fd5b505050505050565b60008054906101000a900473ffffffffffffffffffffffffffffffffffffffff1673ffffffffffffffffffffffffffffffffffffffff1663a415bcad838360026000306040518663ffffffff1660e01b815260040161059c959493929190610902565b600060405180830381600087803b1580156105b657600080fd5b505af11580156105ca573d6000803e3d6000fd5b505050505050565b60008060008054906101000a900473ffffffffffffffffffffffffffffffffffffffff1673ffffffffffffffffffffffffffffffffffffffff1663573ade8185856002306040518563ffffffff1660e01b815260040161063594939291906108bd565b602060405180830381600087803b15801561064f57600080fd5b505af1158015610663573d6000803e3d6000fd5b505050506040513d601f19601f820116820180604052508101906106879190610724565b90508091505092915050565b6000815190506106a2816109ea565b92915050565b6000813590506106b781610a01565b92915050565b6000815190506106cc81610a01565b92915050565b6000602082840312156106e457600080fd5b60006106f284828501610693565b91505092915050565b60006020828403121561070d57600080fd5b600061071b848285016106a8565b91505092915050565b60006020828403121561073657600080fd5b6000610744848285016106bd565b91505092915050565b6000806040838503121561076057600080fd5b600061076e858286016106a8565b925050602061077f858286016106a8565b9150509250929050565b61079281610970565b82525050565b6107a181610982565b82525050565b6107b0816109c6565b82525050565b6107bf816109d8565b82525050565b6107ce816109bc565b82525050565b60006020820190506107e96000830184610789565b92915050565b60006060820190506108046000830186610789565b6108116020830185610789565b61081e60408301846107c5565b949350505050565b600060408201905061083b6000830185610789565b6108486020830184610798565b9392505050565b60006040820190506108646000830185610789565b61087160208301846107c5565b9392505050565b600060808201905061088d6000830187610789565b61089a60208301866107c5565b6108a76040830185610789565b6108b460608301846107a7565b95945050505050565b60006080820190506108d26000830187610789565b6108df60208301866107c5565b6108ec60408301856107b6565b6108f96060830184610789565b95945050505050565b600060a0820190506109176000830188610789565b61092460208301876107c5565b61093160408301866107b6565b61093e60608301856107a7565b61094b6080830184610789565b9695505050505050565b600060208201905061096a60008301846107c5565b92915050565b600061097b8261099c565b9050919050565b60008115159050919050565b600061ffff82169050919050565b600073ffffffffffffffffffffffffffffffffffffffff82169050919050565b6000819050919050565b60006109d18261098e565b9050919050565b60006109e3826109bc565b9050919050565b6109f381610982565b81146109fe57600080fd5b50565b610a0a816109bc565b8114610a1557600080fd5b5056fea2646970667358221220f66963fca505a282c1727d06c9df591b814026ed89725ca8ac8077f11534894364736f6c63430008040033",
  "immutableReferences": {},
  "source": "// SPDX-License-Identifier: MIT\r\npragma solidity ^0.8;\r\n\r\n\r\nimport \"./interfaces/IERC20.sol\";\r\nimport \"./interfaces/Aave.sol\";\r\nimport \"./interfaces/swapImplementation.sol\";\r\n\r\n// Updated for Polygon\r\n\r\ncontract AaveTerminal {\r\n    /*\r\n         .-.\r\n        (o o) boo!\r\n        | O \\\r\n        \\   \\\r\n        `~~~'\r\n    */\r\n    ILendingPool aaveLender = ILendingPool(0x8dFf5E27EA6b7AC08EbFdf9eB090F32ee9a30fcf);\r\n\r\n    address public constant DAI = 0x8f3Cf7ad23Cd3CaDbD9735AFf958023239c6A063;\r\n\r\n    function depositMoney(uint256 _amount, uint256 _borrowME) public {\r\n        IERC20(DAI).transferFrom(msg.sender, address(this), _amount);\r\n        IERC20(DAI).approve(address(aaveLender), _amount);\r\n        deposit(DAI, _amount);\r\n        aaveLender.setUserUseReserveAsCollateral(DAI, true);\r\n        borrow(DAI,_borrowME);\r\n    }\r\n\r\n    function repayDebts(uint256 _amount) public returns (uint256){\r\n        IERC20(DAI).transferFrom(msg.sender, address(this), _amount);\r\n        IERC20(DAI).approve(address(aaveLender), _amount);      \r\n        uint256 amountRepayed = repay(DAI, _amount);\r\n        return amountRepayed;\r\n    }\r\n\r\n    /*\r\n        Internal Wrapper functions for dealing with Aave directly\r\n    */\r\n    function deposit(\r\n        address _asset, \r\n        uint256 _amount\r\n    ) internal {\r\n        //aaveLender.setUserUseReserveAsCollateral(_asset, true);\r\n        aaveLender.deposit(_asset, _amount, address(this), 0);\r\n    }\r\n\r\n    function withdraw(\r\n        address _asset,\r\n        uint256 _amount\r\n    ) internal returns (uint256){\r\n        uint256 amountReturned = aaveLender.withdraw(_asset, _amount, address(this));\r\n    }\r\n\r\n    function borrow(\r\n        address _asset,\r\n        uint256 _amount\r\n    ) internal {\r\n        aaveLender.borrow(_asset, _amount, 2, 0, address(this));\r\n    }\r\n\r\n    function repay(\r\n        address _asset,\r\n        uint256 _amount\r\n    ) internal returns (uint256){\r\n        uint256 amountRepayed = aaveLender.repay(_asset, _amount, 2, address(this));\r\n        return amountRepayed;\r\n    }\r\n}",
  "sourcePath": "/home/chinmay/ethonline/fin/Phantasm-v1/truffle-Phantasm/contracts/AaveTerminal.sol",
  "compiler": {
    "name": "solc",
    "version": "0.8.4+commit.c7e474f2.Emscripten.clang"
  },
  "schemaVersion": "3.4.3",
  "updatedAt": "2021-10-09T21:11:27.289Z",
  "devdoc": {
    "kind": "dev",
    "methods": {},
    "version": 1
  },
  "userdoc": {
    "kind": "user",
    "methods": {},
    "version": 1
  }
}