{
  "contractName": "AaveLoan",
  "abi": [
    {
      "inputs": [
        {
          "internalType": "address",
          "name": "_assetAddress",
          "type": "address"
        },
        {
          "internalType": "uint256",
          "name": "_amount",
          "type": "uint256"
        }
      ],
      "name": "depositAsset",
      "outputs": [],
      "stateMutability": "nonpayable",
      "type": "function"
    },
    {
      "inputs": [
        {
          "internalType": "address",
          "name": "_assetAddress",
          "type": "address"
        },
        {
          "internalType": "uint256",
          "name": "_amount",
          "type": "uint256"
        }
      ],
      "name": "getLoan",
      "outputs": [],
      "stateMutability": "nonpayable",
      "type": "function"
    }
  ],
  "bytecode": "0x608060405234801561001057600080fd5b506104c2806100206000396000f3fe608060405234801561001057600080fd5b50600436106100365760003560e01c806346a5d0431461003b578063a1c5158614610057575b600080fd5b6100556004803603810190610050919061026b565b610073565b005b610071600480360381019061006c919061026b565b61019f565b005b8173ffffffffffffffffffffffffffffffffffffffff1663095ea7b373c6845a5c768bf8d7681249f8927877efda425baf836040518363ffffffff1660e01b81526004016100c292919061030c565b602060405180830381600087803b1580156100dc57600080fd5b505af11580156100f0573d6000803e3d6000fd5b505050506040513d601f19601f8201168201806040525081019061011491906102a7565b5073c6845a5c768bf8d7681249f8927877efda425baf73ffffffffffffffffffffffffffffffffffffffff1663e8eda9df83833060006040518563ffffffff1660e01b81526004016101699493929190610335565b600060405180830381600087803b15801561018357600080fd5b505af1158015610197573d6000803e3d6000fd5b505050505050565b73c6845a5c768bf8d7681249f8927877efda425baf73ffffffffffffffffffffffffffffffffffffffff1663a415bcad838360016000306040518663ffffffff1660e01b81526004016101f695949392919061037a565b600060405180830381600087803b15801561021057600080fd5b505af1158015610224573d6000803e3d6000fd5b505050505050565b60008135905061023b81610447565b92915050565b6000815190506102508161045e565b92915050565b60008135905061026581610475565b92915050565b6000806040838503121561027e57600080fd5b600061028c8582860161022c565b925050602061029d85828601610256565b9150509250929050565b6000602082840312156102b957600080fd5b60006102c784828501610241565b91505092915050565b6102d9816103cd565b82525050565b6102e881610423565b82525050565b6102f781610435565b82525050565b61030681610419565b82525050565b600060408201905061032160008301856102d0565b61032e60208301846102fd565b9392505050565b600060808201905061034a60008301876102d0565b61035760208301866102fd565b61036460408301856102d0565b61037160608301846102df565b95945050505050565b600060a08201905061038f60008301886102d0565b61039c60208301876102fd565b6103a960408301866102ee565b6103b660608301856102df565b6103c360808301846102d0565b9695505050505050565b60006103d8826103f9565b9050919050565b60008115159050919050565b600061ffff82169050919050565b600073ffffffffffffffffffffffffffffffffffffffff82169050919050565b6000819050919050565b600061042e826103eb565b9050919050565b600061044082610419565b9050919050565b610450816103cd565b811461045b57600080fd5b50565b610467816103df565b811461047257600080fd5b50565b61047e81610419565b811461048957600080fd5b5056fea264697066735822122041948ff835a078031d2c6971c47db40b2c25964ce448d483a261f1c341c7eccd64736f6c63430008040033",
  "immutableReferences": {},
  "source": "// SPDX-License-Identifier: MIT\npragma solidity ^0.8;\n\nimport \"./interfaces/IERC20.sol\";\nimport \"./interfaces/SushiSwap.sol\";\nimport \"./interfaces/Aave.sol\";\n\ncontract AaveLoan {\n    address private constant Aave = 0xC6845a5C768BF8D7681249f8927877Efda425baf;\n\n    function depositAsset(address _assetAddress, uint256 _amount) public {\n        // Should really be  aone time thing\n        IERC20(_assetAddress).approve(Aave, _amount);\n\n        ILendingPool(Aave).deposit(_assetAddress, _amount, address(this), 0);\n    }\n\n    function getLoan(address _assetAddress, uint256 _amount) public {\n        /*\n      TODO get actual interface\n      borrow(address asset, uint256 amount, uint256 interestRateMode, uint16 referralCode, address onBehalfOf)\n      TODO fix amount\n    */\n        // Borrow at a stable interst rate\n        ILendingPool(Aave).borrow(_assetAddress, _amount, 1, 0, address(this));\n    }\n}\n",
  "sourcePath": "B:\\Nebula Labs\\Phantasm\\contracts\\AaveLoan.sol",
  "compiler": {
    "name": "solc",
    "version": "0.8.4+commit.c7e474f2.Emscripten.clang"
  },
  "schemaVersion": "3.4.2",
  "updatedAt": "2021-09-11T03:58:34.409Z",
  "devdoc": {
    "kind": "dev",
    "methods": {},
    "version": 1
  },
  "userdoc": {
    "kind": "user",
    "methods": {},
    "version": 1
  }
}