{
  "contractName": "AaveImplementation",
  "abi": [
    {
      "inputs": [],
      "name": "DAI",
      "outputs": [
        {
          "internalType": "address",
          "name": "",
          "type": "address"
        }
      ],
      "stateMutability": "view",
      "type": "function",
      "constant": true
    },
    {
      "inputs": [
        {
          "internalType": "address",
          "name": "_asset",
          "type": "address"
        },
        {
          "internalType": "address",
          "name": "_swapper",
          "type": "address"
        },
        {
          "internalType": "uint256",
          "name": "_initialCollateralAmount",
          "type": "uint256"
        },
        {
          "internalType": "uint256",
          "name": "_initialBorrowAmount",
          "type": "uint256"
        },
        {
          "internalType": "uint256",
          "name": "_borrowFactor",
          "type": "uint256"
        }
      ],
      "name": "leverageLong",
      "outputs": [
        {
          "internalType": "uint256",
          "name": "",
          "type": "uint256"
        },
        {
          "internalType": "uint256",
          "name": "",
          "type": "uint256"
        }
      ],
      "stateMutability": "nonpayable",
      "type": "function"
    },
    {
      "inputs": [
        {
          "internalType": "address",
          "name": "_asset",
          "type": "address"
        },
        {
          "internalType": "address",
          "name": "_swapper",
          "type": "address"
        },
        {
          "internalType": "uint256",
          "name": "_initialCollateralAmount",
          "type": "uint256"
        },
        {
          "internalType": "uint256",
          "name": "_initialBorrowAmount",
          "type": "uint256"
        },
        {
          "internalType": "uint256",
          "name": "_borrowFactor",
          "type": "uint256"
        }
      ],
      "name": "leverageShort",
      "outputs": [
        {
          "internalType": "uint256",
          "name": "",
          "type": "uint256"
        },
        {
          "internalType": "uint256",
          "name": "",
          "type": "uint256"
        }
      ],
      "stateMutability": "nonpayable",
      "type": "function"
    },
    {
      "inputs": [
        {
          "internalType": "address",
          "name": "_debtAsset",
          "type": "address"
        },
        {
          "internalType": "address",
          "name": "_asset",
          "type": "address"
        },
        {
          "internalType": "address",
          "name": "_swapper",
          "type": "address"
        },
        {
          "internalType": "uint256",
          "name": "_debtOwed",
          "type": "uint256"
        },
        {
          "internalType": "uint256",
          "name": "_totalCollateral",
          "type": "uint256"
        }
      ],
      "name": "closePosition",
      "outputs": [],
      "stateMutability": "nonpayable",
      "type": "function"
    }
  ],
  "bytecode": "0x6080604052738dff5e27ea6b7ac08ebfdf9eb090f32ee9a30fcf6000806101000a81548173ffffffffffffffffffffffffffffffffffffffff021916908373ffffffffffffffffffffffffffffffffffffffff16021790555034801561006457600080fd5b5061156e806100746000396000f3fe608060405234801561001057600080fd5b506004361061004c5760003560e01c806327887ae41461005157806330802ff714610082578063526597941461009e578063e0bab4c4146100cf575b600080fd5b61006b60048036038101906100669190610f88565b6100ed565b6040516100799291906112b6565b60405180910390f35b61009c60048036038101906100979190610f11565b610592565b005b6100b860048036038101906100b39190610f88565b61077f565b6040516100c69291906112b6565b60405180910390f35b6100d7610bfa565b6040516100e491906110ab565b60405180910390f35b600080738f3cf7ad23cd3cadbd9735aff958023239c6a06373ffffffffffffffffffffffffffffffffffffffff166323b872dd3330886040518463ffffffff1660e01b8152600401610141939291906110c6565b602060405180830381600087803b15801561015b57600080fd5b505af115801561016f573d6000803e3d6000fd5b505050506040513d601f19601f820116820180604052508101906101939190610fff565b50738f3cf7ad23cd3cadbd9735aff958023239c6a06373ffffffffffffffffffffffffffffffffffffffff1663095ea7b360008054906101000a900473ffffffffffffffffffffffffffffffffffffffff16876040518363ffffffff1660e01b8152600401610203929190611179565b602060405180830381600087803b15801561021d57600080fd5b505af1158015610231573d6000803e3d6000fd5b505050506040513d601f19601f820116820180604052508101906102559190610fff565b50610274738f3cf7ad23cd3cadbd9735aff958023239c6a06386610c12565b60008054906101000a900473ffffffffffffffffffffffffffffffffffffffff1673ffffffffffffffffffffffffffffffffffffffff16635a3b74b9738f3cf7ad23cd3cadbd9735aff958023239c6a06360016040518363ffffffff1660e01b81526004016102e4929190611150565b600060405180830381600087803b1580156102fe57600080fd5b505af1158015610312573d6000803e3d6000fd5b5050505060008490506000808790506000606487856103319190611366565b61033b9190611335565b90506103478b82610ca8565b808361035391906112df565b92508a73ffffffffffffffffffffffffffffffffffffffff1663095ea7b38b836040518363ffffffff1660e01b8152600401610390929190611179565b602060405180830381600087803b1580156103aa57600080fd5b505af11580156103be573d6000803e3d6000fd5b505050506040513d601f19601f820116820180604052508101906103e29190610fff565b5060008a73ffffffffffffffffffffffffffffffffffffffff1663d5bcb9b58d738f3cf7ad23cd3cadbd9735aff958023239c6a063856001306040518663ffffffff1660e01b815260040161043b9594939291906110fd565b602060405180830381600087803b15801561045557600080fd5b505af1158015610469573d6000803e3d6000fd5b505050506040513d601f19601f8201168201806040525081019061048d9190611028565b9050738f3cf7ad23cd3cadbd9735aff958023239c6a06373ffffffffffffffffffffffffffffffffffffffff1663095ea7b360008054906101000a900473ffffffffffffffffffffffffffffffffffffffff16836040518363ffffffff1660e01b81526004016104fe929190611179565b602060405180830381600087803b15801561051857600080fd5b505af115801561052c573d6000803e3d6000fd5b505050506040513d601f19601f820116820180604052508101906105509190610fff565b5061056f738f3cf7ad23cd3cadbd9735aff958023239c6a06382610c12565b808361057b91906112df565b925083839650965050505050509550959350505050565b8473ffffffffffffffffffffffffffffffffffffffff166323b872dd3330856040518463ffffffff1660e01b81526004016105cf939291906110c6565b602060405180830381600087803b1580156105e957600080fd5b505af11580156105fd573d6000803e3d6000fd5b505050506040513d601f19601f820116820180604052508101906106219190610fff565b508473ffffffffffffffffffffffffffffffffffffffff1663095ea7b360008054906101000a900473ffffffffffffffffffffffffffffffffffffffff16846040518363ffffffff1660e01b815260040161067d929190611179565b602060405180830381600087803b15801561069757600080fd5b505af11580156106ab573d6000803e3d6000fd5b505050506040513d601f19601f820116820180604052508101906106cf9190610fff565b506106da8583610d41565b5060006106e78583610e02565b90508473ffffffffffffffffffffffffffffffffffffffff1663a9059cbb33846040518363ffffffff1660e01b8152600401610724929190611179565b602060405180830381600087803b15801561073e57600080fd5b505af1158015610752573d6000803e3d6000fd5b505050506040513d601f19601f820116820180604052508101906107769190610fff565b50505050505050565b6000808673ffffffffffffffffffffffffffffffffffffffff166323b872dd3330886040518463ffffffff1660e01b81526004016107bf939291906110c6565b602060405180830381600087803b1580156107d957600080fd5b505af11580156107ed573d6000803e3d6000fd5b505050506040513d601f19601f820116820180604052508101906108119190610fff565b508673ffffffffffffffffffffffffffffffffffffffff1663095ea7b360008054906101000a900473ffffffffffffffffffffffffffffffffffffffff16876040518363ffffffff1660e01b815260040161086d929190611179565b602060405180830381600087803b15801561088757600080fd5b505af115801561089b573d6000803e3d6000fd5b505050506040513d601f19601f820116820180604052508101906108bf9190610fff565b506108ca8786610c12565b60008054906101000a900473ffffffffffffffffffffffffffffffffffffffff1673ffffffffffffffffffffffffffffffffffffffff16635a3b74b98860016040518363ffffffff1660e01b8152600401610926929190611150565b600060405180830381600087803b15801561094057600080fd5b505af1158015610954573d6000803e3d6000fd5b50505050600085905060008087905060005b6003811015610be65760006064888661097f9190611366565b6109899190611335565b90506109a9738f3cf7ad23cd3cadbd9735aff958023239c6a06382610ca8565b80846109b591906112df565b9350738f3cf7ad23cd3cadbd9735aff958023239c6a06373ffffffffffffffffffffffffffffffffffffffff1663095ea7b38c836040518363ffffffff1660e01b8152600401610a06929190611179565b602060405180830381600087803b158015610a2057600080fd5b505af1158015610a34573d6000803e3d6000fd5b505050506040513d601f19601f82011682018060405250810190610a589190610fff565b5060008b73ffffffffffffffffffffffffffffffffffffffff1663d5bcb9b5738f3cf7ad23cd3cadbd9735aff958023239c6a0638f856001306040518663ffffffff1660e01b8152600401610ab19594939291906110fd565b602060405180830381600087803b158015610acb57600080fd5b505af1158015610adf573d6000803e3d6000fd5b505050506040513d601f19601f82011682018060405250810190610b039190611028565b905060008190508d73ffffffffffffffffffffffffffffffffffffffff1663095ea7b360008054906101000a900473ffffffffffffffffffffffffffffffffffffffff16846040518363ffffffff1660e01b8152600401610b65929190611179565b602060405180830381600087803b158015610b7f57600080fd5b505af1158015610b93573d6000803e3d6000fd5b505050506040513d601f19601f82011682018060405250810190610bb79190610fff565b50610bc28e83610c12565b8185610bce91906112df565b94505050508080610bde9061144c565b915050610966565b508181945094505050509550959350505050565b738f3cf7ad23cd3cadbd9735aff958023239c6a06381565b60008054906101000a900473ffffffffffffffffffffffffffffffffffffffff1673ffffffffffffffffffffffffffffffffffffffff1663e8eda9df83833060006040518563ffffffff1660e01b8152600401610c7294939291906111d9565b600060405180830381600087803b158015610c8c57600080fd5b505af1158015610ca0573d6000803e3d6000fd5b505050505050565b60008054906101000a900473ffffffffffffffffffffffffffffffffffffffff1673ffffffffffffffffffffffffffffffffffffffff1663a415bcad838360026000306040518663ffffffff1660e01b8152600401610d0b959493929190611263565b600060405180830381600087803b158015610d2557600080fd5b505af1158015610d39573d6000803e3d6000fd5b505050505050565b60008060008054906101000a900473ffffffffffffffffffffffffffffffffffffffff1673ffffffffffffffffffffffffffffffffffffffff1663573ade8185856002306040518563ffffffff1660e01b8152600401610da4949392919061121e565b602060405180830381600087803b158015610dbe57600080fd5b505af1158015610dd2573d6000803e3d6000fd5b505050506040513d601f19601f82011682018060405250810190610df69190611028565b90508091505092915050565b60008060008054906101000a900473ffffffffffffffffffffffffffffffffffffffff1673ffffffffffffffffffffffffffffffffffffffff166369328dec8585306040518463ffffffff1660e01b8152600401610e62939291906111a2565b602060405180830381600087803b158015610e7c57600080fd5b505af1158015610e90573d6000803e3d6000fd5b505050506040513d601f19601f82011682018060405250810190610eb49190611028565b90505092915050565b600081359050610ecc816114f3565b92915050565b600081519050610ee18161150a565b92915050565b600081359050610ef681611521565b92915050565b600081519050610f0b81611521565b92915050565b600080600080600060a08688031215610f2957600080fd5b6000610f3788828901610ebd565b9550506020610f4888828901610ebd565b9450506040610f5988828901610ebd565b9350506060610f6a88828901610ee7565b9250506080610f7b88828901610ee7565b9150509295509295909350565b600080600080600060a08688031215610fa057600080fd5b6000610fae88828901610ebd565b9550506020610fbf88828901610ebd565b9450506040610fd088828901610ee7565b9350506060610fe188828901610ee7565b9250506080610ff288828901610ee7565b9150509295509295909350565b60006020828403121561101157600080fd5b600061101f84828501610ed2565b91505092915050565b60006020828403121561103a57600080fd5b600061104884828501610efc565b91505092915050565b61105a816113c0565b82525050565b611069816113d2565b82525050565b61107881611416565b82525050565b61108781611428565b82525050565b6110968161143a565b82525050565b6110a58161140c565b82525050565b60006020820190506110c06000830184611051565b92915050565b60006060820190506110db6000830186611051565b6110e86020830185611051565b6110f5604083018461109c565b949350505050565b600060a0820190506111126000830188611051565b61111f6020830187611051565b61112c604083018661109c565b611139606083018561107e565b6111466080830184611051565b9695505050505050565b60006040820190506111656000830185611051565b6111726020830184611060565b9392505050565b600060408201905061118e6000830185611051565b61119b602083018461109c565b9392505050565b60006060820190506111b76000830186611051565b6111c4602083018561109c565b6111d16040830184611051565b949350505050565b60006080820190506111ee6000830187611051565b6111fb602083018661109c565b6112086040830185611051565b611215606083018461106f565b95945050505050565b60006080820190506112336000830187611051565b611240602083018661109c565b61124d604083018561108d565b61125a6060830184611051565b95945050505050565b600060a0820190506112786000830188611051565b611285602083018761109c565b611292604083018661108d565b61129f606083018561106f565b6112ac6080830184611051565b9695505050505050565b60006040820190506112cb600083018561109c565b6112d8602083018461109c565b9392505050565b60006112ea8261140c565b91506112f58361140c565b9250827fffffffffffffffffffffffffffffffffffffffffffffffffffffffffffffffff0382111561132a57611329611495565b5b828201905092915050565b60006113408261140c565b915061134b8361140c565b92508261135b5761135a6114c4565b5b828204905092915050565b60006113718261140c565b915061137c8361140c565b9250817fffffffffffffffffffffffffffffffffffffffffffffffffffffffffffffffff04831182151516156113b5576113b4611495565b5b828202905092915050565b60006113cb826113ec565b9050919050565b60008115159050919050565b600061ffff82169050919050565b600073ffffffffffffffffffffffffffffffffffffffff82169050919050565b6000819050919050565b6000611421826113de565b9050919050565b60006114338261140c565b9050919050565b60006114458261140c565b9050919050565b60006114578261140c565b91507fffffffffffffffffffffffffffffffffffffffffffffffffffffffffffffffff82141561148a57611489611495565b5b600182019050919050565b7f4e487b7100000000000000000000000000000000000000000000000000000000600052601160045260246000fd5b7f4e487b7100000000000000000000000000000000000000000000000000000000600052601260045260246000fd5b6114fc816113c0565b811461150757600080fd5b50565b611513816113d2565b811461151e57600080fd5b50565b61152a8161140c565b811461153557600080fd5b5056fea2646970667358221220877dbe42c22d3cf4576d41f9ce623ab751e8ae4443899639a9e99b1c25d4312a64736f6c63430008040033",
  "immutableReferences": {},
  "source": "// SPDX-License-Identifier: MIT\npragma solidity ^0.8;\n\n\nimport \"./interfaces/IERC20.sol\";\nimport \"./interfaces/Aave.sol\";\nimport \"./interfaces/swapImplementation.sol\";\n\n// Updated for Polygon\n\ncontract AaveImplementation {\n    /*\n         .-.\n        (o o) boo!\n        | O \\\n        \\   \\\n        `~~~'\n    */\n    ILendingPool aaveLender = ILendingPool(0x8dFf5E27EA6b7AC08EbFdf9eB090F32ee9a30fcf);\n\n    address public constant DAI = 0x8f3Cf7ad23Cd3CaDbD9735AFf958023239c6A063;\n\n    function leverageLong(address _asset, address _swapper, uint256 _initialCollateralAmount, uint256 _initialBorrowAmount, uint256 _borrowFactor) external returns (uint256, uint256) {\n        \n        IERC20(_asset).transferFrom(msg.sender, address(this), _initialCollateralAmount);\n        IERC20(_asset).approve(address(aaveLender), _initialCollateralAmount);\n        deposit(_asset, _initialCollateralAmount);\n\n        aaveLender.setUserUseReserveAsCollateral(_asset, true);\n        uint256 nextBorrow = _initialCollateralAmount;\n        uint256 totalBorrow;\n        uint256 totalCollateral = _initialCollateralAmount;\n        // After 3 loops law of diminishing returns really kills you\n        for(uint i = 0; i < 3; i++){\n            uint borrowAmount = (nextBorrow * _borrowFactor) / 100;\n            borrow(DAI, borrowAmount);\n\n            totalBorrow += borrowAmount;\n            // (address _tokenIn, address _tokenOut, uint _amountIn, uint _amountOutMin, address _to\n            IERC20(DAI).approve(_swapper, borrowAmount);\n            uint256 tokensBought = swapImplementation(_swapper).swap(DAI, _asset,borrowAmount, 1, address(this));\n\n            uint256 nextBorrow = tokensBought;\n            // Re-approving each deposit sucks, but is signficiantly safer\n            IERC20(_asset).approve(address(aaveLender), tokensBought);\n            deposit(_asset, tokensBought);\n            totalCollateral += tokensBought;\n        }\n        return (totalBorrow, totalCollateral);\n        \n    }\n    function uint2str(uint _i) internal pure returns (string memory _uintAsString) {\n            if (_i == 0) {\n                return \"0\";\n            }\n            uint j = _i;\n            uint len;\n            while (j != 0) {\n                len++;\n                j /= 10;\n            }\n            bytes memory bstr = new bytes(len);\n            uint k = len;\n            while (_i != 0) {\n                k = k-1;\n                uint8 temp = (48 + uint8(_i - _i / 10 * 10));\n                bytes1 b1 = bytes1(temp);\n                bstr[k] = b1;\n                _i /= 10;\n            }\n            return string(bstr);\n        }\n    function leverageShort(address _asset, address _swapper, uint256 _initialCollateralAmount, uint256 _initialBorrowAmount, uint256 _borrowFactor) external returns (uint256, uint256) {\n        IERC20(DAI).transferFrom(msg.sender, address(this), _initialCollateralAmount);\n        IERC20(DAI).approve(address(aaveLender), _initialCollateralAmount);\n        deposit(DAI, _initialCollateralAmount);\n        aaveLender.setUserUseReserveAsCollateral(DAI, true);\n        uint256 nextBorrow = _initialBorrowAmount;\n        uint256 totalBorrow;\n        uint256 totalCollateral = _initialCollateralAmount;\n        // Highly leveraged shorts breaks a lot of things, so I've limited it for now\n        uint borrowAmount = (nextBorrow * _borrowFactor) / 100;\n        borrow(_asset, borrowAmount);\n        totalBorrow += borrowAmount;\n        // (address _tokenIn, address _tokenOut, uint _amountIn, uint _amountOutMin, address _to\n        IERC20(_asset).approve(_swapper, borrowAmount);\n        uint256 tokensBought = swapImplementation(_swapper).swap(_asset,DAI,borrowAmount, 1, address(this));\n        IERC20(DAI).approve(address(aaveLender), tokensBought);\n        deposit(DAI, tokensBought);\n        totalCollateral += tokensBought;\n    \n        return (totalBorrow, totalCollateral);\n        \n    }\n    \n    function closePosition(address _debtAsset, address _asset, address _swapper, uint256 _debtOwed, uint256 _totalCollateral) public {\n        IERC20(_debtAsset).transferFrom(msg.sender, address(this), _debtOwed);\n        IERC20(_debtAsset).approve(address(aaveLender), _debtOwed);\n        repay(_debtAsset, _debtOwed);\n        // Now with no debt, withdraw collateral\n        uint256 amountWithdrawn = withdraw(_asset, _totalCollateral);\n        IERC20(_asset).transfer(msg.sender, _totalCollateral);\n    }\n\n    /*\n        Internal Wrapper functions for dealing with Aave directly\n    */\n    function deposit(\n        address _asset, \n        uint256 _amount\n    ) internal {\n        //aaveLender.setUserUseReserveAsCollateral(_asset, true);\n        aaveLender.deposit(_asset, _amount, address(this), 0);\n    }\n\n    function withdraw(\n        address _asset,\n        uint256 _amount\n    ) internal returns (uint256){\n        uint256 amountReturned = aaveLender.withdraw(_asset, _amount, address(this));\n    }\n\n    function borrow(\n        address _asset,\n        uint256 _amount\n    ) internal {\n        aaveLender.borrow(_asset, _amount, 2, 0, address(this));\n    }\n\n    function repay(\n        address _asset,\n        uint256 _amount\n    ) internal returns (uint256){\n        uint256 amountRepayed = aaveLender.repay(_asset, _amount, 2, address(this));\n        return amountRepayed;\n    }\n}\n",
  "sourcePath": "/home/chinmay/ethonline/fin/Phantasm-v1/truffle-Phantasm/contracts/Aave.sol",
  "compiler": {
    "name": "solc",
    "version": "0.8.4+commit.c7e474f2.Emscripten.clang"
  },
  "schemaVersion": "3.4.3",
  "updatedAt": "2021-10-10T10:16:58.483Z",
  "networkType": "ethereum",
  "devdoc": {
    "kind": "dev",
    "methods": {},
    "version": 1
  },
  "userdoc": {
    "kind": "user",
    "methods": {},
    "version": 1
  }
}