{
  "contractName": "EEIntegration",
  "abi": [
    {
      "inputs": [
        {
          "internalType": "address",
          "name": "_phantasmManager",
          "type": "address"
        }
      ],
      "stateMutability": "nonpayable",
      "type": "constructor"
    },
    {
      "inputs": [],
      "name": "dai",
      "outputs": [
        {
          "internalType": "contract IERC20",
          "name": "",
          "type": "address"
        }
      ],
      "stateMutability": "view",
      "type": "function",
      "constant": true
    },
    {
      "inputs": [],
      "name": "daiViaAavePool",
      "outputs": [
        {
          "internalType": "contract DInterest",
          "name": "",
          "type": "address"
        }
      ],
      "stateMutability": "view",
      "type": "function",
      "constant": true
    },
    {
      "inputs": [
        {
          "internalType": "address",
          "name": "",
          "type": "address"
        },
        {
          "internalType": "address",
          "name": "",
          "type": "address"
        },
        {
          "internalType": "uint256",
          "name": "",
          "type": "uint256"
        }
      ],
      "name": "myFundingIDs",
      "outputs": [
        {
          "internalType": "uint64",
          "name": "",
          "type": "uint64"
        }
      ],
      "stateMutability": "view",
      "type": "function",
      "constant": true
    },
    {
      "inputs": [
        {
          "internalType": "address",
          "name": "",
          "type": "address"
        },
        {
          "internalType": "address",
          "name": "",
          "type": "address"
        },
        {
          "internalType": "uint256[]",
          "name": "",
          "type": "uint256[]"
        },
        {
          "internalType": "uint256[]",
          "name": "",
          "type": "uint256[]"
        },
        {
          "internalType": "bytes",
          "name": "",
          "type": "bytes"
        }
      ],
      "name": "onERC1155BatchReceived",
      "outputs": [
        {
          "internalType": "bytes4",
          "name": "",
          "type": "bytes4"
        }
      ],
      "stateMutability": "nonpayable",
      "type": "function"
    },
    {
      "inputs": [
        {
          "internalType": "address",
          "name": "",
          "type": "address"
        },
        {
          "internalType": "address",
          "name": "",
          "type": "address"
        },
        {
          "internalType": "uint256",
          "name": "",
          "type": "uint256"
        },
        {
          "internalType": "uint256",
          "name": "",
          "type": "uint256"
        },
        {
          "internalType": "bytes",
          "name": "",
          "type": "bytes"
        }
      ],
      "name": "onERC1155Received",
      "outputs": [
        {
          "internalType": "bytes4",
          "name": "",
          "type": "bytes4"
        }
      ],
      "stateMutability": "nonpayable",
      "type": "function"
    },
    {
      "inputs": [
        {
          "internalType": "bytes4",
          "name": "interfaceId",
          "type": "bytes4"
        }
      ],
      "name": "supportsInterface",
      "outputs": [
        {
          "internalType": "bool",
          "name": "",
          "type": "bool"
        }
      ],
      "stateMutability": "view",
      "type": "function",
      "constant": true
    },
    {
      "inputs": [
        {
          "internalType": "address",
          "name": "_token",
          "type": "address"
        },
        {
          "internalType": "uint256",
          "name": "_amount",
          "type": "uint256"
        }
      ],
      "name": "findAndBuyYieldTokens",
      "outputs": [
        {
          "internalType": "uint256",
          "name": "_amountSpent",
          "type": "uint256"
        }
      ],
      "stateMutability": "nonpayable",
      "type": "function"
    },
    {
      "inputs": [
        {
          "internalType": "address",
          "name": "_token",
          "type": "address"
        }
      ],
      "name": "collectAllInterest",
      "outputs": [
        {
          "internalType": "uint256",
          "name": "_amountCollected",
          "type": "uint256"
        }
      ],
      "stateMutability": "nonpayable",
      "type": "function"
    },
    {
      "inputs": [
        {
          "internalType": "address",
          "name": "_token",
          "type": "address"
        }
      ],
      "name": "getUserInsuredAmount",
      "outputs": [
        {
          "internalType": "uint256",
          "name": "_totalAmountInsured",
          "type": "uint256"
        }
      ],
      "stateMutability": "view",
      "type": "function",
      "constant": true
    },
    {
      "inputs": [
        {
          "internalType": "address",
          "name": "_token",
          "type": "address"
        },
        {
          "internalType": "uint256",
          "name": "_amountIn",
          "type": "uint256"
        }
      ],
      "name": "getTotalYTInBudget",
      "outputs": [
        {
          "internalType": "uint256",
          "name": "_insuranceAvailable",
          "type": "uint256"
        }
      ],
      "stateMutability": "view",
      "type": "function",
      "constant": true
    },
    {
      "inputs": [
        {
          "internalType": "address",
          "name": "_assetPool",
          "type": "address"
        },
        {
          "internalType": "uint256",
          "name": "_stableInAmount",
          "type": "uint256"
        },
        {
          "internalType": "uint64",
          "name": "_maturationTimestamp",
          "type": "uint64"
        }
      ],
      "name": "makeDeposit",
      "outputs": [
        {
          "internalType": "uint64",
          "name": "depositID",
          "type": "uint64"
        },
        {
          "internalType": "uint256",
          "name": "interestAmount",
          "type": "uint256"
        }
      ],
      "stateMutability": "nonpayable",
      "type": "function"
    },
    {
      "inputs": [
        {
          "internalType": "address",
          "name": "_assetPool",
          "type": "address"
        },
        {
          "internalType": "uint64",
          "name": "_depositId",
          "type": "uint64"
        },
        {
          "internalType": "uint256",
          "name": "_stableInAmount",
          "type": "uint256"
        }
      ],
      "name": "buyYieldTokens",
      "outputs": [
        {
          "internalType": "uint64",
          "name": "_fundingID",
          "type": "uint64"
        },
        {
          "internalType": "uint256",
          "name": "fundingMultitokensMinted",
          "type": "uint256"
        },
        {
          "internalType": "uint256",
          "name": "actualFundAmount",
          "type": "uint256"
        },
        {
          "internalType": "uint256",
          "name": "principalFunded",
          "type": "uint256"
        }
      ],
      "stateMutability": "nonpayable",
      "type": "function"
    },
    {
      "inputs": [
        {
          "internalType": "address",
          "name": "_assetPool",
          "type": "address"
        },
        {
          "internalType": "uint64",
          "name": "_fundingID",
          "type": "uint64"
        }
      ],
      "name": "collectInterest",
      "outputs": [
        {
          "internalType": "uint256",
          "name": "",
          "type": "uint256"
        }
      ],
      "stateMutability": "nonpayable",
      "type": "function"
    },
    {
      "inputs": [
        {
          "internalType": "address",
          "name": "_assetPool",
          "type": "address"
        },
        {
          "internalType": "uint64",
          "name": "_fundingID",
          "type": "uint64"
        }
      ],
      "name": "getInsuredAmount",
      "outputs": [
        {
          "internalType": "uint256",
          "name": "",
          "type": "uint256"
        }
      ],
      "stateMutability": "view",
      "type": "function",
      "constant": true
    },
    {
      "inputs": [
        {
          "internalType": "address",
          "name": "_assetPool",
          "type": "address"
        },
        {
          "internalType": "uint64",
          "name": "_depositID",
          "type": "uint64"
        }
      ],
      "name": "getYTPriceFromDeposit",
      "outputs": [
        {
          "internalType": "uint256",
          "name": "",
          "type": "uint256"
        }
      ],
      "stateMutability": "view",
      "type": "function",
      "constant": true
    }
  ],
  "bytecode": "0x6080604052738f3cf7ad23cd3cadbd9735aff958023239c6a0636000806101000a81548173ffffffffffffffffffffffffffffffffffffffff021916908373ffffffffffffffffffffffffffffffffffffffff1602179055507318a68f81e2e4f2a23604e9b067bf3fa1118b1990600160006101000a81548173ffffffffffffffffffffffffffffffffffffffff021916908373ffffffffffffffffffffffffffffffffffffffff160217905550348015620000ba57600080fd5b5060405162002f2538038062002f258339818101604052810190620000e091906200013f565b80600260006101000a81548173ffffffffffffffffffffffffffffffffffffffff021916908373ffffffffffffffffffffffffffffffffffffffff16021790555050620001b9565b60008151905062000139816200019f565b92915050565b6000602082840312156200015257600080fd5b6000620001628482850162000128565b91505092915050565b600062000178826200017f565b9050919050565b600073ffffffffffffffffffffffffffffffffffffffff82169050919050565b620001aa816200016b565b8114620001b657600080fd5b50565b612d5c80620001c96000396000f3fe608060405234801561001057600080fd5b50600436106100f55760003560e01c80639de71e9311610097578063bc197c8111610066578063bc197c81146102fc578063d78fd6021461032c578063f23a6e611461035c578063f4b9fa751461038c576100f5565b80639de71e931461024e578063a450bffe1461026c578063b04f18851461029c578063b3e7f565146102cc576100f5565b80635e6be7b2116100d35780635e6be7b21461018b57806370bbba1d146101bb57806381a96daa146101eb578063844b8b9a1461021b576100f5565b806301ffc9a7146100fa578063262c13a01461012a578063342579fe1461015a575b600080fd5b610114600480360381019061010f9190612569565b6103aa565b6040516101219190612761565b60405180910390f35b610144600480360381019061013f9190612264565b610424565b60405161015191906127ed565b60405180910390f35b610174600480360381019061016f9190612466565b6108e3565b60405161018292919061284c565b60405180910390f35b6101a560048036038101906101a0919061234c565b610a2c565b6040516101b29190612831565b60405180910390f35b6101d560048036038101906101d0919061242a565b610a86565b6040516101e291906127ed565b60405180910390f35b61020560048036038101906102009190612264565b61107c565b60405161021291906127ed565b60405180910390f35b610235600480360381019061023091906124f1565b6115eb565b6040516102459493929190612875565b60405180910390f35b61025661173d565b6040516102639190612797565b60405180910390f35b610286600480360381019061028191906124b5565b611763565b60405161029391906127ed565b60405180910390f35b6102b660048036038101906102b191906124b5565b61193d565b6040516102c391906127ed565b60405180910390f35b6102e660048036038101906102e1919061242a565b6119d7565b6040516102f391906127ed565b60405180910390f35b6103166004803603810190610311919061228d565b611e74565b604051610323919061277c565b60405180910390f35b610346600480360381019061034191906124b5565b611e89565b60405161035391906127ed565b60405180910390f35b6103766004803603810190610371919061239b565b611f20565b604051610383919061277c565b60405180910390f35b610394611f35565b6040516103a191906127b2565b60405180910390f35b60007f4e2312e0000000000000000000000000000000000000000000000000000000007bffffffffffffffffffffffffffffffffffffffffffffffffffffffff1916827bffffffffffffffffffffffffffffffffffffffffffffffffffffffff1916148061041d575061041c82611f59565b5b9050919050565b6000806000905060008054906101000a900473ffffffffffffffffffffffffffffffffffffffff1673ffffffffffffffffffffffffffffffffffffffff168373ffffffffffffffffffffffffffffffffffffffff1614156108da576060600167ffffffffffffffff8111156104c2577f4e487b7100000000000000000000000000000000000000000000000000000000600052604160045260246000fd5b6040519080825280602002602001820160405280156104f05781602001602082028036833780820191505090505b509050600160009054906101000a900473ffffffffffffffffffffffffffffffffffffffff1681600081518110610550577f4e487b7100000000000000000000000000000000000000000000000000000000600052603260045260246000fd5b602002602001019073ffffffffffffffffffffffffffffffffffffffff16908173ffffffffffffffffffffffffffffffffffffffff168152505060005b81518110156108d7576000600360008484815181106105d5577f4e487b7100000000000000000000000000000000000000000000000000000000600052603260045260246000fd5b602002602001015173ffffffffffffffffffffffffffffffffffffffff1673ffffffffffffffffffffffffffffffffffffffff16815260200190815260200160002060003373ffffffffffffffffffffffffffffffffffffffff1673ffffffffffffffffffffffffffffffffffffffff16815260200190815260200160002080549050146108c45760005b6003600084848151811061069d577f4e487b7100000000000000000000000000000000000000000000000000000000600052603260045260246000fd5b602002602001015173ffffffffffffffffffffffffffffffffffffffff1673ffffffffffffffffffffffffffffffffffffffff16815260200190815260200160002060003373ffffffffffffffffffffffffffffffffffffffff1673ffffffffffffffffffffffffffffffffffffffff168152602001908152602001600020805490508167ffffffffffffffff1610156108c2576108a283838151811061076d577f4e487b7100000000000000000000000000000000000000000000000000000000600052603260045260246000fd5b6020026020010151600360008686815181106107b2577f4e487b7100000000000000000000000000000000000000000000000000000000600052603260045260246000fd5b602002602001015173ffffffffffffffffffffffffffffffffffffffff1673ffffffffffffffffffffffffffffffffffffffff16815260200190815260200160002060003373ffffffffffffffffffffffffffffffffffffffff1673ffffffffffffffffffffffffffffffffffffffff1681526020019081526020016000208367ffffffffffffffff1681548110610873577f4e487b7100000000000000000000000000000000000000000000000000000000600052603260045260246000fd5b90600052602060002090600491828204019190066008029054906101000a900467ffffffffffffffff16611e89565b846108ad919061294d565b935080806108ba90612bbb565b915050610660565b505b80806108cf90612b72565b91505061058d565b50505b80915050919050565b60008060008054906101000a900473ffffffffffffffffffffffffffffffffffffffff1673ffffffffffffffffffffffffffffffffffffffff1663095ea7b386866040518363ffffffff1660e01b8152600401610941929190612738565b602060405180830381600087803b15801561095b57600080fd5b505af115801561096f573d6000803e3d6000fd5b505050506040513d601f19601f820116820180604052508101906109939190612540565b508473ffffffffffffffffffffffffffffffffffffffff16637d552ea685856040518363ffffffff1660e01b81526004016109cf929190612808565b6040805180830381600087803b1580156109e857600080fd5b505af11580156109fc573d6000803e3d6000fd5b505050506040513d601f19601f82011682018060405250810190610a20919061260d565b91509150935093915050565b60036020528260005260406000206020528160005260406000208181548110610a5457600080fd5b906000526020600020906004918282040191900660080292509250509054906101000a900467ffffffffffffffff1681565b60008082905060008054906101000a900473ffffffffffffffffffffffffffffffffffffffff1673ffffffffffffffffffffffffffffffffffffffff168473ffffffffffffffffffffffffffffffffffffffff161415611023576060600167ffffffffffffffff811115610b23577f4e487b7100000000000000000000000000000000000000000000000000000000600052604160045260246000fd5b604051908082528060200260200182016040528015610b515781602001602082028036833780820191505090505b509050600160009054906101000a900473ffffffffffffffffffffffffffffffffffffffff1681600081518110610bb1577f4e487b7100000000000000000000000000000000000000000000000000000000600052603260045260246000fd5b602002602001019073ffffffffffffffffffffffffffffffffffffffff16908173ffffffffffffffffffffffffffffffffffffffff168152505060005b8151811015611020576000828281518110610c32577f4e487b7100000000000000000000000000000000000000000000000000000000600052603260045260246000fd5b602002602001015173ffffffffffffffffffffffffffffffffffffffff1663f154240a6040518163ffffffff1660e01b815260040160206040518083038186803b158015610c7f57600080fd5b505afa158015610c93573d6000803e3d6000fd5b505050506040513d601f19601f82011682018060405250810190610cb791906125e4565b1461100d576000600190505b828281518110610cfc577f4e487b7100000000000000000000000000000000000000000000000000000000600052603260045260246000fd5b602002602001015173ffffffffffffffffffffffffffffffffffffffff1663f154240a6040518163ffffffff1660e01b815260040160206040518083038186803b158015610d4957600080fd5b505afa158015610d5d573d6000803e3d6000fd5b505050506040513d601f19601f82011682018060405250810190610d8191906125e4565b8167ffffffffffffffff161161100b576000838381518110610dcc577f4e487b7100000000000000000000000000000000000000000000000000000000600052603260045260246000fd5b602002602001015173ffffffffffffffffffffffffffffffffffffffff1663ae59a6b2836040518263ffffffff1660e01b8152600401610e0c9190612831565b60c06040518083038186803b158015610e2457600080fd5b505afa158015610e38573d6000803e3d6000fd5b505050506040513d601f19601f82011682018060405250810190610e5c9190612592565b60a0015167ffffffffffffffff16148015610e775750600084115b15610ff857600080600080610ecd878781518110610ebe577f4e487b7100000000000000000000000000000000000000000000000000000000600052603260045260246000fd5b6020026020010151868a6115eb565b93509350935093508188610ee19190612a2e565b975060036000888881518110610f20577f4e487b7100000000000000000000000000000000000000000000000000000000600052603260045260246000fd5b602002602001015173ffffffffffffffffffffffffffffffffffffffff1673ffffffffffffffffffffffffffffffffffffffff16815260200190815260200160002060003373ffffffffffffffffffffffffffffffffffffffff1673ffffffffffffffffffffffffffffffffffffffff1681526020019081526020016000208490806001815401808255809150506001900390600052602060002090600491828204019190066008029091909190916101000a81548167ffffffffffffffff021916908367ffffffffffffffff160217905550505050505b808061100390612bbb565b915050610cc3565b505b808061101890612b72565b915050610bee565b50505b6000811015611067576040517f08c379a000000000000000000000000000000000000000000000000000000000815260040161105e906127cd565b60405180910390fd5b80836110739190612a2e565b91505092915050565b6000806000905060008054906101000a900473ffffffffffffffffffffffffffffffffffffffff1673ffffffffffffffffffffffffffffffffffffffff168373ffffffffffffffffffffffffffffffffffffffff161415611532576060600167ffffffffffffffff81111561111a577f4e487b7100000000000000000000000000000000000000000000000000000000600052604160045260246000fd5b6040519080825280602002602001820160405280156111485781602001602082028036833780820191505090505b509050600160009054906101000a900473ffffffffffffffffffffffffffffffffffffffff16816000815181106111a8577f4e487b7100000000000000000000000000000000000000000000000000000000600052603260045260246000fd5b602002602001019073ffffffffffffffffffffffffffffffffffffffff16908173ffffffffffffffffffffffffffffffffffffffff168152505060005b815181101561152f5760006003600084848151811061122d577f4e487b7100000000000000000000000000000000000000000000000000000000600052603260045260246000fd5b602002602001015173ffffffffffffffffffffffffffffffffffffffff1673ffffffffffffffffffffffffffffffffffffffff16815260200190815260200160002060003373ffffffffffffffffffffffffffffffffffffffff1673ffffffffffffffffffffffffffffffffffffffff168152602001908152602001600020805490501461151c5760005b600360008484815181106112f5577f4e487b7100000000000000000000000000000000000000000000000000000000600052603260045260246000fd5b602002602001015173ffffffffffffffffffffffffffffffffffffffff1673ffffffffffffffffffffffffffffffffffffffff16815260200190815260200160002060003373ffffffffffffffffffffffffffffffffffffffff1673ffffffffffffffffffffffffffffffffffffffff168152602001908152602001600020805490508167ffffffffffffffff16101561151a576114fa8383815181106113c5577f4e487b7100000000000000000000000000000000000000000000000000000000600052603260045260246000fd5b60200260200101516003600086868151811061140a577f4e487b7100000000000000000000000000000000000000000000000000000000600052603260045260246000fd5b602002602001015173ffffffffffffffffffffffffffffffffffffffff1673ffffffffffffffffffffffffffffffffffffffff16815260200190815260200160002060003373ffffffffffffffffffffffffffffffffffffffff1673ffffffffffffffffffffffffffffffffffffffff1681526020019081526020016000208367ffffffffffffffff16815481106114cb577f4e487b7100000000000000000000000000000000000000000000000000000000600052603260045260246000fd5b90600052602060002090600491828204019190066008029054906101000a900467ffffffffffffffff1661193d565b84611505919061294d565b9350808061151290612bbb565b9150506112b8565b505b808061152790612b72565b9150506111e5565b50505b8273ffffffffffffffffffffffffffffffffffffffff1663a9059cbb600260009054906101000a900473ffffffffffffffffffffffffffffffffffffffff16836040518363ffffffff1660e01b815260040161158f929190612738565b602060405180830381600087803b1580156115a957600080fd5b505af11580156115bd573d6000803e3d6000fd5b505050506040513d601f19601f820116820180604052508101906115e19190612540565b5080915050919050565b60008060008060008054906101000a900473ffffffffffffffffffffffffffffffffffffffff1673ffffffffffffffffffffffffffffffffffffffff1663095ea7b388876040518363ffffffff1660e01b815260040161164c929190612738565b602060405180830381600087803b15801561166657600080fd5b505af115801561167a573d6000803e3d6000fd5b505050506040513d601f19601f8201168201806040525081019061169e9190612540565b508673ffffffffffffffffffffffffffffffffffffffff16635c53ba2687876040518363ffffffff1660e01b81526004016116da92919061284c565b608060405180830381600087803b1580156116f457600080fd5b505af1158015611708573d6000803e3d6000fd5b505050506040513d601f19601f8201168201806040525081019061172c9190612649565b935093509350935093509350935093565b600160009054906101000a900473ffffffffffffffffffffffffffffffffffffffff1681565b60008273ffffffffffffffffffffffffffffffffffffffff1663ae59a6b2836040518263ffffffff1660e01b815260040161179e9190612831565b60c06040518083038186803b1580156117b657600080fd5b505afa1580156117ca573d6000803e3d6000fd5b505050506040513d601f19601f820116820180604052508101906117ee9190612592565b60000151428473ffffffffffffffffffffffffffffffffffffffff1663ae59a6b2856040518263ffffffff1660e01b815260040161182c9190612831565b60c06040518083038186803b15801561184457600080fd5b505afa158015611858573d6000803e3d6000fd5b505050506040513d601f19601f8201168201806040525081019061187c9190612592565b6080015167ffffffffffffffff168573ffffffffffffffffffffffffffffffffffffffff1663ae59a6b2866040518263ffffffff1660e01b81526004016118c39190612831565b60c06040518083038186803b1580156118db57600080fd5b505afa1580156118ef573d6000803e3d6000fd5b505050506040513d601f19601f820116820180604052508101906119139190612592565b6020015161192191906129a3565b61192b9190612a2e565b61193591906129d4565b905092915050565b6000808373ffffffffffffffffffffffffffffffffffffffff16639530d77e846040518263ffffffff1660e01b81526004016119799190612831565b602060405180830381600087803b15801561199357600080fd5b505af11580156119a7573d6000803e3d6000fd5b505050506040513d601f19601f820116820180604052508101906119cb91906125e4565b90508091505092915050565b60008060009050600083905060008054906101000a900473ffffffffffffffffffffffffffffffffffffffff1673ffffffffffffffffffffffffffffffffffffffff168573ffffffffffffffffffffffffffffffffffffffff161415611e69576060600167ffffffffffffffff811115611a7a577f4e487b7100000000000000000000000000000000000000000000000000000000600052604160045260246000fd5b604051908082528060200260200182016040528015611aa85781602001602082028036833780820191505090505b509050600160009054906101000a900473ffffffffffffffffffffffffffffffffffffffff1681600081518110611b08577f4e487b7100000000000000000000000000000000000000000000000000000000600052603260045260246000fd5b602002602001019073ffffffffffffffffffffffffffffffffffffffff16908173ffffffffffffffffffffffffffffffffffffffff168152505060005b8151811015611e66576000828281518110611b89577f4e487b7100000000000000000000000000000000000000000000000000000000600052603260045260246000fd5b602002602001015173ffffffffffffffffffffffffffffffffffffffff1663f154240a6040518163ffffffff1660e01b815260040160206040518083038186803b158015611bd657600080fd5b505afa158015611bea573d6000803e3d6000fd5b505050506040513d601f19601f82011682018060405250810190611c0e91906125e4565b14611e53576000600190505b828281518110611c53577f4e487b7100000000000000000000000000000000000000000000000000000000600052603260045260246000fd5b602002602001015173ffffffffffffffffffffffffffffffffffffffff1663f154240a6040518163ffffffff1660e01b815260040160206040518083038186803b158015611ca057600080fd5b505afa158015611cb4573d6000803e3d6000fd5b505050506040513d601f19601f82011682018060405250810190611cd891906125e4565b8167ffffffffffffffff1611611e51576000611d34848481518110611d26577f4e487b7100000000000000000000000000000000000000000000000000000000600052603260045260246000fd5b602002602001015183611763565b90508085118015611e1b57506000848481518110611d7b577f4e487b7100000000000000000000000000000000000000000000000000000000600052603260045260246000fd5b602002602001015173ffffffffffffffffffffffffffffffffffffffff1663ae59a6b2846040518263ffffffff1660e01b8152600401611dbb9190612831565b60c06040518083038186803b158015611dd357600080fd5b505afa158015611de7573d6000803e3d6000fd5b505050506040513d601f19601f82011682018060405250810190611e0b9190612592565b60a0015167ffffffffffffffff16145b15611e3d578085611e2c9190612a2e565b94508086611e3a919061294d565b95505b508080611e4990612bbb565b915050611c1a565b505b8080611e5e90612b72565b915050611b45565b50505b819250505092915050565b600063bc197c8160e01b905095945050505050565b60008273ffffffffffffffffffffffffffffffffffffffff166386b8f9f1836040518263ffffffff1660e01b8152600401611ec49190612831565b60806040518083038186803b158015611edc57600080fd5b505afa158015611ef0573d6000803e3d6000fd5b505050506040513d601f19601f82011682018060405250810190611f1491906125bb565b60600151905092915050565b600063f23a6e6160e01b905095945050505050565b60008054906101000a900473ffffffffffffffffffffffffffffffffffffffff1681565b60007f01ffc9a7000000000000000000000000000000000000000000000000000000007bffffffffffffffffffffffffffffffffffffffffffffffffffffffff1916827bffffffffffffffffffffffffffffffffffffffffffffffffffffffff1916149050919050565b6000611fd6611fd1846128df565b6128ba565b90508083825260208201905082856020860282011115611ff557600080fd5b60005b85811015612025578161200b8882612210565b845260208401935060208301925050600181019050611ff8565b5050509392505050565b600061204261203d8461290b565b6128ba565b90508281526020810184848401111561205a57600080fd5b612065848285612b32565b509392505050565b60008135905061207c81612cb3565b92915050565b600082601f83011261209357600080fd5b81356120a3848260208601611fc3565b91505092915050565b6000815190506120bb81612cca565b92915050565b6000813590506120d081612ce1565b92915050565b600082601f8301126120e757600080fd5b81356120f784826020860161202f565b91505092915050565b600060c0828403121561211257600080fd5b61211c60c06128ba565b9050600061212c84828501612225565b600083015250602061214084828501612225565b602083015250604061215484828501612225565b604083015250606061216884828501612225565b606083015250608061217c8482850161224f565b60808301525060a06121908482850161224f565b60a08301525092915050565b6000608082840312156121ae57600080fd5b6121b860806128ba565b905060006121c88482850161224f565b60008301525060206121dc8482850161224f565b60208301525060406121f084828501612225565b604083015250606061220484828501612225565b60608301525092915050565b60008135905061221f81612cf8565b92915050565b60008151905061223481612cf8565b92915050565b60008135905061224981612d0f565b92915050565b60008151905061225e81612d0f565b92915050565b60006020828403121561227657600080fd5b60006122848482850161206d565b91505092915050565b600080600080600060a086880312156122a557600080fd5b60006122b38882890161206d565b95505060206122c48882890161206d565b945050604086013567ffffffffffffffff8111156122e157600080fd5b6122ed88828901612082565b935050606086013567ffffffffffffffff81111561230a57600080fd5b61231688828901612082565b925050608086013567ffffffffffffffff81111561233357600080fd5b61233f888289016120d6565b9150509295509295909350565b60008060006060848603121561236157600080fd5b600061236f8682870161206d565b93505060206123808682870161206d565b925050604061239186828701612210565b9150509250925092565b600080600080600060a086880312156123b357600080fd5b60006123c18882890161206d565b95505060206123d28882890161206d565b94505060406123e388828901612210565b93505060606123f488828901612210565b925050608086013567ffffffffffffffff81111561241157600080fd5b61241d888289016120d6565b9150509295509295909350565b6000806040838503121561243d57600080fd5b600061244b8582860161206d565b925050602061245c85828601612210565b9150509250929050565b60008060006060848603121561247b57600080fd5b60006124898682870161206d565b935050602061249a86828701612210565b92505060406124ab8682870161223a565b9150509250925092565b600080604083850312156124c857600080fd5b60006124d68582860161206d565b92505060206124e78582860161223a565b9150509250929050565b60008060006060848603121561250657600080fd5b60006125148682870161206d565b93505060206125258682870161223a565b925050604061253686828701612210565b9150509250925092565b60006020828403121561255257600080fd5b6000612560848285016120ac565b91505092915050565b60006020828403121561257b57600080fd5b6000612589848285016120c1565b91505092915050565b600060c082840312156125a457600080fd5b60006125b284828501612100565b91505092915050565b6000608082840312156125cd57600080fd5b60006125db8482850161219c565b91505092915050565b6000602082840312156125f657600080fd5b600061260484828501612225565b91505092915050565b6000806040838503121561262057600080fd5b600061262e8582860161224f565b925050602061263f85828601612225565b9150509250929050565b6000806000806080858703121561265f57600080fd5b600061266d8782880161224f565b945050602061267e87828801612225565b935050604061268f87828801612225565b92505060606126a087828801612225565b91505092959194509250565b6126b581612a62565b82525050565b6126c481612a74565b82525050565b6126d381612a80565b82525050565b6126e281612aea565b82525050565b6126f181612b0e565b82525050565b600061270460188361293c565b915061270f82612c8a565b602082019050919050565b61272381612acc565b82525050565b61273281612ad6565b82525050565b600060408201905061274d60008301856126ac565b61275a602083018461271a565b9392505050565b600060208201905061277660008301846126bb565b92915050565b600060208201905061279160008301846126ca565b92915050565b60006020820190506127ac60008301846126d9565b92915050565b60006020820190506127c760008301846126e8565b92915050565b600060208201905081810360008301526127e6816126f7565b9050919050565b6000602082019050612802600083018461271a565b92915050565b600060408201905061281d600083018561271a565b61282a6020830184612729565b9392505050565b60006020820190506128466000830184612729565b92915050565b60006040820190506128616000830185612729565b61286e602083018461271a565b9392505050565b600060808201905061288a6000830187612729565b612897602083018661271a565b6128a4604083018561271a565b6128b1606083018461271a565b95945050505050565b60006128c46128d5565b90506128d08282612b41565b919050565b6000604051905090565b600067ffffffffffffffff8211156128fa576128f9612c4a565b5b602082029050602081019050919050565b600067ffffffffffffffff82111561292657612925612c4a565b5b61292f82612c79565b9050602081019050919050565b600082825260208201905092915050565b600061295882612acc565b915061296383612acc565b9250827fffffffffffffffffffffffffffffffffffffffffffffffffffffffffffffffff0382111561299857612997612bec565b5b828201905092915050565b60006129ae82612acc565b91506129b983612acc565b9250826129c9576129c8612c1b565b5b828204905092915050565b60006129df82612acc565b91506129ea83612acc565b9250817fffffffffffffffffffffffffffffffffffffffffffffffffffffffffffffffff0483118215151615612a2357612a22612bec565b5b828202905092915050565b6000612a3982612acc565b9150612a4483612acc565b925082821015612a5757612a56612bec565b5b828203905092915050565b6000612a6d82612aac565b9050919050565b60008115159050919050565b60007fffffffff0000000000000000000000000000000000000000000000000000000082169050919050565b600073ffffffffffffffffffffffffffffffffffffffff82169050919050565b6000819050919050565b600067ffffffffffffffff82169050919050565b6000612af582612afc565b9050919050565b6000612b0782612aac565b9050919050565b6000612b1982612b20565b9050919050565b6000612b2b82612aac565b9050919050565b82818337600083830152505050565b612b4a82612c79565b810181811067ffffffffffffffff82111715612b6957612b68612c4a565b5b80604052505050565b6000612b7d82612acc565b91507fffffffffffffffffffffffffffffffffffffffffffffffffffffffffffffffff821415612bb057612baf612bec565b5b600182019050919050565b6000612bc682612ad6565b915067ffffffffffffffff821415612be157612be0612bec565b5b600182019050919050565b7f4e487b7100000000000000000000000000000000000000000000000000000000600052601160045260246000fd5b7f4e487b7100000000000000000000000000000000000000000000000000000000600052601260045260246000fd5b7f4e487b7100000000000000000000000000000000000000000000000000000000600052604160045260246000fd5b6000601f19601f8301169050919050565b7f5370656e74206d6f7265207468616e2074616b656e20696e0000000000000000600082015250565b612cbc81612a62565b8114612cc757600080fd5b50565b612cd381612a74565b8114612cde57600080fd5b50565b612cea81612a80565b8114612cf557600080fd5b50565b612d0181612acc565b8114612d0c57600080fd5b50565b612d1881612ad6565b8114612d2357600080fd5b5056fea26469706673582212202dd8fa5b329e15084176c0a395bdf51a4f707b47a432b54c86aade7f06a1a41864736f6c63430008040033",
  "immutableReferences": {},
  "source": "// SPDX-License-Identifier: MIT\r\npragma solidity ^0.8;\r\n\r\n// Updated for Polygon\r\n\r\nimport '@openzeppelin/contracts/token/ERC20/IERC20.sol';\r\nimport './interfaces/IDInterest.sol';\r\nimport \"@openzeppelin/contracts/token/ERC1155/utils/ERC1155Holder.sol\";\r\ncontract EEIntegration is ERC1155Holder {\r\n\r\n    IERC20 public dai = IERC20(0x8f3Cf7ad23Cd3CaDbD9735AFf958023239c6A063);\r\n    DInterest public daiViaAavePool = DInterest(0x18a68F81E2E4f2A23604e9b067bf3fa1118B1990);\r\n    address PhantasmManager;\r\n\r\n    mapping (address => mapping (address => uint64[])) public myFundingIDs; // Pool Address => User Address => Funding Id\r\n\r\n    constructor(address _phantasmManager) {\r\n        PhantasmManager = _phantasmManager; \r\n    }\r\n    function findAndBuyYieldTokens(address _token, uint256 _amount) public returns (uint256 _amountSpent) {\r\n        uint256 amountLeft = _amount;\r\n        if (_token == address(dai)) {\r\n            DInterest[] memory daiPools;\r\n            daiPools = new DInterest[](1);\r\n            daiPools[0] = daiViaAavePool;\r\n\r\n            for (uint256 i = 0; i < daiPools.length; i++) {\r\n                if (daiPools[i].depositsLength() != 0) {\r\n                    for (uint64 j = 1; j <= daiPools[i].depositsLength(); j++) {\r\n                        if (daiPools[i].getDeposit(j).fundingID == 0 && amountLeft > 0) {\r\n                            (uint64 fundingID, uint256 fundingMultitokensMinted, uint256 actualFundAmount, uint256 principalFunded) = buyYieldTokens(address(daiPools[i]), j, amountLeft);\r\n                            amountLeft = amountLeft - actualFundAmount;\r\n                            myFundingIDs[address(daiPools[i])][msg.sender].push(fundingID);\r\n                        }\r\n                    }\r\n                }\r\n            }\r\n        }\r\n        require(amountLeft >= 0, \"Spent more than taken in\");\r\n        return _amount - amountLeft;\r\n    }\r\n\r\n    function collectAllInterest(address _token) public returns (uint256 _amountCollected) {\r\n        uint256 amountCollected = 0;\r\n        if (_token == address(dai)) {\r\n            DInterest[] memory daiPools;\r\n            daiPools = new DInterest[](1);\r\n            daiPools[0] = daiViaAavePool;\r\n            \r\n            for (uint256 i = 0; i < daiPools.length; i++) {\r\n                if (myFundingIDs[address(daiPools[i])][msg.sender].length != 0) {\r\n                    for (uint64 j = 0; j < myFundingIDs[address(daiPools[i])][msg.sender].length; j++) {\r\n                        amountCollected = amountCollected + collectInterest(address(daiPools[i]), myFundingIDs[address(daiPools[i])][msg.sender][j]);\r\n                    }\r\n                }\r\n            }\r\n        }\r\n        // Works because _token is DAI, but IIRC interest is accured in the actual asset, not DAI\r\n        IERC20(_token).transfer(PhantasmManager, amountCollected);\r\n        return amountCollected;\r\n    }\r\n\r\n    // Returns The Total Amount the User is Insured for (or earning yield on)\r\n    function getUserInsuredAmount (address _token) public view returns (uint256 _totalAmountInsured) {\r\n        uint256 insuredAmount = 0;\r\n        if (_token == address(dai)) {\r\n            DInterest[] memory daiPools;\r\n            daiPools = new DInterest[](1);\r\n            daiPools[0] = daiViaAavePool;\r\n\r\n            for (uint256 i = 0; i < daiPools.length; i++) {\r\n                if (myFundingIDs[address(daiPools[i])][msg.sender].length != 0) {\r\n                    for (uint64 j = 0; j < myFundingIDs[address(daiPools[i])][msg.sender].length; j++) {\r\n                        insuredAmount = insuredAmount + getInsuredAmount(address(daiPools[i]), myFundingIDs[address(daiPools[i])][msg.sender][j]);\r\n                    }\r\n                }\r\n            }\r\n        }\r\n        return insuredAmount;\r\n    }\r\n\r\n    // NEEDS TO BE REVISED => thisYTPrice should be the *Price* to buy the yield tokens => not the total amount of Yield Tokens\r\n    function getTotalYTInBudget (address _token, uint256 _amountIn) public view returns (uint256 _insuranceAvailable) {\r\n        uint256 insuranceAvailable = 0;\r\n        uint256 amountLeft = _amountIn;\r\n        if (_token == address(dai)) {\r\n            DInterest[] memory daiPools;\r\n            daiPools = new DInterest[](1);\r\n            daiPools[0] = daiViaAavePool;\r\n\r\n            for (uint256 i = 0; i < daiPools.length; i++) {\r\n                if (daiPools[i].depositsLength() != 0) {\r\n                    for (uint64 j = 1; j <= daiPools[i].depositsLength(); j++) {\r\n                        uint256 thisYTPrice = getYTPriceFromDeposit(address(daiPools[i]), j);\r\n                        if (amountLeft > thisYTPrice && daiPools[i].getDeposit(j).fundingID == 0) {\r\n                            amountLeft = amountLeft - thisYTPrice;\r\n                            insuranceAvailable = insuranceAvailable + thisYTPrice;\r\n                        }\r\n                    }\r\n                }\r\n            }\r\n        }\r\n        return insuranceAvailable;\r\n    }\r\n\r\n    /*\r\n       \r\n       \r\n      \r\n    */\r\n    \r\n    function makeDeposit (address _assetPool, uint256 _stableInAmount, uint64 _maturationTimestamp) public returns (uint64 depositID, uint256 interestAmount) {\r\n        dai.approve(_assetPool, _stableInAmount);\r\n        return DInterest(_assetPool).deposit(_stableInAmount, _maturationTimestamp);\r\n    }\r\n\r\n    function buyYieldTokens (address _assetPool, uint64 _depositId, uint256 _stableInAmount) public returns (uint64 _fundingID, uint256 fundingMultitokensMinted, uint256 actualFundAmount, uint256 principalFunded) {\r\n        dai.approve(_assetPool, _stableInAmount);\r\n        return DInterest(_assetPool).fund(_depositId, _stableInAmount);\r\n    }\r\n\r\n    // Collect Interest for a given fundingID\r\n    function collectInterest(address _assetPool, uint64 _fundingID) public returns (uint256){\r\n        uint256 interestCollected = DInterest(_assetPool).payInterestToFunders(_fundingID);\r\n        return interestCollected;\r\n    }\r\n\r\n    // Amount of stablecoins that's earning interest for you per funding token you own. Scaled to 18 decimals regardless of stablecoin decimals.\r\n    function getInsuredAmount (address _assetPool, uint64 _fundingID) public view returns (uint256) {\r\n        return DInterest(_assetPool).getFunding(_fundingID).principalPerToken;\r\n    }\r\n\r\n    function getYTPriceFromDeposit(address _assetPool, uint64 _depositID) public view returns (uint256) {\r\n        return (DInterest(_assetPool).getDeposit(_depositID).interestRate / DInterest(_assetPool).getDeposit(_depositID).maturationTimestamp - block.timestamp) * DInterest(_assetPool).getDeposit(_depositID).virtualTokenTotalSupply;\r\n    }\r\n}\r\n",
  "sourcePath": "/home/chinmay/ethonline/fin/Phantasm-v1/truffle-Phantasm/contracts/EEIntegration.sol",
  "compiler": {
    "name": "solc",
    "version": "0.8.4+commit.c7e474f2.Emscripten.clang"
  },
  "schemaVersion": "3.4.3",
  "updatedAt": "2021-10-09T21:11:48.389Z",
  "networkType": "ethereum",
  "devdoc": {
    "kind": "dev",
    "methods": {
      "supportsInterface(bytes4)": {
        "details": "See {IERC165-supportsInterface}."
      }
    },
    "version": 1
  },
  "userdoc": {
    "kind": "user",
    "methods": {},
    "version": 1
  }
}