{
  "contractName": "EEmph",
  "abi": [
    {
      "anonymous": false,
      "inputs": [
        {
          "indexed": false,
          "internalType": "uint256",
          "name": "",
          "type": "uint256"
        }
      ],
      "name": "tokensBought",
      "type": "event"
    },
    {
      "inputs": [
        {
          "internalType": "address",
          "name": "",
          "type": "address"
        },
        {
          "internalType": "address",
          "name": "",
          "type": "address"
        },
        {
          "internalType": "uint256[]",
          "name": "",
          "type": "uint256[]"
        },
        {
          "internalType": "uint256[]",
          "name": "",
          "type": "uint256[]"
        },
        {
          "internalType": "bytes",
          "name": "",
          "type": "bytes"
        }
      ],
      "name": "onERC1155BatchReceived",
      "outputs": [
        {
          "internalType": "bytes4",
          "name": "",
          "type": "bytes4"
        }
      ],
      "stateMutability": "nonpayable",
      "type": "function"
    },
    {
      "inputs": [
        {
          "internalType": "address",
          "name": "",
          "type": "address"
        },
        {
          "internalType": "address",
          "name": "",
          "type": "address"
        },
        {
          "internalType": "uint256",
          "name": "",
          "type": "uint256"
        },
        {
          "internalType": "uint256",
          "name": "",
          "type": "uint256"
        },
        {
          "internalType": "bytes",
          "name": "",
          "type": "bytes"
        }
      ],
      "name": "onERC1155Received",
      "outputs": [
        {
          "internalType": "bytes4",
          "name": "",
          "type": "bytes4"
        }
      ],
      "stateMutability": "nonpayable",
      "type": "function"
    },
    {
      "inputs": [
        {
          "internalType": "bytes4",
          "name": "interfaceId",
          "type": "bytes4"
        }
      ],
      "name": "supportsInterface",
      "outputs": [
        {
          "internalType": "bool",
          "name": "",
          "type": "bool"
        }
      ],
      "stateMutability": "view",
      "type": "function"
    },
    {
      "inputs": [
        {
          "internalType": "uint64",
          "name": "_fundingID",
          "type": "uint64"
        },
        {
          "internalType": "uint256",
          "name": "_amount",
          "type": "uint256"
        }
      ],
      "name": "buyDAITokens",
      "outputs": [
        {
          "internalType": "uint256",
          "name": "",
          "type": "uint256"
        }
      ],
      "stateMutability": "nonpayable",
      "type": "function"
    }
  ],
  "bytecode": "0x608060405234801561001057600080fd5b50610bd8806100206000396000f3fe608060405234801561001057600080fd5b506004361061004c5760003560e01c806301ffc9a71461005157806357449bf814610081578063bc197c81146100b1578063f23a6e61146100e1575b600080fd5b61006b600480360381019061006691906107e5565b610111565b6040516100789190610910565b60405180910390f35b61009b60048036038101906100969190610860565b61018b565b6040516100a89190610946565b60405180910390f35b6100cb60048036038101906100c6919061066e565b6103d5565b6040516100d8919061092b565b60405180910390f35b6100fb60048036038101906100f6919061072d565b6103ea565b604051610108919061092b565b60405180910390f35b60007f4e2312e0000000000000000000000000000000000000000000000000000000007bffffffffffffffffffffffffffffffffffffffffffffffffffffffff1916827bffffffffffffffffffffffffffffffffffffffffffffffffffffffff191614806101845750610183826103ff565b5b9050919050565b6000736b175474e89094c44da98b954eedeac495271d0f73ffffffffffffffffffffffffffffffffffffffff1663095ea7b37311b1c87983f881b3686f8b1171628357faa30038846040518363ffffffff1660e01b81526004016101f09291906108e7565b602060405180830381600087803b15801561020a57600080fd5b505af115801561021e573d6000803e3d6000fd5b505050506040513d601f19601f8201168201806040525081019061024291906107bc565b5060007311b1c87983f881b3686f8b1171628357faa3003873ffffffffffffffffffffffffffffffffffffffff16635c53ba2685856040518363ffffffff1660e01b815260040161029492919061097c565b602060405180830381600087803b1580156102ae57600080fd5b505af11580156102c2573d6000803e3d6000fd5b505050506040513d601f19601f820116820180604052508101906102e69190610837565b905060007311b1c87983f881b3686f8b1171628357faa3003873ffffffffffffffffffffffffffffffffffffffff166386b8f9f1836040518263ffffffff1660e01b81526004016103379190610961565b608060405180830381600087803b15801561035157600080fd5b505af1158015610365573d6000803e3d6000fd5b505050506040513d601f19601f82011682018060405250810190610389919061080e565b90507f921c4034570763e329dc15c75322eed0700160d428c21343e21757d678a5188e81606001516040516103be9190610946565b60405180910390a180606001519250505092915050565b600063bc197c8160e01b905095945050505050565b600063f23a6e6160e01b905095945050505050565b60007f01ffc9a7000000000000000000000000000000000000000000000000000000007bffffffffffffffffffffffffffffffffffffffffffffffffffffffff1916827bffffffffffffffffffffffffffffffffffffffffffffffffffffffff1916149050919050565b600061047c610477846109ca565b6109a5565b9050808382526020820190508285602086028201111561049b57600080fd5b60005b858110156104cb57816104b1888261061a565b84526020840193506020830192505060018101905061049e565b5050509392505050565b60006104e86104e3846109f6565b6109a5565b90508281526020810184848401111561050057600080fd5b61050b848285610aaf565b509392505050565b60008135905061052281610b2f565b92915050565b600082601f83011261053957600080fd5b8135610549848260208601610469565b91505092915050565b60008151905061056181610b46565b92915050565b60008135905061057681610b5d565b92915050565b600082601f83011261058d57600080fd5b813561059d8482602086016104d5565b91505092915050565b6000608082840312156105b857600080fd5b6105c260806109a5565b905060006105d284828501610659565b60008301525060206105e684828501610659565b60208301525060406105fa8482850161062f565b604083015250606061060e8482850161062f565b60608301525092915050565b60008135905061062981610b74565b92915050565b60008151905061063e81610b74565b92915050565b60008135905061065381610b8b565b92915050565b60008151905061066881610b8b565b92915050565b600080600080600060a0868803121561068657600080fd5b600061069488828901610513565b95505060206106a588828901610513565b945050604086013567ffffffffffffffff8111156106c257600080fd5b6106ce88828901610528565b935050606086013567ffffffffffffffff8111156106eb57600080fd5b6106f788828901610528565b925050608086013567ffffffffffffffff81111561071457600080fd5b6107208882890161057c565b9150509295509295909350565b600080600080600060a0868803121561074557600080fd5b600061075388828901610513565b955050602061076488828901610513565b94505060406107758882890161061a565b93505060606107868882890161061a565b925050608086013567ffffffffffffffff8111156107a357600080fd5b6107af8882890161057c565b9150509295509295909350565b6000602082840312156107ce57600080fd5b60006107dc84828501610552565b91505092915050565b6000602082840312156107f757600080fd5b600061080584828501610567565b91505092915050565b60006080828403121561082057600080fd5b600061082e848285016105a6565b91505092915050565b60006020828403121561084957600080fd5b600061085784828501610659565b91505092915050565b6000806040838503121561087357600080fd5b600061088185828601610644565b92505060206108928582860161061a565b9150509250929050565b6108a581610a27565b82525050565b6108b481610a39565b82525050565b6108c381610a45565b82525050565b6108d281610a91565b82525050565b6108e181610a9b565b82525050565b60006040820190506108fc600083018561089c565b61090960208301846108c9565b9392505050565b600060208201905061092560008301846108ab565b92915050565b600060208201905061094060008301846108ba565b92915050565b600060208201905061095b60008301846108c9565b92915050565b600060208201905061097660008301846108d8565b92915050565b600060408201905061099160008301856108d8565b61099e60208301846108c9565b9392505050565b60006109af6109c0565b90506109bb8282610abe565b919050565b6000604051905090565b600067ffffffffffffffff8211156109e5576109e4610aef565b5b602082029050602081019050919050565b600067ffffffffffffffff821115610a1157610a10610aef565b5b610a1a82610b1e565b9050602081019050919050565b6000610a3282610a71565b9050919050565b60008115159050919050565b60007fffffffff0000000000000000000000000000000000000000000000000000000082169050919050565b600073ffffffffffffffffffffffffffffffffffffffff82169050919050565b6000819050919050565b600067ffffffffffffffff82169050919050565b82818337600083830152505050565b610ac782610b1e565b810181811067ffffffffffffffff82111715610ae657610ae5610aef565b5b80604052505050565b7f4e487b7100000000000000000000000000000000000000000000000000000000600052604160045260246000fd5b6000601f19601f8301169050919050565b610b3881610a27565b8114610b4357600080fd5b50565b610b4f81610a39565b8114610b5a57600080fd5b50565b610b6681610a45565b8114610b7157600080fd5b50565b610b7d81610a91565b8114610b8857600080fd5b50565b610b9481610a9b565b8114610b9f57600080fd5b5056fea2646970667358221220bd69a22f084c750067b6f59dee495a859a49bc33f0d355f6e9ab81e4df63fb1c64736f6c63430008040033",
  "immutableReferences": {},
  "source": "// SPDX-License-Identifier: MIT\npragma solidity ^0.8;\nimport \"./interfaces/IERC20.sol\";\nimport \"@openzeppelin/contracts/token/ERC1155/utils/ERC1155Holder.sol\";\n\n\ninterface DInterest {\n    // fund(uint64 depositID, uint256 fundAmount)  uint64 fundingID\n    /*\n    @param depositID The deposit whose fixed-rate interest will be funded\n    @param fundAmount The amount of fixed-rate interest to fund. If it exceeds surplusOfDeposit(depositID), it will be set to the surplus value instead.\n    @param fundingID The ID of the fundingMultitoken the sender received\n    */\n    struct Funding {\n        uint64 depositID; // The ID of the associated Deposit struct.\n        uint64 lastInterestPayoutTimestamp; // Unix timestamp of the most recent interest payout, in seconds\n        uint256 recordedMoneyMarketIncomeIndex; // the income index at the last update (creation or withdrawal)\n        uint256 principalPerToken; // The amount of stablecoins that's earning interest for you per funding token you own. Scaled to 18 decimals regardless of stablecoin decimals.\n    }\n    function fund(uint64, uint256) external returns (uint64);\n    // Monitor deposit events to be emitted to scrape depositIDs\n\n    function getFunding(uint64) external returns (Funding memory);\n}\n\ninterface Phantasm {\n    function initiatePosition(uint256 _amount) external;\n}\n\ncontract EEmph is ERC1155Holder {\n    \n    event tokensBought(uint256);\n    function buyDAITokens(uint64 _fundingID, uint256 _amount) public returns (uint256) {\n        // Approve DInterest to spend all DAI\n        IERC20(0x6B175474E89094C44Da98b954EedeAC495271d0F).approve(0x11B1c87983F881B3686F8b1171628357FAA30038, _amount);\n        // The DAI compound pool\n        uint64 fundingID = DInterest(0x11B1c87983F881B3686F8b1171628357FAA30038).fund(_fundingID, _amount);\n\n        DInterest.Funding memory boughtTokens = DInterest(0x11B1c87983F881B3686F8b1171628357FAA30038).getFunding(fundingID);\n\n        emit tokensBought(boughtTokens.principalPerToken);\n        return boughtTokens.principalPerToken;\n    }\n}\n",
  "sourcePath": "B:\\Nebula Labs\\Phantasm\\contracts\\EEmph.sol",
  "compiler": {
    "name": "solc",
    "version": "0.8.4+commit.c7e474f2.Emscripten.clang"
  },
  "schemaVersion": "3.4.2",
  "updatedAt": "2021-09-24T05:06:01.786Z",
  "devdoc": {
    "kind": "dev",
    "methods": {
      "supportsInterface(bytes4)": {
        "details": "See {IERC165-supportsInterface}."
      }
    },
    "version": 1
  },
  "userdoc": {
    "kind": "user",
    "methods": {},
    "version": 1
  }
}