{
  "contractName": "lendingManager",
  "abi": [
    {
      "inputs": [],
      "stateMutability": "nonpayable",
      "type": "constructor"
    },
    {
      "anonymous": false,
      "inputs": [
        {
          "indexed": false,
          "internalType": "bool",
          "name": "sucess",
          "type": "bool"
        }
      ],
      "name": "approval",
      "type": "event"
    },
    {
      "inputs": [
        {
          "internalType": "address",
          "name": "_tokenIn",
          "type": "address"
        },
        {
          "internalType": "address",
          "name": "_tokenOut",
          "type": "address"
        },
        {
          "internalType": "uint256",
          "name": "_amountIn",
          "type": "uint256"
        },
        {
          "internalType": "address",
          "name": "_to",
          "type": "address"
        }
      ],
      "name": "robustSwap",
      "outputs": [],
      "stateMutability": "nonpayable",
      "type": "function"
    },
    {
      "inputs": [
        {
          "internalType": "address",
          "name": "_tokenIn",
          "type": "address"
        },
        {
          "internalType": "address",
          "name": "_tokenOut",
          "type": "address"
        },
        {
          "internalType": "uint256",
          "name": "_amountIn",
          "type": "uint256"
        }
      ],
      "name": "getAmountOutMin",
      "outputs": [
        {
          "internalType": "uint256",
          "name": "",
          "type": "uint256"
        }
      ],
      "stateMutability": "view",
      "type": "function"
    },
    {
      "inputs": [
        {
          "internalType": "address",
          "name": "_asset",
          "type": "address"
        },
        {
          "internalType": "uint256",
          "name": "_amount",
          "type": "uint256"
        }
      ],
      "name": "bridgeOn",
      "outputs": [],
      "stateMutability": "nonpayable",
      "type": "function"
    },
    {
      "inputs": [
        {
          "internalType": "address",
          "name": "_asset",
          "type": "address"
        },
        {
          "internalType": "uint256",
          "name": "_amount",
          "type": "uint256"
        },
        {
          "internalType": "uint256",
          "name": "_shares",
          "type": "uint256"
        }
      ],
      "name": "bridgeOff",
      "outputs": [],
      "stateMutability": "nonpayable",
      "type": "function"
    },
    {
      "inputs": [
        {
          "internalType": "address",
          "name": "_asset",
          "type": "address"
        },
        {
          "internalType": "uint256",
          "name": "_share",
          "type": "uint256"
        }
      ],
      "name": "toAmount",
      "outputs": [
        {
          "internalType": "uint256",
          "name": "",
          "type": "uint256"
        }
      ],
      "stateMutability": "view",
      "type": "function"
    },
    {
      "inputs": [
        {
          "internalType": "address",
          "name": "_asset",
          "type": "address"
        },
        {
          "internalType": "uint256",
          "name": "_amount",
          "type": "uint256"
        }
      ],
      "name": "toShare",
      "outputs": [
        {
          "internalType": "uint256",
          "name": "",
          "type": "uint256"
        }
      ],
      "stateMutability": "view",
      "type": "function"
    },
    {
      "inputs": [
        {
          "internalType": "uint256",
          "name": "_share",
          "type": "uint256"
        },
        {
          "internalType": "address",
          "name": "_kashiPair",
          "type": "address"
        }
      ],
      "name": "depositCollateral",
      "outputs": [],
      "stateMutability": "nonpayable",
      "type": "function"
    },
    {
      "inputs": [
        {
          "internalType": "uint256",
          "name": "_loan",
          "type": "uint256"
        },
        {
          "internalType": "address",
          "name": "_kashiPair",
          "type": "address"
        }
      ],
      "name": "borrowLoan",
      "outputs": [
        {
          "internalType": "uint256",
          "name": "",
          "type": "uint256"
        }
      ],
      "stateMutability": "nonpayable",
      "type": "function"
    },
    {
      "inputs": [
        {
          "internalType": "address",
          "name": "_asset1",
          "type": "address"
        },
        {
          "internalType": "uint256",
          "name": "_amount",
          "type": "uint256"
        },
        {
          "internalType": "address",
          "name": "_asset2",
          "type": "address"
        },
        {
          "internalType": "address",
          "name": "_kashiPair",
          "type": "address"
        }
      ],
      "name": "leveragePosition",
      "outputs": [],
      "stateMutability": "nonpayable",
      "type": "function"
    }
  ],
  "bytecode": "0x60806040527fffffffffffffffffffffffffffffffffffffffffffffffffffffffffffffffff60005534801561003457600080fd5b50611a9c806100446000396000f3fe608060405234801561001057600080fd5b50600436106100935760003560e01c80638abee5f6116100665780638abee5f614610130578063a927f6bd1461014c578063d9ac7b8414610168578063ed7ac24b14610198578063f26e39e7146101c857610093565b8063383dbe71146100985780633c50eec1146100c85780633f47a716146100f8578063481fef8a14610114575b600080fd5b6100b260048036038101906100ad91906111f2565b6101e4565b6040516100bf91906116ba565b60405180910390f35b6100e260048036038101906100dd9190611140565b610290565b6040516100ef91906116ba565b60405180910390f35b610112600480360381019061010d919061118f565b61076e565b005b61012e60048036038101906101299190611373565b610abb565b005b61014a60048036038101906101459190611291565b610c07565b005b6101666004803603810190610161919061122e565b610c93565b005b610182600480360381019061017d91906111f2565b610d10565b60405161018f91906116ba565b60405180910390f35b6101b260048036038101906101ad9190611373565b610dbc565b6040516101bf91906116ba565b60405180910390f35b6101e260048036038101906101dd91906111f2565b610e60565b005b600073f5bce5077908a1b7370b9ae04adc565ebd64396673ffffffffffffffffffffffffffffffffffffffff166356623118848460006040518463ffffffff1660e01b815260040161023893929190611668565b60206040518083038186803b15801561025057600080fd5b505afa158015610264573d6000803e3d6000fd5b505050506040513d601f19601f82011682018060405250810190610288919061134a565b905092915050565b6000606073c02aaa39b223fe8d0a0e5c4f27ead9083c756cc273ffffffffffffffffffffffffffffffffffffffff168573ffffffffffffffffffffffffffffffffffffffff161480610321575073c02aaa39b223fe8d0a0e5c4f27ead9083c756cc273ffffffffffffffffffffffffffffffffffffffff168473ffffffffffffffffffffffffffffffffffffffff16145b1561048757600267ffffffffffffffff811115610367577f4e487b7100000000000000000000000000000000000000000000000000000000600052604160045260246000fd5b6040519080825280602002602001820160405280156103955781602001602082028036833780820191505090505b50905084816000815181106103d3577f4e487b7100000000000000000000000000000000000000000000000000000000600052603260045260246000fd5b602002602001019073ffffffffffffffffffffffffffffffffffffffff16908173ffffffffffffffffffffffffffffffffffffffff16815250508381600181518110610448577f4e487b7100000000000000000000000000000000000000000000000000000000600052603260045260246000fd5b602002602001019073ffffffffffffffffffffffffffffffffffffffff16908173ffffffffffffffffffffffffffffffffffffffff168152505061066d565b600367ffffffffffffffff8111156104c8577f4e487b7100000000000000000000000000000000000000000000000000000000600052604160045260246000fd5b6040519080825280602002602001820160405280156104f65781602001602082028036833780820191505090505b5090508481600081518110610534577f4e487b7100000000000000000000000000000000000000000000000000000000600052603260045260246000fd5b602002602001019073ffffffffffffffffffffffffffffffffffffffff16908173ffffffffffffffffffffffffffffffffffffffff168152505073c02aaa39b223fe8d0a0e5c4f27ead9083c756cc2816001815181106105bd577f4e487b7100000000000000000000000000000000000000000000000000000000600052603260045260246000fd5b602002602001019073ffffffffffffffffffffffffffffffffffffffff16908173ffffffffffffffffffffffffffffffffffffffff16815250508381600281518110610632577f4e487b7100000000000000000000000000000000000000000000000000000000600052603260045260246000fd5b602002602001019073ffffffffffffffffffffffffffffffffffffffff16908173ffffffffffffffffffffffffffffffffffffffff16815250505b600073d9e1ce17f2641f24ae83637ab66a2cca9c378b9f73ffffffffffffffffffffffffffffffffffffffff1663d06ca61f85846040518363ffffffff1660e01b81526004016106be9291906116d5565b60006040518083038186803b1580156106d657600080fd5b505afa1580156106ea573d6000803e3d6000fd5b505050506040513d6000823e3d601f19601f8201168201806040525081019061071391906112e0565b905080600183516107249190611874565b8151811061075b577f4e487b7100000000000000000000000000000000000000000000000000000000600052603260045260246000fd5b6020026020010151925050509392505050565b8373ffffffffffffffffffffffffffffffffffffffff1663095ea7b373d9e1ce17f2641f24ae83637ab66a2cca9c378b9f846040518363ffffffff1660e01b81526004016107bd92919061163f565b602060405180830381600087803b1580156107d757600080fd5b505af11580156107eb573d6000803e3d6000fd5b505050506040513d601f19601f8201168201806040525081019061080f9190611321565b50600061081d858585610290565b90506060600367ffffffffffffffff811115610862577f4e487b7100000000000000000000000000000000000000000000000000000000600052604160045260246000fd5b6040519080825280602002602001820160405280156108905781602001602082028036833780820191505090505b50905085816000815181106108ce577f4e487b7100000000000000000000000000000000000000000000000000000000600052603260045260246000fd5b602002602001019073ffffffffffffffffffffffffffffffffffffffff16908173ffffffffffffffffffffffffffffffffffffffff168152505073c02aaa39b223fe8d0a0e5c4f27ead9083c756cc281600181518110610957577f4e487b7100000000000000000000000000000000000000000000000000000000600052603260045260246000fd5b602002602001019073ffffffffffffffffffffffffffffffffffffffff16908173ffffffffffffffffffffffffffffffffffffffff168152505084816002815181106109cc577f4e487b7100000000000000000000000000000000000000000000000000000000600052603260045260246000fd5b602002602001019073ffffffffffffffffffffffffffffffffffffffff16908173ffffffffffffffffffffffffffffffffffffffff168152505073d9e1ce17f2641f24ae83637ab66a2cca9c378b9f73ffffffffffffffffffffffffffffffffffffffff166338ed173985848487426040518663ffffffff1660e01b8152600401610a5b959493929190611705565b600060405180830381600087803b158015610a7557600080fd5b505af1158015610a89573d6000803e3d6000fd5b505050506040513d6000823e3d601f19601f82011682018060405250810190610ab291906112e0565b50505050505050565b73f5bce5077908a1b7370b9ae04adc565ebd64396673ffffffffffffffffffffffffffffffffffffffff1663c0a47c9330732cba6ab6574646badc84f0544d05059e57a5dc42600160008060006040518763ffffffff1660e01b8152600401610b2996959493929190611570565b600060405180830381600087803b158015610b4357600080fd5b505af1158015610b57573d6000803e3d6000fd5b505050507fb39c12b0a76ec7bbe3f46df5109f5e35495e8172e3843d7e6c6bd485a87fea736001604051610b8b919061169f565b60405180910390a18073ffffffffffffffffffffffffffffffffffffffff1663860ffea1306000856040518463ffffffff1660e01b8152600401610bd193929190611608565b600060405180830381600087803b158015610beb57600080fd5b505af1158015610bff573d6000803e3d6000fd5b505050505050565b73f5bce5077908a1b7370b9ae04adc565ebd64396673ffffffffffffffffffffffffffffffffffffffff166397da6d3084303086866040518663ffffffff1660e01b8152600401610c5c95949392919061151d565b600060405180830381600087803b158015610c7657600080fd5b505af1158015610c8a573d6000803e3d6000fd5b50505050505050565b610c9d8484610e60565b6000610ca98585610d10565b9050610cb58183610abb565b6000603c606483610cc691906117e9565b610cd0919061181a565b90506000610cde8285610dbc565b90506000610cec86836101e4565b9050610cfa86826000610c07565b610d068689833061076e565b5050505050505050565b600073f5bce5077908a1b7370b9ae04adc565ebd64396673ffffffffffffffffffffffffffffffffffffffff1663da5139ca848460006040518463ffffffff1660e01b8152600401610d6493929190611668565b60206040518083038186803b158015610d7c57600080fd5b505afa158015610d90573d6000803e3d6000fd5b505050506040513d601f19601f82011682018060405250810190610db4919061134a565b905092915050565b60008060008373ffffffffffffffffffffffffffffffffffffffff16634b8a352930876040518363ffffffff1660e01b8152600401610dfc92919061163f565b6040805180830381600087803b158015610e1557600080fd5b505af1158015610e29573d6000803e3d6000fd5b505050506040513d601f19601f82011682018060405250810190610e4d91906113af565b8092508193505050809250505092915050565b8173ffffffffffffffffffffffffffffffffffffffff166323b872dd3330846040518463ffffffff1660e01b8152600401610e9d939291906115d1565b602060405180830381600087803b158015610eb757600080fd5b505af1158015610ecb573d6000803e3d6000fd5b505050506040513d601f19601f82011682018060405250810190610eef9190611321565b508173ffffffffffffffffffffffffffffffffffffffff1663095ea7b373f5bce5077908a1b7370b9ae04adc565ebd643966836040518363ffffffff1660e01b8152600401610f3f92919061163f565b602060405180830381600087803b158015610f5957600080fd5b505af1158015610f6d573d6000803e3d6000fd5b505050506040513d601f19601f82011682018060405250810190610f919190611321565b507fb39c12b0a76ec7bbe3f46df5109f5e35495e8172e3843d7e6c6bd485a87fea736001604051610fc2919061169f565b60405180910390a173f5bce5077908a1b7370b9ae04adc565ebd64396673ffffffffffffffffffffffffffffffffffffffff166302b9446c8330308560006040518663ffffffff1660e01b81526004016110209594939291906114ca565b600060405180830381600087803b15801561103a57600080fd5b505af115801561104e573d6000803e3d6000fd5b505050505050565b600061106961106484611784565b61175f565b9050808382526020820190508285602086028201111561108857600080fd5b60005b858110156110b8578161109e888261112b565b84526020840193506020830192505060018101905061108b565b5050509392505050565b6000813590506110d181611a21565b92915050565b600082601f8301126110e857600080fd5b81516110f8848260208601611056565b91505092915050565b60008151905061111081611a38565b92915050565b60008135905061112581611a4f565b92915050565b60008151905061113a81611a4f565b92915050565b60008060006060848603121561115557600080fd5b6000611163868287016110c2565b9350506020611174868287016110c2565b925050604061118586828701611116565b9150509250925092565b600080600080608085870312156111a557600080fd5b60006111b3878288016110c2565b94505060206111c4878288016110c2565b93505060406111d587828801611116565b92505060606111e6878288016110c2565b91505092959194509250565b6000806040838503121561120557600080fd5b6000611213858286016110c2565b925050602061122485828601611116565b9150509250929050565b6000806000806080858703121561124457600080fd5b6000611252878288016110c2565b945050602061126387828801611116565b9350506040611274878288016110c2565b9250506060611285878288016110c2565b91505092959194509250565b6000806000606084860312156112a657600080fd5b60006112b4868287016110c2565b93505060206112c586828701611116565b92505060406112d686828701611116565b9150509250925092565b6000602082840312156112f257600080fd5b600082015167ffffffffffffffff81111561130c57600080fd5b611318848285016110d7565b91505092915050565b60006020828403121561133357600080fd5b600061134184828501611101565b91505092915050565b60006020828403121561135c57600080fd5b600061136a8482850161112b565b91505092915050565b6000806040838503121561138657600080fd5b600061139485828601611116565b92505060206113a5858286016110c2565b9150509250929050565b600080604083850312156113c257600080fd5b60006113d08582860161112b565b92505060206113e18582860161112b565b9150509250929050565b60006113f78383611403565b60208301905092915050565b61140c816118a8565b82525050565b61141b816118a8565b82525050565b600061142c826117c0565b61143681856117d8565b9350611441836117b0565b8060005b8381101561147257815161145988826113eb565b9750611464836117cb565b925050600181019050611445565b5085935050505092915050565b611488816118ba565b82525050565b61149781611907565b82525050565b6114a681611921565b82525050565b6114b581611933565b82525050565b6114c4816118f0565b82525050565b600060a0820190506114df6000830188611412565b6114ec6020830187611412565b6114f96040830186611412565b61150660608301856114bb565b611513608083018461149d565b9695505050505050565b600060a0820190506115326000830188611412565b61153f6020830187611412565b61154c6040830186611412565b61155960608301856114bb565b61156660808301846114bb565b9695505050505050565b600060c0820190506115856000830189611412565b6115926020830188611412565b61159f604083018761147f565b6115ac60608301866114ac565b6115b9608083018561148e565b6115c660a083018461148e565b979650505050505050565b60006060820190506115e66000830186611412565b6115f36020830185611412565b61160060408301846114bb565b949350505050565b600060608201905061161d6000830186611412565b61162a602083018561147f565b61163760408301846114bb565b949350505050565b60006040820190506116546000830185611412565b61166160208301846114bb565b9392505050565b600060608201905061167d6000830186611412565b61168a60208301856114bb565b611697604083018461147f565b949350505050565b60006020820190506116b4600083018461147f565b92915050565b60006020820190506116cf60008301846114bb565b92915050565b60006040820190506116ea60008301856114bb565b81810360208301526116fc8184611421565b90509392505050565b600060a08201905061171a60008301886114bb565b61172760208301876114bb565b81810360408301526117398186611421565b90506117486060830185611412565b61175560808301846114bb565b9695505050505050565b600061176961177a565b90506117758282611945565b919050565b6000604051905090565b600067ffffffffffffffff82111561179f5761179e6119d4565b5b602082029050602081019050919050565b6000819050602082019050919050565b600081519050919050565b6000602082019050919050565b600082825260208201905092915050565b60006117f4826118f0565b91506117ff836118f0565b92508261180f5761180e6119a5565b5b828204905092915050565b6000611825826118f0565b9150611830836118f0565b9250817fffffffffffffffffffffffffffffffffffffffffffffffffffffffffffffffff048311821515161561186957611868611976565b5b828202905092915050565b600061187f826118f0565b915061188a836118f0565b92508282101561189d5761189c611976565b5b828203905092915050565b60006118b3826118d0565b9050919050565b60008115159050919050565b6000819050919050565b600073ffffffffffffffffffffffffffffffffffffffff82169050919050565b6000819050919050565b600060ff82169050919050565b600061191a611915836118c6565b611a14565b9050919050565b600061192c826118f0565b9050919050565b600061193e826118fa565b9050919050565b61194e82611a03565b810181811067ffffffffffffffff8211171561196d5761196c6119d4565b5b80604052505050565b7f4e487b7100000000000000000000000000000000000000000000000000000000600052601160045260246000fd5b7f4e487b7100000000000000000000000000000000000000000000000000000000600052601260045260246000fd5b7f4e487b7100000000000000000000000000000000000000000000000000000000600052604160045260246000fd5b6000601f19601f8301169050919050565b60008160001b9050919050565b611a2a816118a8565b8114611a3557600080fd5b50565b611a41816118ba565b8114611a4c57600080fd5b50565b611a58816118f0565b8114611a6357600080fd5b5056fea26469706673582212205a723f20ab30f3d830524b390dac911ecfe07d712f6165409c74dacfac62a41d64736f6c63430008040033",
  "immutableReferences": {},
  "source": "// SPDX-License-Identifier: GPL-3.0\npragma solidity ^0.8;\n\nimport \"./interfaces/BentoBox.sol\";\nimport \"./interfaces/IERC20.sol\";\nimport \"./interfaces/SushiSwap.sol\";\n\n\n\ncontract lendingManager {\n    // @Dev contract manages leveraged options, part of a larger contract that then handles\n    // positions through manager in response to bonds\n\n    /* TODO list is pretty long\n    - leveragePosition implement\n    - liquidatePosition function WITH Rentrant guard\n    - Handle token approvals with BentoBox, as this contract owns the tokens it uses, thus also needs\n    - Evaluate Function visbility to approve them\n    */\n    address private constant SUSHI_ROUTER = 0xd9e1cE17f2641f24aE83637ab66a2cca9C378B9F;\n    address private constant WETH = 0xC02aaA39b223FE8D0A0e5C4F27eAD9083C756Cc2;\n\n    function robustSwap(\n        address _tokenIn,\n        address _tokenOut,\n        uint256 _amountIn,\n        address _to\n    ) public {\n        //IERC20(_tokenIn).transferFrom(msg.sender, address(this), _amountIn);\n        IERC20(_tokenIn).approve(SUSHI_ROUTER, _amountIn);\n        uint256 amountOutMin = getAmountOutMin(_tokenIn, _tokenOut, _amountIn);\n        address[] memory path;\n        path = new address[](3);\n        path[0] = _tokenIn;\n        path[1] = WETH;\n        path[2] = _tokenOut;\n\n        SushiSwapRouter(SUSHI_ROUTER).swapExactTokensForTokens(\n            _amountIn,\n            amountOutMin,\n            path,\n            _to,\n            block.timestamp\n        );\n    }\n\n    function getAmountOutMin(\n        address _tokenIn,\n        address _tokenOut,\n        uint256 _amountIn\n    ) public view returns (uint256) {\n        address[] memory path;\n        if (_tokenIn == WETH || _tokenOut == WETH) {\n            path = new address[](2);\n            path[0] = _tokenIn;\n            path[1] = _tokenOut;\n        } else {\n            path = new address[](3);\n            path[0] = _tokenIn;\n            path[1] = WETH;\n            path[2] = _tokenOut;\n        }\n\n        // same length as path\n        uint256[] memory amountOutMins = SushiSwapRouter(SUSHI_ROUTER)\n            .getAmountsOut(_amountIn, path);\n\n        return amountOutMins[path.length - 1];\n    }\n    struct leverageOptionPosition {\n        bool isLong;\n        address asset;\n        address stablecoin;\n        uint256 collateralOwned;\n        uint256 amountOwed;\n    }\n    address private constant BENTOBOXV1 =\n        0xF5BCE5077908a1b7370B9ae04AdC565EBd643966;\n    uint256 MAX_INT = 2**256 - 1;\n    event approval(bool sucess);\n\n    // TODO define address constants and other related values in constructor\n    // TODO master contract approval also needed here somewhere most likely\n    constructor() {}\n\n    leverageOptionPosition[] private internalLedger;\n\n    // Bentobox Swap and Bridge functions defined below\n\n    function bridgeOn(address _asset, uint256 _amount) public {\n        IERC20(_asset).transferFrom(msg.sender, address(this), _amount);\n        IERC20(_asset).approve(BENTOBOXV1, _amount);\n        emit approval(true);\n        // Add disapprove method\n        //(address token_, address from, address to, uint256 amount, uint256 share)\n        BentoBox(BENTOBOXV1).deposit(\n            _asset,\n            address(this),\n            address(this),\n            _amount,\n            0\n        );\n    }\n\n    function bridgeOff(\n        address _asset,\n        uint256 _amount,\n        uint256 _shares\n    ) public {\n        BentoBox(BENTOBOXV1).withdraw(\n            _asset,\n            address(this),\n            address(this),\n            _amount,\n            _shares\n        );\n    }\n\n    // These view functions are also hugely helpful\n    function toAmount(address _asset, uint256 _share)\n        public\n        view\n        returns (uint256)\n    {\n        // Don't round up, wouldn't want to overspend\n        return BentoBox(BENTOBOXV1).toAmount(_asset, _share, false);\n    }\n\n    function toShare(address _asset, uint256 _amount)\n        public\n        view\n        returns (uint256)\n    {\n        // Rounding can pose some interesting problems so avoiding it for now\n        return BentoBox(BENTOBOXV1).toShare(_asset, _amount, false);\n    }\n\n    // TODO make swap more efficient\n    // Kashi functions defined below to manage loans\n    function depositCollateral(uint256 _share, address _kashiPair) public {\n        // Location of pairs needs to be accessible somewhere, either an off\n        // chain registry that calls with the neccesary information\n        // or calling some Oracle\n        //IERC20(_asset).approve();\n        BentoBox(BENTOBOXV1).setMasterContractApproval(\n            address(this),\n            0x2cBA6Ab6574646Badc84F0544d05059e57a5dc42,\n            true,\n            0,\n            0,\n            0\n        );\n        emit approval(true);\n        Kashi(_kashiPair).addCollateral(address(this), false, _share);\n    }\n\n    function borrowLoan(uint256 _loan, address _kashiPair)\n        public\n        returns (uint256)\n    {\n        /// @notice Sender borrows `amount` and transfers it to `to`.\n        /// @return part Total part of the debt held by borrowers.\n        /// @return share Total amount in shares borrowed.\n        // function borrow(address to, uint256 amount) public solvent returns (uint256 part, uint256 share)\n        uint256 part;\n        uint256 share;\n        (part, share) = Kashi(_kashiPair).borrow(address(this), _loan);\n        return share;\n    }\n\n    // Wasabi functions\n    function leveragePosition(\n        address _asset1,\n        uint256 _amount,\n        address _asset2,\n        address _kashiPair\n    ) public {\n        // ANCHOR One full loop, lots of shit to fix\n        // Bridge Asset1 (Collateral) On\n        bridgeOn(_asset1, _amount);\n        uint256 shares = toShare(_asset1, _amount);\n        depositCollateral(shares, _kashiPair);\n        uint256 loanAmount = (shares / 100) * 60; // Asumes 60% Liquidation Threshold\n        uint256 loaned = borrowLoan(loanAmount, _kashiPair);\n        //    function toAmount(address _asset, uint256 _share) public view returns (uint256){\n        uint256 loanedAmount = toAmount(_asset2, loaned);\n        bridgeOff(_asset2, loanedAmount, 0);\n        // TODO conversion needed\n        // Need to approve Sushiswap\n        //function swap(address _tokenIn, address _tokenOut, uint _amountIn, uint _amountOutMin, address _to)\n        robustSwap(_asset2, _asset1, loanedAmount, address(this)); // TODO don't use 0 in final version\n        /*\n        uint256 tradedAsset1 = 0; // ANCHOR amount recieved\n        // ANCHOR Fix this swap so it tells how much to bridge back on\n        bridgeOn(_asset1, tradedAsset1);\n        uint256 sharesConverted = 0; // ANCHOR more share conversion\n        depositCollateral(sharesConverted, _kashiPair);\n        */\n    }\n    /*\n    function intitializePosition(address _asset, address _stablecoin, uint8 _loops, bool _isLong) public {\n        // Open up a position, will push to ledger at the end\n        leverageOptionPosition memory newPosition;\n        \n        // Write values know immediately\n        newPosition.isLong = _isLong;\n        newPosition.asset = _asset;\n        newPosition.stablecoin = _stablecoin;\n        newPosition.collateralOwned = 0;\n        newPosition.amountOwed = 0;\n        \n        // Leverage positon\n        for (uint index = 0; index <= _loops;index++) {\n\n            if(_isLong) {\n               (uint256 amountBorrowed, uint256 collateralOwned) = leveragePosition(_asset, _stablecoin);\n               newPosition.amountOwed += amountBorrowed;\n               newPosition.collateralOwned += collateralOwned;\n            } else{\n                (uint256 amountBorrowed, uint256 collateralOwned) = leveragePosition(_stablecoin, _asset);\n                newPosition.amountOwed += amountBorrowed;\n                newPosition.collateralOwned += collateralOwned;\n            }\n        }\n        // Write some checks to verify all went as planned\n        \n        // Finally push position to internalLedger\n        internalLedger.push(newPosition);\n    }\n    */\n}\n",
  "sourcePath": "B:\\Nebula Labs\\Phantasm\\contracts\\Kashi.sol",
  "compiler": {
    "name": "solc",
    "version": "0.8.4+commit.c7e474f2.Emscripten.clang"
  },
  "schemaVersion": "3.4.2",
  "updatedAt": "2021-09-04T23:07:51.889Z",
  "devdoc": {
    "kind": "dev",
    "methods": {},
    "version": 1
  },
  "userdoc": {
    "kind": "user",
    "methods": {},
    "version": 1
  }
}