{
  "contractName": "PhantasmManager",
  "abi": [
    {
      "inputs": [
        {
          "internalType": "address",
          "name": "_sushi_router",
          "type": "address"
        },
        {
          "internalType": "address",
          "name": "_weth",
          "type": "address"
        },
        {
          "internalType": "address",
          "name": "_bentoboxv1",
          "type": "address"
        }
      ],
      "stateMutability": "nonpayable",
      "type": "constructor"
    },
    {
      "inputs": [
        {
          "internalType": "address",
          "name": "_asset",
          "type": "address"
        },
        {
          "internalType": "uint256",
          "name": "_amount",
          "type": "uint256"
        }
      ],
      "name": "bridgeOn",
      "outputs": [],
      "stateMutability": "nonpayable",
      "type": "function"
    },
    {
      "inputs": [
        {
          "internalType": "address",
          "name": "_asset",
          "type": "address"
        },
        {
          "internalType": "uint256",
          "name": "_amount",
          "type": "uint256"
        },
        {
          "internalType": "uint256",
          "name": "_shares",
          "type": "uint256"
        }
      ],
      "name": "bridgeOff",
      "outputs": [],
      "stateMutability": "nonpayable",
      "type": "function"
    },
    {
      "inputs": [
        {
          "internalType": "address",
          "name": "_asset",
          "type": "address"
        },
        {
          "internalType": "uint256",
          "name": "_share",
          "type": "uint256"
        }
      ],
      "name": "toAmount",
      "outputs": [
        {
          "internalType": "uint256",
          "name": "",
          "type": "uint256"
        }
      ],
      "stateMutability": "view",
      "type": "function"
    },
    {
      "inputs": [
        {
          "internalType": "address",
          "name": "_asset",
          "type": "address"
        },
        {
          "internalType": "uint256",
          "name": "_amount",
          "type": "uint256"
        }
      ],
      "name": "toShare",
      "outputs": [
        {
          "internalType": "uint256",
          "name": "",
          "type": "uint256"
        }
      ],
      "stateMutability": "view",
      "type": "function"
    },
    {
      "inputs": [
        {
          "internalType": "uint256",
          "name": "_share",
          "type": "uint256"
        },
        {
          "internalType": "address",
          "name": "_kashiPair",
          "type": "address"
        }
      ],
      "name": "depositCollateral",
      "outputs": [],
      "stateMutability": "nonpayable",
      "type": "function"
    },
    {
      "inputs": [
        {
          "internalType": "uint256",
          "name": "_loan",
          "type": "uint256"
        },
        {
          "internalType": "address",
          "name": "_kashiPair",
          "type": "address"
        }
      ],
      "name": "borrowLoan",
      "outputs": [
        {
          "internalType": "uint256",
          "name": "",
          "type": "uint256"
        }
      ],
      "stateMutability": "nonpayable",
      "type": "function"
    },
    {
      "inputs": [
        {
          "internalType": "address",
          "name": "_tokenIn",
          "type": "address"
        },
        {
          "internalType": "address",
          "name": "_tokenOut",
          "type": "address"
        },
        {
          "internalType": "uint256",
          "name": "_amountIn",
          "type": "uint256"
        }
      ],
      "name": "getAmountOutMin",
      "outputs": [
        {
          "internalType": "uint256",
          "name": "",
          "type": "uint256"
        }
      ],
      "stateMutability": "view",
      "type": "function"
    },
    {
      "inputs": [
        {
          "internalType": "address",
          "name": "_tokenIn",
          "type": "address"
        },
        {
          "internalType": "address",
          "name": "_tokenOut",
          "type": "address"
        },
        {
          "internalType": "uint256",
          "name": "_amountIn",
          "type": "uint256"
        },
        {
          "internalType": "address",
          "name": "_to",
          "type": "address"
        }
      ],
      "name": "robustSwap",
      "outputs": [
        {
          "internalType": "uint256",
          "name": "",
          "type": "uint256"
        }
      ],
      "stateMutability": "nonpayable",
      "type": "function"
    },
    {
      "inputs": [
        {
          "internalType": "address",
          "name": "_asset1",
          "type": "address"
        },
        {
          "internalType": "uint256",
          "name": "_amount",
          "type": "uint256"
        },
        {
          "internalType": "address",
          "name": "_asset2",
          "type": "address"
        },
        {
          "internalType": "address",
          "name": "_kashiPair",
          "type": "address"
        }
      ],
      "name": "leveragePosition",
      "outputs": [
        {
          "internalType": "uint256",
          "name": "",
          "type": "uint256"
        },
        {
          "internalType": "uint256",
          "name": "",
          "type": "uint256"
        }
      ],
      "stateMutability": "nonpayable",
      "type": "function"
    }
  ],
  "bytecode": "0x60806040523480156200001157600080fd5b5060405162001db138038062001db18339818101604052810190620000379190620001cb565b826000806101000a81548173ffffffffffffffffffffffffffffffffffffffff021916908373ffffffffffffffffffffffffffffffffffffffff16021790555081600160006101000a81548173ffffffffffffffffffffffffffffffffffffffff021916908373ffffffffffffffffffffffffffffffffffffffff16021790555080600260006101000a81548173ffffffffffffffffffffffffffffffffffffffff021916908373ffffffffffffffffffffffffffffffffffffffff160217905550600260009054906101000a900473ffffffffffffffffffffffffffffffffffffffff1673ffffffffffffffffffffffffffffffffffffffff1663c0a47c9330732cba6ab6574646badc84f0544d05059e57a5dc42600160008060006040518763ffffffff1660e01b8152600401620001779695949392919062000265565b600060405180830381600087803b1580156200019257600080fd5b505af1158015620001a7573d6000803e3d6000fd5b5050505050505062000382565b600081519050620001c58162000368565b92915050565b600080600060608486031215620001e157600080fd5b6000620001f186828701620001b4565b93505060206200020486828701620001b4565b92505060406200021786828701620001b4565b9150509250925092565b6200022c81620002d2565b82525050565b6200023d81620002e6565b82525050565b6200024e8162000329565b82525050565b6200025f8162000347565b82525050565b600060c0820190506200027c600083018962000221565b6200028b602083018862000221565b6200029a604083018762000232565b620002a9606083018662000254565b620002b8608083018562000243565b620002c760a083018462000243565b979650505050505050565b6000620002df82620002fc565b9050919050565b60008115159050919050565b6000819050919050565b600073ffffffffffffffffffffffffffffffffffffffff82169050919050565b600060ff82169050919050565b6000620003406200033a83620002f2565b6200035b565b9050919050565b600062000354826200031c565b9050919050565b60008160001b9050919050565b6200037381620002d2565b81146200037f57600080fd5b50565b611a1f80620003926000396000f3fe608060405234801561001057600080fd5b50600436106100935760003560e01c80638abee5f6116100665780638abee5f614610144578063a927f6bd14610160578063d9ac7b8414610191578063ed7ac24b146101c1578063f26e39e7146101f157610093565b8063383dbe71146100985780633c50eec1146100c85780633f47a716146100f8578063481fef8a14610128575b600080fd5b6100b260048036038101906100ad91906111e0565b61020d565b6040516100bf919061160e565b60405180910390f35b6100e260048036038101906100dd919061112e565b6102c7565b6040516100ef919061160e565b60405180910390f35b610112600480360381019061010d919061117d565b6107dc565b60405161011f919061160e565b60405180910390f35b610142600480360381019061013d9190611361565b610b56565b005b61015e6004803603810190610159919061127f565b610bca565b005b61017a6004803603810190610175919061121c565b610c64565b604051610188929190611659565b60405180910390f35b6101ab60048036038101906101a691906111e0565b610d0c565b6040516101b8919061160e565b60405180910390f35b6101db60048036038101906101d69190611361565b610dc6565b6040516101e8919061160e565b60405180910390f35b61020b600480360381019061020691906111e0565b610e6a565b005b6000600260009054906101000a900473ffffffffffffffffffffffffffffffffffffffff1673ffffffffffffffffffffffffffffffffffffffff166356623118848460006040518463ffffffff1660e01b815260040161026f939291906115d7565b60206040518083038186803b15801561028757600080fd5b505afa15801561029b573d6000803e3d6000fd5b505050506040513d601f19601f820116820180604052508101906102bf9190611338565b905092915050565b60006060600160009054906101000a900473ffffffffffffffffffffffffffffffffffffffff1673ffffffffffffffffffffffffffffffffffffffff168573ffffffffffffffffffffffffffffffffffffffff1614806103745750600160009054906101000a900473ffffffffffffffffffffffffffffffffffffffff1673ffffffffffffffffffffffffffffffffffffffff168473ffffffffffffffffffffffffffffffffffffffff16145b156104da57600267ffffffffffffffff8111156103ba577f4e487b7100000000000000000000000000000000000000000000000000000000600052604160045260246000fd5b6040519080825280602002602001820160405280156103e85781602001602082028036833780820191505090505b5090508481600081518110610426577f4e487b7100000000000000000000000000000000000000000000000000000000600052603260045260246000fd5b602002602001019073ffffffffffffffffffffffffffffffffffffffff16908173ffffffffffffffffffffffffffffffffffffffff1681525050838160018151811061049b577f4e487b7100000000000000000000000000000000000000000000000000000000600052603260045260246000fd5b602002602001019073ffffffffffffffffffffffffffffffffffffffff16908173ffffffffffffffffffffffffffffffffffffffff16815250506106ce565b600367ffffffffffffffff81111561051b577f4e487b7100000000000000000000000000000000000000000000000000000000600052604160045260246000fd5b6040519080825280602002602001820160405280156105495781602001602082028036833780820191505090505b5090508481600081518110610587577f4e487b7100000000000000000000000000000000000000000000000000000000600052603260045260246000fd5b602002602001019073ffffffffffffffffffffffffffffffffffffffff16908173ffffffffffffffffffffffffffffffffffffffff1681525050600160009054906101000a900473ffffffffffffffffffffffffffffffffffffffff168160018151811061061e577f4e487b7100000000000000000000000000000000000000000000000000000000600052603260045260246000fd5b602002602001019073ffffffffffffffffffffffffffffffffffffffff16908173ffffffffffffffffffffffffffffffffffffffff16815250508381600281518110610693577f4e487b7100000000000000000000000000000000000000000000000000000000600052603260045260246000fd5b602002602001019073ffffffffffffffffffffffffffffffffffffffff16908173ffffffffffffffffffffffffffffffffffffffff16815250505b60008060009054906101000a900473ffffffffffffffffffffffffffffffffffffffff1673ffffffffffffffffffffffffffffffffffffffff1663d06ca61f85846040518363ffffffff1660e01b815260040161072c929190611629565b60006040518083038186803b15801561074457600080fd5b505afa158015610758573d6000803e3d6000fd5b505050506040513d6000823e3d601f19601f8201168201806040525081019061078191906112ce565b905080600183516107929190611847565b815181106107c9577f4e487b7100000000000000000000000000000000000000000000000000000000600052603260045260246000fd5b6020026020010151925050509392505050565b60008473ffffffffffffffffffffffffffffffffffffffff1663095ea7b360008054906101000a900473ffffffffffffffffffffffffffffffffffffffff16856040518363ffffffff1660e01b81526004016108399291906115ae565b602060405180830381600087803b15801561085357600080fd5b505af1158015610867573d6000803e3d6000fd5b505050506040513d601f19601f8201168201806040525081019061088b919061130f565b5060006108998686866102c7565b90506060600367ffffffffffffffff8111156108de577f4e487b7100000000000000000000000000000000000000000000000000000000600052604160045260246000fd5b60405190808252806020026020018201604052801561090c5781602001602082028036833780820191505090505b509050868160008151811061094a577f4e487b7100000000000000000000000000000000000000000000000000000000600052603260045260246000fd5b602002602001019073ffffffffffffffffffffffffffffffffffffffff16908173ffffffffffffffffffffffffffffffffffffffff1681525050600160009054906101000a900473ffffffffffffffffffffffffffffffffffffffff16816001815181106109e1577f4e487b7100000000000000000000000000000000000000000000000000000000600052603260045260246000fd5b602002602001019073ffffffffffffffffffffffffffffffffffffffff16908173ffffffffffffffffffffffffffffffffffffffff16815250508581600281518110610a56577f4e487b7100000000000000000000000000000000000000000000000000000000600052603260045260246000fd5b602002602001019073ffffffffffffffffffffffffffffffffffffffff16908173ffffffffffffffffffffffffffffffffffffffff168152505060008054906101000a900473ffffffffffffffffffffffffffffffffffffffff1673ffffffffffffffffffffffffffffffffffffffff166338ed173986848488426040518663ffffffff1660e01b8152600401610af1959493929190611682565b600060405180830381600087803b158015610b0b57600080fd5b505af1158015610b1f573d6000803e3d6000fd5b505050506040513d6000823e3d601f19601f82011682018060405250810190610b4891906112ce565b508192505050949350505050565b8073ffffffffffffffffffffffffffffffffffffffff1663860ffea1306000856040518463ffffffff1660e01b8152600401610b9493929190611577565b600060405180830381600087803b158015610bae57600080fd5b505af1158015610bc2573d6000803e3d6000fd5b505050505050565b600260009054906101000a900473ffffffffffffffffffffffffffffffffffffffff1673ffffffffffffffffffffffffffffffffffffffff166397da6d3084303086866040518663ffffffff1660e01b8152600401610c2d9594939291906114ed565b600060405180830381600087803b158015610c4757600080fd5b505af1158015610c5b573d6000803e3d6000fd5b50505050505050565b6000806000610c738787610e6a565b6000610c7f8888610d0c565b9050610c8b8186610b56565b610c95888261020d565b82610ca09190611766565b91506000603c606483610cb391906117bc565b610cbd91906117ed565b90506000610ccb8288610dc6565b90506000610cd9898361020d565b9050610ce789826000610bca565b6000610cf58a8d84306107dc565b905083869750975050505050505094509492505050565b6000600260009054906101000a900473ffffffffffffffffffffffffffffffffffffffff1673ffffffffffffffffffffffffffffffffffffffff1663da5139ca848460006040518463ffffffff1660e01b8152600401610d6e939291906115d7565b60206040518083038186803b158015610d8657600080fd5b505afa158015610d9a573d6000803e3d6000fd5b505050506040513d601f19601f82011682018060405250810190610dbe9190611338565b905092915050565b60008060008373ffffffffffffffffffffffffffffffffffffffff16634b8a352930876040518363ffffffff1660e01b8152600401610e069291906115ae565b6040805180830381600087803b158015610e1f57600080fd5b505af1158015610e33573d6000803e3d6000fd5b505050506040513d601f19601f82011682018060405250810190610e57919061139d565b8092508193505050809250505092915050565b8173ffffffffffffffffffffffffffffffffffffffff166323b872dd3330846040518463ffffffff1660e01b8152600401610ea793929190611540565b602060405180830381600087803b158015610ec157600080fd5b505af1158015610ed5573d6000803e3d6000fd5b505050506040513d601f19601f82011682018060405250810190610ef9919061130f565b508173ffffffffffffffffffffffffffffffffffffffff1663095ea7b3600260009054906101000a900473ffffffffffffffffffffffffffffffffffffffff16836040518363ffffffff1660e01b8152600401610f579291906115ae565b602060405180830381600087803b158015610f7157600080fd5b505af1158015610f85573d6000803e3d6000fd5b505050506040513d601f19601f82011682018060405250810190610fa9919061130f565b50600260009054906101000a900473ffffffffffffffffffffffffffffffffffffffff1673ffffffffffffffffffffffffffffffffffffffff166302b9446c8330308560006040518663ffffffff1660e01b815260040161100e95949392919061149a565b600060405180830381600087803b15801561102857600080fd5b505af115801561103c573d6000803e3d6000fd5b505050505050565b600061105761105284611701565b6116dc565b9050808382526020820190508285602086028201111561107657600080fd5b60005b858110156110a6578161108c8882611119565b845260208401935060208301925050600181019050611079565b5050509392505050565b6000813590506110bf816119a4565b92915050565b600082601f8301126110d657600080fd5b81516110e6848260208601611044565b91505092915050565b6000815190506110fe816119bb565b92915050565b600081359050611113816119d2565b92915050565b600081519050611128816119d2565b92915050565b60008060006060848603121561114357600080fd5b6000611151868287016110b0565b9350506020611162868287016110b0565b925050604061117386828701611104565b9150509250925092565b6000806000806080858703121561119357600080fd5b60006111a1878288016110b0565b94505060206111b2878288016110b0565b93505060406111c387828801611104565b92505060606111d4878288016110b0565b91505092959194509250565b600080604083850312156111f357600080fd5b6000611201858286016110b0565b925050602061121285828601611104565b9150509250929050565b6000806000806080858703121561123257600080fd5b6000611240878288016110b0565b945050602061125187828801611104565b9350506040611262878288016110b0565b9250506060611273878288016110b0565b91505092959194509250565b60008060006060848603121561129457600080fd5b60006112a2868287016110b0565b93505060206112b386828701611104565b92505060406112c486828701611104565b9150509250925092565b6000602082840312156112e057600080fd5b600082015167ffffffffffffffff8111156112fa57600080fd5b611306848285016110c5565b91505092915050565b60006020828403121561132157600080fd5b600061132f848285016110ef565b91505092915050565b60006020828403121561134a57600080fd5b600061135884828501611119565b91505092915050565b6000806040838503121561137457600080fd5b600061138285828601611104565b9250506020611393858286016110b0565b9150509250929050565b600080604083850312156113b057600080fd5b60006113be85828601611119565b92505060206113cf85828601611119565b9150509250929050565b60006113e583836113f1565b60208301905092915050565b6113fa8161187b565b82525050565b6114098161187b565b82525050565b600061141a8261173d565b6114248185611755565b935061142f8361172d565b8060005b8381101561146057815161144788826113d9565b975061145283611748565b925050600181019050611433565b5085935050505092915050565b6114768161188d565b82525050565b611485816118c3565b82525050565b611494816118b9565b82525050565b600060a0820190506114af6000830188611400565b6114bc6020830187611400565b6114c96040830186611400565b6114d6606083018561148b565b6114e3608083018461147c565b9695505050505050565b600060a0820190506115026000830188611400565b61150f6020830187611400565b61151c6040830186611400565b611529606083018561148b565b611536608083018461148b565b9695505050505050565b60006060820190506115556000830186611400565b6115626020830185611400565b61156f604083018461148b565b949350505050565b600060608201905061158c6000830186611400565b611599602083018561146d565b6115a6604083018461148b565b949350505050565b60006040820190506115c36000830185611400565b6115d0602083018461148b565b9392505050565b60006060820190506115ec6000830186611400565b6115f9602083018561148b565b611606604083018461146d565b949350505050565b6000602082019050611623600083018461148b565b92915050565b600060408201905061163e600083018561148b565b8181036020830152611650818461140f565b90509392505050565b600060408201905061166e600083018561148b565b61167b602083018461148b565b9392505050565b600060a082019050611697600083018861148b565b6116a4602083018761148b565b81810360408301526116b6818661140f565b90506116c56060830185611400565b6116d2608083018461148b565b9695505050505050565b60006116e66116f7565b90506116f282826118d5565b919050565b6000604051905090565b600067ffffffffffffffff82111561171c5761171b611964565b5b602082029050602081019050919050565b6000819050602082019050919050565b600081519050919050565b6000602082019050919050565b600082825260208201905092915050565b6000611771826118b9565b915061177c836118b9565b9250827fffffffffffffffffffffffffffffffffffffffffffffffffffffffffffffffff038211156117b1576117b0611906565b5b828201905092915050565b60006117c7826118b9565b91506117d2836118b9565b9250826117e2576117e1611935565b5b828204905092915050565b60006117f8826118b9565b9150611803836118b9565b9250817fffffffffffffffffffffffffffffffffffffffffffffffffffffffffffffffff048311821515161561183c5761183b611906565b5b828202905092915050565b6000611852826118b9565b915061185d836118b9565b9250828210156118705761186f611906565b5b828203905092915050565b600061188682611899565b9050919050565b60008115159050919050565b600073ffffffffffffffffffffffffffffffffffffffff82169050919050565b6000819050919050565b60006118ce826118b9565b9050919050565b6118de82611993565b810181811067ffffffffffffffff821117156118fd576118fc611964565b5b80604052505050565b7f4e487b7100000000000000000000000000000000000000000000000000000000600052601160045260246000fd5b7f4e487b7100000000000000000000000000000000000000000000000000000000600052601260045260246000fd5b7f4e487b7100000000000000000000000000000000000000000000000000000000600052604160045260246000fd5b6000601f19601f8301169050919050565b6119ad8161187b565b81146119b857600080fd5b50565b6119c48161188d565b81146119cf57600080fd5b50565b6119db816118b9565b81146119e657600080fd5b5056fea2646970667358221220443c7b660dbe5b4ff2117b2358fce50989ddc0f2fc8f66eb8e9c1dbf50f84efe64736f6c63430008040033",
  "immutableReferences": {},
  "source": "// SPDX-License-Identifier: GPL-3.0\r\npragma solidity ^0.8;\r\n\r\nimport \"./interfaces/BentoBox.sol\";\r\nimport \"./interfaces/IERC20.sol\";\r\nimport \"./interfaces/SushiSwap.sol\";\r\n\r\n\r\n\r\ncontract PhantasmManager {\r\n    address private SUSHI_ROUTER;\r\n    address private WETH;\r\n    address private BENTOBOXV1;\r\n    \r\n    constructor(address _sushi_router, address _weth, address _bentoboxv1) {\r\n        // Makes code more clean and organized for multi-chain deployments\r\n        SUSHI_ROUTER = _sushi_router;\r\n        WETH = _weth;\r\n        BENTOBOXV1 = _bentoboxv1;\r\n        // Approve Kashi Master Contract on Bentobox, so this contract\r\n        // can interact with lending pools\r\n        BentoBox(BENTOBOXV1).setMasterContractApproval(\r\n            address(this),\r\n            0x2cBA6Ab6574646Badc84F0544d05059e57a5dc42,\r\n            true,\r\n            0,\r\n            0,\r\n            0\r\n        );\r\n    }\r\n    /*\r\n        Sushi functions\r\n            - Bridging onto and off of Bentobox\r\n            - Converting BentoBox Shares to Actual token amounts and vice versa\r\n            - Sushiswapping\r\n            - Collateralizing and Borrowing on Kashi\r\n    */\r\n    function bridgeOn(address _asset, uint256 _amount) public {\r\n        IERC20(_asset).transferFrom(msg.sender, address(this), _amount);\r\n        IERC20(_asset).approve(BENTOBOXV1, _amount);\r\n        //(address token_, address from, address to, uint256 amount, uint256 share)\r\n        BentoBox(BENTOBOXV1).deposit(\r\n            _asset,\r\n            address(this),\r\n            address(this),\r\n            _amount,\r\n            0\r\n        );\r\n    }\r\n\r\n    function bridgeOff(\r\n        address _asset,\r\n        uint256 _amount,\r\n        uint256 _shares\r\n    ) public {\r\n        BentoBox(BENTOBOXV1).withdraw(\r\n            _asset,\r\n            address(this),\r\n            address(this),\r\n            _amount,\r\n            _shares\r\n        );\r\n    }\r\n    function toAmount(address _asset, uint256 _share)\r\n        public\r\n        view\r\n        returns (uint256)\r\n    {\r\n        // Don't round up, wouldn't want to overspend\r\n        return BentoBox(BENTOBOXV1).toAmount(_asset, _share, false);\r\n    }\r\n\r\n    function toShare(address _asset, uint256 _amount)\r\n        public\r\n        view\r\n        returns (uint256)\r\n    {\r\n        // Rounding can pose some interesting problems so avoiding it for now\r\n        return BentoBox(BENTOBOXV1).toShare(_asset, _amount, false);\r\n    }\r\n\r\n    function depositCollateral(uint256 _share, address _kashiPair) public {\r\n        Kashi(_kashiPair).addCollateral(address(this), false, _share);\r\n    }\r\n    function borrowLoan(uint256 _loan, address _kashiPair)\r\n        public\r\n        returns (uint256)\r\n    {\r\n        /// @notice Sender borrows `amount` and transfers it to `to`.\r\n        /// @return part Total part of the debt held by borrowers.\r\n        /// @return share Total amount in shares borrowed.\r\n        // function borrow(address to, uint256 amount) public solvent returns (uint256 part, uint256 share)\r\n        uint256 part;\r\n        uint256 share;\r\n        (part, share) = Kashi(_kashiPair).borrow(address(this), _loan);\r\n        return share;\r\n    }\r\n\r\n    // Very basic routing function to calculate minimum amount out, serves as a basic check\r\n    function getAmountOutMin(\r\n        address _tokenIn,\r\n        address _tokenOut,\r\n        uint256 _amountIn\r\n    ) public view returns (uint256) {\r\n        address[] memory path;\r\n        if (_tokenIn == WETH || _tokenOut == WETH) {\r\n            path = new address[](2);\r\n            path[0] = _tokenIn;\r\n            path[1] = _tokenOut;\r\n        } else {\r\n            path = new address[](3);\r\n            path[0] = _tokenIn;\r\n            path[1] = WETH;\r\n            path[2] = _tokenOut;\r\n        }\r\n\r\n        // same length as path\r\n        uint256[] memory amountOutMins = SushiSwapRouter(SUSHI_ROUTER)\r\n            .getAmountsOut(_amountIn, path);\r\n\r\n        return amountOutMins[path.length - 1];\r\n    }\r\n    \r\n    function robustSwap(\r\n        address _tokenIn,\r\n        address _tokenOut,\r\n        uint256 _amountIn,\r\n        address _to\r\n    ) public returns (uint256) {\r\n        IERC20(_tokenIn).approve(SUSHI_ROUTER, _amountIn);\r\n        uint256 amountOutMin = getAmountOutMin(_tokenIn, _tokenOut, _amountIn);\r\n        address[] memory path;\r\n        path = new address[](3);\r\n        path[0] = _tokenIn;\r\n        path[1] = WETH;\r\n        path[2] = _tokenOut;\r\n\r\n        SushiSwapRouter(SUSHI_ROUTER).swapExactTokensForTokens(\r\n            _amountIn,\r\n            amountOutMin,\r\n            path,\r\n            _to,\r\n            block.timestamp\r\n        );\r\n\r\n        // Due to implementation this gets the minimum as what it gets\r\n        return amountOutMin;\r\n\r\n    }\r\n    /*\r\n        Phantasm Functions\r\n            - Handling of Assets to know whose money is whose\r\n            - Creating and Redeeming position\r\n            - Routing positon creation through multiple providers\r\n                ie SushiSwap, QuickSwap, Uniswap\r\n                Kashi, Compound, and Aave\r\n    */\r\n    struct leverageOptionPosition {\r\n        bool isLong;\r\n        address asset;\r\n        address stablecoin;\r\n        uint256 collateralOwned;\r\n        uint256 amountOwed;\r\n    }\r\n\r\n    leverageOptionPosition[] private internalLedger;\r\n\r\n    function leveragePosition(\r\n        address _asset1,\r\n        uint256 _amount,\r\n        address _asset2,\r\n        address _kashiPair\r\n    ) public  returns (uint256, uint256) {\r\n        uint256 collateralAdded;\r\n        bridgeOn(_asset1, _amount);\r\n        uint256 shares = toShare(_asset1, _amount);\r\n        depositCollateral(shares, _kashiPair);\r\n        collateralAdded += toAmount(_asset1, shares);\r\n        uint256 loanAmount = (shares / 100) * 60; // Asumes 60% Liquidation Threshold, need to change ANCHOR\r\n        uint256 loaned = borrowLoan(loanAmount, _kashiPair);\r\n        uint256 loanedAmount = toAmount(_asset2, loaned);\r\n        bridgeOff(_asset2, loanedAmount, 0);\r\n        uint256 tokensRecieved = robustSwap(_asset2, _asset1, loanedAmount, address(this)); \r\n        return (loanAmount, collateralAdded);\r\n    }\r\n/*\r\n    function liquidatePosition(\r\n        address _kashiPair,\r\n        leverageOptionPosition _position\r\n    ) public {\r\n        uint256 deltaOwned = _position.collateralOwned  - _position.amountOwed;\r\n        // Remove avaliable collateral\r\n        Kashi(_kashiPair).removeCollateral(address(this), toShare(deltaOwned));\r\n        // Repay debt\r\n        Kashi(_kashiPair).repay(address(this), false, 1);\r\n    }\r\n    /*\r\n    function intitializePosition(address _asset, address _stablecoin, uint8 _loops, bool _isLong) public {\r\n        // Open up a position, will push to ledger at the end\r\n        leverageOptionPosition memory newPosition;\r\n        \r\n        // Write values know immediately\r\n        newPosition.isLong = _isLong;\r\n        newPosition.asset = _asset;\r\n        newPosition.stablecoin = _stablecoin;\r\n        newPosition.collateralOwned = 0;\r\n        newPosition.amountOwed = 0;\r\n        \r\n        // Leverage positon\r\n        for (uint index = 0; index <= _loops;index++) {\r\n\r\n            if(_isLong) {\r\n               (uint256 amountBorrowed, uint256 collateralOwned) = leveragePosition(_asset, _stablecoin);\r\n               newPosition.amountOwed += amountBorrowed;\r\n               newPosition.collateralOwned += collateralOwned;\r\n            } else{\r\n                (uint256 amountBorrowed, uint256 collateralOwned) = leveragePosition(_stablecoin, _asset);\r\n                newPosition.amountOwed += amountBorrowed;\r\n                newPosition.collateralOwned += collateralOwned;\r\n            }\r\n        }\r\n\r\n        // Finally push position to internalLedger\r\n        internalLedger.push(newPosition);\r\n    }\r\n    */\r\n\r\n}\r\n",
  "sourcePath": "B:\\Nebula Labs\\Phantasm\\contracts\\Phantasm.sol",
  "compiler": {
    "name": "solc",
    "version": "0.8.4+commit.c7e474f2.Emscripten.clang"
  },
  "schemaVersion": "3.4.2",
  "updatedAt": "2021-09-24T05:06:01.829Z",
  "devdoc": {
    "kind": "dev",
    "methods": {},
    "version": 1
  },
  "userdoc": {
    "kind": "user",
    "methods": {},
    "version": 1
  }
}