{
  "contractName": "Phantasm",
  "abi": [
    {
      "inputs": [],
      "stateMutability": "nonpayable",
      "type": "constructor"
    },
    {
      "anonymous": false,
      "inputs": [
        {
          "indexed": true,
          "internalType": "address",
          "name": "owner",
          "type": "address"
        },
        {
          "indexed": true,
          "internalType": "address",
          "name": "approved",
          "type": "address"
        },
        {
          "indexed": true,
          "internalType": "uint256",
          "name": "tokenId",
          "type": "uint256"
        }
      ],
      "name": "Approval",
      "type": "event"
    },
    {
      "anonymous": false,
      "inputs": [
        {
          "indexed": true,
          "internalType": "address",
          "name": "owner",
          "type": "address"
        },
        {
          "indexed": true,
          "internalType": "address",
          "name": "operator",
          "type": "address"
        },
        {
          "indexed": false,
          "internalType": "bool",
          "name": "approved",
          "type": "bool"
        }
      ],
      "name": "ApprovalForAll",
      "type": "event"
    },
    {
      "anonymous": false,
      "inputs": [
        {
          "indexed": true,
          "internalType": "address",
          "name": "from",
          "type": "address"
        },
        {
          "indexed": true,
          "internalType": "address",
          "name": "to",
          "type": "address"
        },
        {
          "indexed": true,
          "internalType": "uint256",
          "name": "tokenId",
          "type": "uint256"
        }
      ],
      "name": "Transfer",
      "type": "event"
    },
    {
      "inputs": [
        {
          "internalType": "address",
          "name": "to",
          "type": "address"
        },
        {
          "internalType": "uint256",
          "name": "tokenId",
          "type": "uint256"
        }
      ],
      "name": "approve",
      "outputs": [],
      "stateMutability": "nonpayable",
      "type": "function"
    },
    {
      "inputs": [
        {
          "internalType": "address",
          "name": "owner",
          "type": "address"
        }
      ],
      "name": "balanceOf",
      "outputs": [
        {
          "internalType": "uint256",
          "name": "",
          "type": "uint256"
        }
      ],
      "stateMutability": "view",
      "type": "function"
    },
    {
      "inputs": [
        {
          "internalType": "uint256",
          "name": "tokenId",
          "type": "uint256"
        }
      ],
      "name": "getApproved",
      "outputs": [
        {
          "internalType": "address",
          "name": "",
          "type": "address"
        }
      ],
      "stateMutability": "view",
      "type": "function"
    },
    {
      "inputs": [
        {
          "internalType": "address",
          "name": "owner",
          "type": "address"
        },
        {
          "internalType": "address",
          "name": "operator",
          "type": "address"
        }
      ],
      "name": "isApprovedForAll",
      "outputs": [
        {
          "internalType": "bool",
          "name": "",
          "type": "bool"
        }
      ],
      "stateMutability": "view",
      "type": "function"
    },
    {
      "inputs": [],
      "name": "name",
      "outputs": [
        {
          "internalType": "string",
          "name": "",
          "type": "string"
        }
      ],
      "stateMutability": "view",
      "type": "function"
    },
    {
      "inputs": [
        {
          "internalType": "uint256",
          "name": "tokenId",
          "type": "uint256"
        }
      ],
      "name": "ownerOf",
      "outputs": [
        {
          "internalType": "address",
          "name": "",
          "type": "address"
        }
      ],
      "stateMutability": "view",
      "type": "function"
    },
    {
      "inputs": [
        {
          "internalType": "address",
          "name": "from",
          "type": "address"
        },
        {
          "internalType": "address",
          "name": "to",
          "type": "address"
        },
        {
          "internalType": "uint256",
          "name": "tokenId",
          "type": "uint256"
        }
      ],
      "name": "safeTransferFrom",
      "outputs": [],
      "stateMutability": "nonpayable",
      "type": "function"
    },
    {
      "inputs": [
        {
          "internalType": "address",
          "name": "from",
          "type": "address"
        },
        {
          "internalType": "address",
          "name": "to",
          "type": "address"
        },
        {
          "internalType": "uint256",
          "name": "tokenId",
          "type": "uint256"
        },
        {
          "internalType": "bytes",
          "name": "_data",
          "type": "bytes"
        }
      ],
      "name": "safeTransferFrom",
      "outputs": [],
      "stateMutability": "nonpayable",
      "type": "function"
    },
    {
      "inputs": [
        {
          "internalType": "address",
          "name": "operator",
          "type": "address"
        },
        {
          "internalType": "bool",
          "name": "approved",
          "type": "bool"
        }
      ],
      "name": "setApprovalForAll",
      "outputs": [],
      "stateMutability": "nonpayable",
      "type": "function"
    },
    {
      "inputs": [
        {
          "internalType": "bytes4",
          "name": "interfaceId",
          "type": "bytes4"
        }
      ],
      "name": "supportsInterface",
      "outputs": [
        {
          "internalType": "bool",
          "name": "",
          "type": "bool"
        }
      ],
      "stateMutability": "view",
      "type": "function"
    },
    {
      "inputs": [],
      "name": "symbol",
      "outputs": [
        {
          "internalType": "string",
          "name": "",
          "type": "string"
        }
      ],
      "stateMutability": "view",
      "type": "function"
    },
    {
      "inputs": [
        {
          "internalType": "uint256",
          "name": "tokenId",
          "type": "uint256"
        }
      ],
      "name": "tokenURI",
      "outputs": [
        {
          "internalType": "string",
          "name": "",
          "type": "string"
        }
      ],
      "stateMutability": "view",
      "type": "function"
    },
    {
      "inputs": [
        {
          "internalType": "address",
          "name": "from",
          "type": "address"
        },
        {
          "internalType": "address",
          "name": "to",
          "type": "address"
        },
        {
          "internalType": "uint256",
          "name": "tokenId",
          "type": "uint256"
        }
      ],
      "name": "transferFrom",
      "outputs": [],
      "stateMutability": "nonpayable",
      "type": "function"
    },
    {
      "inputs": [
        {
          "internalType": "address",
          "name": "_personOfInterest",
          "type": "address"
        }
      ],
      "name": "viewPositions",
      "outputs": [
        {
          "components": [
            {
              "internalType": "bool",
              "name": "isLong",
              "type": "bool"
            },
            {
              "internalType": "address",
              "name": "asset",
              "type": "address"
            },
            {
              "internalType": "address",
              "name": "stablecoin",
              "type": "address"
            },
            {
              "internalType": "uint256",
              "name": "collateralOwned",
              "type": "uint256"
            },
            {
              "internalType": "uint256",
              "name": "amountOwed",
              "type": "uint256"
            }
          ],
          "internalType": "struct Phantasm.Position[]",
          "name": "",
          "type": "tuple[]"
        }
      ],
      "stateMutability": "view",
      "type": "function"
    },
    {
      "inputs": [
        {
          "internalType": "bool",
          "name": "_isLong",
          "type": "bool"
        },
        {
          "internalType": "address",
          "name": "_asset",
          "type": "address"
        },
        {
          "internalType": "address",
          "name": "_stablecoin",
          "type": "address"
        },
        {
          "internalType": "uint8",
          "name": "_loops",
          "type": "uint8"
        }
      ],
      "name": "createPosition",
      "outputs": [],
      "stateMutability": "nonpayable",
      "type": "function"
    }
  ],
  "bytecode": "0x60806040523480156200001157600080fd5b506040518060400160405280601181526020017f5068616e7461736d20506f736974696f6e0000000000000000000000000000008152506040518060400160405280600581526020017f5350435452000000000000000000000000000000000000000000000000000000815250816000908051906020019062000096929190620000b8565b508060019080519060200190620000af929190620000b8565b505050620001cd565b828054620000c69062000168565b90600052602060002090601f016020900481019282620000ea576000855562000136565b82601f106200010557805160ff191683800117855562000136565b8280016001018555821562000136579182015b828111156200013557825182559160200191906001019062000118565b5b50905062000145919062000149565b5090565b5b80821115620001645760008160009055506001016200014a565b5090565b600060028204905060018216806200018157607f821691505b602082108114156200019857620001976200019e565b5b50919050565b7f4e487b7100000000000000000000000000000000000000000000000000000000600052602260045260246000fd5b6128d080620001dd6000396000f3fe608060405234801561001057600080fd5b50600436106100f55760003560e01c806370a0823111610097578063a22cb46511610066578063a22cb46514610296578063b88d4fde146102b2578063c87b56dd146102ce578063e985e9c5146102fe576100f5565b806370a08231146101fc578063777b6d751461022c578063934f08891461025c57806395d89b4114610278576100f5565b8063095ea7b3116100d3578063095ea7b31461017857806323b872dd1461019457806342842e0e146101b05780636352211e146101cc576100f5565b806301ffc9a7146100fa57806306fdde031461012a578063081812fc14610148575b600080fd5b610114600480360381019061010f91906119f6565b61032e565b6040516101219190611e9d565b60405180910390f35b610132610410565b60405161013f9190611eb8565b60405180910390f35b610162600480360381019061015d9190611a48565b6104a2565b60405161016f9190611e14565b60405180910390f35b610192600480360381019061018d9190611957565b610527565b005b6101ae60048036038101906101a99190611851565b61063f565b005b6101ca60048036038101906101c59190611851565b61069f565b005b6101e660048036038101906101e19190611a48565b6106bf565b6040516101f39190611e14565b60405180910390f35b610216600480360381019061021191906117ec565b610771565b604051610223919061205a565b60405180910390f35b610246600480360381019061024191906117ec565b610829565b6040516102539190611e7b565b60405180910390f35b61027660048036038101906102719190611993565b6109a2565b005b610280610a59565b60405161028d9190611eb8565b60405180910390f35b6102b060048036038101906102ab919061191b565b610aeb565b005b6102cc60048036038101906102c791906118a0565b610c6c565b005b6102e860048036038101906102e39190611a48565b610cce565b6040516102f59190611eb8565b60405180910390f35b61031860048036038101906103139190611815565b610d75565b6040516103259190611e9d565b60405180910390f35b60007f80ac58cd000000000000000000000000000000000000000000000000000000007bffffffffffffffffffffffffffffffffffffffffffffffffffffffff1916827bffffffffffffffffffffffffffffffffffffffffffffffffffffffff191614806103f957507f5b5e139f000000000000000000000000000000000000000000000000000000007bffffffffffffffffffffffffffffffffffffffffffffffffffffffff1916827bffffffffffffffffffffffffffffffffffffffffffffffffffffffff1916145b80610409575061040882610e09565b5b9050919050565b60606000805461041f906122c5565b80601f016020809104026020016040519081016040528092919081815260200182805461044b906122c5565b80156104985780601f1061046d57610100808354040283529160200191610498565b820191906000526020600020905b81548152906001019060200180831161047b57829003601f168201915b5050505050905090565b60006104ad82610e73565b6104ec576040517f08c379a00000000000000000000000000000000000000000000000000000000081526004016104e390611fba565b60405180910390fd5b6004600083815260200190815260200160002060009054906101000a900473ffffffffffffffffffffffffffffffffffffffff169050919050565b6000610532826106bf565b90508073ffffffffffffffffffffffffffffffffffffffff168373ffffffffffffffffffffffffffffffffffffffff1614156105a3576040517f08c379a000000000000000000000000000000000000000000000000000000000815260040161059a9061201a565b60405180910390fd5b8073ffffffffffffffffffffffffffffffffffffffff166105c2610edf565b73ffffffffffffffffffffffffffffffffffffffff1614806105f157506105f0816105eb610edf565b610d75565b5b610630576040517f08c379a000000000000000000000000000000000000000000000000000000000815260040161062790611f5a565b60405180910390fd5b61063a8383610ee7565b505050565b61065061064a610edf565b82610fa0565b61068f576040517f08c379a00000000000000000000000000000000000000000000000000000000081526004016106869061203a565b60405180910390fd5b61069a83838361107e565b505050565b6106ba83838360405180602001604052806000815250610c6c565b505050565b6000806002600084815260200190815260200160002060009054906101000a900473ffffffffffffffffffffffffffffffffffffffff169050600073ffffffffffffffffffffffffffffffffffffffff168173ffffffffffffffffffffffffffffffffffffffff161415610768576040517f08c379a000000000000000000000000000000000000000000000000000000000815260040161075f90611f9a565b60405180910390fd5b80915050919050565b60008073ffffffffffffffffffffffffffffffffffffffff168273ffffffffffffffffffffffffffffffffffffffff1614156107e2576040517f08c379a00000000000000000000000000000000000000000000000000000000081526004016107d990611f7a565b60405180910390fd5b600360008373ffffffffffffffffffffffffffffffffffffffff1673ffffffffffffffffffffffffffffffffffffffff168152602001908152602001600020549050919050565b6060600660008373ffffffffffffffffffffffffffffffffffffffff1673ffffffffffffffffffffffffffffffffffffffff168152602001908152602001600020805480602002602001604051908101604052809291908181526020016000905b8282101561099757838290600052602060002090600402016040518060a00160405290816000820160009054906101000a900460ff161515151581526020016000820160019054906101000a900473ffffffffffffffffffffffffffffffffffffffff1673ffffffffffffffffffffffffffffffffffffffff1673ffffffffffffffffffffffffffffffffffffffff1681526020016001820160009054906101000a900473ffffffffffffffffffffffffffffffffffffffff1673ffffffffffffffffffffffffffffffffffffffff1673ffffffffffffffffffffffffffffffffffffffff168152602001600282015481526020016003820154815250508152602001906001019061088a565b505050509050919050565b6109aa6116a9565b8481600001901515908115158152505083816020019073ffffffffffffffffffffffffffffffffffffffff16908173ffffffffffffffffffffffffffffffffffffffff168152505082816040019073ffffffffffffffffffffffffffffffffffffffff16908173ffffffffffffffffffffffffffffffffffffffff168152505060008290505b8260ff168160ff161015610a51578080610a4990612371565b915050610a30565b505050505050565b606060018054610a68906122c5565b80601f0160208091040260200160405190810160405280929190818152602001828054610a94906122c5565b8015610ae15780601f10610ab657610100808354040283529160200191610ae1565b820191906000526020600020905b815481529060010190602001808311610ac457829003601f168201915b5050505050905090565b610af3610edf565b73ffffffffffffffffffffffffffffffffffffffff168273ffffffffffffffffffffffffffffffffffffffff161415610b61576040517f08c379a0000000000000000000000000000000000000000000000000000000008152600401610b5890611f1a565b60405180910390fd5b8060056000610b6e610edf565b73ffffffffffffffffffffffffffffffffffffffff1673ffffffffffffffffffffffffffffffffffffffff16815260200190815260200160002060008473ffffffffffffffffffffffffffffffffffffffff1673ffffffffffffffffffffffffffffffffffffffff16815260200190815260200160002060006101000a81548160ff0219169083151502179055508173ffffffffffffffffffffffffffffffffffffffff16610c1b610edf565b73ffffffffffffffffffffffffffffffffffffffff167f17307eab39ab6107e8899845ad3d59bd9653f200f220920489ca2b5937696c3183604051610c609190611e9d565b60405180910390a35050565b610c7d610c77610edf565b83610fa0565b610cbc576040517f08c379a0000000000000000000000000000000000000000000000000000000008152600401610cb39061203a565b60405180910390fd5b610cc8848484846112da565b50505050565b6060610cd982610e73565b610d18576040517f08c379a0000000000000000000000000000000000000000000000000000000008152600401610d0f90611ffa565b60405180910390fd5b6000610d22611336565b90506000815111610d425760405180602001604052806000815250610d6d565b80610d4c8461134d565b604051602001610d5d929190611df0565b6040516020818303038152906040525b915050919050565b6000600560008473ffffffffffffffffffffffffffffffffffffffff1673ffffffffffffffffffffffffffffffffffffffff16815260200190815260200160002060008373ffffffffffffffffffffffffffffffffffffffff1673ffffffffffffffffffffffffffffffffffffffff16815260200190815260200160002060009054906101000a900460ff16905092915050565b60007f01ffc9a7000000000000000000000000000000000000000000000000000000007bffffffffffffffffffffffffffffffffffffffffffffffffffffffff1916827bffffffffffffffffffffffffffffffffffffffffffffffffffffffff1916149050919050565b60008073ffffffffffffffffffffffffffffffffffffffff166002600084815260200190815260200160002060009054906101000a900473ffffffffffffffffffffffffffffffffffffffff1673ffffffffffffffffffffffffffffffffffffffff1614159050919050565b600033905090565b816004600083815260200190815260200160002060006101000a81548173ffffffffffffffffffffffffffffffffffffffff021916908373ffffffffffffffffffffffffffffffffffffffff160217905550808273ffffffffffffffffffffffffffffffffffffffff16610f5a836106bf565b73ffffffffffffffffffffffffffffffffffffffff167f8c5be1e5ebec7d5bd14f71427d1e84f3dd0314c0f7b2291e5b200ac8c7c3b92560405160405180910390a45050565b6000610fab82610e73565b610fea576040517f08c379a0000000000000000000000000000000000000000000000000000000008152600401610fe190611f3a565b60405180910390fd5b6000610ff5836106bf565b90508073ffffffffffffffffffffffffffffffffffffffff168473ffffffffffffffffffffffffffffffffffffffff16148061106457508373ffffffffffffffffffffffffffffffffffffffff1661104c846104a2565b73ffffffffffffffffffffffffffffffffffffffff16145b8061107557506110748185610d75565b5b91505092915050565b8273ffffffffffffffffffffffffffffffffffffffff1661109e826106bf565b73ffffffffffffffffffffffffffffffffffffffff16146110f4576040517f08c379a00000000000000000000000000000000000000000000000000000000081526004016110eb90611fda565b60405180910390fd5b600073ffffffffffffffffffffffffffffffffffffffff168273ffffffffffffffffffffffffffffffffffffffff161415611164576040517f08c379a000000000000000000000000000000000000000000000000000000000815260040161115b90611efa565b60405180910390fd5b61116f8383836114fa565b61117a600082610ee7565b6001600360008573ffffffffffffffffffffffffffffffffffffffff1673ffffffffffffffffffffffffffffffffffffffff16815260200190815260200160002060008282546111ca91906121ce565b925050819055506001600360008473ffffffffffffffffffffffffffffffffffffffff1673ffffffffffffffffffffffffffffffffffffffff16815260200190815260200160002060008282546112219190612147565b92505081905550816002600083815260200190815260200160002060006101000a81548173ffffffffffffffffffffffffffffffffffffffff021916908373ffffffffffffffffffffffffffffffffffffffff160217905550808273ffffffffffffffffffffffffffffffffffffffff168473ffffffffffffffffffffffffffffffffffffffff167fddf252ad1be2c89b69c2b068fc378daa952ba7f163c4a11628f55a4df523b3ef60405160405180910390a4505050565b6112e584848461107e565b6112f1848484846114ff565b611330576040517f08c379a000000000000000000000000000000000000000000000000000000000815260040161132790611eda565b60405180910390fd5b50505050565b606060405180602001604052806000815250905090565b60606000821415611395576040518060400160405280600181526020017f300000000000000000000000000000000000000000000000000000000000000081525090506114f5565b600082905060005b600082146113c75780806113b090612328565b915050600a826113c0919061219d565b915061139d565b60008167ffffffffffffffff811115611409577f4e487b7100000000000000000000000000000000000000000000000000000000600052604160045260246000fd5b6040519080825280601f01601f19166020018201604052801561143b5781602001600182028036833780820191505090505b5090505b600085146114ee5760018261145491906121ce565b9150600a85611463919061239b565b603061146f9190612147565b60f81b8183815181106114ab577f4e487b7100000000000000000000000000000000000000000000000000000000600052603260045260246000fd5b60200101907effffffffffffffffffffffffffffffffffffffffffffffffffffffffffffff1916908160001a905350600a856114e7919061219d565b945061143f565b8093505050505b919050565b505050565b60006115208473ffffffffffffffffffffffffffffffffffffffff16611696565b15611689578373ffffffffffffffffffffffffffffffffffffffff1663150b7a02611549610edf565b8786866040518563ffffffff1660e01b815260040161156b9493929190611e2f565b602060405180830381600087803b15801561158557600080fd5b505af19250505080156115b657506040513d601f19601f820116820180604052508101906115b39190611a1f565b60015b611639573d80600081146115e6576040519150601f19603f3d011682016040523d82523d6000602084013e6115eb565b606091505b50600081511415611631576040517f08c379a000000000000000000000000000000000000000000000000000000000815260040161162890611eda565b60405180910390fd5b805181602001fd5b63150b7a0260e01b7bffffffffffffffffffffffffffffffffffffffffffffffffffffffff1916817bffffffffffffffffffffffffffffffffffffffffffffffffffffffff19161491505061168e565b600190505b949350505050565b600080823b905060008111915050919050565b6040518060a00160405280600015158152602001600073ffffffffffffffffffffffffffffffffffffffff168152602001600073ffffffffffffffffffffffffffffffffffffffff16815260200160008152602001600081525090565b60006117196117148461209a565b612075565b90508281526020810184848401111561173157600080fd5b61173c848285612283565b509392505050565b60008135905061175381612827565b92915050565b6000813590506117688161283e565b92915050565b60008135905061177d81612855565b92915050565b60008151905061179281612855565b92915050565b600082601f8301126117a957600080fd5b81356117b9848260208601611706565b91505092915050565b6000813590506117d18161286c565b92915050565b6000813590506117e681612883565b92915050565b6000602082840312156117fe57600080fd5b600061180c84828501611744565b91505092915050565b6000806040838503121561182857600080fd5b600061183685828601611744565b925050602061184785828601611744565b9150509250929050565b60008060006060848603121561186657600080fd5b600061187486828701611744565b935050602061188586828701611744565b9250506040611896868287016117c2565b9150509250925092565b600080600080608085870312156118b657600080fd5b60006118c487828801611744565b94505060206118d587828801611744565b93505060406118e6878288016117c2565b925050606085013567ffffffffffffffff81111561190357600080fd5b61190f87828801611798565b91505092959194509250565b6000806040838503121561192e57600080fd5b600061193c85828601611744565b925050602061194d85828601611759565b9150509250929050565b6000806040838503121561196a57600080fd5b600061197885828601611744565b9250506020611989858286016117c2565b9150509250929050565b600080600080608085870312156119a957600080fd5b60006119b787828801611759565b94505060206119c887828801611744565b93505060406119d987828801611744565b92505060606119ea878288016117d7565b91505092959194509250565b600060208284031215611a0857600080fd5b6000611a168482850161176e565b91505092915050565b600060208284031215611a3157600080fd5b6000611a3f84828501611783565b91505092915050565b600060208284031215611a5a57600080fd5b6000611a68848285016117c2565b91505092915050565b6000611a7d8383611d6a565b60a08301905092915050565b611a9281612202565b82525050565b611aa181612202565b82525050565b6000611ab2826120db565b611abc8185612109565b9350611ac7836120cb565b8060005b83811015611af8578151611adf8882611a71565b9750611aea836120fc565b925050600181019050611acb565b5085935050505092915050565b611b0e81612214565b82525050565b611b1d81612214565b82525050565b6000611b2e826120e6565b611b38818561211a565b9350611b48818560208601612292565b611b5181612488565b840191505092915050565b6000611b67826120f1565b611b71818561212b565b9350611b81818560208601612292565b611b8a81612488565b840191505092915050565b6000611ba0826120f1565b611baa818561213c565b9350611bba818560208601612292565b80840191505092915050565b6000611bd360328361212b565b9150611bde82612499565b604082019050919050565b6000611bf660248361212b565b9150611c01826124e8565b604082019050919050565b6000611c1960198361212b565b9150611c2482612537565b602082019050919050565b6000611c3c602c8361212b565b9150611c4782612560565b604082019050919050565b6000611c5f60388361212b565b9150611c6a826125af565b604082019050919050565b6000611c82602a8361212b565b9150611c8d826125fe565b604082019050919050565b6000611ca560298361212b565b9150611cb08261264d565b604082019050919050565b6000611cc8602c8361212b565b9150611cd38261269c565b604082019050919050565b6000611ceb60298361212b565b9150611cf6826126eb565b604082019050919050565b6000611d0e602f8361212b565b9150611d198261273a565b604082019050919050565b6000611d3160218361212b565b9150611d3c82612789565b604082019050919050565b6000611d5460318361212b565b9150611d5f826127d8565b604082019050919050565b60a082016000820151611d806000850182611b05565b506020820151611d936020850182611a89565b506040820151611da66040850182611a89565b506060820151611db96060850182611dd2565b506080820151611dcc6080850182611dd2565b50505050565b611ddb8161226c565b82525050565b611dea8161226c565b82525050565b6000611dfc8285611b95565b9150611e088284611b95565b91508190509392505050565b6000602082019050611e296000830184611a98565b92915050565b6000608082019050611e446000830187611a98565b611e516020830186611a98565b611e5e6040830185611de1565b8181036060830152611e708184611b23565b905095945050505050565b60006020820190508181036000830152611e958184611aa7565b905092915050565b6000602082019050611eb26000830184611b14565b92915050565b60006020820190508181036000830152611ed28184611b5c565b905092915050565b60006020820190508181036000830152611ef381611bc6565b9050919050565b60006020820190508181036000830152611f1381611be9565b9050919050565b60006020820190508181036000830152611f3381611c0c565b9050919050565b60006020820190508181036000830152611f5381611c2f565b9050919050565b60006020820190508181036000830152611f7381611c52565b9050919050565b60006020820190508181036000830152611f9381611c75565b9050919050565b60006020820190508181036000830152611fb381611c98565b9050919050565b60006020820190508181036000830152611fd381611cbb565b9050919050565b60006020820190508181036000830152611ff381611cde565b9050919050565b6000602082019050818103600083015261201381611d01565b9050919050565b6000602082019050818103600083015261203381611d24565b9050919050565b6000602082019050818103600083015261205381611d47565b9050919050565b600060208201905061206f6000830184611de1565b92915050565b600061207f612090565b905061208b82826122f7565b919050565b6000604051905090565b600067ffffffffffffffff8211156120b5576120b4612459565b5b6120be82612488565b9050602081019050919050565b6000819050602082019050919050565b600081519050919050565b600081519050919050565b600081519050919050565b6000602082019050919050565b600082825260208201905092915050565b600082825260208201905092915050565b600082825260208201905092915050565b600081905092915050565b60006121528261226c565b915061215d8361226c565b9250827fffffffffffffffffffffffffffffffffffffffffffffffffffffffffffffffff03821115612192576121916123cc565b5b828201905092915050565b60006121a88261226c565b91506121b38361226c565b9250826121c3576121c26123fb565b5b828204905092915050565b60006121d98261226c565b91506121e48361226c565b9250828210156121f7576121f66123cc565b5b828203905092915050565b600061220d8261224c565b9050919050565b60008115159050919050565b60007fffffffff0000000000000000000000000000000000000000000000000000000082169050919050565b600073ffffffffffffffffffffffffffffffffffffffff82169050919050565b6000819050919050565b600060ff82169050919050565b82818337600083830152505050565b60005b838110156122b0578082015181840152602081019050612295565b838111156122bf576000848401525b50505050565b600060028204905060018216806122dd57607f821691505b602082108114156122f1576122f061242a565b5b50919050565b61230082612488565b810181811067ffffffffffffffff8211171561231f5761231e612459565b5b80604052505050565b60006123338261226c565b91507fffffffffffffffffffffffffffffffffffffffffffffffffffffffffffffffff821415612366576123656123cc565b5b600182019050919050565b600061237c82612276565b915060ff8214156123905761238f6123cc565b5b600182019050919050565b60006123a68261226c565b91506123b18361226c565b9250826123c1576123c06123fb565b5b828206905092915050565b7f4e487b7100000000000000000000000000000000000000000000000000000000600052601160045260246000fd5b7f4e487b7100000000000000000000000000000000000000000000000000000000600052601260045260246000fd5b7f4e487b7100000000000000000000000000000000000000000000000000000000600052602260045260246000fd5b7f4e487b7100000000000000000000000000000000000000000000000000000000600052604160045260246000fd5b6000601f19601f8301169050919050565b7f4552433732313a207472616e7366657220746f206e6f6e20455243373231526560008201527f63656976657220696d706c656d656e7465720000000000000000000000000000602082015250565b7f4552433732313a207472616e7366657220746f20746865207a65726f2061646460008201527f7265737300000000000000000000000000000000000000000000000000000000602082015250565b7f4552433732313a20617070726f766520746f2063616c6c657200000000000000600082015250565b7f4552433732313a206f70657261746f7220717565727920666f72206e6f6e657860008201527f697374656e7420746f6b656e0000000000000000000000000000000000000000602082015250565b7f4552433732313a20617070726f76652063616c6c6572206973206e6f74206f7760008201527f6e6572206e6f7220617070726f76656420666f7220616c6c0000000000000000602082015250565b7f4552433732313a2062616c616e636520717565727920666f7220746865207a6560008201527f726f206164647265737300000000000000000000000000000000000000000000602082015250565b7f4552433732313a206f776e657220717565727920666f72206e6f6e657869737460008201527f656e7420746f6b656e0000000000000000000000000000000000000000000000602082015250565b7f4552433732313a20617070726f76656420717565727920666f72206e6f6e657860008201527f697374656e7420746f6b656e0000000000000000000000000000000000000000602082015250565b7f4552433732313a207472616e73666572206f6620746f6b656e2074686174206960008201527f73206e6f74206f776e0000000000000000000000000000000000000000000000602082015250565b7f4552433732314d657461646174613a2055524920717565727920666f72206e6f60008201527f6e6578697374656e7420746f6b656e0000000000000000000000000000000000602082015250565b7f4552433732313a20617070726f76616c20746f2063757272656e74206f776e6560008201527f7200000000000000000000000000000000000000000000000000000000000000602082015250565b7f4552433732313a207472616e736665722063616c6c6572206973206e6f74206f60008201527f776e6572206e6f7220617070726f766564000000000000000000000000000000602082015250565b61283081612202565b811461283b57600080fd5b50565b61284781612214565b811461285257600080fd5b50565b61285e81612220565b811461286957600080fd5b50565b6128758161226c565b811461288057600080fd5b50565b61288c81612276565b811461289757600080fd5b5056fea264697066735822122022c766333805eaebfbab10f0b7c87041b9c59315d2bdaec656a5c81839c90e1464736f6c63430008040033",
  "immutableReferences": {},
  "source": "// SPDX-License-Identifier: MIT\r\npragma solidity ^0.8;\r\n\r\nimport \"./interfaces/IERC20.sol\";\r\nimport \"@OpenZeppelin/contracts/token/ERC721/ERC721.sol\";\r\n\r\ncontract Phantasm is ERC721{\r\n    // Define a Struct to represent a position\r\n    struct Position {\r\n        bool    isLong;\r\n        address asset;\r\n        address stablecoin;\r\n        uint256 collateralOwned;\r\n        uint256 amountOwed;\r\n    }\r\n    // Next Define a ledger to hold everyone's positions\r\n    mapping(address => Position[]) internal positionLedger;\r\n    \r\n    constructor() ERC721(\"Phantasm Position\", \"SPCTR\") {\r\n        \r\n    }\r\n\r\n    \r\n    // Define a function to add a position\r\n    function addPosition(Position memory _newPosition) internal {\r\n        // Initialize the Position in memory\r\n        positionLedger[msg.sender].push(_newPosition);\r\n    }\r\n    \r\n    function removePosition(uint256 _index) internal {\r\n        // TODO Fix this being storage, use a memory array instead, or modify in place\r\n        Position[] storage currentPositions = positionLedger[msg.sender];\r\n        delete currentPositions[_index];\r\n        currentPositions[_index] = currentPositions[currentPositions.length-1];\r\n        delete currentPositions[currentPositions.length-1];\r\n        positionLedger[msg.sender] = currentPositions;\r\n    }\r\n    function viewPositions(address _personOfInterest) public view returns(Position[] memory) {\r\n        return positionLedger[_personOfInterest];\r\n    }\r\n    function createPosition(bool _isLong, address _asset, address _stablecoin, uint8 _loops) public {\r\n        // Define known parameters into a new position into memory\r\n        Position memory newPosition;\r\n        newPosition.isLong = _isLong;\r\n        newPosition.asset = _asset;\r\n        newPosition.stablecoin = _stablecoin;\r\n        \r\n        for(uint8 index = _loops; index < _loops; index++) {\r\n\r\n        }\r\n    }\r\n\r\n}",
  "sourcePath": "B:\\Nebula Labs\\Phantasm\\contracts\\Vault.sol",
  "compiler": {
    "name": "solc",
    "version": "0.8.4+commit.c7e474f2.Emscripten.clang"
  },
  "schemaVersion": "3.4.2",
  "updatedAt": "2021-09-24T05:06:01.801Z",
  "devdoc": {
    "kind": "dev",
    "methods": {
      "approve(address,uint256)": {
        "details": "See {IERC721-approve}."
      },
      "balanceOf(address)": {
        "details": "See {IERC721-balanceOf}."
      },
      "getApproved(uint256)": {
        "details": "See {IERC721-getApproved}."
      },
      "isApprovedForAll(address,address)": {
        "details": "See {IERC721-isApprovedForAll}."
      },
      "name()": {
        "details": "See {IERC721Metadata-name}."
      },
      "ownerOf(uint256)": {
        "details": "See {IERC721-ownerOf}."
      },
      "safeTransferFrom(address,address,uint256)": {
        "details": "See {IERC721-safeTransferFrom}."
      },
      "safeTransferFrom(address,address,uint256,bytes)": {
        "details": "See {IERC721-safeTransferFrom}."
      },
      "setApprovalForAll(address,bool)": {
        "details": "See {IERC721-setApprovalForAll}."
      },
      "supportsInterface(bytes4)": {
        "details": "See {IERC165-supportsInterface}."
      },
      "symbol()": {
        "details": "See {IERC721Metadata-symbol}."
      },
      "tokenURI(uint256)": {
        "details": "See {IERC721Metadata-tokenURI}."
      },
      "transferFrom(address,address,uint256)": {
        "details": "See {IERC721-transferFrom}."
      }
    },
    "version": 1
  },
  "userdoc": {
    "kind": "user",
    "methods": {},
    "version": 1
  }
}