{
  "contractName": "PhantasmManager",
  "abi": [
    {
      "inputs": [],
      "stateMutability": "nonpayable",
      "type": "constructor"
    },
    {
      "anonymous": false,
      "inputs": [
        {
          "indexed": true,
          "internalType": "address",
          "name": "owner",
          "type": "address"
        },
        {
          "indexed": true,
          "internalType": "address",
          "name": "approved",
          "type": "address"
        },
        {
          "indexed": true,
          "internalType": "uint256",
          "name": "tokenId",
          "type": "uint256"
        }
      ],
      "name": "Approval",
      "type": "event"
    },
    {
      "anonymous": false,
      "inputs": [
        {
          "indexed": true,
          "internalType": "address",
          "name": "owner",
          "type": "address"
        },
        {
          "indexed": true,
          "internalType": "address",
          "name": "operator",
          "type": "address"
        },
        {
          "indexed": false,
          "internalType": "bool",
          "name": "approved",
          "type": "bool"
        }
      ],
      "name": "ApprovalForAll",
      "type": "event"
    },
    {
      "anonymous": false,
      "inputs": [
        {
          "indexed": true,
          "internalType": "address",
          "name": "from",
          "type": "address"
        },
        {
          "indexed": true,
          "internalType": "address",
          "name": "to",
          "type": "address"
        },
        {
          "indexed": true,
          "internalType": "uint256",
          "name": "tokenId",
          "type": "uint256"
        }
      ],
      "name": "Transfer",
      "type": "event"
    },
    {
      "inputs": [],
      "name": "DAI",
      "outputs": [
        {
          "internalType": "address",
          "name": "",
          "type": "address"
        }
      ],
      "stateMutability": "view",
      "type": "function",
      "constant": true
    },
    {
      "inputs": [
        {
          "internalType": "address",
          "name": "to",
          "type": "address"
        },
        {
          "internalType": "uint256",
          "name": "tokenId",
          "type": "uint256"
        }
      ],
      "name": "approve",
      "outputs": [],
      "stateMutability": "nonpayable",
      "type": "function"
    },
    {
      "inputs": [
        {
          "internalType": "address",
          "name": "owner",
          "type": "address"
        }
      ],
      "name": "balanceOf",
      "outputs": [
        {
          "internalType": "uint256",
          "name": "",
          "type": "uint256"
        }
      ],
      "stateMutability": "view",
      "type": "function",
      "constant": true
    },
    {
      "inputs": [
        {
          "internalType": "uint256",
          "name": "",
          "type": "uint256"
        }
      ],
      "name": "bondImplementations",
      "outputs": [
        {
          "internalType": "address",
          "name": "",
          "type": "address"
        }
      ],
      "stateMutability": "view",
      "type": "function",
      "constant": true
    },
    {
      "inputs": [
        {
          "internalType": "uint256",
          "name": "tokenId",
          "type": "uint256"
        }
      ],
      "name": "getApproved",
      "outputs": [
        {
          "internalType": "address",
          "name": "",
          "type": "address"
        }
      ],
      "stateMutability": "view",
      "type": "function",
      "constant": true
    },
    {
      "inputs": [
        {
          "internalType": "address",
          "name": "owner",
          "type": "address"
        },
        {
          "internalType": "address",
          "name": "operator",
          "type": "address"
        }
      ],
      "name": "isApprovedForAll",
      "outputs": [
        {
          "internalType": "bool",
          "name": "",
          "type": "bool"
        }
      ],
      "stateMutability": "view",
      "type": "function",
      "constant": true
    },
    {
      "inputs": [
        {
          "internalType": "uint256",
          "name": "",
          "type": "uint256"
        }
      ],
      "name": "lenderImplementations",
      "outputs": [
        {
          "internalType": "address",
          "name": "",
          "type": "address"
        }
      ],
      "stateMutability": "view",
      "type": "function",
      "constant": true
    },
    {
      "inputs": [],
      "name": "name",
      "outputs": [
        {
          "internalType": "string",
          "name": "",
          "type": "string"
        }
      ],
      "stateMutability": "view",
      "type": "function",
      "constant": true
    },
    {
      "inputs": [
        {
          "internalType": "uint256",
          "name": "tokenId",
          "type": "uint256"
        }
      ],
      "name": "ownerOf",
      "outputs": [
        {
          "internalType": "address",
          "name": "",
          "type": "address"
        }
      ],
      "stateMutability": "view",
      "type": "function",
      "constant": true
    },
    {
      "inputs": [
        {
          "internalType": "address",
          "name": "from",
          "type": "address"
        },
        {
          "internalType": "address",
          "name": "to",
          "type": "address"
        },
        {
          "internalType": "uint256",
          "name": "tokenId",
          "type": "uint256"
        }
      ],
      "name": "safeTransferFrom",
      "outputs": [],
      "stateMutability": "nonpayable",
      "type": "function"
    },
    {
      "inputs": [
        {
          "internalType": "address",
          "name": "from",
          "type": "address"
        },
        {
          "internalType": "address",
          "name": "to",
          "type": "address"
        },
        {
          "internalType": "uint256",
          "name": "tokenId",
          "type": "uint256"
        },
        {
          "internalType": "bytes",
          "name": "_data",
          "type": "bytes"
        }
      ],
      "name": "safeTransferFrom",
      "outputs": [],
      "stateMutability": "nonpayable",
      "type": "function"
    },
    {
      "inputs": [
        {
          "internalType": "address",
          "name": "operator",
          "type": "address"
        },
        {
          "internalType": "bool",
          "name": "approved",
          "type": "bool"
        }
      ],
      "name": "setApprovalForAll",
      "outputs": [],
      "stateMutability": "nonpayable",
      "type": "function"
    },
    {
      "inputs": [
        {
          "internalType": "bytes4",
          "name": "interfaceId",
          "type": "bytes4"
        }
      ],
      "name": "supportsInterface",
      "outputs": [
        {
          "internalType": "bool",
          "name": "",
          "type": "bool"
        }
      ],
      "stateMutability": "view",
      "type": "function",
      "constant": true
    },
    {
      "inputs": [
        {
          "internalType": "uint256",
          "name": "",
          "type": "uint256"
        }
      ],
      "name": "swapImplementations",
      "outputs": [
        {
          "internalType": "address",
          "name": "",
          "type": "address"
        }
      ],
      "stateMutability": "view",
      "type": "function",
      "constant": true
    },
    {
      "inputs": [],
      "name": "symbol",
      "outputs": [
        {
          "internalType": "string",
          "name": "",
          "type": "string"
        }
      ],
      "stateMutability": "view",
      "type": "function",
      "constant": true
    },
    {
      "inputs": [
        {
          "internalType": "uint256",
          "name": "tokenId",
          "type": "uint256"
        }
      ],
      "name": "tokenURI",
      "outputs": [
        {
          "internalType": "string",
          "name": "",
          "type": "string"
        }
      ],
      "stateMutability": "view",
      "type": "function",
      "constant": true
    },
    {
      "inputs": [
        {
          "internalType": "address",
          "name": "from",
          "type": "address"
        },
        {
          "internalType": "address",
          "name": "to",
          "type": "address"
        },
        {
          "internalType": "uint256",
          "name": "tokenId",
          "type": "uint256"
        }
      ],
      "name": "transferFrom",
      "outputs": [],
      "stateMutability": "nonpayable",
      "type": "function"
    },
    {
      "inputs": [
        {
          "internalType": "uint256",
          "name": "_tokenID",
          "type": "uint256"
        }
      ],
      "name": "viewPosition",
      "outputs": [
        {
          "components": [
            {
              "internalType": "bool",
              "name": "isLong",
              "type": "bool"
            },
            {
              "internalType": "bool",
              "name": "isInsulated",
              "type": "bool"
            },
            {
              "internalType": "address",
              "name": "asset",
              "type": "address"
            },
            {
              "internalType": "address",
              "name": "stablecoin",
              "type": "address"
            },
            {
              "internalType": "uint256",
              "name": "debtOwed",
              "type": "uint256"
            },
            {
              "internalType": "uint256",
              "name": "totalCollateral",
              "type": "uint256"
            },
            {
              "internalType": "uint64",
              "name": "lender",
              "type": "uint64"
            }
          ],
          "internalType": "struct PhantasmManager.Position",
          "name": "",
          "type": "tuple"
        }
      ],
      "stateMutability": "view",
      "type": "function",
      "constant": true
    },
    {
      "inputs": [
        {
          "internalType": "address",
          "name": "_implementation",
          "type": "address"
        }
      ],
      "name": "addSwapImplementation",
      "outputs": [],
      "stateMutability": "nonpayable",
      "type": "function"
    },
    {
      "inputs": [
        {
          "internalType": "address",
          "name": "_implementation",
          "type": "address"
        }
      ],
      "name": "addLenderImplementation",
      "outputs": [],
      "stateMutability": "nonpayable",
      "type": "function"
    },
    {
      "inputs": [
        {
          "internalType": "address",
          "name": "_implementation",
          "type": "address"
        }
      ],
      "name": "addBondImplementation",
      "outputs": [],
      "stateMutability": "nonpayable",
      "type": "function"
    },
    {
      "inputs": [
        {
          "internalType": "uint64",
          "name": "_lenderImplementation",
          "type": "uint64"
        },
        {
          "internalType": "uint64",
          "name": "_swapImplementation",
          "type": "uint64"
        },
        {
          "internalType": "address",
          "name": "_longToken",
          "type": "address"
        },
        {
          "internalType": "uint256",
          "name": "_borrowFactor",
          "type": "uint256"
        },
        {
          "internalType": "uint256",
          "name": "_assetAmount",
          "type": "uint256"
        },
        {
          "internalType": "uint256",
          "name": "_initialBorrow",
          "type": "uint256"
        }
      ],
      "name": "openLongPositionNFT",
      "outputs": [
        {
          "internalType": "uint256",
          "name": "",
          "type": "uint256"
        }
      ],
      "stateMutability": "nonpayable",
      "type": "function"
    },
    {
      "inputs": [
        {
          "internalType": "uint256",
          "name": "_tokenID",
          "type": "uint256"
        },
        {
          "internalType": "uint8",
          "name": "_swapImplementation",
          "type": "uint8"
        },
        {
          "internalType": "uint256",
          "name": "_interestAccured",
          "type": "uint256"
        }
      ],
      "name": "closeLongPosition",
      "outputs": [],
      "stateMutability": "nonpayable",
      "type": "function"
    },
    {
      "inputs": [
        {
          "internalType": "uint64",
          "name": "_lenderImplementation",
          "type": "uint64"
        },
        {
          "internalType": "uint64",
          "name": "_swapImplementation",
          "type": "uint64"
        },
        {
          "internalType": "address",
          "name": "_shortToken",
          "type": "address"
        },
        {
          "internalType": "uint256",
          "name": "_borrowFactor",
          "type": "uint256"
        },
        {
          "internalType": "uint256",
          "name": "_assetAmount",
          "type": "uint256"
        },
        {
          "internalType": "uint256",
          "name": "_initialBorrow",
          "type": "uint256"
        }
      ],
      "name": "openShortPositionNFT",
      "outputs": [
        {
          "internalType": "uint256",
          "name": "",
          "type": "uint256"
        }
      ],
      "stateMutability": "nonpayable",
      "type": "function"
    },
    {
      "inputs": [
        {
          "internalType": "uint256",
          "name": "_tokenID",
          "type": "uint256"
        },
        {
          "internalType": "uint8",
          "name": "_swapImplementation",
          "type": "uint8"
        },
        {
          "internalType": "uint256",
          "name": "_interestAccured",
          "type": "uint256"
        }
      ],
      "name": "closeShortPosition",
      "outputs": [],
      "stateMutability": "nonpayable",
      "type": "function"
    },
    {
      "inputs": [
        {
          "internalType": "address",
          "name": "_longToken",
          "type": "address"
        },
        {
          "internalType": "uint256",
          "name": "_borrowFactor",
          "type": "uint256"
        },
        {
          "internalType": "uint256",
          "name": "_assetAmount",
          "type": "uint256"
        },
        {
          "internalType": "uint256",
          "name": "_initialBorrow",
          "type": "uint256"
        },
        {
          "internalType": "address",
          "name": "_88mphPool",
          "type": "address"
        },
        {
          "internalType": "uint64",
          "name": "_depositId",
          "type": "uint64"
        },
        {
          "internalType": "uint256",
          "name": "stableFundAmount",
          "type": "uint256"
        }
      ],
      "name": "openInsulatedLongPositionNFT",
      "outputs": [
        {
          "internalType": "uint256",
          "name": "",
          "type": "uint256"
        }
      ],
      "stateMutability": "nonpayable",
      "type": "function"
    },
    {
      "inputs": [
        {
          "internalType": "uint256",
          "name": "_tokenID",
          "type": "uint256"
        },
        {
          "internalType": "uint8",
          "name": "_swapImplementation",
          "type": "uint8"
        },
        {
          "internalType": "uint64",
          "name": "_bondImplementation",
          "type": "uint64"
        },
        {
          "internalType": "uint256",
          "name": "_tipFee",
          "type": "uint256"
        }
      ],
      "name": "closeInsulatedLongPosition",
      "outputs": [],
      "stateMutability": "nonpayable",
      "type": "function"
    }
  ],
  "bytecode": "0x608060405260006008553480156200001657600080fd5b506040518060400160405280601181526020017f5068616e7461736d20506f736974696f6e0000000000000000000000000000008152506040518060400160405280600581526020017f535043545200000000000000000000000000000000000000000000000000000081525081600090805190602001906200009b929190620000fe565b508060019080519060200190620000b4929190620000fe565b50505033600660006101000a81548173ffffffffffffffffffffffffffffffffffffffff021916908373ffffffffffffffffffffffffffffffffffffffff16021790555062000213565b8280546200010c90620001ae565b90600052602060002090601f0160209004810192826200013057600085556200017c565b82601f106200014b57805160ff19168380011785556200017c565b828001600101855582156200017c579182015b828111156200017b5782518255916020019190600101906200015e565b5b5090506200018b91906200018f565b5090565b5b80821115620001aa57600081600090555060010162000190565b5090565b60006002820490506001821680620001c757607f821691505b60208210811415620001de57620001dd620001e4565b5b50919050565b7f4e487b7100000000000000000000000000000000000000000000000000000000600052602260045260246000fd5b61501980620002236000396000f3fe608060405234801561001057600080fd5b50600436106101a95760003560e01c8063744f7c7b116100f9578063c87b56dd11610097578063e0009d5011610071578063e0009d5014610512578063e0bab4c414610542578063e2cfda0014610560578063e985e9c51461057c576101a9565b8063c87b56dd14610482578063d4372b33146104b2578063d84e0d6a146104e2576101a9565b8063a22cb465116100d3578063a22cb465146103fe578063b18373b81461041a578063b6e222e01461044a578063b88d4fde14610466576101a9565b8063744f7c7b1461039457806386d5effe146103b057806395d89b41146103e0576101a9565b80633f3413a7116101665780635973dbb4116101405780635973dbb4146102e85780636352211e1461030457806370a082311461033457806371ac9a0814610364576101a9565b80633f3413a71461029457806342842e0e146102b05780634f902a5f146102cc576101a9565b806301ffc9a7146101ae57806306fdde03146101de578063081812fc146101fc578063095ea7b31461022c5780631448b9d51461024857806323b872dd14610278575b600080fd5b6101c860048036038101906101c39190613d06565b6105ac565b6040516101d59190614502565b60405180910390f35b6101e661068e565b6040516101f3919061451d565b60405180910390f35b61021660048036038101906102119190613d58565b610720565b604051610223919061435e565b60405180910390f35b61024660048036038101906102419190613c03565b6107a5565b005b610262600480360381019061025d9190613d58565b6108bd565b60405161026f919061435e565b60405180910390f35b610292600480360381019061028d9190613afd565b6108fc565b005b6102ae60048036038101906102a99190613a98565b61095c565b005b6102ca60048036038101906102c59190613afd565b610a1c565b005b6102e660048036038101906102e19190613de6565b610a3c565b005b61030260048036038101906102fd9190613e35565b610dda565b005b61031e60048036038101906103199190613d58565b6112c3565b60405161032b919061435e565b60405180910390f35b61034e60048036038101906103499190613a98565b611375565b60405161035b919061473a565b60405180910390f35b61037e60048036038101906103799190613c3f565b61142d565b60405161038b919061473a565b60405180910390f35b6103ae60048036038101906103a99190613a98565b611a18565b005b6103ca60048036038101906103c59190613d58565b611ad8565b6040516103d7919061435e565b60405180910390f35b6103e8611b17565b6040516103f5919061451d565b60405180910390f35b61041860048036038101906104139190613bc7565b611ba9565b005b610434600480360381019061042f9190613efb565b611d2a565b604051610441919061473a565b60405180910390f35b610464600480360381019061045f9190613a98565b612155565b005b610480600480360381019061047b9190613b4c565b612215565b005b61049c60048036038101906104979190613d58565b612277565b6040516104a9919061451d565b60405180910390f35b6104cc60048036038101906104c79190613d58565b61231e565b6040516104d9919061435e565b60405180910390f35b6104fc60048036038101906104f79190613d58565b61235d565b604051610509919061471f565b60405180910390f35b61052c60048036038101906105279190613efb565b6124b2565b604051610539919061473a565b60405180910390f35b61054a6128b5565b604051610557919061435e565b60405180910390f35b61057a60048036038101906105759190613de6565b6128cd565b005b61059660048036038101906105919190613ac1565b612c8b565b6040516105a39190614502565b60405180910390f35b60007f80ac58cd000000000000000000000000000000000000000000000000000000007bffffffffffffffffffffffffffffffffffffffffffffffffffffffff1916827bffffffffffffffffffffffffffffffffffffffffffffffffffffffff1916148061067757507f5b5e139f000000000000000000000000000000000000000000000000000000007bffffffffffffffffffffffffffffffffffffffffffffffffffffffff1916827bffffffffffffffffffffffffffffffffffffffffffffffffffffffff1916145b80610687575061068682612d1f565b5b9050919050565b60606000805461069d90614980565b80601f01602080910402602001604051908101604052809291908181526020018280546106c990614980565b80156107165780601f106106eb57610100808354040283529160200191610716565b820191906000526020600020905b8154815290600101906020018083116106f957829003601f168201915b5050505050905090565b600061072b82612d89565b61076a576040517f08c379a00000000000000000000000000000000000000000000000000000000081526004016107619061467f565b60405180910390fd5b6004600083815260200190815260200160002060009054906101000a900473ffffffffffffffffffffffffffffffffffffffff169050919050565b60006107b0826112c3565b90508073ffffffffffffffffffffffffffffffffffffffff168373ffffffffffffffffffffffffffffffffffffffff161415610821576040517f08c379a0000000000000000000000000000000000000000000000000000000008152600401610818906146df565b60405180910390fd5b8073ffffffffffffffffffffffffffffffffffffffff16610840612df5565b73ffffffffffffffffffffffffffffffffffffffff16148061086f575061086e81610869612df5565b612c8b565b5b6108ae576040517f08c379a00000000000000000000000000000000000000000000000000000000081526004016108a5906145df565b60405180910390fd5b6108b88383612dfd565b505050565b600a81815481106108cd57600080fd5b906000526020600020016000915054906101000a900473ffffffffffffffffffffffffffffffffffffffff1681565b61090d610907612df5565b82612eb6565b61094c576040517f08c379a0000000000000000000000000000000000000000000000000000000008152600401610943906146ff565b60405180910390fd5b610957838383612f94565b505050565b600660009054906101000a900473ffffffffffffffffffffffffffffffffffffffff1673ffffffffffffffffffffffffffffffffffffffff163373ffffffffffffffffffffffffffffffffffffffff16146109b657600080fd5b600a819080600181540180825580915050600190039060005260206000200160009091909190916101000a81548173ffffffffffffffffffffffffffffffffffffffff021916908373ffffffffffffffffffffffffffffffffffffffff16021790555050565b610a3783838360405180602001604052806000815250612215565b505050565b3373ffffffffffffffffffffffffffffffffffffffff16610a5c846112c3565b73ffffffffffffffffffffffffffffffffffffffff1614610ab2576040517f08c379a0000000000000000000000000000000000000000000000000000000008152600401610aa99061463f565b60405180910390fd5b6000610abd8461235d565b90506000816080015183610ad191906147ee565b9050816040015173ffffffffffffffffffffffffffffffffffffffff166323b872dd3330846040518463ffffffff1660e01b8152600401610b14939291906143cc565b602060405180830381600087803b158015610b2e57600080fd5b505af1158015610b42573d6000803e3d6000fd5b505050506040513d601f19601f82011682018060405250810190610b669190613cdd565b50816040015173ffffffffffffffffffffffffffffffffffffffff1663095ea7b3600a8460c0015167ffffffffffffffff1681548110610bcf577f4e487b7100000000000000000000000000000000000000000000000000000000600052603260045260246000fd5b9060005260206000200160009054906101000a900473ffffffffffffffffffffffffffffffffffffffff16836040518363ffffffff1660e01b8152600401610c189291906144a2565b602060405180830381600087803b158015610c3257600080fd5b505af1158015610c46573d6000803e3d6000fd5b505050506040513d601f19601f82011682018060405250810190610c6a9190613cdd565b50600a8260c0015167ffffffffffffffff1681548110610cb3577f4e487b7100000000000000000000000000000000000000000000000000000000600052603260045260246000fd5b9060005260206000200160009054906101000a900473ffffffffffffffffffffffffffffffffffffffff1673ffffffffffffffffffffffffffffffffffffffff166330802ff78360400151738f3cf7ad23cd3cadbd9735aff958023239c6a06360098860ff1681548110610d50577f4e487b7100000000000000000000000000000000000000000000000000000000600052603260045260246000fd5b9060005260206000200160009054906101000a900473ffffffffffffffffffffffffffffffffffffffff16858760a001516040518663ffffffff1660e01b8152600401610da1959493929190614379565b600060405180830381600087803b158015610dbb57600080fd5b505af1158015610dcf573d6000803e3d6000fd5b505050505050505050565b3373ffffffffffffffffffffffffffffffffffffffff16610dfa856112c3565b73ffffffffffffffffffffffffffffffffffffffff1614610e50576040517f08c379a0000000000000000000000000000000000000000000000000000000008152600401610e479061463f565b60405180910390fd5b6000610e5b8561235d565b90508060200151610e6b57600080fd5b738f3cf7ad23cd3cadbd9735aff958023239c6a06373ffffffffffffffffffffffffffffffffffffffff166323b872dd3330858560800151610ead91906147ee565b6040518463ffffffff1660e01b8152600401610ecb939291906143cc565b602060405180830381600087803b158015610ee557600080fd5b505af1158015610ef9573d6000803e3d6000fd5b505050506040513d601f19601f82011682018060405250810190610f1d9190613cdd565b506000600b8467ffffffffffffffff1681548110610f64577f4e487b7100000000000000000000000000000000000000000000000000000000600052603260045260246000fd5b9060005260206000200160009054906101000a900473ffffffffffffffffffffffffffffffffffffffff1673ffffffffffffffffffffffffffffffffffffffff166381a96daa83606001516040518263ffffffff1660e01b8152600401610fcb919061435e565b602060405180830381600087803b158015610fe557600080fd5b505af1158015610ff9573d6000803e3d6000fd5b505050506040513d601f19601f8201168201806040525081019061101d9190613d81565b905060008383608001518361103291906147ee565b61103c91906147ee565b9050738f3cf7ad23cd3cadbd9735aff958023239c6a06373ffffffffffffffffffffffffffffffffffffffff1663095ea7b3600a8560c0015167ffffffffffffffff16815481106110b6577f4e487b7100000000000000000000000000000000000000000000000000000000600052603260045260246000fd5b9060005260206000200160009054906101000a900473ffffffffffffffffffffffffffffffffffffffff16836040518363ffffffff1660e01b81526004016110ff9291906144a2565b602060405180830381600087803b15801561111957600080fd5b505af115801561112d573d6000803e3d6000fd5b505050506040513d601f19601f820116820180604052508101906111519190613cdd565b50600a8360c0015167ffffffffffffffff168154811061119a577f4e487b7100000000000000000000000000000000000000000000000000000000600052603260045260246000fd5b9060005260206000200160009054906101000a900473ffffffffffffffffffffffffffffffffffffffff1673ffffffffffffffffffffffffffffffffffffffff166330802ff7738f3cf7ad23cd3cadbd9735aff958023239c6a063856040015160098a60ff1681548110611237577f4e487b7100000000000000000000000000000000000000000000000000000000600052603260045260246000fd5b9060005260206000200160009054906101000a900473ffffffffffffffffffffffffffffffffffffffff16858860a001516040518663ffffffff1660e01b8152600401611288959493929190614379565b600060405180830381600087803b1580156112a257600080fd5b505af11580156112b6573d6000803e3d6000fd5b5050505050505050505050565b6000806002600084815260200190815260200160002060009054906101000a900473ffffffffffffffffffffffffffffffffffffffff169050600073ffffffffffffffffffffffffffffffffffffffff168173ffffffffffffffffffffffffffffffffffffffff16141561136c576040517f08c379a00000000000000000000000000000000000000000000000000000000081526004016113639061461f565b60405180910390fd5b80915050919050565b60008073ffffffffffffffffffffffffffffffffffffffff168273ffffffffffffffffffffffffffffffffffffffff1614156113e6576040517f08c379a00000000000000000000000000000000000000000000000000000000081526004016113dd906145ff565b60405180910390fd5b600360008373ffffffffffffffffffffffffffffffffffffffff1673ffffffffffffffffffffffffffffffffffffffff168152602001908152602001600020549050919050565b60008773ffffffffffffffffffffffffffffffffffffffff166323b872dd3330896040518463ffffffff1660e01b815260040161146c939291906143cc565b602060405180830381600087803b15801561148657600080fd5b505af115801561149a573d6000803e3d6000fd5b505050506040513d601f19601f820116820180604052508101906114be9190613cdd565b50738f3cf7ad23cd3cadbd9735aff958023239c6a06373ffffffffffffffffffffffffffffffffffffffff166323b872dd33600b60008154811061152b577f4e487b7100000000000000000000000000000000000000000000000000000000600052603260045260246000fd5b9060005260206000200160009054906101000a900473ffffffffffffffffffffffffffffffffffffffff16856040518463ffffffff1660e01b8152600401611575939291906143cc565b602060405180830381600087803b15801561158f57600080fd5b505af11580156115a3573d6000803e3d6000fd5b505050506040513d601f19601f820116820180604052508101906115c79190613cdd565b50600b600081548110611603577f4e487b7100000000000000000000000000000000000000000000000000000000600052603260045260246000fd5b9060005260206000200160009054906101000a900473ffffffffffffffffffffffffffffffffffffffff1673ffffffffffffffffffffffffffffffffffffffff1663844b8b9a8585856040518463ffffffff1660e01b815260040161166a939291906144cb565b608060405180830381600087803b15801561168457600080fd5b505af1158015611698573d6000803e3d6000fd5b505050506040513d601f19601f820116820180604052508101906116bc9190613e98565b505050508773ffffffffffffffffffffffffffffffffffffffff1663095ea7b3600a600081548110611717577f4e487b7100000000000000000000000000000000000000000000000000000000600052603260045260246000fd5b9060005260206000200160009054906101000a900473ffffffffffffffffffffffffffffffffffffffff16886040518363ffffffff1660e01b81526004016117609291906144a2565b602060405180830381600087803b15801561177a57600080fd5b505af115801561178e573d6000803e3d6000fd5b505050506040513d601f19601f820116820180604052508101906117b29190613cdd565b50600080600a6000815481106117f1577f4e487b7100000000000000000000000000000000000000000000000000000000600052603260045260246000fd5b9060005260206000200160009054906101000a900473ffffffffffffffffffffffffffffffffffffffff1673ffffffffffffffffffffffffffffffffffffffff1663526597948b6009600081548110611873577f4e487b7100000000000000000000000000000000000000000000000000000000600052603260045260246000fd5b9060005260206000200160009054906101000a900473ffffffffffffffffffffffffffffffffffffffff168b8b8e6040518663ffffffff1660e01b81526004016118c195949392919061444f565b6040805180830381600087803b1580156118da57600080fd5b505af11580156118ee573d6000803e3d6000fd5b505050506040513d601f19601f820116820180604052508101906119129190613daa565b9150915061191e6138e7565b600181600001901515908115158152505060018160200190151590811515815250508a816040019073ffffffffffffffffffffffffffffffffffffffff16908173ffffffffffffffffffffffffffffffffffffffff168152505082816080018181525050738f3cf7ad23cd3cadbd9735aff958023239c6a063816060019073ffffffffffffffffffffffffffffffffffffffff16908173ffffffffffffffffffffffffffffffffffffffff1681525050818160a001818152505060008160c0019067ffffffffffffffff16908167ffffffffffffffff16815250506000611a04826131f0565b905080945050505050979650505050505050565b600660009054906101000a900473ffffffffffffffffffffffffffffffffffffffff1673ffffffffffffffffffffffffffffffffffffffff163373ffffffffffffffffffffffffffffffffffffffff1614611a7257600080fd5b6009819080600181540180825580915050600190039060005260206000200160009091909190916101000a81548173ffffffffffffffffffffffffffffffffffffffff021916908373ffffffffffffffffffffffffffffffffffffffff16021790555050565b60098181548110611ae857600080fd5b906000526020600020016000915054906101000a900473ffffffffffffffffffffffffffffffffffffffff1681565b606060018054611b2690614980565b80601f0160208091040260200160405190810160405280929190818152602001828054611b5290614980565b8015611b9f5780601f10611b7457610100808354040283529160200191611b9f565b820191906000526020600020905b815481529060010190602001808311611b8257829003601f168201915b5050505050905090565b611bb1612df5565b73ffffffffffffffffffffffffffffffffffffffff168273ffffffffffffffffffffffffffffffffffffffff161415611c1f576040517f08c379a0000000000000000000000000000000000000000000000000000000008152600401611c169061459f565b60405180910390fd5b8060056000611c2c612df5565b73ffffffffffffffffffffffffffffffffffffffff1673ffffffffffffffffffffffffffffffffffffffff16815260200190815260200160002060008473ffffffffffffffffffffffffffffffffffffffff1673ffffffffffffffffffffffffffffffffffffffff16815260200190815260200160002060006101000a81548160ff0219169083151502179055508173ffffffffffffffffffffffffffffffffffffffff16611cd9612df5565b73ffffffffffffffffffffffffffffffffffffffff167f17307eab39ab6107e8899845ad3d59bd9653f200f220920489ca2b5937696c3183604051611d1e9190614502565b60405180910390a35050565b6000738f3cf7ad23cd3cadbd9735aff958023239c6a06373ffffffffffffffffffffffffffffffffffffffff166323b872dd3330866040518463ffffffff1660e01b8152600401611d7d939291906143cc565b602060405180830381600087803b158015611d9757600080fd5b505af1158015611dab573d6000803e3d6000fd5b505050506040513d601f19601f82011682018060405250810190611dcf9190613cdd565b50738f3cf7ad23cd3cadbd9735aff958023239c6a06373ffffffffffffffffffffffffffffffffffffffff1663095ea7b3600a8967ffffffffffffffff1681548110611e44577f4e487b7100000000000000000000000000000000000000000000000000000000600052603260045260246000fd5b9060005260206000200160009054906101000a900473ffffffffffffffffffffffffffffffffffffffff16856040518363ffffffff1660e01b8152600401611e8d9291906144a2565b602060405180830381600087803b158015611ea757600080fd5b505af1158015611ebb573d6000803e3d6000fd5b505050506040513d601f19601f82011682018060405250810190611edf9190613cdd565b50600080600a8967ffffffffffffffff1681548110611f27577f4e487b7100000000000000000000000000000000000000000000000000000000600052603260045260246000fd5b9060005260206000200160009054906101000a900473ffffffffffffffffffffffffffffffffffffffff1673ffffffffffffffffffffffffffffffffffffffff166327887ae48860098b67ffffffffffffffff1681548110611fb2577f4e487b7100000000000000000000000000000000000000000000000000000000600052603260045260246000fd5b9060005260206000200160009054906101000a900473ffffffffffffffffffffffffffffffffffffffff1688888b6040518663ffffffff1660e01b815260040161200095949392919061444f565b6040805180830381600087803b15801561201957600080fd5b505af115801561202d573d6000803e3d6000fd5b505050506040513d601f19601f820116820180604052508101906120519190613daa565b9150915061205d6138e7565b6000816000019015159081151581525050600081602001901515908115158152505087816040019073ffffffffffffffffffffffffffffffffffffffff16908173ffffffffffffffffffffffffffffffffffffffff168152505082816080018181525050738f3cf7ad23cd3cadbd9735aff958023239c6a063816060019073ffffffffffffffffffffffffffffffffffffffff16908173ffffffffffffffffffffffffffffffffffffffff1681525050818160a0018181525050898160c0019067ffffffffffffffff16908167ffffffffffffffff16815250506000612142826131f0565b9050809450505050509695505050505050565b600660009054906101000a900473ffffffffffffffffffffffffffffffffffffffff1673ffffffffffffffffffffffffffffffffffffffff163373ffffffffffffffffffffffffffffffffffffffff16146121af57600080fd5b600b819080600181540180825580915050600190039060005260206000200160009091909190916101000a81548173ffffffffffffffffffffffffffffffffffffffff021916908373ffffffffffffffffffffffffffffffffffffffff16021790555050565b612226612220612df5565b83612eb6565b612265576040517f08c379a000000000000000000000000000000000000000000000000000000000815260040161225c906146ff565b60405180910390fd5b6122718484848461334a565b50505050565b606061228282612d89565b6122c1576040517f08c379a00000000000000000000000000000000000000000000000000000000081526004016122b8906146bf565b60405180910390fd5b60006122cb6133a6565b905060008151116122eb5760405180602001604052806000815250612316565b806122f5846133bd565b60405160200161230692919061433a565b6040516020818303038152906040525b915050919050565b600b818154811061232e57600080fd5b906000526020600020016000915054906101000a900473ffffffffffffffffffffffffffffffffffffffff1681565b6123656138e7565b600760008381526020019081526020016000206040518060e00160405290816000820160009054906101000a900460ff161515151581526020016000820160019054906101000a900460ff161515151581526020016000820160029054906101000a900473ffffffffffffffffffffffffffffffffffffffff1673ffffffffffffffffffffffffffffffffffffffff1673ffffffffffffffffffffffffffffffffffffffff1681526020016001820160009054906101000a900473ffffffffffffffffffffffffffffffffffffffff1673ffffffffffffffffffffffffffffffffffffffff1673ffffffffffffffffffffffffffffffffffffffff16815260200160028201548152602001600382015481526020016004820160009054906101000a900467ffffffffffffffff1667ffffffffffffffff1667ffffffffffffffff16815250509050919050565b60008473ffffffffffffffffffffffffffffffffffffffff166323b872dd3330866040518463ffffffff1660e01b81526004016124f1939291906143cc565b602060405180830381600087803b15801561250b57600080fd5b505af115801561251f573d6000803e3d6000fd5b505050506040513d601f19601f820116820180604052508101906125439190613cdd565b508473ffffffffffffffffffffffffffffffffffffffff1663095ea7b3600a8967ffffffffffffffff16815481106125a4577f4e487b7100000000000000000000000000000000000000000000000000000000600052603260045260246000fd5b9060005260206000200160009054906101000a900473ffffffffffffffffffffffffffffffffffffffff16856040518363ffffffff1660e01b81526004016125ed9291906144a2565b602060405180830381600087803b15801561260757600080fd5b505af115801561261b573d6000803e3d6000fd5b505050506040513d601f19601f8201168201806040525081019061263f9190613cdd565b50600080600a8967ffffffffffffffff1681548110612687577f4e487b7100000000000000000000000000000000000000000000000000000000600052603260045260246000fd5b9060005260206000200160009054906101000a900473ffffffffffffffffffffffffffffffffffffffff1673ffffffffffffffffffffffffffffffffffffffff1663526597948860098b67ffffffffffffffff1681548110612712577f4e487b7100000000000000000000000000000000000000000000000000000000600052603260045260246000fd5b9060005260206000200160009054906101000a900473ffffffffffffffffffffffffffffffffffffffff1688888b6040518663ffffffff1660e01b815260040161276095949392919061444f565b6040805180830381600087803b15801561277957600080fd5b505af115801561278d573d6000803e3d6000fd5b505050506040513d601f19601f820116820180604052508101906127b19190613daa565b915091506127bd6138e7565b6001816000019015159081151581525050600081602001901515908115158152505087816040019073ffffffffffffffffffffffffffffffffffffffff16908173ffffffffffffffffffffffffffffffffffffffff168152505082816080018181525050738f3cf7ad23cd3cadbd9735aff958023239c6a063816060019073ffffffffffffffffffffffffffffffffffffffff16908173ffffffffffffffffffffffffffffffffffffffff1681525050818160a0018181525050898160c0019067ffffffffffffffff16908167ffffffffffffffff168152505060006128a2826131f0565b9050809450505050509695505050505050565b738f3cf7ad23cd3cadbd9735aff958023239c6a06381565b3373ffffffffffffffffffffffffffffffffffffffff166128ed846112c3565b73ffffffffffffffffffffffffffffffffffffffff1614612943576040517f08c379a000000000000000000000000000000000000000000000000000000000815260040161293a9061463f565b60405180910390fd5b600061294e8461235d565b9050600081608001518361296291906147ee565b9050738f3cf7ad23cd3cadbd9735aff958023239c6a06373ffffffffffffffffffffffffffffffffffffffff166323b872dd3330846040518463ffffffff1660e01b81526004016129b5939291906143cc565b602060405180830381600087803b1580156129cf57600080fd5b505af11580156129e3573d6000803e3d6000fd5b505050506040513d601f19601f82011682018060405250810190612a079190613cdd565b50738f3cf7ad23cd3cadbd9735aff958023239c6a06373ffffffffffffffffffffffffffffffffffffffff1663095ea7b3600a8460c0015167ffffffffffffffff1681548110612a80577f4e487b7100000000000000000000000000000000000000000000000000000000600052603260045260246000fd5b9060005260206000200160009054906101000a900473ffffffffffffffffffffffffffffffffffffffff16836040518363ffffffff1660e01b8152600401612ac99291906144a2565b602060405180830381600087803b158015612ae357600080fd5b505af1158015612af7573d6000803e3d6000fd5b505050506040513d601f19601f82011682018060405250810190612b1b9190613cdd565b50600a8260c0015167ffffffffffffffff1681548110612b64577f4e487b7100000000000000000000000000000000000000000000000000000000600052603260045260246000fd5b9060005260206000200160009054906101000a900473ffffffffffffffffffffffffffffffffffffffff1673ffffffffffffffffffffffffffffffffffffffff166330802ff7738f3cf7ad23cd3cadbd9735aff958023239c6a063846040015160098860ff1681548110612c01577f4e487b7100000000000000000000000000000000000000000000000000000000600052603260045260246000fd5b9060005260206000200160009054906101000a900473ffffffffffffffffffffffffffffffffffffffff16858760a001516040518663ffffffff1660e01b8152600401612c52959493929190614379565b600060405180830381600087803b158015612c6c57600080fd5b505af1158015612c80573d6000803e3d6000fd5b505050505050505050565b6000600560008473ffffffffffffffffffffffffffffffffffffffff1673ffffffffffffffffffffffffffffffffffffffff16815260200190815260200160002060008373ffffffffffffffffffffffffffffffffffffffff1673ffffffffffffffffffffffffffffffffffffffff16815260200190815260200160002060009054906101000a900460ff16905092915050565b60007f01ffc9a7000000000000000000000000000000000000000000000000000000007bffffffffffffffffffffffffffffffffffffffffffffffffffffffff1916827bffffffffffffffffffffffffffffffffffffffffffffffffffffffff1916149050919050565b60008073ffffffffffffffffffffffffffffffffffffffff166002600084815260200190815260200160002060009054906101000a900473ffffffffffffffffffffffffffffffffffffffff1673ffffffffffffffffffffffffffffffffffffffff1614159050919050565b600033905090565b816004600083815260200190815260200160002060006101000a81548173ffffffffffffffffffffffffffffffffffffffff021916908373ffffffffffffffffffffffffffffffffffffffff160217905550808273ffffffffffffffffffffffffffffffffffffffff16612e70836112c3565b73ffffffffffffffffffffffffffffffffffffffff167f8c5be1e5ebec7d5bd14f71427d1e84f3dd0314c0f7b2291e5b200ac8c7c3b92560405160405180910390a45050565b6000612ec182612d89565b612f00576040517f08c379a0000000000000000000000000000000000000000000000000000000008152600401612ef7906145bf565b60405180910390fd5b6000612f0b836112c3565b90508073ffffffffffffffffffffffffffffffffffffffff168473ffffffffffffffffffffffffffffffffffffffff161480612f7a57508373ffffffffffffffffffffffffffffffffffffffff16612f6284610720565b73ffffffffffffffffffffffffffffffffffffffff16145b80612f8b5750612f8a8185612c8b565b5b91505092915050565b8273ffffffffffffffffffffffffffffffffffffffff16612fb4826112c3565b73ffffffffffffffffffffffffffffffffffffffff161461300a576040517f08c379a00000000000000000000000000000000000000000000000000000000081526004016130019061469f565b60405180910390fd5b600073ffffffffffffffffffffffffffffffffffffffff168273ffffffffffffffffffffffffffffffffffffffff16141561307a576040517f08c379a00000000000000000000000000000000000000000000000000000000081526004016130719061457f565b60405180910390fd5b61308583838361356a565b613090600082612dfd565b6001600360008573ffffffffffffffffffffffffffffffffffffffff1673ffffffffffffffffffffffffffffffffffffffff16815260200190815260200160002060008282546130e09190614875565b925050819055506001600360008473ffffffffffffffffffffffffffffffffffffffff1673ffffffffffffffffffffffffffffffffffffffff168152602001908152602001600020600082825461313791906147ee565b92505081905550816002600083815260200190815260200160002060006101000a81548173ffffffffffffffffffffffffffffffffffffffff021916908373ffffffffffffffffffffffffffffffffffffffff160217905550808273ffffffffffffffffffffffffffffffffffffffff168473ffffffffffffffffffffffffffffffffffffffff167fddf252ad1be2c89b69c2b068fc378daa952ba7f163c4a11628f55a4df523b3ef60405160405180910390a4505050565b600060086000815480929190613205906149e3565b91905055508160076000600854815260200190815260200160002060008201518160000160006101000a81548160ff02191690831515021790555060208201518160000160016101000a81548160ff02191690831515021790555060408201518160000160026101000a81548173ffffffffffffffffffffffffffffffffffffffff021916908373ffffffffffffffffffffffffffffffffffffffff16021790555060608201518160010160006101000a81548173ffffffffffffffffffffffffffffffffffffffff021916908373ffffffffffffffffffffffffffffffffffffffff1602179055506080820151816002015560a0820151816003015560c08201518160040160006101000a81548167ffffffffffffffff021916908367ffffffffffffffff1602179055509050506133403360085461356f565b6008549050919050565b613355848484612f94565b6133618484848461373d565b6133a0576040517f08c379a00000000000000000000000000000000000000000000000000000000081526004016133979061453f565b60405180910390fd5b50505050565b606060405180602001604052806000815250905090565b60606000821415613405576040518060400160405280600181526020017f30000000000000000000000000000000000000000000000000000000000000008152509050613565565b600082905060005b60008214613437578080613420906149e3565b915050600a826134309190614844565b915061340d565b60008167ffffffffffffffff811115613479577f4e487b7100000000000000000000000000000000000000000000000000000000600052604160045260246000fd5b6040519080825280601f01601f1916602001820160405280156134ab5781602001600182028036833780820191505090505b5090505b6000851461355e576001826134c49190614875565b9150600a856134d39190614a2c565b60306134df91906147ee565b60f81b81838151811061351b577f4e487b7100000000000000000000000000000000000000000000000000000000600052603260045260246000fd5b60200101907effffffffffffffffffffffffffffffffffffffffffffffffffffffffffffff1916908160001a905350600a856135579190614844565b94506134af565b8093505050505b919050565b505050565b600073ffffffffffffffffffffffffffffffffffffffff168273ffffffffffffffffffffffffffffffffffffffff1614156135df576040517f08c379a00000000000000000000000000000000000000000000000000000000081526004016135d69061465f565b60405180910390fd5b6135e881612d89565b15613628576040517f08c379a000000000000000000000000000000000000000000000000000000000815260040161361f9061455f565b60405180910390fd5b6136346000838361356a565b6001600360008473ffffffffffffffffffffffffffffffffffffffff1673ffffffffffffffffffffffffffffffffffffffff168152602001908152602001600020600082825461368491906147ee565b92505081905550816002600083815260200190815260200160002060006101000a81548173ffffffffffffffffffffffffffffffffffffffff021916908373ffffffffffffffffffffffffffffffffffffffff160217905550808273ffffffffffffffffffffffffffffffffffffffff16600073ffffffffffffffffffffffffffffffffffffffff167fddf252ad1be2c89b69c2b068fc378daa952ba7f163c4a11628f55a4df523b3ef60405160405180910390a45050565b600061375e8473ffffffffffffffffffffffffffffffffffffffff166138d4565b156138c7578373ffffffffffffffffffffffffffffffffffffffff1663150b7a02613787612df5565b8786866040518563ffffffff1660e01b81526004016137a99493929190614403565b602060405180830381600087803b1580156137c357600080fd5b505af19250505080156137f457506040513d601f19601f820116820180604052508101906137f19190613d2f565b60015b613877573d8060008114613824576040519150601f19603f3d011682016040523d82523d6000602084013e613829565b606091505b5060008151141561386f576040517f08c379a00000000000000000000000000000000000000000000000000000000081526004016138669061453f565b60405180910390fd5b805181602001fd5b63150b7a0260e01b7bffffffffffffffffffffffffffffffffffffffffffffffffffffffff1916817bffffffffffffffffffffffffffffffffffffffffffffffffffffffff1916149150506138cc565b600190505b949350505050565b600080823b905060008111915050919050565b6040518060e00160405280600015158152602001600015158152602001600073ffffffffffffffffffffffffffffffffffffffff168152602001600073ffffffffffffffffffffffffffffffffffffffff1681526020016000815260200160008152602001600067ffffffffffffffff1681525090565b600061397161396c8461477a565b614755565b90508281526020810184848401111561398957600080fd5b61399484828561493e565b509392505050565b6000813590506139ab81614f59565b92915050565b6000813590506139c081614f70565b92915050565b6000815190506139d581614f70565b92915050565b6000813590506139ea81614f87565b92915050565b6000815190506139ff81614f87565b92915050565b600082601f830112613a1657600080fd5b8135613a2684826020860161395e565b91505092915050565b600081359050613a3e81614f9e565b92915050565b600081519050613a5381614f9e565b92915050565b600081359050613a6881614fb5565b92915050565b600081519050613a7d81614fb5565b92915050565b600081359050613a9281614fcc565b92915050565b600060208284031215613aaa57600080fd5b6000613ab88482850161399c565b91505092915050565b60008060408385031215613ad457600080fd5b6000613ae28582860161399c565b9250506020613af38582860161399c565b9150509250929050565b600080600060608486031215613b1257600080fd5b6000613b208682870161399c565b9350506020613b318682870161399c565b9250506040613b4286828701613a2f565b9150509250925092565b60008060008060808587031215613b6257600080fd5b6000613b708782880161399c565b9450506020613b818782880161399c565b9350506040613b9287828801613a2f565b925050606085013567ffffffffffffffff811115613baf57600080fd5b613bbb87828801613a05565b91505092959194509250565b60008060408385031215613bda57600080fd5b6000613be88582860161399c565b9250506020613bf9858286016139b1565b9150509250929050565b60008060408385031215613c1657600080fd5b6000613c248582860161399c565b9250506020613c3585828601613a2f565b9150509250929050565b600080600080600080600060e0888a031215613c5a57600080fd5b6000613c688a828b0161399c565b9750506020613c798a828b01613a2f565b9650506040613c8a8a828b01613a2f565b9550506060613c9b8a828b01613a2f565b9450506080613cac8a828b0161399c565b93505060a0613cbd8a828b01613a59565b92505060c0613cce8a828b01613a2f565b91505092959891949750929550565b600060208284031215613cef57600080fd5b6000613cfd848285016139c6565b91505092915050565b600060208284031215613d1857600080fd5b6000613d26848285016139db565b91505092915050565b600060208284031215613d4157600080fd5b6000613d4f848285016139f0565b91505092915050565b600060208284031215613d6a57600080fd5b6000613d7884828501613a2f565b91505092915050565b600060208284031215613d9357600080fd5b6000613da184828501613a44565b91505092915050565b60008060408385031215613dbd57600080fd5b6000613dcb85828601613a44565b9250506020613ddc85828601613a44565b9150509250929050565b600080600060608486031215613dfb57600080fd5b6000613e0986828701613a2f565b9350506020613e1a86828701613a83565b9250506040613e2b86828701613a2f565b9150509250925092565b60008060008060808587031215613e4b57600080fd5b6000613e5987828801613a2f565b9450506020613e6a87828801613a83565b9350506040613e7b87828801613a59565b9250506060613e8c87828801613a2f565b91505092959194509250565b60008060008060808587031215613eae57600080fd5b6000613ebc87828801613a6e565b9450506020613ecd87828801613a44565b9350506040613ede87828801613a44565b9250506060613eef87828801613a44565b91505092959194509250565b60008060008060008060c08789031215613f1457600080fd5b6000613f2289828a01613a59565b9650506020613f3389828a01613a59565b9550506040613f4489828a0161399c565b9450506060613f5589828a01613a2f565b9350506080613f6689828a01613a2f565b92505060a0613f7789828a01613a2f565b9150509295509295509295565b613f8d816148a9565b82525050565b613f9c816148a9565b82525050565b613fab816148bb565b82525050565b613fba816148bb565b82525050565b6000613fcb826147ab565b613fd581856147c1565b9350613fe581856020860161494d565b613fee81614b19565b840191505092915050565b6000614004826147b6565b61400e81856147d2565b935061401e81856020860161494d565b61402781614b19565b840191505092915050565b600061403d826147b6565b61404781856147e3565b935061405781856020860161494d565b80840191505092915050565b60006140706032836147d2565b915061407b82614b2a565b604082019050919050565b6000614093601c836147d2565b915061409e82614b79565b602082019050919050565b60006140b66024836147d2565b91506140c182614ba2565b604082019050919050565b60006140d96019836147d2565b91506140e482614bf1565b602082019050919050565b60006140fc602c836147d2565b915061410782614c1a565b604082019050919050565b600061411f6038836147d2565b915061412a82614c69565b604082019050919050565b6000614142602a836147d2565b915061414d82614cb8565b604082019050919050565b60006141656029836147d2565b915061417082614d07565b604082019050919050565b6000614188602b836147d2565b915061419382614d56565b604082019050919050565b60006141ab6020836147d2565b91506141b682614da5565b602082019050919050565b60006141ce602c836147d2565b91506141d982614dce565b604082019050919050565b60006141f16029836147d2565b91506141fc82614e1d565b604082019050919050565b6000614214602f836147d2565b915061421f82614e6c565b604082019050919050565b60006142376021836147d2565b915061424282614ebb565b604082019050919050565b600061425a6031836147d2565b915061426582614f0a565b604082019050919050565b60e0820160008201516142866000850182613fa2565b5060208201516142996020850182613fa2565b5060408201516142ac6040850182613f84565b5060608201516142bf6060850182613f84565b5060808201516142d260808501826142fe565b5060a08201516142e560a08501826142fe565b5060c08201516142f860c085018261431c565b50505050565b61430781614913565b82525050565b61431681614913565b82525050565b6143258161491d565b82525050565b6143348161491d565b82525050565b60006143468285614032565b91506143528284614032565b91508190509392505050565b60006020820190506143736000830184613f93565b92915050565b600060a08201905061438e6000830188613f93565b61439b6020830187613f93565b6143a86040830186613f93565b6143b5606083018561430d565b6143c2608083018461430d565b9695505050505050565b60006060820190506143e16000830186613f93565b6143ee6020830185613f93565b6143fb604083018461430d565b949350505050565b60006080820190506144186000830187613f93565b6144256020830186613f93565b614432604083018561430d565b81810360608301526144448184613fc0565b905095945050505050565b600060a0820190506144646000830188613f93565b6144716020830187613f93565b61447e604083018661430d565b61448b606083018561430d565b614498608083018461430d565b9695505050505050565b60006040820190506144b76000830185613f93565b6144c4602083018461430d565b9392505050565b60006060820190506144e06000830186613f93565b6144ed602083018561432b565b6144fa604083018461430d565b949350505050565b60006020820190506145176000830184613fb1565b92915050565b600060208201905081810360008301526145378184613ff9565b905092915050565b6000602082019050818103600083015261455881614063565b9050919050565b6000602082019050818103600083015261457881614086565b9050919050565b60006020820190508181036000830152614598816140a9565b9050919050565b600060208201905081810360008301526145b8816140cc565b9050919050565b600060208201905081810360008301526145d8816140ef565b9050919050565b600060208201905081810360008301526145f881614112565b9050919050565b6000602082019050818103600083015261461881614135565b9050919050565b6000602082019050818103600083015261463881614158565b9050919050565b600060208201905081810360008301526146588161417b565b9050919050565b600060208201905081810360008301526146788161419e565b9050919050565b60006020820190508181036000830152614698816141c1565b9050919050565b600060208201905081810360008301526146b8816141e4565b9050919050565b600060208201905081810360008301526146d881614207565b9050919050565b600060208201905081810360008301526146f88161422a565b9050919050565b600060208201905081810360008301526147188161424d565b9050919050565b600060e0820190506147346000830184614270565b92915050565b600060208201905061474f600083018461430d565b92915050565b600061475f614770565b905061476b82826149b2565b919050565b6000604051905090565b600067ffffffffffffffff82111561479557614794614aea565b5b61479e82614b19565b9050602081019050919050565b600081519050919050565b600081519050919050565b600082825260208201905092915050565b600082825260208201905092915050565b600081905092915050565b60006147f982614913565b915061480483614913565b9250827fffffffffffffffffffffffffffffffffffffffffffffffffffffffffffffffff0382111561483957614838614a5d565b5b828201905092915050565b600061484f82614913565b915061485a83614913565b92508261486a57614869614a8c565b5b828204905092915050565b600061488082614913565b915061488b83614913565b92508282101561489e5761489d614a5d565b5b828203905092915050565b60006148b4826148f3565b9050919050565b60008115159050919050565b60007fffffffff0000000000000000000000000000000000000000000000000000000082169050919050565b600073ffffffffffffffffffffffffffffffffffffffff82169050919050565b6000819050919050565b600067ffffffffffffffff82169050919050565b600060ff82169050919050565b82818337600083830152505050565b60005b8381101561496b578082015181840152602081019050614950565b8381111561497a576000848401525b50505050565b6000600282049050600182168061499857607f821691505b602082108114156149ac576149ab614abb565b5b50919050565b6149bb82614b19565b810181811067ffffffffffffffff821117156149da576149d9614aea565b5b80604052505050565b60006149ee82614913565b91507fffffffffffffffffffffffffffffffffffffffffffffffffffffffffffffffff821415614a2157614a20614a5d565b5b600182019050919050565b6000614a3782614913565b9150614a4283614913565b925082614a5257614a51614a8c565b5b828206905092915050565b7f4e487b7100000000000000000000000000000000000000000000000000000000600052601160045260246000fd5b7f4e487b7100000000000000000000000000000000000000000000000000000000600052601260045260246000fd5b7f4e487b7100000000000000000000000000000000000000000000000000000000600052602260045260246000fd5b7f4e487b7100000000000000000000000000000000000000000000000000000000600052604160045260246000fd5b6000601f19601f8301169050919050565b7f4552433732313a207472616e7366657220746f206e6f6e20455243373231526560008201527f63656976657220696d706c656d656e7465720000000000000000000000000000602082015250565b7f4552433732313a20746f6b656e20616c7265616479206d696e74656400000000600082015250565b7f4552433732313a207472616e7366657220746f20746865207a65726f2061646460008201527f7265737300000000000000000000000000000000000000000000000000000000602082015250565b7f4552433732313a20617070726f766520746f2063616c6c657200000000000000600082015250565b7f4552433732313a206f70657261746f7220717565727920666f72206e6f6e657860008201527f697374656e7420746f6b656e0000000000000000000000000000000000000000602082015250565b7f4552433732313a20617070726f76652063616c6c6572206973206e6f74206f7760008201527f6e6572206e6f7220617070726f76656420666f7220616c6c0000000000000000602082015250565b7f4552433732313a2062616c616e636520717565727920666f7220746865207a6560008201527f726f206164647265737300000000000000000000000000000000000000000000602082015250565b7f4552433732313a206f776e657220717565727920666f72206e6f6e657869737460008201527f656e7420746f6b656e0000000000000000000000000000000000000000000000602082015250565b7f596f75206861766520746f206f776e20736f6d657468696e6720746f2067657460008201527f20697427732076616c7565000000000000000000000000000000000000000000602082015250565b7f4552433732313a206d696e7420746f20746865207a65726f2061646472657373600082015250565b7f4552433732313a20617070726f76656420717565727920666f72206e6f6e657860008201527f697374656e7420746f6b656e0000000000000000000000000000000000000000602082015250565b7f4552433732313a207472616e73666572206f6620746f6b656e2074686174206960008201527f73206e6f74206f776e0000000000000000000000000000000000000000000000602082015250565b7f4552433732314d657461646174613a2055524920717565727920666f72206e6f60008201527f6e6578697374656e7420746f6b656e0000000000000000000000000000000000602082015250565b7f4552433732313a20617070726f76616c20746f2063757272656e74206f776e6560008201527f7200000000000000000000000000000000000000000000000000000000000000602082015250565b7f4552433732313a207472616e736665722063616c6c6572206973206e6f74206f60008201527f776e6572206e6f7220617070726f766564000000000000000000000000000000602082015250565b614f62816148a9565b8114614f6d57600080fd5b50565b614f79816148bb565b8114614f8457600080fd5b50565b614f90816148c7565b8114614f9b57600080fd5b50565b614fa781614913565b8114614fb257600080fd5b50565b614fbe8161491d565b8114614fc957600080fd5b50565b614fd581614931565b8114614fe057600080fd5b5056fea2646970667358221220c79f5142a4517151fccb73ff1283aa276c84885c84e4a0939f30437baa4582c264736f6c63430008040033",
  "immutableReferences": {},
  "source": "// SPDX-License-Identifier: MIT\r\npragma solidity ^0.8;\r\n\r\n// Some interfaces are needed here\r\nimport \"./interfaces/IERC20.sol\";\r\nimport \"@openzeppelin/contracts/token/ERC721/ERC721.sol\";\r\nimport './interfaces/swapImplementation.sol';\r\n\r\n// Updated for Polygon\r\n\r\ninterface lenderImplementation {\r\n    function leverageLong(address _asset, address _swapper, uint256 _initialCollateralAmount, uint256 _initialBorrowAmount, uint256 _borrowFactor) external returns (uint256, uint256);\r\n    function leverageShort(address _asset, address _swapper, uint256 _initialCollateralAmount, uint256 _initialBorrowAmount, uint256 _borrowFactor) external returns (uint256, uint256);\r\n    function closePosition(address _debtAsset, address _asset, address _swapper, uint256 _debtOwed, uint256 _totalCollateral) external;\r\n}\r\n\r\ninterface bondImplementation {\r\n    function collectAllInterest(address _token) external returns (uint256 _amountCollected);\r\n    function findAndBuyYieldTokens(address _token, uint256 _amount) external returns (uint256 _amountSpent);\r\n    function buyYieldTokens (address _assetPool, uint64 _depositId, uint256 _stableInAmount) external returns (uint64 _fundingID, uint256 fundingMultitokensMinted, uint256 actualFundAmount, uint256 principalFunded);\r\n}\r\ncontract PhantasmManager is ERC721 {\r\n\r\n    address private owner;\r\n\r\n    struct Position {\r\n        bool    isLong;\r\n        bool    isInsulated;\r\n        address asset;\r\n        address stablecoin;\r\n        uint256 debtOwed;\r\n        uint256 totalCollateral;\r\n        uint64  lender;\r\n\r\n    }\r\n    // Ledger holds all token ids to tokens\r\n    mapping(uint256 => Position) private positionLedger;\r\n    uint256 counter = 0;\r\n    address public constant DAI = 0x8f3Cf7ad23Cd3CaDbD9735AFf958023239c6A063;\r\n    constructor() ERC721(\"Phantasm Position\", \"SPCTR\") {\r\n        owner = msg.sender;\r\n    }\r\n\r\n    /*\r\n            __      __         _ _     ______                _   _                 \r\n            \\ \\    / /        | | |   |  ____|              | | (_)                \r\n            \\ \\  / /_ _ _   _| | |_  | |__ _   _ _ __   ___| |_ _  ___  _ __  ___ \r\n            \\ \\/ / _` | | | | | __| |  __| | | | '_ \\ / __| __| |/ _ \\| '_ \\/ __|\r\n            \\  / (_| | |_| | | |_  | |  | |_| | | | | (__| |_| | (_) | | | \\__ \\\r\n            \\/ \\__,_|\\__,_|_|\\__| |_|   \\__,_|_| |_|\\___|\\__|_|\\___/|_| |_|___/\r\n                                                                                \r\n                                                                                \r\n    */\r\n    function addPosition(Position memory _newPosition) internal returns(uint256) {\r\n        counter++;\r\n        //Push Position to ledger\r\n        positionLedger[counter] = _newPosition;\r\n\r\n        _mint(msg.sender, counter);\r\n        \r\n        return counter;\r\n    }\r\n    \r\n    function removePosition(uint256 _tokenID) internal {\r\n        _burn(_tokenID);\r\n\r\n        delete positionLedger[_tokenID];\r\n    }\r\n    function viewPosition(uint256 _tokenID) public view returns(Position memory) {\r\n        return positionLedger[_tokenID];\r\n    }\r\n\r\n\r\n    /*\r\n      _____                 _                           _        _   _                 \r\n    |_   _|               | |                         | |      | | (_)                \r\n    | |  _ __ ___  _ __ | | ___ _ __ ___   ___ _ __ | |_ __ _| |_ _  ___  _ __  ___ \r\n    | | | '_ ` _ \\| '_ \\| |/ _ \\ '_ ` _ \\ / _ \\ '_ \\| __/ _` | __| |/ _ \\| '_ \\/ __|\r\n    _| |_| | | | | | |_) | |  __/ | | | | |  __/ | | | || (_| | |_| | (_) | | | \\__ \\\r\n    |_____|_| |_| |_| .__/|_|\\___|_| |_| |_|\\___|_| |_|\\__\\__,_|\\__|_|\\___/|_| |_|___/\r\n                    | |                                                               \r\n                    |_|                                                               \r\n    */\r\n\r\n\r\n    address[] public swapImplementations;\r\n    address[] public lenderImplementations;\r\n    address[] public bondImplementations;\r\n\r\n    modifier onlyOwner {\r\n        require(msg.sender == owner);\r\n        _;\r\n    }\r\n\r\n    function addSwapImplementation(address _implementation) onlyOwner public {\r\n        swapImplementations.push(_implementation);\r\n    }\r\n\r\n    function addLenderImplementation(address _implementation) onlyOwner public {\r\n        lenderImplementations.push(_implementation);\r\n    }\r\n\r\n    function addBondImplementation(address _implementation) onlyOwner public {\r\n        bondImplementations.push(_implementation);\r\n    }\r\n\r\n    /*\r\n         _                                    _             \r\n        | |                                  (_)            \r\n        | |     _____   _____ _ __ __ _  __ _ _ _ __   __ _ \r\n        | |    / _ \\ \\ / / _ \\ '__/ _` |/ _` | | '_ \\ / _` |\r\n        | |___|  __/\\ V /  __/ | | (_| | (_| | | | | | (_| |\r\n        |______\\___| \\_/ \\___|_|  \\__,_|\\__, |_|_| |_|\\__, |\r\n                                        __/ |         __/ |\r\n                                        |___/         |___/ \r\n    */\r\n\r\n    function openLongPositionNFT(\r\n        uint64 _lenderImplementation, \r\n        uint64 _swapImplementation,\r\n        address _longToken,\r\n        uint256 _borrowFactor,\r\n        uint256 _assetAmount,\r\n        uint256 _initialBorrow\r\n) public returns (uint256) {\r\n        //function leverageLong(address _longToken, uint256 _borrowAmount, uint256 _borrowFactor, address _swapImplementation) external;\r\n        // Just to see the functions its actually calling because this part is a bit of a mess\r\n        IERC20(_longToken).transferFrom(msg.sender, address(this), _assetAmount);\r\n        IERC20(_longToken).approve(lenderImplementations[_lenderImplementation], _assetAmount);\r\n        (uint256 totalBorrow, uint256 totalCollateral) = lenderImplementation(lenderImplementations[_lenderImplementation]).leverageLong(_longToken, swapImplementations[_swapImplementation], _assetAmount, _initialBorrow, _borrowFactor);\r\n        \r\n\r\n        Position memory createdPosition;\r\n\r\n        createdPosition.isLong = true;\r\n        createdPosition.isInsulated = false;\r\n        createdPosition.asset = _longToken;\r\n        createdPosition.debtOwed = totalBorrow;\r\n        createdPosition.stablecoin = DAI; // DAI for now\r\n        createdPosition.totalCollateral = totalCollateral;\r\n        createdPosition.lender = _lenderImplementation;\r\n\r\n\r\n        uint256 PositionID = addPosition(createdPosition);\r\n        return PositionID;\r\n    }\r\n\r\n    function closeLongPosition(uint256 _tokenID, uint8 _swapImplementation, uint256 _interestAccured) public {\r\n            require(ownerOf(_tokenID) == msg.sender, \"You have to own something to get it's value\");\r\n            Position memory liquidateMe = viewPosition(_tokenID);\r\n            //swap(address _tokenIn, address _tokenOut, uint _amountIn, uint _amountOutMin, address _to)\r\n            // DAI to repay\r\n            uint256 amountToRepay = _interestAccured + liquidateMe.debtOwed;\r\n            IERC20(DAI).transferFrom(msg.sender, address(this), amountToRepay);\r\n            IERC20(DAI).approve(lenderImplementations[liquidateMe.lender], amountToRepay);\r\n            lenderImplementation(lenderImplementations[liquidateMe.lender]).closePosition(DAI, liquidateMe.asset, swapImplementations[_swapImplementation], amountToRepay, liquidateMe.totalCollateral);\r\n\r\n    }\r\n\r\n    function openShortPositionNFT(\r\n        uint64 _lenderImplementation, \r\n        uint64 _swapImplementation,\r\n        address _shortToken,\r\n        uint256 _borrowFactor,\r\n        uint256 _assetAmount,\r\n        uint256 _initialBorrow\r\n        ) public returns (uint256) {\r\n            IERC20(DAI).transferFrom(msg.sender, address(this), _assetAmount);\r\n            IERC20(DAI).approve(lenderImplementations[_lenderImplementation], _assetAmount);\r\n            (uint256 totalBorrow, uint256 totalCollateral) = lenderImplementation(lenderImplementations[_lenderImplementation]).leverageShort(_shortToken, swapImplementations[_swapImplementation], _assetAmount, _initialBorrow, _borrowFactor);\r\n\r\n            Position memory createdPosition;\r\n\r\n            createdPosition.isLong = false;\r\n            createdPosition.isInsulated = false;\r\n            createdPosition.asset = _shortToken;\r\n            createdPosition.debtOwed = totalBorrow;\r\n            createdPosition.stablecoin = DAI; // DAI for now\r\n            createdPosition.totalCollateral = totalCollateral;\r\n            createdPosition.lender = _lenderImplementation;\r\n\r\n\r\n            uint256 PositionID = addPosition(createdPosition);\r\n            return PositionID;\r\n        }\r\n        function closeShortPosition(uint256 _tokenID, uint8 _swapImplementation, uint256 _interestAccured) public {\r\n            require(ownerOf(_tokenID) == msg.sender, \"You have to own something to get it's value\");\r\n            Position memory liquidateMe = viewPosition(_tokenID);\r\n            //swap(address _tokenIn, address _tokenOut, uint _amountIn, uint _amountOutMin, address _to)\r\n            // DAI to repay\r\n            uint256 amountToRepay = _interestAccured + liquidateMe.debtOwed;\r\n            IERC20(liquidateMe.asset).transferFrom(msg.sender, address(this), amountToRepay);\r\n            IERC20(liquidateMe.asset).approve(lenderImplementations[liquidateMe.lender], amountToRepay);\r\n            lenderImplementation(lenderImplementations[liquidateMe.lender]).closePosition(liquidateMe.asset, DAI, swapImplementations[_swapImplementation], amountToRepay, liquidateMe.totalCollateral);\r\n\r\n    }\r\n\r\n/*\r\n    _____                 _       _           _ \r\n    |_   _|               | |     | |         | |\r\n    | |  _ __  ___ _   _| | __ _| |_ ___  __| |\r\n    | | | '_ \\/ __| | | | |/ _` | __/ _ \\/ _` |\r\n    _| |_| | | \\__ \\ |_| | | (_| | ||  __/ (_| |\r\n    |_____|_| |_|___/\\__,_|_|\\__,_|\\__\\___|\\__,_|\r\n                                              \r\n*/\r\n    function openInsulatedLongPositionNFT(\r\n        address _longToken,\r\n        uint256 _borrowFactor,\r\n        uint256 _assetAmount,\r\n        uint256 _initialBorrow,\r\n        address _88mphPool,\r\n        uint64 _depositId,\r\n        uint256 stableFundAmount\r\n) public returns (uint256) {\r\n        //function leverageLong(address _longToken, uint256 _borrowAmount, uint256 _borrowFactor, address _swapImplementation) external;\r\n        // Just to see the functions its actually calling because this part is a bit of a mess\r\n        IERC20(_longToken).transferFrom(msg.sender, address(this), _assetAmount);\r\n\r\n                // Insure against DAI you will be borrowing\r\n        IERC20(DAI).transferFrom(msg.sender,bondImplementations[0], stableFundAmount);      \r\n\r\n        bondImplementation(bondImplementations[0]).buyYieldTokens(_88mphPool, _depositId, stableFundAmount);\r\n        \r\n        IERC20(_longToken).approve(lenderImplementations[0], _assetAmount);\r\n\r\n        (uint256 totalBorrow, uint256 totalCollateral) = lenderImplementation(lenderImplementations[0]).leverageLong(_longToken, swapImplementations[0], _assetAmount, _initialBorrow, _borrowFactor);\r\n        \r\n\r\n\r\n        Position memory createdPosition;\r\n\r\n        createdPosition.isLong = true;\r\n        createdPosition.isInsulated = true;\r\n        createdPosition.asset = _longToken;\r\n        createdPosition.debtOwed = totalBorrow;\r\n        createdPosition.stablecoin = DAI; // DAI for now\r\n        createdPosition.totalCollateral = totalCollateral;\r\n        createdPosition.lender = 0;\r\n\r\n\r\n        uint256 PositionID = addPosition(createdPosition);\r\n        return PositionID;\r\n    }\r\n\r\n    function closeInsulatedLongPosition(uint256 _tokenID, uint8 _swapImplementation, uint64 _bondImplementation, uint256 _tipFee) public {\r\n            require(ownerOf(_tokenID) == msg.sender, \"You have to own something to get it's value\");\r\n            // _tipFee is just incase bond doesn't accure exactly the same and you need to give it a lil boost\r\n            Position memory liquidateMe = viewPosition(_tokenID);\r\n            require(liquidateMe.isInsulated);\r\n            IERC20(DAI).transferFrom(msg.sender, address(this), liquidateMe.debtOwed + _tipFee);\r\n            uint256 amountCollected = bondImplementation(bondImplementations[_bondImplementation]).collectAllInterest(liquidateMe.stablecoin);\r\n            //swap(address _tokenIn, address _tokenOut, uint _amountIn, uint _amountOutMin, address _to)\r\n            // DAI to repay\r\n            uint256 amountToRepay = amountCollected + liquidateMe.debtOwed + _tipFee;\r\n            IERC20(DAI).approve(lenderImplementations[liquidateMe.lender], amountToRepay);\r\n            lenderImplementation(lenderImplementations[liquidateMe.lender]).closePosition(DAI, liquidateMe.asset, swapImplementations[_swapImplementation], amountToRepay, liquidateMe.totalCollateral);\r\n    }\r\n\r\n\r\n\r\n}\r\n",
  "sourcePath": "/home/chinmay/ethonline/fin/Phantasm-v1/truffle-Phantasm/contracts/PhantasmManager.sol",
  "compiler": {
    "name": "solc",
    "version": "0.8.4+commit.c7e474f2.Emscripten.clang"
  },
  "schemaVersion": "3.4.3",
  "updatedAt": "2021-10-09T21:11:48.482Z",
  "networkType": "ethereum",
  "devdoc": {
    "kind": "dev",
    "methods": {
      "approve(address,uint256)": {
        "details": "See {IERC721-approve}."
      },
      "balanceOf(address)": {
        "details": "See {IERC721-balanceOf}."
      },
      "getApproved(uint256)": {
        "details": "See {IERC721-getApproved}."
      },
      "isApprovedForAll(address,address)": {
        "details": "See {IERC721-isApprovedForAll}."
      },
      "name()": {
        "details": "See {IERC721Metadata-name}."
      },
      "ownerOf(uint256)": {
        "details": "See {IERC721-ownerOf}."
      },
      "safeTransferFrom(address,address,uint256)": {
        "details": "See {IERC721-safeTransferFrom}."
      },
      "safeTransferFrom(address,address,uint256,bytes)": {
        "details": "See {IERC721-safeTransferFrom}."
      },
      "setApprovalForAll(address,bool)": {
        "details": "See {IERC721-setApprovalForAll}."
      },
      "supportsInterface(bytes4)": {
        "details": "See {IERC165-supportsInterface}."
      },
      "symbol()": {
        "details": "See {IERC721Metadata-symbol}."
      },
      "tokenURI(uint256)": {
        "details": "See {IERC721Metadata-tokenURI}."
      },
      "transferFrom(address,address,uint256)": {
        "details": "See {IERC721-transferFrom}."
      }
    },
    "version": 1
  },
  "userdoc": {
    "kind": "user",
    "methods": {},
    "version": 1
  }
}