{
  "contractName": "Phantasm",
  "abi": [
    {
      "inputs": [
        {
          "internalType": "address",
          "name": "_token",
          "type": "address"
        },
        {
          "internalType": "address",
          "name": "_cToken",
          "type": "address"
        },
        {
          "internalType": "address",
          "name": "_tokenBorrow",
          "type": "address"
        },
        {
          "internalType": "address",
          "name": "_cTokenBorrow",
          "type": "address"
        },
        {
          "internalType": "uint256",
          "name": "_cTokenBorrowDecimals",
          "type": "uint256"
        }
      ],
      "stateMutability": "nonpayable",
      "type": "constructor"
    },
    {
      "inputs": [],
      "name": "WETH",
      "outputs": [
        {
          "internalType": "contract IERC20",
          "name": "",
          "type": "address"
        }
      ],
      "stateMutability": "view",
      "type": "function"
    },
    {
      "inputs": [],
      "name": "cDai",
      "outputs": [
        {
          "internalType": "contract CErc20",
          "name": "",
          "type": "address"
        }
      ],
      "stateMutability": "view",
      "type": "function"
    },
    {
      "inputs": [],
      "name": "cToken",
      "outputs": [
        {
          "internalType": "contract CErc20",
          "name": "",
          "type": "address"
        }
      ],
      "stateMutability": "view",
      "type": "function"
    },
    {
      "inputs": [],
      "name": "cTokenBorrow",
      "outputs": [
        {
          "internalType": "contract CErc20",
          "name": "",
          "type": "address"
        }
      ],
      "stateMutability": "view",
      "type": "function"
    },
    {
      "inputs": [],
      "name": "cTokenBorrowDecimals",
      "outputs": [
        {
          "internalType": "uint256",
          "name": "",
          "type": "uint256"
        }
      ],
      "stateMutability": "view",
      "type": "function"
    },
    {
      "inputs": [],
      "name": "comptroller",
      "outputs": [
        {
          "internalType": "contract Comptroller",
          "name": "",
          "type": "address"
        }
      ],
      "stateMutability": "view",
      "type": "function"
    },
    {
      "inputs": [],
      "name": "dai",
      "outputs": [
        {
          "internalType": "contract IERC20",
          "name": "",
          "type": "address"
        }
      ],
      "stateMutability": "view",
      "type": "function"
    },
    {
      "inputs": [],
      "name": "priceFeed",
      "outputs": [
        {
          "internalType": "contract PriceFeed",
          "name": "",
          "type": "address"
        }
      ],
      "stateMutability": "view",
      "type": "function"
    },
    {
      "inputs": [],
      "name": "token",
      "outputs": [
        {
          "internalType": "contract IERC20",
          "name": "",
          "type": "address"
        }
      ],
      "stateMutability": "view",
      "type": "function"
    },
    {
      "inputs": [],
      "name": "tokenBorrow",
      "outputs": [
        {
          "internalType": "contract IERC20",
          "name": "",
          "type": "address"
        }
      ],
      "stateMutability": "view",
      "type": "function"
    },
    {
      "inputs": [],
      "name": "uniswap",
      "outputs": [
        {
          "internalType": "contract IUniswapV2Router",
          "name": "",
          "type": "address"
        }
      ],
      "stateMutability": "view",
      "type": "function"
    },
    {
      "stateMutability": "payable",
      "type": "receive"
    },
    {
      "inputs": [
        {
          "internalType": "address",
          "name": "_borrowToken",
          "type": "address"
        },
        {
          "internalType": "address",
          "name": "_borrowCToken",
          "type": "address"
        },
        {
          "internalType": "uint256",
          "name": "initialAmount",
          "type": "uint256"
        },
        {
          "internalType": "uint256",
          "name": "_borrowFactor",
          "type": "uint256"
        }
      ],
      "name": "openPosition",
      "outputs": [],
      "stateMutability": "nonpayable",
      "type": "function"
    },
    {
      "inputs": [
        {
          "internalType": "address",
          "name": "_borrowToken",
          "type": "address"
        },
        {
          "internalType": "address",
          "name": "_borrowCToken",
          "type": "address"
        },
        {
          "internalType": "uint256",
          "name": "_collateralAmount",
          "type": "uint256"
        },
        {
          "internalType": "uint256",
          "name": "_borrowFactor",
          "type": "uint256"
        }
      ],
      "name": "addCollateral",
      "outputs": [
        {
          "internalType": "uint256",
          "name": "",
          "type": "uint256"
        }
      ],
      "stateMutability": "nonpayable",
      "type": "function"
    },
    {
      "inputs": [
        {
          "internalType": "address",
          "name": "_borrowedToken",
          "type": "address"
        },
        {
          "internalType": "address",
          "name": "_borrowedCToken",
          "type": "address"
        },
        {
          "internalType": "address",
          "name": "_collateralCToken",
          "type": "address"
        }
      ],
      "name": "closePosition",
      "outputs": [],
      "stateMutability": "nonpayable",
      "type": "function"
    },
    {
      "inputs": [
        {
          "internalType": "address",
          "name": "_longToken",
          "type": "address"
        },
        {
          "internalType": "uint256",
          "name": "_borrowAmount",
          "type": "uint256"
        },
        {
          "internalType": "uint256",
          "name": "_borrowFactor",
          "type": "uint256"
        }
      ],
      "name": "leverageLong",
      "outputs": [],
      "stateMutability": "nonpayable",
      "type": "function"
    },
    {
      "inputs": [
        {
          "internalType": "address",
          "name": "_shortToken",
          "type": "address"
        },
        {
          "internalType": "address",
          "name": "_shortCToken",
          "type": "address"
        },
        {
          "internalType": "uint256",
          "name": "_borrowAmount",
          "type": "uint256"
        },
        {
          "internalType": "uint256",
          "name": "_borrowFactor",
          "type": "uint256"
        }
      ],
      "name": "leverageShort",
      "outputs": [],
      "stateMutability": "nonpayable",
      "type": "function"
    },
    {
      "inputs": [
        {
          "internalType": "uint256",
          "name": "_amount",
          "type": "uint256"
        }
      ],
      "name": "supply",
      "outputs": [],
      "stateMutability": "nonpayable",
      "type": "function"
    },
    {
      "inputs": [],
      "name": "enterMarkets",
      "outputs": [],
      "stateMutability": "nonpayable",
      "type": "function"
    },
    {
      "inputs": [],
      "name": "getInfo",
      "outputs": [
        {
          "internalType": "uint256",
          "name": "exchangeRate",
          "type": "uint256"
        },
        {
          "internalType": "uint256",
          "name": "supplyRate",
          "type": "uint256"
        }
      ],
      "stateMutability": "nonpayable",
      "type": "function"
    },
    {
      "inputs": [],
      "name": "estimateBalanceOfUnderlying",
      "outputs": [
        {
          "internalType": "uint256",
          "name": "",
          "type": "uint256"
        }
      ],
      "stateMutability": "nonpayable",
      "type": "function"
    },
    {
      "inputs": [],
      "name": "getSuppliedBalance",
      "outputs": [
        {
          "internalType": "uint256",
          "name": "",
          "type": "uint256"
        }
      ],
      "stateMutability": "nonpayable",
      "type": "function"
    },
    {
      "inputs": [
        {
          "internalType": "uint256",
          "name": "_cTokenAmount",
          "type": "uint256"
        }
      ],
      "name": "redeem",
      "outputs": [],
      "stateMutability": "nonpayable",
      "type": "function"
    },
    {
      "inputs": [
        {
          "internalType": "address",
          "name": "_cTokenToBorrow",
          "type": "address"
        }
      ],
      "name": "borrow",
      "outputs": [],
      "stateMutability": "nonpayable",
      "type": "function"
    },
    {
      "inputs": [
        {
          "internalType": "address",
          "name": "_cTokenBorrowed",
          "type": "address"
        }
      ],
      "name": "getBorrowBalance",
      "outputs": [
        {
          "internalType": "uint256",
          "name": "",
          "type": "uint256"
        }
      ],
      "stateMutability": "nonpayable",
      "type": "function"
    },
    {
      "inputs": [
        {
          "internalType": "address",
          "name": "_tokenBorrowed",
          "type": "address"
        },
        {
          "internalType": "address",
          "name": "_cTokenBorrowed",
          "type": "address"
        },
        {
          "internalType": "uint256",
          "name": "_amount",
          "type": "uint256"
        }
      ],
      "name": "repay",
      "outputs": [],
      "stateMutability": "nonpayable",
      "type": "function"
    },
    {
      "inputs": [],
      "name": "getCTokenBalance",
      "outputs": [
        {
          "internalType": "uint256",
          "name": "",
          "type": "uint256"
        }
      ],
      "stateMutability": "view",
      "type": "function"
    },
    {
      "inputs": [
        {
          "internalType": "address",
          "name": "_cToken",
          "type": "address"
        }
      ],
      "name": "getPriceFeed",
      "outputs": [
        {
          "internalType": "uint256",
          "name": "",
          "type": "uint256"
        }
      ],
      "stateMutability": "view",
      "type": "function"
    },
    {
      "inputs": [],
      "name": "getCollateralFactor",
      "outputs": [
        {
          "internalType": "uint256",
          "name": "",
          "type": "uint256"
        }
      ],
      "stateMutability": "view",
      "type": "function"
    },
    {
      "inputs": [
        {
          "internalType": "address",
          "name": "_cTokenBorrowed",
          "type": "address"
        }
      ],
      "name": "getBorrowRatePerBlock",
      "outputs": [
        {
          "internalType": "uint256",
          "name": "",
          "type": "uint256"
        }
      ],
      "stateMutability": "view",
      "type": "function"
    },
    {
      "inputs": [],
      "name": "checkLiquidity",
      "outputs": [
        {
          "internalType": "uint256",
          "name": "",
          "type": "uint256"
        }
      ],
      "stateMutability": "view",
      "type": "function"
    },
    {
      "inputs": [],
      "name": "getAccountLiquidity",
      "outputs": [
        {
          "internalType": "uint256",
          "name": "liquidity",
          "type": "uint256"
        },
        {
          "internalType": "uint256",
          "name": "shortfall",
          "type": "uint256"
        }
      ],
      "stateMutability": "view",
      "type": "function"
    },
    {
      "inputs": [
        {
          "internalType": "uint256",
          "name": "liquidity",
          "type": "uint256"
        },
        {
          "internalType": "uint256",
          "name": "price",
          "type": "uint256"
        }
      ],
      "name": "getMaxBorrow",
      "outputs": [
        {
          "internalType": "uint256",
          "name": "",
          "type": "uint256"
        }
      ],
      "stateMutability": "view",
      "type": "function"
    },
    {
      "inputs": [
        {
          "internalType": "address",
          "name": "_tokenIn",
          "type": "address"
        },
        {
          "internalType": "address",
          "name": "_tokenOut",
          "type": "address"
        },
        {
          "internalType": "uint256",
          "name": "_amountIn",
          "type": "uint256"
        },
        {
          "internalType": "uint256",
          "name": "_amountOutMin",
          "type": "uint256"
        },
        {
          "internalType": "address",
          "name": "_to",
          "type": "address"
        }
      ],
      "name": "swap",
      "outputs": [],
      "stateMutability": "nonpayable",
      "type": "function"
    },
    {
      "inputs": [
        {
          "internalType": "address",
          "name": "_tokenIn",
          "type": "address"
        },
        {
          "internalType": "address",
          "name": "_tokenOut",
          "type": "address"
        },
        {
          "internalType": "uint256",
          "name": "_amountIn",
          "type": "uint256"
        }
      ],
      "name": "_getAmountOutMin",
      "outputs": [
        {
          "internalType": "uint256",
          "name": "",
          "type": "uint256"
        }
      ],
      "stateMutability": "view",
      "type": "function"
    }
  ],
  "bytecode": "0x6080604052737a250d5630b4cf539739df2c5dacb4c659f2488d6000806101000a81548173ffffffffffffffffffffffffffffffffffffffff021916908373ffffffffffffffffffffffffffffffffffffffff160217905550733d9819210a31b4961b30ef54be2aed79b9c9cd3b600160006101000a81548173ffffffffffffffffffffffffffffffffffffffff021916908373ffffffffffffffffffffffffffffffffffffffff16021790555073922018674c12a7f0d394ebeef9b58f186cde13c1600260006101000a81548173ffffffffffffffffffffffffffffffffffffffff021916908373ffffffffffffffffffffffffffffffffffffffff16021790555073c02aaa39b223fe8d0a0e5c4f27ead9083c756cc2600360006101000a81548173ffffffffffffffffffffffffffffffffffffffff021916908373ffffffffffffffffffffffffffffffffffffffff160217905550736b175474e89094c44da98b954eedeac495271d0f600460006101000a81548173ffffffffffffffffffffffffffffffffffffffff021916908373ffffffffffffffffffffffffffffffffffffffff160217905550735d3a536e4d6dbd6114cc1ead35777bab948e3643600560006101000a81548173ffffffffffffffffffffffffffffffffffffffff021916908373ffffffffffffffffffffffffffffffffffffffff1602179055503480156200020e57600080fd5b506040516200422a3803806200422a833981810160405281019062000234919062000378565b84600660006101000a81548173ffffffffffffffffffffffffffffffffffffffff021916908373ffffffffffffffffffffffffffffffffffffffff16021790555083600760006101000a81548173ffffffffffffffffffffffffffffffffffffffff021916908373ffffffffffffffffffffffffffffffffffffffff16021790555082600860006101000a81548173ffffffffffffffffffffffffffffffffffffffff021916908373ffffffffffffffffffffffffffffffffffffffff16021790555081600960006101000a81548173ffffffffffffffffffffffffffffffffffffffff021916908373ffffffffffffffffffffffffffffffffffffffff16021790555080600a8190555050505050506200046c565b6000815190506200035b8162000438565b92915050565b600081519050620003728162000452565b92915050565b600080600080600060a086880312156200039157600080fd5b6000620003a1888289016200034a565b9550506020620003b4888289016200034a565b9450506040620003c7888289016200034a565b9350506060620003da888289016200034a565b9250506080620003ed8882890162000361565b9150509295509295909350565b600062000407826200040e565b9050919050565b600073ffffffffffffffffffffffffffffffffffffffff82169050919050565b6000819050919050565b6200044381620003fa565b81146200044f57600080fd5b50565b6200045d816200042e565b81146200046957600080fd5b50565b613dae806200047c6000396000f3fe6080604052600436106101fd5760003560e01c80636ef1a28f1161010d578063c9ca7d31116100a0578063db006a751161006f578063db006a7514610734578063e9fb159a1461075d578063f4b9fa7514610786578063fc0c546a146107b1578063fd6bac70146107dc57610204565b8063c9ca7d311461067a578063d5bcb9b5146106b7578063d82c52d6146106e0578063d9a9304f1461070b57610204565b80638eae8854116100dc5780638eae8854146105ce5780639b089d55146105f9578063ad5c464814610624578063b137eb611461064f57610204565b80636ef1a28f14610514578063741bef1a1461053d5780637d6af079146105685780638cf7f620146105a557610204565b80634252b452116101905780635a9b0b891161015f5780635a9b0b891461043e5780635b6cca801461046a5780635f6556e9146104a75780635fe3b567146104be57806369e527da146104e957610204565b80634252b4521461036e5780634d378d6b1461039957806350420d81146103d657806352d900b91461041357610204565b80632fd4cda7116101cc5780632fd4cda7146102c557806335392b71146102f1578063354030231461031c5780633f0ead021461034557610204565b8063106234f6146102095780631da649cf1461024657806324d6db471461026f5780632681f7e41461029a57610204565b3661020457005b600080fd5b34801561021557600080fd5b50610230600480360381019061022b9190612e86565b610807565b60405161023d91906135b2565b60405180910390f35b34801561025257600080fd5b5061026d60048036038101906102689190612e37565b610a18565b005b34801561027b57600080fd5b50610284610b78565b6040516102919190613441565b60405180910390f35b3480156102a657600080fd5b506102af610b9e565b6040516102bc919061345c565b60405180910390f35b3480156102d157600080fd5b506102da610bc2565b6040516102e89291906135fd565b60405180910390f35b3480156102fd57600080fd5b50610306610ccb565b60405161031391906135b2565b60405180910390f35b34801561032857600080fd5b50610343600480360381019061033e9190613068565b610dad565b005b34801561035157600080fd5b5061036c60048036038101906103679190612dbf565b611023565b005b34801561037a57600080fd5b50610383611186565b60405161039091906135b2565b60405180910390f35b3480156103a557600080fd5b506103c060048036038101906103bb91906130ba565b61123a565b6040516103cd91906135b2565b60405180910390f35b3480156103e257600080fd5b506103fd60048036038101906103f89190612e37565b611269565b60405161040a91906135b2565b60405180910390f35b34801561041f57600080fd5b5061042861177e565b60405161043591906135b2565b60405180910390f35b34801561044a57600080fd5b50610453611923565b6040516104619291906135fd565b60405180910390f35b34801561047657600080fd5b50610491600480360381019061048c9190612dbf565b611a72565b60405161049e91906135b2565b60405180910390f35b3480156104b357600080fd5b506104bc611b26565b005b3480156104ca57600080fd5b506104d3611d6f565b6040516104e09190613426565b60405180910390f35b3480156104f557600080fd5b506104fe611d95565b60405161050b919061340b565b60405180910390f35b34801561052057600080fd5b5061053b60048036038101906105369190612e86565b611dbb565b005b34801561054957600080fd5b50610552611df5565b60405161055f9190613477565b60405180910390f35b34801561057457600080fd5b5061058f600480360381019061058a9190612dbf565b611e1b565b60405161059c91906135b2565b60405180910390f35b3480156105b157600080fd5b506105cc60048036038101906105c79190612f60565b611eaf565b005b3480156105da57600080fd5b506105e361200f565b6040516105f091906135b2565b60405180910390f35b34801561060557600080fd5b5061060e6120c1565b60405161061b919061340b565b60405180910390f35b34801561063057600080fd5b506106396120e7565b6040516106469190613441565b60405180910390f35b34801561065b57600080fd5b5061066461210d565b60405161067191906135b2565b60405180910390f35b34801561068657600080fd5b506106a1600480360381019061069c9190612dbf565b612113565b6040516106ae91906135b2565b60405180910390f35b3480156106c357600080fd5b506106de60048036038101906106d99190612ee9565b61219a565b005b3480156106ec57600080fd5b506106f561270e565b60405161070291906135b2565b60405180910390f35b34801561071757600080fd5b50610732600480360381019061072d9190612de8565b6127ad565b005b34801561074057600080fd5b5061075b60048036038101906107569190613068565b612a76565b005b34801561076957600080fd5b50610784600480360381019061077f9190612e86565b612b68565b005b34801561079257600080fd5b5061079b612c63565b6040516107a89190613441565b60405180910390f35b3480156107bd57600080fd5b506107c6612c89565b6040516107d39190613441565b60405180910390f35b3480156107e857600080fd5b506107f1612caf565b6040516107fe919061340b565b60405180910390f35b60008473ffffffffffffffffffffffffffffffffffffffff1663095ea7b385856040518363ffffffff1660e01b81526004016108449291906133c0565b602060405180830381600087803b15801561085e57600080fd5b505af1158015610872573d6000803e3d6000fd5b505050506040513d601f19601f820116820180604052508101906108969190612ff0565b508373ffffffffffffffffffffffffffffffffffffffff1663a0712d68846040518263ffffffff1660e01b81526004016108d091906135b2565b602060405180830381600087803b1580156108ea57600080fd5b505af11580156108fe573d6000803e3d6000fd5b505050506040513d601f19601f820116820180604052508101906109229190613091565b506000606483856109339190613913565b61093d9190613771565b905060008573ffffffffffffffffffffffffffffffffffffffff1663c5ebeaec836040518263ffffffff1660e01b815260040161097a91906135b2565b602060405180830381600087803b15801561099457600080fd5b505af11580156109a8573d6000803e3d6000fd5b505050506040513d601f19601f820116820180604052508101906109cc9190613091565b14610a0c576040517f08c379a0000000000000000000000000000000000000000000000000000000008152600401610a0390613592565b60405180910390fd5b80915050949350505050565b8273ffffffffffffffffffffffffffffffffffffffff1663095ea7b383836040518363ffffffff1660e01b8152600401610a539291906133c0565b602060405180830381600087803b158015610a6d57600080fd5b505af1158015610a81573d6000803e3d6000fd5b505050506040513d601f19601f82011682018060405250810190610aa59190612ff0565b5060008273ffffffffffffffffffffffffffffffffffffffff16630e752702836040518263ffffffff1660e01b8152600401610ae191906135b2565b602060405180830381600087803b158015610afb57600080fd5b505af1158015610b0f573d6000803e3d6000fd5b505050506040513d601f19601f82011682018060405250810190610b339190613091565b14610b73576040517f08c379a0000000000000000000000000000000000000000000000000000000008152600401610b6a90613572565b60405180910390fd5b505050565b600860009054906101000a900473ffffffffffffffffffffffffffffffffffffffff1681565b60008054906101000a900473ffffffffffffffffffffffffffffffffffffffff1681565b6000806000806000600160009054906101000a900473ffffffffffffffffffffffffffffffffffffffff1673ffffffffffffffffffffffffffffffffffffffff16635ec88c79306040518263ffffffff1660e01b8152600401610c25919061336e565b60606040518083038186803b158015610c3d57600080fd5b505afa158015610c51573d6000803e3d6000fd5b505050506040513d601f19601f82011682018060405250810190610c7591906130f6565b92509250925060008314610cbe576040517f08c379a0000000000000000000000000000000000000000000000000000000008152600401610cb5906134b2565b60405180910390fd5b8181945094505050509091565b600080600080600160009054906101000a900473ffffffffffffffffffffffffffffffffffffffff1673ffffffffffffffffffffffffffffffffffffffff16638e8f294b600760009054906101000a900473ffffffffffffffffffffffffffffffffffffffff166040518263ffffffff1660e01b8152600401610d4e919061336e565b60606040518083038186803b158015610d6657600080fd5b505afa158015610d7a573d6000803e3d6000fd5b505050506040513d601f19601f82011682018060405250810190610d9e9190613019565b92509250925081935050505090565b600660009054906101000a900473ffffffffffffffffffffffffffffffffffffffff1673ffffffffffffffffffffffffffffffffffffffff166323b872dd3330846040518463ffffffff1660e01b8152600401610e0c93929190613389565b602060405180830381600087803b158015610e2657600080fd5b505af1158015610e3a573d6000803e3d6000fd5b505050506040513d601f19601f82011682018060405250810190610e5e9190612ff0565b50600660009054906101000a900473ffffffffffffffffffffffffffffffffffffffff1673ffffffffffffffffffffffffffffffffffffffff1663095ea7b3600760009054906101000a900473ffffffffffffffffffffffffffffffffffffffff16836040518363ffffffff1660e01b8152600401610ede9291906133c0565b602060405180830381600087803b158015610ef857600080fd5b505af1158015610f0c573d6000803e3d6000fd5b505050506040513d601f19601f82011682018060405250810190610f309190612ff0565b506000600760009054906101000a900473ffffffffffffffffffffffffffffffffffffffff1673ffffffffffffffffffffffffffffffffffffffff1663a0712d68836040518263ffffffff1660e01b8152600401610f8e91906135b2565b602060405180830381600087803b158015610fa857600080fd5b505af1158015610fbc573d6000803e3d6000fd5b505050506040513d601f19601f82011682018060405250810190610fe09190613091565b14611020576040517f08c379a0000000000000000000000000000000000000000000000000000000008152600401611017906134f2565b60405180910390fd5b50565b61102b611b26565b600061103561270e565b9050600061104283611a72565b90506000611050838361123a565b905060008111611095576040517f08c379a000000000000000000000000000000000000000000000000000000000815260040161108c90613492565b60405180910390fd5b600060646032836110a69190613913565b6110b09190613771565b905060008573ffffffffffffffffffffffffffffffffffffffff1663c5ebeaec836040518263ffffffff1660e01b81526004016110ed91906135b2565b602060405180830381600087803b15801561110757600080fd5b505af115801561111b573d6000803e3d6000fd5b505050506040513d601f19601f8201168201806040525081019061113f9190613091565b1461117f576040517f08c379a000000000000000000000000000000000000000000000000000000000815260040161117690613592565b60405180910390fd5b5050505050565b6000600760009054906101000a900473ffffffffffffffffffffffffffffffffffffffff1673ffffffffffffffffffffffffffffffffffffffff16633af9e669306040518263ffffffff1660e01b81526004016111e3919061336e565b602060405180830381600087803b1580156111fd57600080fd5b505af1158015611211573d6000803e3d6000fd5b505050506040513d601f19601f820116820180604052508101906112359190613091565b905090565b600081600a54600a61124c91906137f5565b846112579190613913565b6112619190613771565b905092915050565b60006060600360009054906101000a900473ffffffffffffffffffffffffffffffffffffffff1673ffffffffffffffffffffffffffffffffffffffff168573ffffffffffffffffffffffffffffffffffffffff1614806113165750600360009054906101000a900473ffffffffffffffffffffffffffffffffffffffff1673ffffffffffffffffffffffffffffffffffffffff168473ffffffffffffffffffffffffffffffffffffffff16145b1561147c57600267ffffffffffffffff81111561135c577f4e487b7100000000000000000000000000000000000000000000000000000000600052604160045260246000fd5b60405190808252806020026020018201604052801561138a5781602001602082028036833780820191505090505b50905084816000815181106113c8577f4e487b7100000000000000000000000000000000000000000000000000000000600052603260045260246000fd5b602002602001019073ffffffffffffffffffffffffffffffffffffffff16908173ffffffffffffffffffffffffffffffffffffffff1681525050838160018151811061143d577f4e487b7100000000000000000000000000000000000000000000000000000000600052603260045260246000fd5b602002602001019073ffffffffffffffffffffffffffffffffffffffff16908173ffffffffffffffffffffffffffffffffffffffff1681525050611670565b600367ffffffffffffffff8111156114bd577f4e487b7100000000000000000000000000000000000000000000000000000000600052604160045260246000fd5b6040519080825280602002602001820160405280156114eb5781602001602082028036833780820191505090505b5090508481600081518110611529577f4e487b7100000000000000000000000000000000000000000000000000000000600052603260045260246000fd5b602002602001019073ffffffffffffffffffffffffffffffffffffffff16908173ffffffffffffffffffffffffffffffffffffffff1681525050600360009054906101000a900473ffffffffffffffffffffffffffffffffffffffff16816001815181106115c0577f4e487b7100000000000000000000000000000000000000000000000000000000600052603260045260246000fd5b602002602001019073ffffffffffffffffffffffffffffffffffffffff16908173ffffffffffffffffffffffffffffffffffffffff16815250508381600281518110611635577f4e487b7100000000000000000000000000000000000000000000000000000000600052603260045260246000fd5b602002602001019073ffffffffffffffffffffffffffffffffffffffff16908173ffffffffffffffffffffffffffffffffffffffff16815250505b60008060009054906101000a900473ffffffffffffffffffffffffffffffffffffffff1673ffffffffffffffffffffffffffffffffffffffff1663d06ca61f85846040518363ffffffff1660e01b81526004016116ce9291906135cd565b60006040518083038186803b1580156116e657600080fd5b505afa1580156116fa573d6000803e3d6000fd5b505050506040513d6000823e3d601f19601f820116820180604052508101906117239190612faf565b90508060018351611734919061396d565b8151811061176b577f4e487b7100000000000000000000000000000000000000000000000000000000600052603260045260246000fd5b6020026020010151925050509392505050565b600080600760009054906101000a900473ffffffffffffffffffffffffffffffffffffffff1673ffffffffffffffffffffffffffffffffffffffff166370a08231306040518263ffffffff1660e01b81526004016117dc919061336e565b60206040518083038186803b1580156117f457600080fd5b505afa158015611808573d6000803e3d6000fd5b505050506040513d601f19601f8201168201806040525081019061182c9190613091565b90506000600760009054906101000a900473ffffffffffffffffffffffffffffffffffffffff1673ffffffffffffffffffffffffffffffffffffffff1663bd6d894d6040518163ffffffff1660e01b8152600401602060405180830381600087803b15801561189a57600080fd5b505af11580156118ae573d6000803e3d6000fd5b505050506040513d601f19601f820116820180604052508101906118d29190613091565b9050600060089050600060089050808260126118ee919061371b565b6118f8919061396d565b600a61190491906137f5565b83856119109190613913565b61191a9190613771565b94505050505090565b600080600760009054906101000a900473ffffffffffffffffffffffffffffffffffffffff1673ffffffffffffffffffffffffffffffffffffffff1663bd6d894d6040518163ffffffff1660e01b8152600401602060405180830381600087803b15801561199057600080fd5b505af11580156119a4573d6000803e3d6000fd5b505050506040513d601f19601f820116820180604052508101906119c89190613091565b9150600760009054906101000a900473ffffffffffffffffffffffffffffffffffffffff1673ffffffffffffffffffffffffffffffffffffffff1663ae9d70b06040518163ffffffff1660e01b8152600401602060405180830381600087803b158015611a3457600080fd5b505af1158015611a48573d6000803e3d6000fd5b505050506040513d601f19601f82011682018060405250810190611a6c9190613091565b90509091565b6000600260009054906101000a900473ffffffffffffffffffffffffffffffffffffffff1673ffffffffffffffffffffffffffffffffffffffff1663fc57d4df836040518263ffffffff1660e01b8152600401611acf919061336e565b60206040518083038186803b158015611ae757600080fd5b505afa158015611afb573d6000803e3d6000fd5b505050506040513d601f19601f82011682018060405250810190611b1f9190613091565b9050919050565b6000600167ffffffffffffffff811115611b69577f4e487b7100000000000000000000000000000000000000000000000000000000600052604160045260246000fd5b604051908082528060200260200182016040528015611b975781602001602082028036833780820191505090505b509050600760009054906101000a900473ffffffffffffffffffffffffffffffffffffffff1681600081518110611bf7577f4e487b7100000000000000000000000000000000000000000000000000000000600052603260045260246000fd5b602002602001019073ffffffffffffffffffffffffffffffffffffffff16908173ffffffffffffffffffffffffffffffffffffffff16815250506000600160009054906101000a900473ffffffffffffffffffffffffffffffffffffffff1673ffffffffffffffffffffffffffffffffffffffff1663c2998238836040518263ffffffff1660e01b8152600401611c8e91906133e9565b600060405180830381600087803b158015611ca857600080fd5b505af1158015611cbc573d6000803e3d6000fd5b505050506040513d6000823e3d601f19601f82011682018060405250810190611ce59190612faf565b9050600081600081518110611d23577f4e487b7100000000000000000000000000000000000000000000000000000000600052603260045260246000fd5b602002602001015114611d6b576040517f08c379a0000000000000000000000000000000000000000000000000000000008152600401611d62906134d2565b60405180910390fd5b5050565b600160009054906101000a900473ffffffffffffffffffffffffffffffffffffffff1681565b600760009054906101000a900473ffffffffffffffffffffffffffffffffffffffff1681565b600082905060005b6005811015611ded57611dd886868486610807565b91508080611de590613ace565b915050611dc3565b505050505050565b600260009054906101000a900473ffffffffffffffffffffffffffffffffffffffff1681565b60008173ffffffffffffffffffffffffffffffffffffffff166317bfdfbc306040518263ffffffff1660e01b8152600401611e56919061336e565b602060405180830381600087803b158015611e7057600080fd5b505af1158015611e84573d6000803e3d6000fd5b505050506040513d601f19601f82011682018060405250810190611ea89190613091565b9050919050565b611eff600460009054906101000a900473ffffffffffffffffffffffffffffffffffffffff16600560009054906101000a900473ffffffffffffffffffffffffffffffffffffffff168484611dbb565b6000600460009054906101000a900473ffffffffffffffffffffffffffffffffffffffff1673ffffffffffffffffffffffffffffffffffffffff166370a08231306040518263ffffffff1660e01b8152600401611f5c919061336e565b60206040518083038186803b158015611f7457600080fd5b505afa158015611f88573d6000803e3d6000fd5b505050506040513d601f19601f82011682018060405250810190611fac9190613091565b9050612009600460009054906101000a900473ffffffffffffffffffffffffffffffffffffffff168583612003600460009054906101000a900473ffffffffffffffffffffffffffffffffffffffff168987611269565b3061219a565b50505050565b6000600760009054906101000a900473ffffffffffffffffffffffffffffffffffffffff1673ffffffffffffffffffffffffffffffffffffffff166370a08231306040518263ffffffff1660e01b815260040161206c919061336e565b60206040518083038186803b15801561208457600080fd5b505afa158015612098573d6000803e3d6000fd5b505050506040513d601f19601f820116820180604052508101906120bc9190613091565b905090565b600560009054906101000a900473ffffffffffffffffffffffffffffffffffffffff1681565b600360009054906101000a900473ffffffffffffffffffffffffffffffffffffffff1681565b600a5481565b60008173ffffffffffffffffffffffffffffffffffffffff1663f8f9da286040518163ffffffff1660e01b815260040160206040518083038186803b15801561215b57600080fd5b505afa15801561216f573d6000803e3d6000fd5b505050506040513d601f19601f820116820180604052508101906121939190613091565b9050919050565b8473ffffffffffffffffffffffffffffffffffffffff1663095ea7b360008054906101000a900473ffffffffffffffffffffffffffffffffffffffff16856040518363ffffffff1660e01b81526004016121f59291906133c0565b602060405180830381600087803b15801561220f57600080fd5b505af1158015612223573d6000803e3d6000fd5b505050506040513d601f19601f820116820180604052508101906122479190612ff0565b506060600360009054906101000a900473ffffffffffffffffffffffffffffffffffffffff1673ffffffffffffffffffffffffffffffffffffffff168673ffffffffffffffffffffffffffffffffffffffff1614806122f35750600360009054906101000a900473ffffffffffffffffffffffffffffffffffffffff1673ffffffffffffffffffffffffffffffffffffffff168573ffffffffffffffffffffffffffffffffffffffff16145b1561245957600267ffffffffffffffff811115612339577f4e487b7100000000000000000000000000000000000000000000000000000000600052604160045260246000fd5b6040519080825280602002602001820160405280156123675781602001602082028036833780820191505090505b50905085816000815181106123a5577f4e487b7100000000000000000000000000000000000000000000000000000000600052603260045260246000fd5b602002602001019073ffffffffffffffffffffffffffffffffffffffff16908173ffffffffffffffffffffffffffffffffffffffff1681525050848160018151811061241a577f4e487b7100000000000000000000000000000000000000000000000000000000600052603260045260246000fd5b602002602001019073ffffffffffffffffffffffffffffffffffffffff16908173ffffffffffffffffffffffffffffffffffffffff168152505061264d565b600367ffffffffffffffff81111561249a577f4e487b7100000000000000000000000000000000000000000000000000000000600052604160045260246000fd5b6040519080825280602002602001820160405280156124c85781602001602082028036833780820191505090505b5090508581600081518110612506577f4e487b7100000000000000000000000000000000000000000000000000000000600052603260045260246000fd5b602002602001019073ffffffffffffffffffffffffffffffffffffffff16908173ffffffffffffffffffffffffffffffffffffffff1681525050600360009054906101000a900473ffffffffffffffffffffffffffffffffffffffff168160018151811061259d577f4e487b7100000000000000000000000000000000000000000000000000000000600052603260045260246000fd5b602002602001019073ffffffffffffffffffffffffffffffffffffffff16908173ffffffffffffffffffffffffffffffffffffffff16815250508481600281518110612612577f4e487b7100000000000000000000000000000000000000000000000000000000600052603260045260246000fd5b602002602001019073ffffffffffffffffffffffffffffffffffffffff16908173ffffffffffffffffffffffffffffffffffffffff16815250505b60008054906101000a900473ffffffffffffffffffffffffffffffffffffffff1673ffffffffffffffffffffffffffffffffffffffff166338ed173985858486426040518663ffffffff1660e01b81526004016126ae959493929190613626565b600060405180830381600087803b1580156126c857600080fd5b505af11580156126dc573d6000803e3d6000fd5b505050506040513d6000823e3d601f19601f820116820180604052508101906127059190612faf565b50505050505050565b600080600061271b610bc2565b9150915060008114612762576040517f08c379a000000000000000000000000000000000000000000000000000000000815260040161275990613512565b60405180910390fd5b600082116127a5576040517f08c379a000000000000000000000000000000000000000000000000000000000815260040161279c90613552565b60405180910390fd5b819250505090565b60008273ffffffffffffffffffffffffffffffffffffffff166317bfdfbc306040518263ffffffff1660e01b81526004016127e8919061336e565b602060405180830381600087803b15801561280257600080fd5b505af1158015612816573d6000803e3d6000fd5b505050506040513d601f19601f8201168201806040525081019061283a9190613091565b90508373ffffffffffffffffffffffffffffffffffffffff1663095ea7b384836040518363ffffffff1660e01b81526004016128779291906133c0565b602060405180830381600087803b15801561289157600080fd5b505af11580156128a5573d6000803e3d6000fd5b505050506040513d601f19601f820116820180604052508101906128c99190612ff0565b508273ffffffffffffffffffffffffffffffffffffffff16630e752702826040518263ffffffff1660e01b815260040161290391906135b2565b602060405180830381600087803b15801561291d57600080fd5b505af1158015612931573d6000803e3d6000fd5b505050506040513d601f19601f820116820180604052508101906129559190613091565b5060008273ffffffffffffffffffffffffffffffffffffffff166370a08231306040518263ffffffff1660e01b8152600401612991919061336e565b60206040518083038186803b1580156129a957600080fd5b505afa1580156129bd573d6000803e3d6000fd5b505050506040513d601f19601f820116820180604052508101906129e19190613091565b90508273ffffffffffffffffffffffffffffffffffffffff1663db006a75826040518263ffffffff1660e01b8152600401612a1c91906135b2565b602060405180830381600087803b158015612a3657600080fd5b505af1158015612a4a573d6000803e3d6000fd5b505050506040513d601f19601f82011682018060405250810190612a6e9190613091565b505050505050565b6000600760009054906101000a900473ffffffffffffffffffffffffffffffffffffffff1673ffffffffffffffffffffffffffffffffffffffff1663db006a75836040518263ffffffff1660e01b8152600401612ad391906135b2565b602060405180830381600087803b158015612aed57600080fd5b505af1158015612b01573d6000803e3d6000fd5b505050506040513d601f19601f82011682018060405250810190612b259190613091565b14612b65576040517f08c379a0000000000000000000000000000000000000000000000000000000008152600401612b5c90613532565b60405180910390fd5b50565b612b7484848484611dbb565b60008473ffffffffffffffffffffffffffffffffffffffff166370a08231306040518263ffffffff1660e01b8152600401612baf919061336e565b60206040518083038186803b158015612bc757600080fd5b505afa158015612bdb573d6000803e3d6000fd5b505050506040513d601f19601f82011682018060405250810190612bff9190613091565b9050612c5c85600460009054906101000a900473ffffffffffffffffffffffffffffffffffffffff1683612c5689600460009054906101000a900473ffffffffffffffffffffffffffffffffffffffff1687611269565b3061219a565b5050505050565b600460009054906101000a900473ffffffffffffffffffffffffffffffffffffffff1681565b600660009054906101000a900473ffffffffffffffffffffffffffffffffffffffff1681565b600960009054906101000a900473ffffffffffffffffffffffffffffffffffffffff1681565b6000612ce8612ce3846136a5565b613680565b90508083825260208201905082856020860282011115612d0757600080fd5b60005b85811015612d375781612d1d8882612daa565b845260208401935060208301925050600181019050612d0a565b5050509392505050565b600081359050612d5081613d33565b92915050565b600082601f830112612d6757600080fd5b8151612d77848260208601612cd5565b91505092915050565b600081519050612d8f81613d4a565b92915050565b600081359050612da481613d61565b92915050565b600081519050612db981613d61565b92915050565b600060208284031215612dd157600080fd5b6000612ddf84828501612d41565b91505092915050565b600080600060608486031215612dfd57600080fd5b6000612e0b86828701612d41565b9350506020612e1c86828701612d41565b9250506040612e2d86828701612d41565b9150509250925092565b600080600060608486031215612e4c57600080fd5b6000612e5a86828701612d41565b9350506020612e6b86828701612d41565b9250506040612e7c86828701612d95565b9150509250925092565b60008060008060808587031215612e9c57600080fd5b6000612eaa87828801612d41565b9450506020612ebb87828801612d41565b9350506040612ecc87828801612d95565b9250506060612edd87828801612d95565b91505092959194509250565b600080600080600060a08688031215612f0157600080fd5b6000612f0f88828901612d41565b9550506020612f2088828901612d41565b9450506040612f3188828901612d95565b9350506060612f4288828901612d95565b9250506080612f5388828901612d41565b9150509295509295909350565b600080600060608486031215612f7557600080fd5b6000612f8386828701612d41565b9350506020612f9486828701612d95565b9250506040612fa586828701612d95565b9150509250925092565b600060208284031215612fc157600080fd5b600082015167ffffffffffffffff811115612fdb57600080fd5b612fe784828501612d56565b91505092915050565b60006020828403121561300257600080fd5b600061301084828501612d80565b91505092915050565b60008060006060848603121561302e57600080fd5b600061303c86828701612d80565b935050602061304d86828701612daa565b925050604061305e86828701612d80565b9150509250925092565b60006020828403121561307a57600080fd5b600061308884828501612d95565b91505092915050565b6000602082840312156130a357600080fd5b60006130b184828501612daa565b91505092915050565b600080604083850312156130cd57600080fd5b60006130db85828601612d95565b92505060206130ec85828601612d95565b9150509250929050565b60008060006060848603121561310b57600080fd5b600061311986828701612daa565b935050602061312a86828701612daa565b925050604061313b86828701612daa565b9150509250925092565b6000613151838361315d565b60208301905092915050565b613166816139a1565b82525050565b613175816139a1565b82525050565b6000613186826136e1565b61319081856136f9565b935061319b836136d1565b8060005b838110156131cc5781516131b38882613145565b97506131be836136ec565b92505060018101905061319f565b5085935050505092915050565b6131e2816139e9565b82525050565b6131f181613a0d565b82525050565b61320081613a31565b82525050565b61320f81613a55565b82525050565b61321e81613a79565b82525050565b6000613231600e8361370a565b915061323c82613bc2565b602082019050919050565b600061325460058361370a565b915061325f82613beb565b602082019050919050565b600061327760208361370a565b915061328282613c14565b602082019050919050565b600061329a600b8361370a565b91506132a582613c3d565b602082019050919050565b60006132bd600d8361370a565b91506132c882613c66565b602082019050919050565b60006132e0600d8361370a565b91506132eb82613c8f565b602082019050919050565b6000613303600d8361370a565b915061330e82613cb8565b602082019050919050565b6000613326600c8361370a565b915061333182613ce1565b602082019050919050565b6000613349600d8361370a565b915061335482613d0a565b602082019050919050565b613368816139df565b82525050565b6000602082019050613383600083018461316c565b92915050565b600060608201905061339e600083018661316c565b6133ab602083018561316c565b6133b8604083018461335f565b949350505050565b60006040820190506133d5600083018561316c565b6133e2602083018461335f565b9392505050565b60006020820190508181036000830152613403818461317b565b905092915050565b600060208201905061342060008301846131d9565b92915050565b600060208201905061343b60008301846131e8565b92915050565b600060208201905061345660008301846131f7565b92915050565b60006020820190506134716000830184613206565b92915050565b600060208201905061348c6000830184613215565b92915050565b600060208201905081810360008301526134ab81613224565b9050919050565b600060208201905081810360008301526134cb81613247565b9050919050565b600060208201905081810360008301526134eb8161326a565b9050919050565b6000602082019050818103600083015261350b8161328d565b9050919050565b6000602082019050818103600083015261352b816132b0565b9050919050565b6000602082019050818103600083015261354b816132d3565b9050919050565b6000602082019050818103600083015261356b816132f6565b9050919050565b6000602082019050818103600083015261358b81613319565b9050919050565b600060208201905081810360008301526135ab8161333c565b9050919050565b60006020820190506135c7600083018461335f565b92915050565b60006040820190506135e2600083018561335f565b81810360208301526135f4818461317b565b90509392505050565b6000604082019050613612600083018561335f565b61361f602083018461335f565b9392505050565b600060a08201905061363b600083018861335f565b613648602083018761335f565b818103604083015261365a818661317b565b9050613669606083018561316c565b613676608083018461335f565b9695505050505050565b600061368a61369b565b90506136968282613a9d565b919050565b6000604051905090565b600067ffffffffffffffff8211156136c0576136bf613b75565b5b602082029050602081019050919050565b6000819050602082019050919050565b600081519050919050565b6000602082019050919050565b600082825260208201905092915050565b600082825260208201905092915050565b6000613726826139df565b9150613731836139df565b9250827fffffffffffffffffffffffffffffffffffffffffffffffffffffffffffffffff0382111561376657613765613b17565b5b828201905092915050565b600061377c826139df565b9150613787836139df565b92508261379757613796613b46565b5b828204905092915050565b6000808291508390505b60018511156137ec578086048111156137c8576137c7613b17565b5b60018516156137d75780820291505b80810290506137e585613bb5565b94506137ac565b94509492505050565b6000613800826139df565b915061380b836139df565b92506138387fffffffffffffffffffffffffffffffffffffffffffffffffffffffffffffffff8484613840565b905092915050565b600082613850576001905061390c565b8161385e576000905061390c565b8160018114613874576002811461387e576138ad565b600191505061390c565b60ff8411156138905761388f613b17565b5b8360020a9150848211156138a7576138a6613b17565b5b5061390c565b5060208310610133831016604e8410600b84101617156138e25782820a9050838111156138dd576138dc613b17565b5b61390c565b6138ef84848460016137a2565b9250905081840481111561390657613905613b17565b5b81810290505b9392505050565b600061391e826139df565b9150613929836139df565b9250817fffffffffffffffffffffffffffffffffffffffffffffffffffffffffffffffff048311821515161561396257613961613b17565b5b828202905092915050565b6000613978826139df565b9150613983836139df565b92508282101561399657613995613b17565b5b828203905092915050565b60006139ac826139bf565b9050919050565b60008115159050919050565b600073ffffffffffffffffffffffffffffffffffffffff82169050919050565b6000819050919050565b60006139f4826139fb565b9050919050565b6000613a06826139bf565b9050919050565b6000613a1882613a1f565b9050919050565b6000613a2a826139bf565b9050919050565b6000613a3c82613a43565b9050919050565b6000613a4e826139bf565b9050919050565b6000613a6082613a67565b9050919050565b6000613a72826139bf565b9050919050565b6000613a8482613a8b565b9050919050565b6000613a96826139bf565b9050919050565b613aa682613ba4565b810181811067ffffffffffffffff82111715613ac557613ac4613b75565b5b80604052505050565b6000613ad9826139df565b91507fffffffffffffffffffffffffffffffffffffffffffffffffffffffffffffffff821415613b0c57613b0b613b17565b5b600182019050919050565b7f4e487b7100000000000000000000000000000000000000000000000000000000600052601160045260246000fd5b7f4e487b7100000000000000000000000000000000000000000000000000000000600052601260045260246000fd5b7f4e487b7100000000000000000000000000000000000000000000000000000000600052604160045260246000fd5b6000601f19601f8301169050919050565b60008160011c9050919050565b7f6d617820626f72726f77203d2030000000000000000000000000000000000000600082015250565b7f6572726f72000000000000000000000000000000000000000000000000000000600082015250565b7f436f6d7074726f6c6c65722e656e7465724d61726b657473206661696c65642e600082015250565b7f6d696e74206661696c6564000000000000000000000000000000000000000000600082015250565b7f73686f727466616c6c203e203000000000000000000000000000000000000000600082015250565b7f72656465656d206661696c656400000000000000000000000000000000000000600082015250565b7f6c6971756964697479203d203000000000000000000000000000000000000000600082015250565b7f7265706179206661696c65640000000000000000000000000000000000000000600082015250565b7f626f72726f77206661696c656400000000000000000000000000000000000000600082015250565b613d3c816139a1565b8114613d4757600080fd5b50565b613d53816139b3565b8114613d5e57600080fd5b50565b613d6a816139df565b8114613d7557600080fd5b5056fea2646970667358221220cc22aa4ca6ff45815edb36a253c126affe1adeb414debd16dd8306bc9f51bd5464736f6c63430008040033",
  "immutableReferences": {},
  "source": "// SPDX-License-Identifier: MIT\r\npragma solidity ^0.8;\r\n\r\nimport './interfaces/IPhantasm.sol';\r\nimport './interfaces/ICompound.sol';\r\nimport './interfaces/IUniswap.sol';\r\nimport '@openzeppelin/contracts/token/ERC20/IERC20.sol';\r\n\r\ncontract Phantasm is IPhantasm {\r\n    \r\n    IUniswapV2Router public uniswap = IUniswapV2Router(0x7a250d5630B4cF539739dF2C5dAcb4c659F2488D);\r\n    Comptroller public comptroller = Comptroller(0x3d9819210A31b4961b30EF54bE2aeD79B9c9Cd3B);\r\n    PriceFeed public priceFeed = PriceFeed(0x922018674c12a7F0D394ebEEf9B58F186CdE13c1);\r\n    IERC20 public WETH = IERC20(0xC02aaA39b223FE8D0A0e5C4F27eAD9083C756Cc2);\r\n    IERC20 public dai = IERC20(0x6B175474E89094C44Da98b954EedeAC495271d0F);\r\n    CErc20 public cDai = CErc20(0x5d3a536E4D6DbD6114cc1Ead35777bAB948E3643);\r\n    IERC20 public token;\r\n    CErc20 public cToken;\r\n    IERC20 public tokenBorrow;\r\n    CErc20 public cTokenBorrow;\r\n    uint256 public cTokenBorrowDecimals;\r\n\r\n\r\n    constructor (address _token, address _cToken, address _tokenBorrow, address _cTokenBorrow, uint256 _cTokenBorrowDecimals) {\r\n        token = IERC20(_token);\r\n        cToken = CErc20(_cToken);\r\n\r\n        tokenBorrow = IERC20(_tokenBorrow);\r\n        cTokenBorrow = CErc20(_cTokenBorrow);\r\n        cTokenBorrowDecimals = _cTokenBorrowDecimals;\r\n    }\r\n\r\n    receive() external payable {}\r\n\r\n    /*\r\n\r\n\r\n                 \r\n                 \r\n                \r\n\r\n    */\r\n\r\n    function openPosition(address _borrowToken, address _borrowCToken, uint256 initialAmount, uint256 _borrowFactor) public virtual override {\r\n        uint256 nextCollateralAmount = initialAmount;\r\n        for(uint i = 0; i < 5; i++) {\r\n            nextCollateralAmount = addCollateral(_borrowToken, _borrowCToken, nextCollateralAmount, _borrowFactor);\r\n        }\r\n    }\r\n\r\n    function addCollateral(address _borrowToken, address _borrowCToken, uint256 _collateralAmount, uint256 _borrowFactor) public virtual override returns(uint256) {\r\n        IERC20(_borrowToken).approve(_borrowCToken, _collateralAmount);\r\n        CErc20(_borrowCToken).mint(_collateralAmount);\r\n        uint borrowAmount = (_collateralAmount * _borrowFactor) / 100;\r\n        // Borrow\r\n        require(CErc20(_borrowCToken).borrow(borrowAmount) == 0, \"borrow failed\");\r\n        return borrowAmount;\r\n    }\r\n\r\n    function closePosition(address _borrowedToken, address _borrowedCToken, address _collateralCToken) external virtual override {\r\n        // Closing position will Usually take Dai and cDai Addresses for _borrowedToken and _borrowedCToken values respectively\r\n        uint256 balanceBorrow = CErc20(_borrowedCToken).borrowBalanceCurrent(address(this));\r\n        IERC20(_borrowedToken).approve(_borrowedCToken, balanceBorrow);\r\n        CErc20(_borrowedCToken).repayBorrow(balanceBorrow);\r\n        uint256 balanceCToken = CErc20(_collateralCToken).balanceOf(address(this));\r\n        CErc20(_collateralCToken).redeem(balanceCToken);\r\n    }\r\n\r\n    /*\r\n\r\n       \r\n       \r\n      \r\n\r\n    */\r\n\r\n    function leverageLong(address _longToken, uint256 _borrowAmount, uint256 _borrowFactor) external virtual override {\r\n        openPosition(address(dai), address(cDai), _borrowAmount, _borrowFactor);\r\n\r\n        uint256 bal = dai.balanceOf(address(this));\r\n        swap(address(dai), _longToken, bal, _getAmountOutMin(address(dai), _longToken, bal), address(this));\r\n    }\r\n\r\n    function leverageShort(address _shortToken, address _shortCToken, uint256 _borrowAmount, uint256 _borrowFactor) external virtual override {\r\n        openPosition(_shortToken, _shortCToken, _borrowAmount, _borrowFactor);\r\n\r\n        uint256 bal = IERC20(_shortToken).balanceOf(address(this));\r\n        swap(_shortToken, address(dai), bal, _getAmountOutMin(_shortToken, address(dai), bal), address(this));\r\n    }\r\n\r\n\r\n    /*\r\n\r\n\r\n       \r\n       \r\n      \r\n\r\n    */\r\n\r\n    function supply(uint _amount) external virtual override {\r\n        token.transferFrom(msg.sender, address(this), _amount);\r\n        token.approve(address(cToken), _amount);\r\n        require(cToken.mint(_amount) == 0, \"mint failed\");\r\n    }\r\n\r\n    function enterMarkets() public virtual override {\r\n        address[] memory cTokens = new address[](1);\r\n        cTokens[0] = address(cToken);\r\n        uint[] memory errors = comptroller.enterMarkets(cTokens);\r\n        require(errors[0] == 0, \"Comptroller.enterMarkets failed.\");\r\n    }\r\n\r\n    // not view function\r\n    function getInfo() external virtual override returns (uint exchangeRate, uint supplyRate) {\r\n        // Amount of current exchange rate from cToken to underlying\r\n        exchangeRate = cToken.exchangeRateCurrent();\r\n        // Amount added to you supply balance this block\r\n        supplyRate = cToken.supplyRatePerBlock();\r\n    }\r\n\r\n    // not view function\r\n    function estimateBalanceOfUnderlying() external virtual override returns (uint) {\r\n        uint cTokenBal = cToken.balanceOf(address(this));\r\n        uint exchangeRate = cToken.exchangeRateCurrent();\r\n        uint decimals = 8; // WBTC = 8 decimals\r\n        uint cTokenDecimals = 8;\r\n\r\n        return (cTokenBal * exchangeRate) / 10**(18 + decimals - cTokenDecimals);\r\n    }\r\n\r\n    // not view function\r\n    function getSuppliedBalance() external virtual override returns (uint) {\r\n        return cToken.balanceOfUnderlying(address(this));\r\n    }\r\n\r\n    function redeem(uint _cTokenAmount) external virtual override {\r\n        require(cToken.redeem(_cTokenAmount) == 0, \"redeem failed\");\r\n        // cToken.redeemUnderlying(underlying amount);\r\n    }\r\n\r\n    // enter market and borrow\r\n    function borrow(address _cTokenToBorrow) external virtual override {\r\n        enterMarkets();\r\n\r\n        uint256 liquidity = checkLiquidity(); // USD scaled up by 1e18\r\n        uint256 price = getPriceFeed(_cTokenToBorrow); // USD scaled up by 1e18\r\n\r\n        // decimals - decimals of token to borrow\r\n        uint256 maxBorrow = getMaxBorrow(liquidity, price);\r\n        require(maxBorrow > 0, \"max borrow = 0\");\r\n\r\n        // borrow 50% of max borrow\r\n        uint amount = (maxBorrow * 50) / 100;\r\n        require(CErc20(_cTokenToBorrow).borrow(amount) == 0, \"borrow failed\");\r\n    }\r\n\r\n    // borrowed balance (includes interest)\r\n    // not view function\r\n    function getBorrowBalance(address _cTokenBorrowed) public virtual override returns (uint) {\r\n        return CErc20(_cTokenBorrowed).borrowBalanceCurrent(address(this));\r\n    }\r\n\r\n    // repay borrow\r\n    function repay(address _tokenBorrowed, address _cTokenBorrowed, uint _amount) external virtual override {\r\n        IERC20(_tokenBorrowed).approve(_cTokenBorrowed, _amount);\r\n        // _amount = 2 ** 256 - 1 means repay all\r\n        require(CErc20(_cTokenBorrowed).repayBorrow(_amount) == 0, \"repay failed\");\r\n    }\r\n\r\n\r\n    /*\r\n\r\n\r\n              \r\n              \r\n             \r\n\r\n    */\r\n\r\n    function getCTokenBalance() external virtual override view returns (uint) {\r\n        return cToken.balanceOf(address(this));\r\n    }\r\n\r\n    // open price feed - USD price of token to borrow\r\n    function getPriceFeed(address _cToken) public virtual override view returns (uint) {\r\n        // scaled up by 1e18\r\n        return priceFeed.getUnderlyingPrice(_cToken);\r\n    }\r\n\r\n    function getCollateralFactor() external virtual override view returns (uint) {\r\n        (bool isListed, uint colFactor, bool isComped) = comptroller.markets(address(cToken));\r\n        return colFactor; // divide by 1e18 to get in %\r\n    }\r\n\r\n    // borrow rate\r\n    function getBorrowRatePerBlock(address _cTokenBorrowed) external virtual override view returns (uint) {\r\n        // scaled up by 1e18\r\n        return CErc20(_cTokenBorrowed).borrowRatePerBlock();\r\n    }\r\n\r\n    function checkLiquidity() public virtual override view returns (uint256){\r\n        (uint256 liquidity, uint256 shortfall) = getAccountLiquidity();\r\n\r\n        require(shortfall == 0, \"shortfall > 0\");\r\n        require(liquidity > 0, \"liquidity = 0\");\r\n        \r\n        return liquidity;\r\n    }\r\n\r\n    // account liquidity - calculate how much can I borrow?\r\n    // sum of (supplied balance of market entered * col factor) - borrowed\r\n    function getAccountLiquidity() public virtual override view returns (uint256 liquidity, uint256 shortfall) {\r\n        // liquidity and shortfall in USD scaled up by 1e18\r\n        (uint256 error, uint256 _liquidity, uint256 _shortfall) = comptroller.getAccountLiquidity(address(this));\r\n        require(error == 0, \"error\");\r\n        // normal circumstance: liquidity > 0 and shortfall == 0\r\n        // liquidity > 0 means account can borrow up to `liquidity`\r\n        // shortfall > 0 is subject to liquidation, user has borrowed over limit\r\n        return (_liquidity, _shortfall);\r\n    }\r\n\r\n    function getMaxBorrow(uint256 liquidity, uint256 price) public virtual override view returns (uint) {\r\n        return (liquidity * (10**cTokenBorrowDecimals)) / price;\r\n    }\r\n\r\n    /*\r\n\r\n       \r\n       \r\n      \r\n\r\n    */\r\n\r\n    function swap(address _tokenIn, address _tokenOut, uint _amountIn, uint _amountOutMin, address _to) public virtual override {\r\n        IERC20(_tokenIn).approve(address(uniswap), _amountIn);\r\n\r\n        address[] memory path;\r\n        if (_tokenIn == address(WETH) || _tokenOut == address(WETH)) {\r\n            path = new address[](2);\r\n            path[0] = _tokenIn;\r\n            path[1] = _tokenOut;\r\n        } else {\r\n            path = new address[](3);\r\n            path[0] = _tokenIn;\r\n            path[1] = address(WETH);\r\n            path[2] = _tokenOut;\r\n        }\r\n\r\n        uniswap.swapExactTokensForTokens(_amountIn, _amountOutMin, path, _to, block.timestamp);\r\n    }\r\n\r\n    function _getAmountOutMin(address _tokenIn, address _tokenOut, uint _amountIn) public virtual override view returns (uint) {\r\n        address[] memory path;\r\n        if (_tokenIn == address(WETH) || _tokenOut == address(WETH)) {\r\n            path = new address[](2);\r\n            path[0] = _tokenIn;\r\n            path[1] = _tokenOut;\r\n        } else {\r\n            path = new address[](3);\r\n            path[0] = _tokenIn;\r\n            path[1] = address(WETH);\r\n            path[2] = _tokenOut;\r\n        }\r\n\r\n        // same length as path\r\n        uint[] memory amountOutMins = uniswap.getAmountsOut(_amountIn, path);\r\n\r\n        return amountOutMins[path.length - 1];\r\n    }\r\n}",
  "sourcePath": "/home/chinmay/ethonline/fin/Phantasm-v1/truffle-Phantasm/contracts/lending-swaps/Phantasm.sol",
  "compiler": {
    "name": "solc",
    "version": "0.8.4+commit.c7e474f2.Emscripten.clang"
  },
  "schemaVersion": "3.4.3",
  "updatedAt": "2021-10-09T21:11:27.491Z",
  "devdoc": {
    "kind": "dev",
    "methods": {},
    "version": 1
  },
  "userdoc": {
    "kind": "user",
    "methods": {},
    "version": 1
  }
}