{
  "contractName": "Sushiswap",
  "abi": [
    {
      "inputs": [
        {
          "internalType": "address",
          "name": "_tokenIn",
          "type": "address"
        },
        {
          "internalType": "address",
          "name": "_tokenOut",
          "type": "address"
        },
        {
          "internalType": "uint256",
          "name": "_amountIn",
          "type": "uint256"
        },
        {
          "internalType": "uint256",
          "name": "_amountOutMin",
          "type": "uint256"
        },
        {
          "internalType": "address",
          "name": "_to",
          "type": "address"
        }
      ],
      "name": "swap",
      "outputs": [],
      "stateMutability": "nonpayable",
      "type": "function"
    },
    {
      "inputs": [
        {
          "internalType": "address",
          "name": "_tokenIn",
          "type": "address"
        },
        {
          "internalType": "address",
          "name": "_tokenOut",
          "type": "address"
        },
        {
          "internalType": "uint256",
          "name": "_amountIn",
          "type": "uint256"
        }
      ],
      "name": "getAmountOutMin",
      "outputs": [
        {
          "internalType": "uint256",
          "name": "",
          "type": "uint256"
        }
      ],
      "stateMutability": "view",
      "type": "function"
    }
  ],
  "bytecode": "0x608060405234801561001057600080fd5b50610f16806100206000396000f3fe608060405234801561001057600080fd5b50600436106100365760003560e01c80633c50eec11461003b578063d5bcb9b51461006b575b600080fd5b61005560048036038101906100509190610a1d565b610087565b6040516100629190610c50565b60405180910390f35b61008560048036038101906100809190610a6c565b610565565b005b6000606073c02aaa39b223fe8d0a0e5c4f27ead9083c756cc273ffffffffffffffffffffffffffffffffffffffff168573ffffffffffffffffffffffffffffffffffffffff161480610118575073c02aaa39b223fe8d0a0e5c4f27ead9083c756cc273ffffffffffffffffffffffffffffffffffffffff168473ffffffffffffffffffffffffffffffffffffffff16145b1561027e57600267ffffffffffffffff81111561015e577f4e487b7100000000000000000000000000000000000000000000000000000000600052604160045260246000fd5b60405190808252806020026020018201604052801561018c5781602001602082028036833780820191505090505b50905084816000815181106101ca577f4e487b7100000000000000000000000000000000000000000000000000000000600052603260045260246000fd5b602002602001019073ffffffffffffffffffffffffffffffffffffffff16908173ffffffffffffffffffffffffffffffffffffffff1681525050838160018151811061023f577f4e487b7100000000000000000000000000000000000000000000000000000000600052603260045260246000fd5b602002602001019073ffffffffffffffffffffffffffffffffffffffff16908173ffffffffffffffffffffffffffffffffffffffff1681525050610464565b600367ffffffffffffffff8111156102bf577f4e487b7100000000000000000000000000000000000000000000000000000000600052604160045260246000fd5b6040519080825280602002602001820160405280156102ed5781602001602082028036833780820191505090505b509050848160008151811061032b577f4e487b7100000000000000000000000000000000000000000000000000000000600052603260045260246000fd5b602002602001019073ffffffffffffffffffffffffffffffffffffffff16908173ffffffffffffffffffffffffffffffffffffffff168152505073c02aaa39b223fe8d0a0e5c4f27ead9083c756cc2816001815181106103b4577f4e487b7100000000000000000000000000000000000000000000000000000000600052603260045260246000fd5b602002602001019073ffffffffffffffffffffffffffffffffffffffff16908173ffffffffffffffffffffffffffffffffffffffff16815250508381600281518110610429577f4e487b7100000000000000000000000000000000000000000000000000000000600052603260045260246000fd5b602002602001019073ffffffffffffffffffffffffffffffffffffffff16908173ffffffffffffffffffffffffffffffffffffffff16815250505b600073d9e1ce17f2641f24ae83637ab66a2cca9c378b9f73ffffffffffffffffffffffffffffffffffffffff1663d06ca61f85846040518363ffffffff1660e01b81526004016104b5929190610c6b565b60006040518083038186803b1580156104cd57600080fd5b505afa1580156104e1573d6000803e3d6000fd5b505050506040513d6000823e3d601f19601f8201168201806040525081019061050a9190610ae3565b9050806001835161051b9190610d7f565b81518110610552577f4e487b7100000000000000000000000000000000000000000000000000000000600052603260045260246000fd5b6020026020010151925050509392505050565b8473ffffffffffffffffffffffffffffffffffffffff166323b872dd3330866040518463ffffffff1660e01b81526004016105a293929190610bf0565b602060405180830381600087803b1580156105bc57600080fd5b505af11580156105d0573d6000803e3d6000fd5b505050506040513d601f19601f820116820180604052508101906105f49190610b24565b508473ffffffffffffffffffffffffffffffffffffffff1663095ea7b373d9e1ce17f2641f24ae83637ab66a2cca9c378b9f856040518363ffffffff1660e01b8152600401610644929190610c27565b602060405180830381600087803b15801561065e57600080fd5b505af1158015610672573d6000803e3d6000fd5b505050506040513d601f19601f820116820180604052508101906106969190610b24565b506060600367ffffffffffffffff8111156106da577f4e487b7100000000000000000000000000000000000000000000000000000000600052604160045260246000fd5b6040519080825280602002602001820160405280156107085781602001602082028036833780820191505090505b5090508581600081518110610746577f4e487b7100000000000000000000000000000000000000000000000000000000600052603260045260246000fd5b602002602001019073ffffffffffffffffffffffffffffffffffffffff16908173ffffffffffffffffffffffffffffffffffffffff168152505073c02aaa39b223fe8d0a0e5c4f27ead9083c756cc2816001815181106107cf577f4e487b7100000000000000000000000000000000000000000000000000000000600052603260045260246000fd5b602002602001019073ffffffffffffffffffffffffffffffffffffffff16908173ffffffffffffffffffffffffffffffffffffffff16815250508481600281518110610844577f4e487b7100000000000000000000000000000000000000000000000000000000600052603260045260246000fd5b602002602001019073ffffffffffffffffffffffffffffffffffffffff16908173ffffffffffffffffffffffffffffffffffffffff168152505073d9e1ce17f2641f24ae83637ab66a2cca9c378b9f73ffffffffffffffffffffffffffffffffffffffff166338ed173985858486426040518663ffffffff1660e01b81526004016108d3959493929190610c9b565b600060405180830381600087803b1580156108ed57600080fd5b505af1158015610901573d6000803e3d6000fd5b505050506040513d6000823e3d601f19601f8201168201806040525081019061092a9190610ae3565b50505050505050565b600061094661094184610d1a565b610cf5565b9050808382526020820190508285602086028201111561096557600080fd5b60005b85811015610995578161097b8882610a08565b845260208401935060208301925050600181019050610968565b5050509392505050565b6000813590506109ae81610e9b565b92915050565b600082601f8301126109c557600080fd5b81516109d5848260208601610933565b91505092915050565b6000815190506109ed81610eb2565b92915050565b600081359050610a0281610ec9565b92915050565b600081519050610a1781610ec9565b92915050565b600080600060608486031215610a3257600080fd5b6000610a408682870161099f565b9350506020610a518682870161099f565b9250506040610a62868287016109f3565b9150509250925092565b600080600080600060a08688031215610a8457600080fd5b6000610a928882890161099f565b9550506020610aa38882890161099f565b9450506040610ab4888289016109f3565b9350506060610ac5888289016109f3565b9250506080610ad68882890161099f565b9150509295509295909350565b600060208284031215610af557600080fd5b600082015167ffffffffffffffff811115610b0f57600080fd5b610b1b848285016109b4565b91505092915050565b600060208284031215610b3657600080fd5b6000610b44848285016109de565b91505092915050565b6000610b598383610b65565b60208301905092915050565b610b6e81610db3565b82525050565b610b7d81610db3565b82525050565b6000610b8e82610d56565b610b988185610d6e565b9350610ba383610d46565b8060005b83811015610bd4578151610bbb8882610b4d565b9750610bc683610d61565b925050600181019050610ba7565b5085935050505092915050565b610bea81610df1565b82525050565b6000606082019050610c056000830186610b74565b610c126020830185610b74565b610c1f6040830184610be1565b949350505050565b6000604082019050610c3c6000830185610b74565b610c496020830184610be1565b9392505050565b6000602082019050610c656000830184610be1565b92915050565b6000604082019050610c806000830185610be1565b8181036020830152610c928184610b83565b90509392505050565b600060a082019050610cb06000830188610be1565b610cbd6020830187610be1565b8181036040830152610ccf8186610b83565b9050610cde6060830185610b74565b610ceb6080830184610be1565b9695505050505050565b6000610cff610d10565b9050610d0b8282610dfb565b919050565b6000604051905090565b600067ffffffffffffffff821115610d3557610d34610e5b565b5b602082029050602081019050919050565b6000819050602082019050919050565b600081519050919050565b6000602082019050919050565b600082825260208201905092915050565b6000610d8a82610df1565b9150610d9583610df1565b925082821015610da857610da7610e2c565b5b828203905092915050565b6000610dbe82610dd1565b9050919050565b60008115159050919050565b600073ffffffffffffffffffffffffffffffffffffffff82169050919050565b6000819050919050565b610e0482610e8a565b810181811067ffffffffffffffff82111715610e2357610e22610e5b565b5b80604052505050565b7f4e487b7100000000000000000000000000000000000000000000000000000000600052601160045260246000fd5b7f4e487b7100000000000000000000000000000000000000000000000000000000600052604160045260246000fd5b6000601f19601f8301169050919050565b610ea481610db3565b8114610eaf57600080fd5b50565b610ebb81610dc5565b8114610ec657600080fd5b50565b610ed281610df1565b8114610edd57600080fd5b5056fea2646970667358221220540140f58a27e20ecd090233e75e52de11fb0f450834683d87fc997d5c8035ca64736f6c63430008040033",
  "immutableReferences": {},
  "source": "// SPDX-License-Identifier: MIT\npragma solidity ^0.8;\n\nimport \"./interfaces/IERC20.sol\";\nimport \"./interfaces/SushiSwap.sol\";\nimport \"./interfaces/Aave.sol\";\n\n\ncontract Sushiswap {\n  address private constant SUSHI_ROUTER = 0xd9e1cE17f2641f24aE83637ab66a2cca9C378B9F; \n  address private constant WETH = 0xC02aaA39b223FE8D0A0e5C4F27eAD9083C756Cc2;\n\n\n  /* I know its somewhat disrespectful to change the name of the all the uniswap variables to Sushiswap,\n  as it is a fork of Uniswap, but this was very confusing and even worses if Uniswap support is added\n\n  */\n  function swap(address _tokenIn, address _tokenOut, uint _amountIn, uint _amountOutMin, address _to) external {\n    IERC20(_tokenIn).transferFrom(msg.sender, address(this), _amountIn);\n    IERC20(_tokenIn).approve(SUSHI_ROUTER, _amountIn);\n\n    address[] memory path;\n    path = new address[](3);\n    path[0] = _tokenIn;\n    path[1] = WETH;\n    path[2] = _tokenOut;\n\n    SushiSwapRouter(SUSHI_ROUTER).swapExactTokensForTokens(_amountIn,_amountOutMin,path,_to,block.timestamp);\n  }\n\n  function getAmountOutMin(address _tokenIn, address _tokenOut, uint _amountIn) external view returns (uint) {\n    address[] memory path;\n    if (_tokenIn == WETH || _tokenOut == WETH) {\n      path = new address[](2);\n      path[0] = _tokenIn;\n      path[1] = _tokenOut;\n    } else {\n      path = new address[](3);\n      path[0] = _tokenIn;\n      path[1] = WETH;\n      path[2] = _tokenOut;\n    }\n\n    // same length as path\n    uint[] memory amountOutMins = SushiSwapRouter(SUSHI_ROUTER).getAmountsOut(_amountIn, path);\n\n    return amountOutMins[path.length - 1];\n  }\n\n}\n\n",
  "sourcePath": "B:\\Nebula Labs\\Phantasm\\contracts\\Sushiswap.sol",
  "compiler": {
    "name": "solc",
    "version": "0.8.4+commit.c7e474f2.Emscripten.clang"
  },
  "schemaVersion": "3.4.2",
  "updatedAt": "2021-09-02T01:27:00.410Z",
  "devdoc": {
    "kind": "dev",
    "methods": {},
    "version": 1
  },
  "userdoc": {
    "kind": "user",
    "methods": {},
    "version": 1
  }
}