{
  "contractName": "test1",
  "abi": [
    {
      "inputs": [],
      "stateMutability": "nonpayable",
      "type": "constructor"
    },
    {
      "anonymous": false,
      "inputs": [
        {
          "indexed": true,
          "internalType": "address",
          "name": "owner",
          "type": "address"
        },
        {
          "indexed": true,
          "internalType": "address",
          "name": "approved",
          "type": "address"
        },
        {
          "indexed": true,
          "internalType": "uint256",
          "name": "tokenId",
          "type": "uint256"
        }
      ],
      "name": "Approval",
      "type": "event"
    },
    {
      "anonymous": false,
      "inputs": [
        {
          "indexed": true,
          "internalType": "address",
          "name": "owner",
          "type": "address"
        },
        {
          "indexed": true,
          "internalType": "address",
          "name": "operator",
          "type": "address"
        },
        {
          "indexed": false,
          "internalType": "bool",
          "name": "approved",
          "type": "bool"
        }
      ],
      "name": "ApprovalForAll",
      "type": "event"
    },
    {
      "anonymous": false,
      "inputs": [
        {
          "indexed": true,
          "internalType": "address",
          "name": "from",
          "type": "address"
        },
        {
          "indexed": true,
          "internalType": "address",
          "name": "to",
          "type": "address"
        },
        {
          "indexed": true,
          "internalType": "uint256",
          "name": "tokenId",
          "type": "uint256"
        }
      ],
      "name": "Transfer",
      "type": "event"
    },
    {
      "inputs": [
        {
          "internalType": "address",
          "name": "to",
          "type": "address"
        },
        {
          "internalType": "uint256",
          "name": "tokenId",
          "type": "uint256"
        }
      ],
      "name": "approve",
      "outputs": [],
      "stateMutability": "nonpayable",
      "type": "function"
    },
    {
      "inputs": [
        {
          "internalType": "address",
          "name": "owner",
          "type": "address"
        }
      ],
      "name": "balanceOf",
      "outputs": [
        {
          "internalType": "uint256",
          "name": "",
          "type": "uint256"
        }
      ],
      "stateMutability": "view",
      "type": "function"
    },
    {
      "inputs": [
        {
          "internalType": "uint256",
          "name": "tokenId",
          "type": "uint256"
        }
      ],
      "name": "getApproved",
      "outputs": [
        {
          "internalType": "address",
          "name": "",
          "type": "address"
        }
      ],
      "stateMutability": "view",
      "type": "function"
    },
    {
      "inputs": [
        {
          "internalType": "address",
          "name": "owner",
          "type": "address"
        },
        {
          "internalType": "address",
          "name": "operator",
          "type": "address"
        }
      ],
      "name": "isApprovedForAll",
      "outputs": [
        {
          "internalType": "bool",
          "name": "",
          "type": "bool"
        }
      ],
      "stateMutability": "view",
      "type": "function"
    },
    {
      "inputs": [],
      "name": "name",
      "outputs": [
        {
          "internalType": "string",
          "name": "",
          "type": "string"
        }
      ],
      "stateMutability": "view",
      "type": "function"
    },
    {
      "inputs": [
        {
          "internalType": "uint256",
          "name": "tokenId",
          "type": "uint256"
        }
      ],
      "name": "ownerOf",
      "outputs": [
        {
          "internalType": "address",
          "name": "",
          "type": "address"
        }
      ],
      "stateMutability": "view",
      "type": "function"
    },
    {
      "inputs": [
        {
          "internalType": "address",
          "name": "from",
          "type": "address"
        },
        {
          "internalType": "address",
          "name": "to",
          "type": "address"
        },
        {
          "internalType": "uint256",
          "name": "tokenId",
          "type": "uint256"
        }
      ],
      "name": "safeTransferFrom",
      "outputs": [],
      "stateMutability": "nonpayable",
      "type": "function"
    },
    {
      "inputs": [
        {
          "internalType": "address",
          "name": "from",
          "type": "address"
        },
        {
          "internalType": "address",
          "name": "to",
          "type": "address"
        },
        {
          "internalType": "uint256",
          "name": "tokenId",
          "type": "uint256"
        },
        {
          "internalType": "bytes",
          "name": "_data",
          "type": "bytes"
        }
      ],
      "name": "safeTransferFrom",
      "outputs": [],
      "stateMutability": "nonpayable",
      "type": "function"
    },
    {
      "inputs": [
        {
          "internalType": "address",
          "name": "operator",
          "type": "address"
        },
        {
          "internalType": "bool",
          "name": "approved",
          "type": "bool"
        }
      ],
      "name": "setApprovalForAll",
      "outputs": [],
      "stateMutability": "nonpayable",
      "type": "function"
    },
    {
      "inputs": [
        {
          "internalType": "bytes4",
          "name": "interfaceId",
          "type": "bytes4"
        }
      ],
      "name": "supportsInterface",
      "outputs": [
        {
          "internalType": "bool",
          "name": "",
          "type": "bool"
        }
      ],
      "stateMutability": "view",
      "type": "function"
    },
    {
      "inputs": [],
      "name": "symbol",
      "outputs": [
        {
          "internalType": "string",
          "name": "",
          "type": "string"
        }
      ],
      "stateMutability": "view",
      "type": "function"
    },
    {
      "inputs": [
        {
          "internalType": "uint256",
          "name": "tokenId",
          "type": "uint256"
        }
      ],
      "name": "tokenURI",
      "outputs": [
        {
          "internalType": "string",
          "name": "",
          "type": "string"
        }
      ],
      "stateMutability": "view",
      "type": "function"
    },
    {
      "inputs": [
        {
          "internalType": "address",
          "name": "from",
          "type": "address"
        },
        {
          "internalType": "address",
          "name": "to",
          "type": "address"
        },
        {
          "internalType": "uint256",
          "name": "tokenId",
          "type": "uint256"
        }
      ],
      "name": "transferFrom",
      "outputs": [],
      "stateMutability": "nonpayable",
      "type": "function"
    },
    {
      "inputs": [],
      "name": "createPosition",
      "outputs": [],
      "stateMutability": "nonpayable",
      "type": "function"
    },
    {
      "inputs": [],
      "name": "destroyPosition",
      "outputs": [],
      "stateMutability": "nonpayable",
      "type": "function"
    }
  ],
  "bytecode": "0x60806040523480156200001157600080fd5b506040518060400160405280601081526020017f5068616e7461736d506f736974696f6e000000000000000000000000000000008152506040518060400160405280600581526020017f5350435452000000000000000000000000000000000000000000000000000000815250816000908051906020019062000096929190620000b8565b508060019080519060200190620000af929190620000b8565b505050620001cd565b828054620000c69062000168565b90600052602060002090601f016020900481019282620000ea576000855562000136565b82601f106200010557805160ff191683800117855562000136565b8280016001018555821562000136579182015b828111156200013557825182559160200191906001019062000118565b5b50905062000145919062000149565b5090565b5b80821115620001645760008160009055506001016200014a565b5090565b600060028204905060018216806200018157607f821691505b602082108114156200019857620001976200019e565b5b50919050565b7f4e487b7100000000000000000000000000000000000000000000000000000000600052602260045260246000fd5b6123e380620001dd6000396000f3fe608060405234801561001057600080fd5b50600436106100f55760003560e01c80636352211e11610097578063a22cb46511610066578063a22cb4651461025e578063b88d4fde1461027a578063c87b56dd14610296578063e985e9c5146102c6576100f5565b80636352211e146101d657806370a082311461020657806395d89b41146102365780639ab89f4814610254576100f5565b8063081812fc116100d3578063081812fc14610152578063095ea7b31461018257806323b872dd1461019e57806342842e0e146101ba576100f5565b806301ffc9a7146100fa57806306d226011461012a57806306fdde0314610134575b600080fd5b610114600480360381019061010f91906116bd565b6102f6565b6040516101219190611a37565b60405180910390f35b6101326103d8565b005b61013c6103da565b6040516101499190611a52565b60405180910390f35b61016c6004803603810190610167919061170f565b61046c565b60405161017991906119d0565b60405180910390f35b61019c60048036038101906101979190611681565b6104f1565b005b6101b860048036038101906101b3919061157b565b610609565b005b6101d460048036038101906101cf919061157b565b610669565b005b6101f060048036038101906101eb919061170f565b610689565b6040516101fd91906119d0565b60405180910390f35b610220600480360381019061021b9190611516565b61073b565b60405161022d9190611bf4565b60405180910390f35b61023e6107f3565b60405161024b9190611a52565b60405180910390f35b61025c610885565b005b61027860048036038101906102739190611645565b610887565b005b610294600480360381019061028f91906115ca565b610a08565b005b6102b060048036038101906102ab919061170f565b610a6a565b6040516102bd9190611a52565b60405180910390f35b6102e060048036038101906102db919061153f565b610b11565b6040516102ed9190611a37565b60405180910390f35b60007f80ac58cd000000000000000000000000000000000000000000000000000000007bffffffffffffffffffffffffffffffffffffffffffffffffffffffff1916827bffffffffffffffffffffffffffffffffffffffffffffffffffffffff191614806103c157507f5b5e139f000000000000000000000000000000000000000000000000000000007bffffffffffffffffffffffffffffffffffffffffffffffffffffffff1916827bffffffffffffffffffffffffffffffffffffffffffffffffffffffff1916145b806103d157506103d082610ba5565b5b9050919050565b565b6060600080546103e990611e19565b80601f016020809104026020016040519081016040528092919081815260200182805461041590611e19565b80156104625780601f1061043757610100808354040283529160200191610462565b820191906000526020600020905b81548152906001019060200180831161044557829003601f168201915b5050505050905090565b600061047782610c0f565b6104b6576040517f08c379a00000000000000000000000000000000000000000000000000000000081526004016104ad90611b54565b60405180910390fd5b6004600083815260200190815260200160002060009054906101000a900473ffffffffffffffffffffffffffffffffffffffff169050919050565b60006104fc82610689565b90508073ffffffffffffffffffffffffffffffffffffffff168373ffffffffffffffffffffffffffffffffffffffff16141561056d576040517f08c379a000000000000000000000000000000000000000000000000000000000815260040161056490611bb4565b60405180910390fd5b8073ffffffffffffffffffffffffffffffffffffffff1661058c610c7b565b73ffffffffffffffffffffffffffffffffffffffff1614806105bb57506105ba816105b5610c7b565b610b11565b5b6105fa576040517f08c379a00000000000000000000000000000000000000000000000000000000081526004016105f190611af4565b60405180910390fd5b6106048383610c83565b505050565b61061a610614610c7b565b82610d3c565b610659576040517f08c379a000000000000000000000000000000000000000000000000000000000815260040161065090611bd4565b60405180910390fd5b610664838383610e1a565b505050565b61068483838360405180602001604052806000815250610a08565b505050565b6000806002600084815260200190815260200160002060009054906101000a900473ffffffffffffffffffffffffffffffffffffffff169050600073ffffffffffffffffffffffffffffffffffffffff168173ffffffffffffffffffffffffffffffffffffffff161415610732576040517f08c379a000000000000000000000000000000000000000000000000000000000815260040161072990611b34565b60405180910390fd5b80915050919050565b60008073ffffffffffffffffffffffffffffffffffffffff168273ffffffffffffffffffffffffffffffffffffffff1614156107ac576040517f08c379a00000000000000000000000000000000000000000000000000000000081526004016107a390611b14565b60405180910390fd5b600360008373ffffffffffffffffffffffffffffffffffffffff1673ffffffffffffffffffffffffffffffffffffffff168152602001908152602001600020549050919050565b60606001805461080290611e19565b80601f016020809104026020016040519081016040528092919081815260200182805461082e90611e19565b801561087b5780601f106108505761010080835404028352916020019161087b565b820191906000526020600020905b81548152906001019060200180831161085e57829003601f168201915b5050505050905090565b565b61088f610c7b565b73ffffffffffffffffffffffffffffffffffffffff168273ffffffffffffffffffffffffffffffffffffffff1614156108fd576040517f08c379a00000000000000000000000000000000000000000000000000000000081526004016108f490611ab4565b60405180910390fd5b806005600061090a610c7b565b73ffffffffffffffffffffffffffffffffffffffff1673ffffffffffffffffffffffffffffffffffffffff16815260200190815260200160002060008473ffffffffffffffffffffffffffffffffffffffff1673ffffffffffffffffffffffffffffffffffffffff16815260200190815260200160002060006101000a81548160ff0219169083151502179055508173ffffffffffffffffffffffffffffffffffffffff166109b7610c7b565b73ffffffffffffffffffffffffffffffffffffffff167f17307eab39ab6107e8899845ad3d59bd9653f200f220920489ca2b5937696c31836040516109fc9190611a37565b60405180910390a35050565b610a19610a13610c7b565b83610d3c565b610a58576040517f08c379a0000000000000000000000000000000000000000000000000000000008152600401610a4f90611bd4565b60405180910390fd5b610a6484848484611076565b50505050565b6060610a7582610c0f565b610ab4576040517f08c379a0000000000000000000000000000000000000000000000000000000008152600401610aab90611b94565b60405180910390fd5b6000610abe6110d2565b90506000815111610ade5760405180602001604052806000815250610b09565b80610ae8846110e9565b604051602001610af99291906119ac565b6040516020818303038152906040525b915050919050565b6000600560008473ffffffffffffffffffffffffffffffffffffffff1673ffffffffffffffffffffffffffffffffffffffff16815260200190815260200160002060008373ffffffffffffffffffffffffffffffffffffffff1673ffffffffffffffffffffffffffffffffffffffff16815260200190815260200160002060009054906101000a900460ff16905092915050565b60007f01ffc9a7000000000000000000000000000000000000000000000000000000007bffffffffffffffffffffffffffffffffffffffffffffffffffffffff1916827bffffffffffffffffffffffffffffffffffffffffffffffffffffffff1916149050919050565b60008073ffffffffffffffffffffffffffffffffffffffff166002600084815260200190815260200160002060009054906101000a900473ffffffffffffffffffffffffffffffffffffffff1673ffffffffffffffffffffffffffffffffffffffff1614159050919050565b600033905090565b816004600083815260200190815260200160002060006101000a81548173ffffffffffffffffffffffffffffffffffffffff021916908373ffffffffffffffffffffffffffffffffffffffff160217905550808273ffffffffffffffffffffffffffffffffffffffff16610cf683610689565b73ffffffffffffffffffffffffffffffffffffffff167f8c5be1e5ebec7d5bd14f71427d1e84f3dd0314c0f7b2291e5b200ac8c7c3b92560405160405180910390a45050565b6000610d4782610c0f565b610d86576040517f08c379a0000000000000000000000000000000000000000000000000000000008152600401610d7d90611ad4565b60405180910390fd5b6000610d9183610689565b90508073ffffffffffffffffffffffffffffffffffffffff168473ffffffffffffffffffffffffffffffffffffffff161480610e0057508373ffffffffffffffffffffffffffffffffffffffff16610de88461046c565b73ffffffffffffffffffffffffffffffffffffffff16145b80610e115750610e108185610b11565b5b91505092915050565b8273ffffffffffffffffffffffffffffffffffffffff16610e3a82610689565b73ffffffffffffffffffffffffffffffffffffffff1614610e90576040517f08c379a0000000000000000000000000000000000000000000000000000000008152600401610e8790611b74565b60405180910390fd5b600073ffffffffffffffffffffffffffffffffffffffff168273ffffffffffffffffffffffffffffffffffffffff161415610f00576040517f08c379a0000000000000000000000000000000000000000000000000000000008152600401610ef790611a94565b60405180910390fd5b610f0b838383611296565b610f16600082610c83565b6001600360008573ffffffffffffffffffffffffffffffffffffffff1673ffffffffffffffffffffffffffffffffffffffff1681526020019081526020016000206000828254610f669190611d2f565b925050819055506001600360008473ffffffffffffffffffffffffffffffffffffffff1673ffffffffffffffffffffffffffffffffffffffff1681526020019081526020016000206000828254610fbd9190611ca8565b92505081905550816002600083815260200190815260200160002060006101000a81548173ffffffffffffffffffffffffffffffffffffffff021916908373ffffffffffffffffffffffffffffffffffffffff160217905550808273ffffffffffffffffffffffffffffffffffffffff168473ffffffffffffffffffffffffffffffffffffffff167fddf252ad1be2c89b69c2b068fc378daa952ba7f163c4a11628f55a4df523b3ef60405160405180910390a4505050565b611081848484610e1a565b61108d8484848461129b565b6110cc576040517f08c379a00000000000000000000000000000000000000000000000000000000081526004016110c390611a74565b60405180910390fd5b50505050565b606060405180602001604052806000815250905090565b60606000821415611131576040518060400160405280600181526020017f30000000000000000000000000000000000000000000000000000000000000008152509050611291565b600082905060005b6000821461116357808061114c90611e7c565b915050600a8261115c9190611cfe565b9150611139565b60008167ffffffffffffffff8111156111a5577f4e487b7100000000000000000000000000000000000000000000000000000000600052604160045260246000fd5b6040519080825280601f01601f1916602001820160405280156111d75781602001600182028036833780820191505090505b5090505b6000851461128a576001826111f09190611d2f565b9150600a856111ff9190611ec5565b603061120b9190611ca8565b60f81b818381518110611247577f4e487b7100000000000000000000000000000000000000000000000000000000600052603260045260246000fd5b60200101907effffffffffffffffffffffffffffffffffffffffffffffffffffffffffffff1916908160001a905350600a856112839190611cfe565b94506111db565b8093505050505b919050565b505050565b60006112bc8473ffffffffffffffffffffffffffffffffffffffff16611432565b15611425578373ffffffffffffffffffffffffffffffffffffffff1663150b7a026112e5610c7b565b8786866040518563ffffffff1660e01b815260040161130794939291906119eb565b602060405180830381600087803b15801561132157600080fd5b505af192505050801561135257506040513d601f19601f8201168201806040525081019061134f91906116e6565b60015b6113d5573d8060008114611382576040519150601f19603f3d011682016040523d82523d6000602084013e611387565b606091505b506000815114156113cd576040517f08c379a00000000000000000000000000000000000000000000000000000000081526004016113c490611a74565b60405180910390fd5b805181602001fd5b63150b7a0260e01b7bffffffffffffffffffffffffffffffffffffffffffffffffffffffff1916817bffffffffffffffffffffffffffffffffffffffffffffffffffffffff19161491505061142a565b600190505b949350505050565b600080823b905060008111915050919050565b600061145861145384611c34565b611c0f565b90508281526020810184848401111561147057600080fd5b61147b848285611dd7565b509392505050565b60008135905061149281612351565b92915050565b6000813590506114a781612368565b92915050565b6000813590506114bc8161237f565b92915050565b6000815190506114d18161237f565b92915050565b600082601f8301126114e857600080fd5b81356114f8848260208601611445565b91505092915050565b60008135905061151081612396565b92915050565b60006020828403121561152857600080fd5b600061153684828501611483565b91505092915050565b6000806040838503121561155257600080fd5b600061156085828601611483565b925050602061157185828601611483565b9150509250929050565b60008060006060848603121561159057600080fd5b600061159e86828701611483565b93505060206115af86828701611483565b92505060406115c086828701611501565b9150509250925092565b600080600080608085870312156115e057600080fd5b60006115ee87828801611483565b94505060206115ff87828801611483565b935050604061161087828801611501565b925050606085013567ffffffffffffffff81111561162d57600080fd5b611639878288016114d7565b91505092959194509250565b6000806040838503121561165857600080fd5b600061166685828601611483565b925050602061167785828601611498565b9150509250929050565b6000806040838503121561169457600080fd5b60006116a285828601611483565b92505060206116b385828601611501565b9150509250929050565b6000602082840312156116cf57600080fd5b60006116dd848285016114ad565b91505092915050565b6000602082840312156116f857600080fd5b6000611706848285016114c2565b91505092915050565b60006020828403121561172157600080fd5b600061172f84828501611501565b91505092915050565b61174181611d63565b82525050565b61175081611d75565b82525050565b600061176182611c65565b61176b8185611c7b565b935061177b818560208601611de6565b61178481611fb2565b840191505092915050565b600061179a82611c70565b6117a48185611c8c565b93506117b4818560208601611de6565b6117bd81611fb2565b840191505092915050565b60006117d382611c70565b6117dd8185611c9d565b93506117ed818560208601611de6565b80840191505092915050565b6000611806603283611c8c565b915061181182611fc3565b604082019050919050565b6000611829602483611c8c565b915061183482612012565b604082019050919050565b600061184c601983611c8c565b915061185782612061565b602082019050919050565b600061186f602c83611c8c565b915061187a8261208a565b604082019050919050565b6000611892603883611c8c565b915061189d826120d9565b604082019050919050565b60006118b5602a83611c8c565b91506118c082612128565b604082019050919050565b60006118d8602983611c8c565b91506118e382612177565b604082019050919050565b60006118fb602c83611c8c565b9150611906826121c6565b604082019050919050565b600061191e602983611c8c565b915061192982612215565b604082019050919050565b6000611941602f83611c8c565b915061194c82612264565b604082019050919050565b6000611964602183611c8c565b915061196f826122b3565b604082019050919050565b6000611987603183611c8c565b915061199282612302565b604082019050919050565b6119a681611dcd565b82525050565b60006119b882856117c8565b91506119c482846117c8565b91508190509392505050565b60006020820190506119e56000830184611738565b92915050565b6000608082019050611a006000830187611738565b611a0d6020830186611738565b611a1a604083018561199d565b8181036060830152611a2c8184611756565b905095945050505050565b6000602082019050611a4c6000830184611747565b92915050565b60006020820190508181036000830152611a6c818461178f565b905092915050565b60006020820190508181036000830152611a8d816117f9565b9050919050565b60006020820190508181036000830152611aad8161181c565b9050919050565b60006020820190508181036000830152611acd8161183f565b9050919050565b60006020820190508181036000830152611aed81611862565b9050919050565b60006020820190508181036000830152611b0d81611885565b9050919050565b60006020820190508181036000830152611b2d816118a8565b9050919050565b60006020820190508181036000830152611b4d816118cb565b9050919050565b60006020820190508181036000830152611b6d816118ee565b9050919050565b60006020820190508181036000830152611b8d81611911565b9050919050565b60006020820190508181036000830152611bad81611934565b9050919050565b60006020820190508181036000830152611bcd81611957565b9050919050565b60006020820190508181036000830152611bed8161197a565b9050919050565b6000602082019050611c09600083018461199d565b92915050565b6000611c19611c2a565b9050611c258282611e4b565b919050565b6000604051905090565b600067ffffffffffffffff821115611c4f57611c4e611f83565b5b611c5882611fb2565b9050602081019050919050565b600081519050919050565b600081519050919050565b600082825260208201905092915050565b600082825260208201905092915050565b600081905092915050565b6000611cb382611dcd565b9150611cbe83611dcd565b9250827fffffffffffffffffffffffffffffffffffffffffffffffffffffffffffffffff03821115611cf357611cf2611ef6565b5b828201905092915050565b6000611d0982611dcd565b9150611d1483611dcd565b925082611d2457611d23611f25565b5b828204905092915050565b6000611d3a82611dcd565b9150611d4583611dcd565b925082821015611d5857611d57611ef6565b5b828203905092915050565b6000611d6e82611dad565b9050919050565b60008115159050919050565b60007fffffffff0000000000000000000000000000000000000000000000000000000082169050919050565b600073ffffffffffffffffffffffffffffffffffffffff82169050919050565b6000819050919050565b82818337600083830152505050565b60005b83811015611e04578082015181840152602081019050611de9565b83811115611e13576000848401525b50505050565b60006002820490506001821680611e3157607f821691505b60208210811415611e4557611e44611f54565b5b50919050565b611e5482611fb2565b810181811067ffffffffffffffff82111715611e7357611e72611f83565b5b80604052505050565b6000611e8782611dcd565b91507fffffffffffffffffffffffffffffffffffffffffffffffffffffffffffffffff821415611eba57611eb9611ef6565b5b600182019050919050565b6000611ed082611dcd565b9150611edb83611dcd565b925082611eeb57611eea611f25565b5b828206905092915050565b7f4e487b7100000000000000000000000000000000000000000000000000000000600052601160045260246000fd5b7f4e487b7100000000000000000000000000000000000000000000000000000000600052601260045260246000fd5b7f4e487b7100000000000000000000000000000000000000000000000000000000600052602260045260246000fd5b7f4e487b7100000000000000000000000000000000000000000000000000000000600052604160045260246000fd5b6000601f19601f8301169050919050565b7f4552433732313a207472616e7366657220746f206e6f6e20455243373231526560008201527f63656976657220696d706c656d656e7465720000000000000000000000000000602082015250565b7f4552433732313a207472616e7366657220746f20746865207a65726f2061646460008201527f7265737300000000000000000000000000000000000000000000000000000000602082015250565b7f4552433732313a20617070726f766520746f2063616c6c657200000000000000600082015250565b7f4552433732313a206f70657261746f7220717565727920666f72206e6f6e657860008201527f697374656e7420746f6b656e0000000000000000000000000000000000000000602082015250565b7f4552433732313a20617070726f76652063616c6c6572206973206e6f74206f7760008201527f6e6572206e6f7220617070726f76656420666f7220616c6c0000000000000000602082015250565b7f4552433732313a2062616c616e636520717565727920666f7220746865207a6560008201527f726f206164647265737300000000000000000000000000000000000000000000602082015250565b7f4552433732313a206f776e657220717565727920666f72206e6f6e657869737460008201527f656e7420746f6b656e0000000000000000000000000000000000000000000000602082015250565b7f4552433732313a20617070726f76656420717565727920666f72206e6f6e657860008201527f697374656e7420746f6b656e0000000000000000000000000000000000000000602082015250565b7f4552433732313a207472616e73666572206f6620746f6b656e2074686174206960008201527f73206e6f74206f776e0000000000000000000000000000000000000000000000602082015250565b7f4552433732314d657461646174613a2055524920717565727920666f72206e6f60008201527f6e6578697374656e7420746f6b656e0000000000000000000000000000000000602082015250565b7f4552433732313a20617070726f76616c20746f2063757272656e74206f776e6560008201527f7200000000000000000000000000000000000000000000000000000000000000602082015250565b7f4552433732313a207472616e736665722063616c6c6572206973206e6f74206f60008201527f776e6572206e6f7220617070726f766564000000000000000000000000000000602082015250565b61235a81611d63565b811461236557600080fd5b50565b61237181611d75565b811461237c57600080fd5b50565b61238881611d81565b811461239357600080fd5b50565b61239f81611dcd565b81146123aa57600080fd5b5056fea2646970667358221220e3dae46ec563913d0a40cdc2a5085b127a174178697fb9c3975069ca2859eeb964736f6c63430008040033",
  "immutableReferences": {},
  "source": "// SPDX-License-Identifier: MIT\r\npragma solidity ^0.8;\r\n\r\nimport \"@OpenZeppelin/contracts/token/ERC721/ERC721.sol\";\r\n\r\ncontract test1 is ERC721 {\r\n    constructor() ERC721(\"PhantasmPosition\", \"SPCTR\") {\r\n\r\n    }\r\n\r\n\r\n    function createPosition() public {\r\n\r\n    }\r\n\r\n    function destroyPosition() public {\r\n        \r\n    }\r\n}",
  "sourcePath": "B:\\Nebula Labs\\Phantasm\\contracts\\NFTTest.sol",
  "compiler": {
    "name": "solc",
    "version": "0.8.4+commit.c7e474f2.Emscripten.clang"
  },
  "schemaVersion": "3.4.2",
  "updatedAt": "2021-09-24T05:06:01.815Z",
  "devdoc": {
    "kind": "dev",
    "methods": {
      "approve(address,uint256)": {
        "details": "See {IERC721-approve}."
      },
      "balanceOf(address)": {
        "details": "See {IERC721-balanceOf}."
      },
      "getApproved(uint256)": {
        "details": "See {IERC721-getApproved}."
      },
      "isApprovedForAll(address,address)": {
        "details": "See {IERC721-isApprovedForAll}."
      },
      "name()": {
        "details": "See {IERC721Metadata-name}."
      },
      "ownerOf(uint256)": {
        "details": "See {IERC721-ownerOf}."
      },
      "safeTransferFrom(address,address,uint256)": {
        "details": "See {IERC721-safeTransferFrom}."
      },
      "safeTransferFrom(address,address,uint256,bytes)": {
        "details": "See {IERC721-safeTransferFrom}."
      },
      "setApprovalForAll(address,bool)": {
        "details": "See {IERC721-setApprovalForAll}."
      },
      "supportsInterface(bytes4)": {
        "details": "See {IERC165-supportsInterface}."
      },
      "symbol()": {
        "details": "See {IERC721Metadata-symbol}."
      },
      "tokenURI(uint256)": {
        "details": "See {IERC721Metadata-tokenURI}."
      },
      "transferFrom(address,address,uint256)": {
        "details": "See {IERC721-transferFrom}."
      }
    },
    "version": 1
  },
  "userdoc": {
    "kind": "user",
    "methods": {},
    "version": 1
  }
}