{
  "contractName": "TestCompoundLong",
  "abi": [
    {
      "inputs": [
        {
          "internalType": "address",
          "name": "_cEth",
          "type": "address"
        },
        {
          "internalType": "address",
          "name": "_cTokenBorrow",
          "type": "address"
        },
        {
          "internalType": "address",
          "name": "_tokenBorrow",
          "type": "address"
        },
        {
          "internalType": "uint256",
          "name": "_decimals",
          "type": "uint256"
        }
      ],
      "stateMutability": "nonpayable",
      "type": "constructor"
    },
    {
      "inputs": [],
      "name": "cEth",
      "outputs": [
        {
          "internalType": "contract CEth",
          "name": "",
          "type": "address"
        }
      ],
      "stateMutability": "view",
      "type": "function"
    },
    {
      "inputs": [],
      "name": "cTokenBorrow",
      "outputs": [
        {
          "internalType": "contract CErc20",
          "name": "",
          "type": "address"
        }
      ],
      "stateMutability": "view",
      "type": "function"
    },
    {
      "inputs": [],
      "name": "comptroller",
      "outputs": [
        {
          "internalType": "contract Comptroller",
          "name": "",
          "type": "address"
        }
      ],
      "stateMutability": "view",
      "type": "function"
    },
    {
      "inputs": [],
      "name": "decimals",
      "outputs": [
        {
          "internalType": "uint256",
          "name": "",
          "type": "uint256"
        }
      ],
      "stateMutability": "view",
      "type": "function"
    },
    {
      "inputs": [],
      "name": "priceFeed",
      "outputs": [
        {
          "internalType": "contract PriceFeed",
          "name": "",
          "type": "address"
        }
      ],
      "stateMutability": "view",
      "type": "function"
    },
    {
      "inputs": [],
      "name": "tokenBorrow",
      "outputs": [
        {
          "internalType": "contract IERC20",
          "name": "",
          "type": "address"
        }
      ],
      "stateMutability": "view",
      "type": "function"
    },
    {
      "stateMutability": "payable",
      "type": "receive"
    },
    {
      "inputs": [],
      "name": "supply",
      "outputs": [],
      "stateMutability": "payable",
      "type": "function"
    },
    {
      "inputs": [],
      "name": "getMaxBorrow",
      "outputs": [
        {
          "internalType": "uint256",
          "name": "",
          "type": "uint256"
        }
      ],
      "stateMutability": "view",
      "type": "function"
    },
    {
      "inputs": [
        {
          "internalType": "uint256",
          "name": "_borrowAmount",
          "type": "uint256"
        }
      ],
      "name": "long",
      "outputs": [],
      "stateMutability": "nonpayable",
      "type": "function"
    },
    {
      "inputs": [],
      "name": "repay",
      "outputs": [],
      "stateMutability": "nonpayable",
      "type": "function"
    },
    {
      "inputs": [],
      "name": "getSuppliedBalance",
      "outputs": [
        {
          "internalType": "uint256",
          "name": "",
          "type": "uint256"
        }
      ],
      "stateMutability": "nonpayable",
      "type": "function"
    },
    {
      "inputs": [],
      "name": "getBorrowBalance",
      "outputs": [
        {
          "internalType": "uint256",
          "name": "",
          "type": "uint256"
        }
      ],
      "stateMutability": "nonpayable",
      "type": "function"
    },
    {
      "inputs": [],
      "name": "getAccountLiquidity",
      "outputs": [
        {
          "internalType": "uint256",
          "name": "liquidity",
          "type": "uint256"
        },
        {
          "internalType": "uint256",
          "name": "shortfall",
          "type": "uint256"
        }
      ],
      "stateMutability": "view",
      "type": "function"
    }
  ],
  "bytecode": "0x6080604052733d9819210a31b4961b30ef54be2aed79b9c9cd3b600460006101000a81548173ffffffffffffffffffffffffffffffffffffffff021916908373ffffffffffffffffffffffffffffffffffffffff16021790555073922018674c12a7f0d394ebeef9b58f186cde13c1600560006101000a81548173ffffffffffffffffffffffffffffffffffffffff021916908373ffffffffffffffffffffffffffffffffffffffff160217905550348015620000bb57600080fd5b506040516200284f3803806200284f8339818101604052810190620000e19190620004d6565b836000806101000a81548173ffffffffffffffffffffffffffffffffffffffff021916908373ffffffffffffffffffffffffffffffffffffffff16021790555082600160006101000a81548173ffffffffffffffffffffffffffffffffffffffff021916908373ffffffffffffffffffffffffffffffffffffffff16021790555081600260006101000a81548173ffffffffffffffffffffffffffffffffffffffff021916908373ffffffffffffffffffffffffffffffffffffffff160217905550806003819055506000600167ffffffffffffffff811115620001ee577f4e487b7100000000000000000000000000000000000000000000000000000000600052604160045260246000fd5b6040519080825280602002602001820160405280156200021d5781602001602082028036833780820191505090505b50905060008054906101000a900473ffffffffffffffffffffffffffffffffffffffff16816000815181106200027c577f4e487b7100000000000000000000000000000000000000000000000000000000600052603260045260246000fd5b602002602001019073ffffffffffffffffffffffffffffffffffffffff16908173ffffffffffffffffffffffffffffffffffffffff16815250506000600460009054906101000a900473ffffffffffffffffffffffffffffffffffffffff1673ffffffffffffffffffffffffffffffffffffffff1663c2998238836040518263ffffffff1660e01b815260040162000315919062000643565b600060405180830381600087803b1580156200033057600080fd5b505af115801562000345573d6000803e3d6000fd5b505050506040513d6000823e3d601f19601f8201168201806040525081019062000370919062000542565b9050600081600081518110620003af577f4e487b7100000000000000000000000000000000000000000000000000000000600052603260045260246000fd5b602002602001015114620003fa576040517f08c379a0000000000000000000000000000000000000000000000000000000008152600401620003f19062000667565b60405180910390fd5b5050505050506200083c565b60006200041d6200041784620006b2565b62000689565b905080838252602082019050828560208602820111156200043d57600080fd5b60005b85811015620004715781620004568882620004bf565b84526020840193506020830192505060018101905062000440565b5050509392505050565b6000815190506200048c8162000808565b92915050565b600082601f830112620004a457600080fd5b8151620004b684826020860162000406565b91505092915050565b600081519050620004d08162000822565b92915050565b60008060008060808587031215620004ed57600080fd5b6000620004fd878288016200047b565b945050602062000510878288016200047b565b935050604062000523878288016200047b565b92505060606200053687828801620004bf565b91505092959194509250565b6000602082840312156200055557600080fd5b600082015167ffffffffffffffff8111156200057057600080fd5b6200057e8482850162000492565b91505092915050565b6000620005958383620005a1565b60208301905092915050565b620005ac816200072b565b82525050565b6000620005bf82620006f1565b620005cb818562000709565b9350620005d883620006e1565b8060005b838110156200060f578151620005f3888262000587565b97506200060083620006fc565b925050600181019050620005dc565b5085935050505092915050565b60006200062b6020836200071a565b91506200063882620007df565b602082019050919050565b600060208201905081810360008301526200065f8184620005b2565b905092915050565b6000602082019050818103600083015262000682816200061c565b9050919050565b600062000695620006a8565b9050620006a3828262000769565b919050565b6000604051905090565b600067ffffffffffffffff821115620006d057620006cf6200079f565b5b602082029050602081019050919050565b6000819050602082019050919050565b600081519050919050565b6000602082019050919050565b600082825260208201905092915050565b600082825260208201905092915050565b600062000738826200073f565b9050919050565b600073ffffffffffffffffffffffffffffffffffffffff82169050919050565b6000819050919050565b6200077482620007ce565b810181811067ffffffffffffffff821117156200079657620007956200079f565b5b80604052505050565b7f4e487b7100000000000000000000000000000000000000000000000000000000600052604160045260246000fd5b6000601f19601f8301169050919050565b7f436f6d7074726f6c6c65722e656e7465724d61726b657473206661696c65642e600082015250565b62000813816200072b565b81146200081f57600080fd5b50565b6200082d816200075f565b81146200083957600080fd5b50565b612003806200084c6000396000f3fe6080604052600436106100c65760003560e01c80635fe3b5671161007f578063a44026a311610059578063a44026a31461021f578063af833d421461024a578063ca20659114610275578063fd6bac70146102a0576100cd565b80635fe3b567146101a0578063741bef1a146101cb5780639db4bcd6146101f6576100cd565b8063047fc9aa146100d257806324d6db47146100dc5780632fd4cda714610107578063313ce56714610133578063402d88831461015e5780634252b45214610175576100cd565b366100cd57005b600080fd5b6100da6102cb565b005b3480156100e857600080fd5b506100f161034e565b6040516100fe9190611848565b60405180910390f35b34801561011357600080fd5b5061011c610374565b60405161012a9291906119ff565b60405180910390f35b34801561013f57600080fd5b5061014861047d565b604051610155919061198a565b60405180910390f35b34801561016a57600080fd5b50610173610483565b005b34801561018157600080fd5b5061018a610ad9565b604051610197919061198a565b60405180910390f35b3480156101ac57600080fd5b506101b5610b8c565b6040516101c2919061182d565b60405180910390f35b3480156101d757600080fd5b506101e0610bb2565b6040516101ed9190611863565b60405180910390f35b34801561020257600080fd5b5061021d60048036038101906102189190611543565b610bd8565b005b34801561022b57600080fd5b50610234611081565b6040516102419190611812565b60405180910390f35b34801561025657600080fd5b5061025f6110a5565b60405161026c919061198a565b60405180910390f35b34801561028157600080fd5b5061028a61132a565b604051610297919061198a565b60405180910390f35b3480156102ac57600080fd5b506102b56113de565b6040516102c291906117f7565b60405180910390f35b60008054906101000a900473ffffffffffffffffffffffffffffffffffffffff1673ffffffffffffffffffffffffffffffffffffffff16631249c58b346040518263ffffffff1660e01b81526004016000604051808303818588803b15801561033357600080fd5b505af1158015610347573d6000803e3d6000fd5b5050505050565b600260009054906101000a900473ffffffffffffffffffffffffffffffffffffffff1681565b6000806000806000600460009054906101000a900473ffffffffffffffffffffffffffffffffffffffff1673ffffffffffffffffffffffffffffffffffffffff16635ec88c79306040518263ffffffff1660e01b81526004016103d791906117b3565b60606040518083038186803b1580156103ef57600080fd5b505afa158015610403573d6000803e3d6000fd5b505050506040513d601f19601f820116820180604052508101906104279190611595565b92509250925060008314610470576040517f08c379a0000000000000000000000000000000000000000000000000000000008152600401610467906118ca565b60405180910390fd5b8181945094505050509091565b60035481565b6000600267ffffffffffffffff8111156104c6577f4e487b7100000000000000000000000000000000000000000000000000000000600052604160045260246000fd5b6040519080825280602002602001820160405280156104f45781602001602082028036833780820191505090505b50905073c02aaa39b223fe8d0a0e5c4f27ead9083c756cc281600081518110610546577f4e487b7100000000000000000000000000000000000000000000000000000000600052603260045260246000fd5b602002602001019073ffffffffffffffffffffffffffffffffffffffff16908173ffffffffffffffffffffffffffffffffffffffff1681525050600260009054906101000a900473ffffffffffffffffffffffffffffffffffffffff16816001815181106105dd577f4e487b7100000000000000000000000000000000000000000000000000000000600052603260045260246000fd5b602002602001019073ffffffffffffffffffffffffffffffffffffffff16908173ffffffffffffffffffffffffffffffffffffffff1681525050737a250d5630b4cf539739df2c5dacb4c659f2488d73ffffffffffffffffffffffffffffffffffffffff16637ff36ab54760018430426040518663ffffffff1660e01b815260040161066c949392919061187e565b6000604051808303818588803b15801561068557600080fd5b505af1158015610699573d6000803e3d6000fd5b50505050506040513d6000823e3d601f19601f820116820180604052508101906106c391906114d9565b506000600160009054906101000a900473ffffffffffffffffffffffffffffffffffffffff1673ffffffffffffffffffffffffffffffffffffffff166317bfdfbc306040518263ffffffff1660e01b815260040161072191906117b3565b602060405180830381600087803b15801561073b57600080fd5b505af115801561074f573d6000803e3d6000fd5b505050506040513d601f19601f82011682018060405250810190610773919061156c565b9050600260009054906101000a900473ffffffffffffffffffffffffffffffffffffffff1673ffffffffffffffffffffffffffffffffffffffff1663095ea7b3600160009054906101000a900473ffffffffffffffffffffffffffffffffffffffff16836040518363ffffffff1660e01b81526004016107f49291906117ce565b602060405180830381600087803b15801561080e57600080fd5b505af1158015610822573d6000803e3d6000fd5b505050506040513d601f19601f82011682018060405250810190610846919061151a565b506000600160009054906101000a900473ffffffffffffffffffffffffffffffffffffffff1673ffffffffffffffffffffffffffffffffffffffff16630e752702836040518263ffffffff1660e01b81526004016108a4919061198a565b602060405180830381600087803b1580156108be57600080fd5b505af11580156108d2573d6000803e3d6000fd5b505050506040513d601f19601f820116820180604052508101906108f6919061156c565b14610936576040517f08c379a000000000000000000000000000000000000000000000000000000000815260040161092d9061194a565b60405180910390fd5b60008060009054906101000a900473ffffffffffffffffffffffffffffffffffffffff1673ffffffffffffffffffffffffffffffffffffffff16633af9e669306040518263ffffffff1660e01b815260040161099291906117b3565b602060405180830381600087803b1580156109ac57600080fd5b505af11580156109c0573d6000803e3d6000fd5b505050506040513d601f19601f820116820180604052508101906109e4919061156c565b905060008060009054906101000a900473ffffffffffffffffffffffffffffffffffffffff1673ffffffffffffffffffffffffffffffffffffffff1663852a12e3836040518263ffffffff1660e01b8152600401610a42919061198a565b602060405180830381600087803b158015610a5c57600080fd5b505af1158015610a70573d6000803e3d6000fd5b505050506040513d601f19601f82011682018060405250810190610a94919061156c565b14610ad4576040517f08c379a0000000000000000000000000000000000000000000000000000000008152600401610acb9061190a565b60405180910390fd5b505050565b60008060009054906101000a900473ffffffffffffffffffffffffffffffffffffffff1673ffffffffffffffffffffffffffffffffffffffff16633af9e669306040518263ffffffff1660e01b8152600401610b3591906117b3565b602060405180830381600087803b158015610b4f57600080fd5b505af1158015610b63573d6000803e3d6000fd5b505050506040513d601f19601f82011682018060405250810190610b87919061156c565b905090565b600460009054906101000a900473ffffffffffffffffffffffffffffffffffffffff1681565b600560009054906101000a900473ffffffffffffffffffffffffffffffffffffffff1681565b6000600160009054906101000a900473ffffffffffffffffffffffffffffffffffffffff1673ffffffffffffffffffffffffffffffffffffffff1663c5ebeaec836040518263ffffffff1660e01b8152600401610c35919061198a565b602060405180830381600087803b158015610c4f57600080fd5b505af1158015610c63573d6000803e3d6000fd5b505050506040513d601f19601f82011682018060405250810190610c87919061156c565b14610cc7576040517f08c379a0000000000000000000000000000000000000000000000000000000008152600401610cbe9061196a565b60405180910390fd5b6000600260009054906101000a900473ffffffffffffffffffffffffffffffffffffffff1673ffffffffffffffffffffffffffffffffffffffff166370a08231306040518263ffffffff1660e01b8152600401610d2491906117b3565b60206040518083038186803b158015610d3c57600080fd5b505afa158015610d50573d6000803e3d6000fd5b505050506040513d601f19601f82011682018060405250810190610d74919061156c565b9050600260009054906101000a900473ffffffffffffffffffffffffffffffffffffffff1673ffffffffffffffffffffffffffffffffffffffff1663095ea7b3737a250d5630b4cf539739df2c5dacb4c659f2488d836040518363ffffffff1660e01b8152600401610de79291906117ce565b602060405180830381600087803b158015610e0157600080fd5b505af1158015610e15573d6000803e3d6000fd5b505050506040513d601f19601f82011682018060405250810190610e39919061151a565b506000600267ffffffffffffffff811115610e7d577f4e487b7100000000000000000000000000000000000000000000000000000000600052604160045260246000fd5b604051908082528060200260200182016040528015610eab5781602001602082028036833780820191505090505b509050600260009054906101000a900473ffffffffffffffffffffffffffffffffffffffff1681600081518110610f0b577f4e487b7100000000000000000000000000000000000000000000000000000000600052603260045260246000fd5b602002602001019073ffffffffffffffffffffffffffffffffffffffff16908173ffffffffffffffffffffffffffffffffffffffff168152505073c02aaa39b223fe8d0a0e5c4f27ead9083c756cc281600181518110610f94577f4e487b7100000000000000000000000000000000000000000000000000000000600052603260045260246000fd5b602002602001019073ffffffffffffffffffffffffffffffffffffffff16908173ffffffffffffffffffffffffffffffffffffffff1681525050737a250d5630b4cf539739df2c5dacb4c659f2488d73ffffffffffffffffffffffffffffffffffffffff166318cbafe58360018430426040518663ffffffff1660e01b81526004016110249594939291906119a5565b600060405180830381600087803b15801561103e57600080fd5b505af1158015611052573d6000803e3d6000fd5b505050506040513d6000823e3d601f19601f8201168201806040525081019061107b91906114d9565b50505050565b60008054906101000a900473ffffffffffffffffffffffffffffffffffffffff1681565b600080600080600460009054906101000a900473ffffffffffffffffffffffffffffffffffffffff1673ffffffffffffffffffffffffffffffffffffffff16635ec88c79306040518263ffffffff1660e01b815260040161110691906117b3565b60606040518083038186803b15801561111e57600080fd5b505afa158015611132573d6000803e3d6000fd5b505050506040513d601f19601f820116820180604052508101906111569190611595565b9250925092506000831461119f576040517f08c379a0000000000000000000000000000000000000000000000000000000008152600401611196906118ca565b60405180910390fd5b600081146111e2576040517f08c379a00000000000000000000000000000000000000000000000000000000081526004016111d9906118ea565b60405180910390fd5b60008211611225576040517f08c379a000000000000000000000000000000000000000000000000000000000815260040161121c9061192a565b60405180910390fd5b6000600560009054906101000a900473ffffffffffffffffffffffffffffffffffffffff1673ffffffffffffffffffffffffffffffffffffffff1663fc57d4df600160009054906101000a900473ffffffffffffffffffffffffffffffffffffffff166040518263ffffffff1660e01b81526004016112a491906117b3565b60206040518083038186803b1580156112bc57600080fd5b505afa1580156112d0573d6000803e3d6000fd5b505050506040513d601f19601f820116820180604052508101906112f4919061156c565b9050600081600354600a6113089190611b47565b856113139190611c65565b61131d9190611ac3565b9050809550505050505090565b6000600160009054906101000a900473ffffffffffffffffffffffffffffffffffffffff1673ffffffffffffffffffffffffffffffffffffffff166317bfdfbc306040518263ffffffff1660e01b815260040161138791906117b3565b602060405180830381600087803b1580156113a157600080fd5b505af11580156113b5573d6000803e3d6000fd5b505050506040513d601f19601f820116820180604052508101906113d9919061156c565b905090565b600160009054906101000a900473ffffffffffffffffffffffffffffffffffffffff1681565b600061141761141284611a4d565b611a28565b9050808382526020820190508285602086028201111561143657600080fd5b60005b85811015611466578161144c88826114c4565b845260208401935060208301925050600181019050611439565b5050509392505050565b600082601f83011261148157600080fd5b8151611491848260208601611404565b91505092915050565b6000815190506114a981611f9f565b92915050565b6000813590506114be81611fb6565b92915050565b6000815190506114d381611fb6565b92915050565b6000602082840312156114eb57600080fd5b600082015167ffffffffffffffff81111561150557600080fd5b61151184828501611470565b91505092915050565b60006020828403121561152c57600080fd5b600061153a8482850161149a565b91505092915050565b60006020828403121561155557600080fd5b6000611563848285016114af565b91505092915050565b60006020828403121561157e57600080fd5b600061158c848285016114c4565b91505092915050565b6000806000606084860312156115aa57600080fd5b60006115b8868287016114c4565b93505060206115c9868287016114c4565b92505060406115da868287016114c4565b9150509250925092565b60006115f083836115fc565b60208301905092915050565b61160581611cbf565b82525050565b61161481611cbf565b82525050565b600061162582611a89565b61162f8185611aa1565b935061163a83611a79565b8060005b8381101561166b57815161165288826115e4565b975061165d83611a94565b92505060018101905061163e565b5085935050505092915050565b61168181611d07565b82525050565b61169081611d2b565b82525050565b61169f81611d4f565b82525050565b6116ae81611d73565b82525050565b6116bd81611d97565b82525050565b6116cc81611dbb565b82525050565b60006116df600583611ab2565b91506116ea82611ea9565b602082019050919050565b6000611702600d83611ab2565b915061170d82611ed2565b602082019050919050565b6000611725600d83611ab2565b915061173082611efb565b602082019050919050565b6000611748600d83611ab2565b915061175382611f24565b602082019050919050565b600061176b600c83611ab2565b915061177682611f4d565b602082019050919050565b600061178e600d83611ab2565b915061179982611f76565b602082019050919050565b6117ad81611cfd565b82525050565b60006020820190506117c8600083018461160b565b92915050565b60006040820190506117e3600083018561160b565b6117f060208301846117a4565b9392505050565b600060208201905061180c6000830184611678565b92915050565b60006020820190506118276000830184611687565b92915050565b60006020820190506118426000830184611696565b92915050565b600060208201905061185d60008301846116a5565b92915050565b600060208201905061187860008301846116b4565b92915050565b600060808201905061189360008301876116c3565b81810360208301526118a5818661161a565b90506118b4604083018561160b565b6118c160608301846117a4565b95945050505050565b600060208201905081810360008301526118e3816116d2565b9050919050565b60006020820190508181036000830152611903816116f5565b9050919050565b6000602082019050818103600083015261192381611718565b9050919050565b600060208201905081810360008301526119438161173b565b9050919050565b600060208201905081810360008301526119638161175e565b9050919050565b6000602082019050818103600083015261198381611781565b9050919050565b600060208201905061199f60008301846117a4565b92915050565b600060a0820190506119ba60008301886117a4565b6119c760208301876116c3565b81810360408301526119d9818661161a565b90506119e8606083018561160b565b6119f560808301846117a4565b9695505050505050565b6000604082019050611a1460008301856117a4565b611a2160208301846117a4565b9392505050565b6000611a32611a43565b9050611a3e8282611dcd565b919050565b6000604051905090565b600067ffffffffffffffff821115611a6857611a67611e5c565b5b602082029050602081019050919050565b6000819050602082019050919050565b600081519050919050565b6000602082019050919050565b600082825260208201905092915050565b600082825260208201905092915050565b6000611ace82611cfd565b9150611ad983611cfd565b925082611ae957611ae8611e2d565b5b828204905092915050565b6000808291508390505b6001851115611b3e57808604811115611b1a57611b19611dfe565b5b6001851615611b295780820291505b8081029050611b3785611e9c565b9450611afe565b94509492505050565b6000611b5282611cfd565b9150611b5d83611cfd565b9250611b8a7fffffffffffffffffffffffffffffffffffffffffffffffffffffffffffffffff8484611b92565b905092915050565b600082611ba25760019050611c5e565b81611bb05760009050611c5e565b8160018114611bc65760028114611bd057611bff565b6001915050611c5e565b60ff841115611be257611be1611dfe565b5b8360020a915084821115611bf957611bf8611dfe565b5b50611c5e565b5060208310610133831016604e8410600b8410161715611c345782820a905083811115611c2f57611c2e611dfe565b5b611c5e565b611c418484846001611af4565b92509050818404811115611c5857611c57611dfe565b5b81810290505b9392505050565b6000611c7082611cfd565b9150611c7b83611cfd565b9250817fffffffffffffffffffffffffffffffffffffffffffffffffffffffffffffffff0483118215151615611cb457611cb3611dfe565b5b828202905092915050565b6000611cca82611cdd565b9050919050565b60008115159050919050565b600073ffffffffffffffffffffffffffffffffffffffff82169050919050565b6000819050919050565b6000611d1282611d19565b9050919050565b6000611d2482611cdd565b9050919050565b6000611d3682611d3d565b9050919050565b6000611d4882611cdd565b9050919050565b6000611d5a82611d61565b9050919050565b6000611d6c82611cdd565b9050919050565b6000611d7e82611d85565b9050919050565b6000611d9082611cdd565b9050919050565b6000611da282611da9565b9050919050565b6000611db482611cdd565b9050919050565b6000611dc682611cfd565b9050919050565b611dd682611e8b565b810181811067ffffffffffffffff82111715611df557611df4611e5c565b5b80604052505050565b7f4e487b7100000000000000000000000000000000000000000000000000000000600052601160045260246000fd5b7f4e487b7100000000000000000000000000000000000000000000000000000000600052601260045260246000fd5b7f4e487b7100000000000000000000000000000000000000000000000000000000600052604160045260246000fd5b6000601f19601f8301169050919050565b60008160011c9050919050565b7f6572726f72000000000000000000000000000000000000000000000000000000600082015250565b7f73686f727466616c6c203e203000000000000000000000000000000000000000600082015250565b7f72656465656d206661696c656400000000000000000000000000000000000000600082015250565b7f6c6971756964697479203d203000000000000000000000000000000000000000600082015250565b7f7265706179206661696c65640000000000000000000000000000000000000000600082015250565b7f626f72726f77206661696c656400000000000000000000000000000000000000600082015250565b611fa881611cd1565b8114611fb357600080fd5b50565b611fbf81611cfd565b8114611fca57600080fd5b5056fea26469706673582212205c6493474777b6f306c2357c7f315429ff806d02a6184863a049390b6e728d9564736f6c63430008040033",
  "immutableReferences": {},
  "source": "// SPDX-License-Identifier: MIT\npragma solidity ^0.8;\n\n/* Long ETH\n1. supply ETH\n2. borrow stable coin (DAI, USDC)\n3. buy ETH on Uniswap\nwhen the price of ETH goes up...\n4. sell ETH on Uniswap\n5. repay borrowed stable coin\n*/\n\nimport \"./interfaces/IERC20.sol\";\nimport \"./interfaces/compound.sol\";\nimport \"./interfaces/Uniswap.sol\";\n\ncontract TestCompoundLong {\n  CEth public cEth;\n  CErc20 public cTokenBorrow;\n  IERC20 public tokenBorrow;\n  uint public decimals;\n\n  Comptroller public comptroller =\n    Comptroller(0x3d9819210A31b4961b30EF54bE2aeD79B9c9Cd3B);\n\n  PriceFeed public priceFeed = PriceFeed(0x922018674c12a7F0D394ebEEf9B58F186CdE13c1);\n\n  IUniswapV2Router private constant UNI =\n    IUniswapV2Router(0x7a250d5630B4cF539739dF2C5dAcb4c659F2488D);\n  IERC20 private constant WETH = IERC20(0xC02aaA39b223FE8D0A0e5C4F27eAD9083C756Cc2);\n\n  constructor(\n    address _cEth,\n    address _cTokenBorrow,\n    address _tokenBorrow,\n    uint _decimals\n  ) {\n    cEth = CEth(_cEth);\n    cTokenBorrow = CErc20(_cTokenBorrow);\n    tokenBorrow = IERC20(_tokenBorrow);\n    decimals = _decimals;\n\n    // enter market to enable borrow\n    address[] memory cTokens = new address[](1);\n    cTokens[0] = address(cEth);\n    uint[] memory errors = comptroller.enterMarkets(cTokens);\n    require(errors[0] == 0, \"Comptroller.enterMarkets failed.\");\n  }\n\n  receive() external payable {}\n\n  function supply() external payable {\n    cEth.mint{value: msg.value}();\n  }\n\n  function getMaxBorrow() external view returns (uint) {\n    (uint error, uint liquidity, uint shortfall) = comptroller.getAccountLiquidity(\n      address(this)\n    );\n\n    require(error == 0, \"error\");\n    require(shortfall == 0, \"shortfall > 0\");\n    require(liquidity > 0, \"liquidity = 0\");\n\n    uint price = priceFeed.getUnderlyingPrice(address(cTokenBorrow));\n    uint maxBorrow = (liquidity * (10**decimals)) / price;\n\n    return maxBorrow;\n  }\n\n  function long(uint _borrowAmount) external {\n    // borrow\n    require(cTokenBorrow.borrow(_borrowAmount) == 0, \"borrow failed\");\n    // buy ETH\n    uint bal = tokenBorrow.balanceOf(address(this));\n    tokenBorrow.approve(address(UNI), bal);\n\n    address[] memory path = new address[](2);\n    path[0] = address(tokenBorrow);\n    path[1] = address(WETH);\n    UNI.swapExactTokensForETH(bal, 1, path, address(this), block.timestamp);\n  }\n\n  function repay() external {\n    // sell ETH\n    address[] memory path = new address[](2);\n    path[0] = address(WETH);\n    path[1] = address(tokenBorrow);\n    UNI.swapExactETHForTokens{value: address(this).balance}(\n      1,\n      path,\n      address(this),\n      block.timestamp\n    );\n    // repay borrow\n    uint borrowed = cTokenBorrow.borrowBalanceCurrent(address(this));\n    tokenBorrow.approve(address(cTokenBorrow), borrowed);\n    require(cTokenBorrow.repayBorrow(borrowed) == 0, \"repay failed\");\n\n    uint supplied = cEth.balanceOfUnderlying(address(this));\n    require(cEth.redeemUnderlying(supplied) == 0, \"redeem failed\");\n\n    // supplied ETH + supplied interest + profit (in token borrow)\n  }\n\n  // not view function\n  function getSuppliedBalance() external returns (uint) {\n    return cEth.balanceOfUnderlying(address(this));\n  }\n\n  // not view function\n  function getBorrowBalance() external returns (uint) {\n    return cTokenBorrow.borrowBalanceCurrent(address(this));\n  }\n\n  function getAccountLiquidity()\n    external\n    view\n    returns (uint liquidity, uint shortfall)\n  {\n    // liquidity and shortfall in USD scaled up by 1e18\n    (uint error, uint _liquidity, uint _shortfall) = comptroller.getAccountLiquidity(\n      address(this)\n    );\n    require(error == 0, \"error\");\n    return (_liquidity, _shortfall);\n  }\n}",
  "sourcePath": "B:\\Nebula Labs\\Phantasm\\contracts\\CompoundLong.sol",
  "compiler": {
    "name": "solc",
    "version": "0.8.4+commit.c7e474f2.Emscripten.clang"
  },
  "schemaVersion": "3.4.2",
  "updatedAt": "2021-08-10T23:24:12.176Z",
  "devdoc": {
    "kind": "dev",
    "methods": {},
    "version": 1
  },
  "userdoc": {
    "kind": "user",
    "methods": {},
    "version": 1
  }
}