{
  "contractName": "Uniswap",
  "abi": [
    {
      "inputs": [],
      "name": "WETH",
      "outputs": [
        {
          "internalType": "contract IERC20",
          "name": "",
          "type": "address"
        }
      ],
      "stateMutability": "view",
      "type": "function",
      "constant": true
    },
    {
      "inputs": [],
      "name": "uniswap",
      "outputs": [
        {
          "internalType": "contract IUniswapV2Router",
          "name": "",
          "type": "address"
        }
      ],
      "stateMutability": "view",
      "type": "function",
      "constant": true
    },
    {
      "inputs": [
        {
          "internalType": "address",
          "name": "_tokenIn",
          "type": "address"
        },
        {
          "internalType": "address",
          "name": "_tokenOut",
          "type": "address"
        },
        {
          "internalType": "uint256",
          "name": "_amountIn",
          "type": "uint256"
        },
        {
          "internalType": "uint256",
          "name": "_amountOutMin",
          "type": "uint256"
        },
        {
          "internalType": "address",
          "name": "_to",
          "type": "address"
        }
      ],
      "name": "swap",
      "outputs": [
        {
          "internalType": "uint256",
          "name": "",
          "type": "uint256"
        }
      ],
      "stateMutability": "nonpayable",
      "type": "function"
    },
    {
      "inputs": [
        {
          "internalType": "address",
          "name": "_tokenIn",
          "type": "address"
        },
        {
          "internalType": "address",
          "name": "_tokenOut",
          "type": "address"
        },
        {
          "internalType": "uint256",
          "name": "_amountIn",
          "type": "uint256"
        }
      ],
      "name": "_getAmountOutMin",
      "outputs": [
        {
          "internalType": "uint256",
          "name": "",
          "type": "uint256"
        }
      ],
      "stateMutability": "view",
      "type": "function",
      "constant": true
    }
  ],
  "bytecode": "0x6080604052731b02da8cb0d097eb8d57a175b88c7d8b479975066000806101000a81548173ffffffffffffffffffffffffffffffffffffffff021916908373ffffffffffffffffffffffffffffffffffffffff160217905550737ceb23fd6bc0add59e62ac25578270cff1b9f619600160006101000a81548173ffffffffffffffffffffffffffffffffffffffff021916908373ffffffffffffffffffffffffffffffffffffffff1602179055503480156100b957600080fd5b506111b1806100c96000396000f3fe608060405234801561001057600080fd5b506004361061004c5760003560e01c80632681f7e41461005157806350420d811461006f578063ad5c46481461009f578063d5bcb9b5146100bd575b600080fd5b6100596100ed565b6040516100669190610e76565b60405180910390f35b61008960048036038101906100849190610bb7565b610111565b6040516100969190610e91565b60405180910390f35b6100a7610626565b6040516100b49190610e5b565b60405180910390f35b6100d760048036038101906100d29190610c06565b61064c565b6040516100e49190610e91565b60405180910390f35b60008054906101000a900473ffffffffffffffffffffffffffffffffffffffff1681565b60006060600160009054906101000a900473ffffffffffffffffffffffffffffffffffffffff1673ffffffffffffffffffffffffffffffffffffffff168573ffffffffffffffffffffffffffffffffffffffff1614806101be5750600160009054906101000a900473ffffffffffffffffffffffffffffffffffffffff1673ffffffffffffffffffffffffffffffffffffffff168473ffffffffffffffffffffffffffffffffffffffff16145b1561032457600267ffffffffffffffff811115610204577f4e487b7100000000000000000000000000000000000000000000000000000000600052604160045260246000fd5b6040519080825280602002602001820160405280156102325781602001602082028036833780820191505090505b5090508481600081518110610270577f4e487b7100000000000000000000000000000000000000000000000000000000600052603260045260246000fd5b602002602001019073ffffffffffffffffffffffffffffffffffffffff16908173ffffffffffffffffffffffffffffffffffffffff168152505083816001815181106102e5577f4e487b7100000000000000000000000000000000000000000000000000000000600052603260045260246000fd5b602002602001019073ffffffffffffffffffffffffffffffffffffffff16908173ffffffffffffffffffffffffffffffffffffffff1681525050610518565b600367ffffffffffffffff811115610365577f4e487b7100000000000000000000000000000000000000000000000000000000600052604160045260246000fd5b6040519080825280602002602001820160405280156103935781602001602082028036833780820191505090505b50905084816000815181106103d1577f4e487b7100000000000000000000000000000000000000000000000000000000600052603260045260246000fd5b602002602001019073ffffffffffffffffffffffffffffffffffffffff16908173ffffffffffffffffffffffffffffffffffffffff1681525050600160009054906101000a900473ffffffffffffffffffffffffffffffffffffffff1681600181518110610468577f4e487b7100000000000000000000000000000000000000000000000000000000600052603260045260246000fd5b602002602001019073ffffffffffffffffffffffffffffffffffffffff16908173ffffffffffffffffffffffffffffffffffffffff168152505083816002815181106104dd577f4e487b7100000000000000000000000000000000000000000000000000000000600052603260045260246000fd5b602002602001019073ffffffffffffffffffffffffffffffffffffffff16908173ffffffffffffffffffffffffffffffffffffffff16815250505b60008060009054906101000a900473ffffffffffffffffffffffffffffffffffffffff1673ffffffffffffffffffffffffffffffffffffffff1663d06ca61f85846040518363ffffffff1660e01b8152600401610576929190610eac565b60006040518083038186803b15801561058e57600080fd5b505afa1580156105a2573d6000803e3d6000fd5b505050506040513d6000823e3d601f19601f820116820180604052508101906105cb9190610c7d565b905080600183516105dc9190610fc0565b81518110610613577f4e487b7100000000000000000000000000000000000000000000000000000000600052603260045260246000fd5b6020026020010151925050509392505050565b600160009054906101000a900473ffffffffffffffffffffffffffffffffffffffff1681565b60008573ffffffffffffffffffffffffffffffffffffffff166323b872dd3330876040518463ffffffff1660e01b815260040161068b93929190610dfb565b602060405180830381600087803b1580156106a557600080fd5b505af11580156106b9573d6000803e3d6000fd5b505050506040513d601f19601f820116820180604052508101906106dd9190610cbe565b508573ffffffffffffffffffffffffffffffffffffffff1663095ea7b360008054906101000a900473ffffffffffffffffffffffffffffffffffffffff16866040518363ffffffff1660e01b8152600401610739929190610e32565b602060405180830381600087803b15801561075357600080fd5b505af1158015610767573d6000803e3d6000fd5b505050506040513d601f19601f8201168201806040525081019061078b9190610cbe565b506060600267ffffffffffffffff8111156107cf577f4e487b7100000000000000000000000000000000000000000000000000000000600052604160045260246000fd5b6040519080825280602002602001820160405280156107fd5781602001602082028036833780820191505090505b509050868160008151811061083b577f4e487b7100000000000000000000000000000000000000000000000000000000600052603260045260246000fd5b602002602001019073ffffffffffffffffffffffffffffffffffffffff16908173ffffffffffffffffffffffffffffffffffffffff168152505085816001815181106108b0577f4e487b7100000000000000000000000000000000000000000000000000000000600052603260045260246000fd5b602002602001019073ffffffffffffffffffffffffffffffffffffffff16908173ffffffffffffffffffffffffffffffffffffffff168152505060008054906101000a900473ffffffffffffffffffffffffffffffffffffffff1673ffffffffffffffffffffffffffffffffffffffff166338ed17398660018430426040518663ffffffff1660e01b815260040161094c959493929190610edc565b600060405180830381600087803b15801561096657600080fd5b505af115801561097a573d6000803e3d6000fd5b505050506040513d6000823e3d601f19601f820116820180604052508101906109a39190610c7d565b5060008673ffffffffffffffffffffffffffffffffffffffff166370a08231306040518263ffffffff1660e01b81526004016109df9190610de0565b60206040518083038186803b1580156109f757600080fd5b505afa158015610a0b573d6000803e3d6000fd5b505050506040513d601f19601f82011682018060405250810190610a2f9190610ce7565b90508673ffffffffffffffffffffffffffffffffffffffff1663a9059cbb85836040518363ffffffff1660e01b8152600401610a6c929190610e32565b602060405180830381600087803b158015610a8657600080fd5b505af1158015610a9a573d6000803e3d6000fd5b505050506040513d601f19601f82011682018060405250810190610abe9190610cbe565b50809250505095945050505050565b6000610ae0610adb84610f5b565b610f36565b90508083825260208201905082856020860282011115610aff57600080fd5b60005b85811015610b2f5781610b158882610ba2565b845260208401935060208301925050600181019050610b02565b5050509392505050565b600081359050610b4881611136565b92915050565b600082601f830112610b5f57600080fd5b8151610b6f848260208601610acd565b91505092915050565b600081519050610b878161114d565b92915050565b600081359050610b9c81611164565b92915050565b600081519050610bb181611164565b92915050565b600080600060608486031215610bcc57600080fd5b6000610bda86828701610b39565b9350506020610beb86828701610b39565b9250506040610bfc86828701610b8d565b9150509250925092565b600080600080600060a08688031215610c1e57600080fd5b6000610c2c88828901610b39565b9550506020610c3d88828901610b39565b9450506040610c4e88828901610b8d565b9350506060610c5f88828901610b8d565b9250506080610c7088828901610b39565b9150509295509295909350565b600060208284031215610c8f57600080fd5b600082015167ffffffffffffffff811115610ca957600080fd5b610cb584828501610b4e565b91505092915050565b600060208284031215610cd057600080fd5b6000610cde84828501610b78565b91505092915050565b600060208284031215610cf957600080fd5b6000610d0784828501610ba2565b91505092915050565b6000610d1c8383610d28565b60208301905092915050565b610d3181610ff4565b82525050565b610d4081610ff4565b82525050565b6000610d5182610f97565b610d5b8185610faf565b9350610d6683610f87565b8060005b83811015610d97578151610d7e8882610d10565b9750610d8983610fa2565b925050600181019050610d6a565b5085935050505092915050565b610dad8161103c565b82525050565b610dbc81611060565b82525050565b610dcb81611084565b82525050565b610dda81611032565b82525050565b6000602082019050610df56000830184610d37565b92915050565b6000606082019050610e106000830186610d37565b610e1d6020830185610d37565b610e2a6040830184610dd1565b949350505050565b6000604082019050610e476000830185610d37565b610e546020830184610dd1565b9392505050565b6000602082019050610e706000830184610da4565b92915050565b6000602082019050610e8b6000830184610db3565b92915050565b6000602082019050610ea66000830184610dd1565b92915050565b6000604082019050610ec16000830185610dd1565b8181036020830152610ed38184610d46565b90509392505050565b600060a082019050610ef16000830188610dd1565b610efe6020830187610dc2565b8181036040830152610f108186610d46565b9050610f1f6060830185610d37565b610f2c6080830184610dd1565b9695505050505050565b6000610f40610f51565b9050610f4c8282611096565b919050565b6000604051905090565b600067ffffffffffffffff821115610f7657610f756110f6565b5b602082029050602081019050919050565b6000819050602082019050919050565b600081519050919050565b6000602082019050919050565b600082825260208201905092915050565b6000610fcb82611032565b9150610fd683611032565b925082821015610fe957610fe86110c7565b5b828203905092915050565b6000610fff82611012565b9050919050565b60008115159050919050565b600073ffffffffffffffffffffffffffffffffffffffff82169050919050565b6000819050919050565b60006110478261104e565b9050919050565b600061105982611012565b9050919050565b600061106b82611072565b9050919050565b600061107d82611012565b9050919050565b600061108f82611032565b9050919050565b61109f82611125565b810181811067ffffffffffffffff821117156110be576110bd6110f6565b5b80604052505050565b7f4e487b7100000000000000000000000000000000000000000000000000000000600052601160045260246000fd5b7f4e487b7100000000000000000000000000000000000000000000000000000000600052604160045260246000fd5b6000601f19601f8301169050919050565b61113f81610ff4565b811461114a57600080fd5b50565b61115681611006565b811461116157600080fd5b50565b61116d81611032565b811461117857600080fd5b5056fea2646970667358221220a88c824c33a6cb23cf17296301d29cfdb23e46d46af1f1053f2064dfa8e05cfa64736f6c63430008040033",
  "immutableReferences": {},
  "source": "// SPDX-License-Identifier: MIT\r\npragma solidity ^0.8;\r\n\r\nimport './interfaces/IPhantasm.sol';\r\nimport './interfaces/ICompound.sol';\r\nimport './interfaces/IUniswap.sol';\r\nimport '@openzeppelin/contracts/token/ERC20/IERC20.sol';\r\n\r\n// Updated for Polygon\r\n\r\ncontract Uniswap {\r\n    /*\r\n               \r\n               \r\n              \r\n    */\r\n    IUniswapV2Router public uniswap = IUniswapV2Router(0x1b02dA8Cb0d097eB8D57A175b88c7D8b47997506);\r\n    IERC20 public WETH = IERC20(0x7ceB23fD6bC0adD59E62ac25578270cFf1b9f619);\r\n\r\n    function swap(address _tokenIn, address _tokenOut, uint _amountIn, uint _amountOutMin, address _to) public returns (uint256) {\r\n        IERC20(_tokenIn).transferFrom(msg.sender, address(this), _amountIn);\r\n\r\n        IERC20(_tokenIn).approve(address(uniswap), _amountIn);\r\n        address[] memory path;\r\n        path = new address[](2);\r\n        path[0] = _tokenIn;\r\n        path[1] = _tokenOut;\r\n\r\n        uniswap.swapExactTokensForTokens(_amountIn, 1, path, address(this), block.timestamp);\r\n        \r\n        uint256 tokensOut = IERC20(_tokenOut).balanceOf(address(this));\r\n        IERC20(_tokenOut).transfer(_to,tokensOut);\r\n        return tokensOut;\r\n    }\r\n\r\n    function _getAmountOutMin(address _tokenIn, address _tokenOut, uint _amountIn) public view returns (uint) {\r\n        address[] memory path;\r\n        if (_tokenIn == address(WETH) || _tokenOut == address(WETH)) {\r\n            path = new address[](2);\r\n            path[0] = _tokenIn;\r\n            path[1] = _tokenOut;\r\n        } else {\r\n            path = new address[](3);\r\n            path[0] = _tokenIn;\r\n            path[1] = address(WETH);\r\n            path[2] = _tokenOut;\r\n        }\r\n\r\n        // same length as path\r\n        uint[] memory amountOutMins = uniswap.getAmountsOut(_amountIn, path);\r\n\r\n        return amountOutMins[path.length - 1];\r\n    }\r\n}\r\n",
  "sourcePath": "/home/chinmay/ethonline/fin/Phantasm-v1/truffle-Phantasm/contracts/Uniswap.sol",
  "compiler": {
    "name": "solc",
    "version": "0.8.4+commit.c7e474f2.Emscripten.clang"
  },
  "schemaVersion": "3.4.3",
  "updatedAt": "2021-10-09T21:11:48.322Z",
  "networkType": "ethereum",
  "devdoc": {
    "kind": "dev",
    "methods": {},
    "version": 1
  },
  "userdoc": {
    "kind": "user",
    "methods": {},
    "version": 1
  }
}