{
  "contractName": "Vault",
  "abi": [
    {
      "inputs": [
        {
          "internalType": "string",
          "name": "_data",
          "type": "string"
        }
      ],
      "name": "insertPosition",
      "outputs": [],
      "stateMutability": "nonpayable",
      "type": "function"
    },
    {
      "inputs": [
        {
          "components": [
            {
              "internalType": "string",
              "name": "data",
              "type": "string"
            }
          ],
          "internalType": "struct Vault.Position",
          "name": "_newPosition",
          "type": "tuple"
        }
      ],
      "name": "addPosition",
      "outputs": [],
      "stateMutability": "nonpayable",
      "type": "function"
    },
    {
      "inputs": [
        {
          "internalType": "uint256",
          "name": "_index",
          "type": "uint256"
        }
      ],
      "name": "removePosition",
      "outputs": [],
      "stateMutability": "nonpayable",
      "type": "function"
    },
    {
      "inputs": [
        {
          "internalType": "address",
          "name": "_personOfInterest",
          "type": "address"
        }
      ],
      "name": "viewPositions",
      "outputs": [
        {
          "components": [
            {
              "internalType": "string",
              "name": "data",
              "type": "string"
            }
          ],
          "internalType": "struct Vault.Position[]",
          "name": "",
          "type": "tuple[]"
        }
      ],
      "stateMutability": "view",
      "type": "function"
    }
  ],
  "bytecode": "0x608060405234801561001057600080fd5b50610c4f806100206000396000f3fe608060405234801561001057600080fd5b506004361061004c5760003560e01c8063777b6d75146100515780637ab1aa1a14610081578063c04674221461009d578063f2219c5b146100b9575b600080fd5b61006b600480360381019061006691906107ab565b6100d5565b604051610078919061096b565b60405180910390f35b61009b600480360381019061009691906107d4565b610200565b005b6100b760048036038101906100b29190610856565b61021e565b005b6100d360048036038101906100ce9190610815565b610427565b005b60606000808373ffffffffffffffffffffffffffffffffffffffff1673ffffffffffffffffffffffffffffffffffffffff168152602001908152602001600020805480602002602001604051908101604052809291908181526020016000905b828210156101f55783829060005260206000200160405180602001604052908160008201805461016490610aea565b80601f016020809104026020016040519081016040528092919081815260200182805461019090610aea565b80156101dd5780601f106101b2576101008083540402835291602001916101dd565b820191906000526020600020905b8154815290600101906020018083116101c057829003601f168201915b50505050508152505081526020019060010190610135565b505050509050919050565b6102086104ad565b81816000018190525061021a81610427565b5050565b60008060003373ffffffffffffffffffffffffffffffffffffffff1673ffffffffffffffffffffffffffffffffffffffff1681526020019081526020016000209050808281548110610299577f4e487b7100000000000000000000000000000000000000000000000000000000600052603260045260246000fd5b90600052602060002001600080820160006102b491906104c0565b505080600182805490506102c89190610a38565b815481106102ff577f4e487b7100000000000000000000000000000000000000000000000000000000600052603260045260246000fd5b90600052602060002001818381548110610342577f4e487b7100000000000000000000000000000000000000000000000000000000600052603260045260246000fd5b90600052602060002001600082018160000190805461036090610aea565b61036b929190610500565b5090505080600182805490506103819190610a38565b815481106103b8577f4e487b7100000000000000000000000000000000000000000000000000000000600052603260045260246000fd5b90600052602060002001600080820160006103d391906104c0565b5050806000803373ffffffffffffffffffffffffffffffffffffffff1673ffffffffffffffffffffffffffffffffffffffff16815260200190815260200160002090805461042292919061058d565b505050565b6000803373ffffffffffffffffffffffffffffffffffffffff1673ffffffffffffffffffffffffffffffffffffffff168152602001908152602001600020819080600181540180825580915050600190039060005260206000200160009091909190915060008201518160000190805190602001906104a79291906105ff565b50505050565b6040518060200160405280606081525090565b5080546104cc90610aea565b6000825580601f106104de57506104fd565b601f0160209004906000526020600020908101906104fc9190610685565b5b50565b82805461050c90610aea565b90600052602060002090601f01602090048101928261052e576000855561057c565b82601f1061053f578054855561057c565b8280016001018555821561057c57600052602060002091601f016020900482015b8281111561057b578254825591600101919060010190610560565b5b5090506105899190610685565b5090565b8280548282559060005260206000209081019282156105ee5760005260206000209182015b828111156105ed57828260008201816000019080546105d090610aea565b6105db929190610500565b505050916001019190600101906105b2565b5b5090506105fb91906106a2565b5090565b82805461060b90610aea565b90600052602060002090601f01602090048101928261062d5760008555610674565b82601f1061064657805160ff1916838001178555610674565b82800160010185558215610674579182015b82811115610673578251825591602001919060010190610658565b5b5090506106819190610685565b5090565b5b8082111561069e576000816000905550600101610686565b5090565b5b808211156106c557600080820160006106bc91906104c0565b506001016106a3565b5090565b60006106dc6106d7846109b2565b61098d565b9050828152602081018484840111156106f457600080fd5b6106ff848285610aa8565b509392505050565b60008135905061071681610beb565b92915050565b600082601f83011261072d57600080fd5b813561073d8482602086016106c9565b91505092915050565b60006020828403121561075857600080fd5b610762602061098d565b9050600082013567ffffffffffffffff81111561077e57600080fd5b61078a8482850161071c565b60008301525092915050565b6000813590506107a581610c02565b92915050565b6000602082840312156107bd57600080fd5b60006107cb84828501610707565b91505092915050565b6000602082840312156107e657600080fd5b600082013567ffffffffffffffff81111561080057600080fd5b61080c8482850161071c565b91505092915050565b60006020828403121561082757600080fd5b600082013567ffffffffffffffff81111561084157600080fd5b61084d84828501610746565b91505092915050565b60006020828403121561086857600080fd5b600061087684828501610796565b91505092915050565b600061088b8383610941565b905092915050565b600061089e826109f3565b6108a88185610a16565b9350836020820285016108ba856109e3565b8060005b858110156108f657848403895281516108d7858261087f565b94506108e283610a09565b925060208a019950506001810190506108be565b50829750879550505050505092915050565b6000610913826109fe565b61091d8185610a27565b935061092d818560208601610ab7565b61093681610bda565b840191505092915050565b6000602083016000830151848203600086015261095e8282610908565b9150508091505092915050565b600060208201905081810360008301526109858184610893565b905092915050565b60006109976109a8565b90506109a38282610b1c565b919050565b6000604051905090565b600067ffffffffffffffff8211156109cd576109cc610bab565b5b6109d682610bda565b9050602081019050919050565b6000819050602082019050919050565b600081519050919050565b600081519050919050565b6000602082019050919050565b600082825260208201905092915050565b600082825260208201905092915050565b6000610a4382610a9e565b9150610a4e83610a9e565b925082821015610a6157610a60610b4d565b5b828203905092915050565b6000610a7782610a7e565b9050919050565b600073ffffffffffffffffffffffffffffffffffffffff82169050919050565b6000819050919050565b82818337600083830152505050565b60005b83811015610ad5578082015181840152602081019050610aba565b83811115610ae4576000848401525b50505050565b60006002820490506001821680610b0257607f821691505b60208210811415610b1657610b15610b7c565b5b50919050565b610b2582610bda565b810181811067ffffffffffffffff82111715610b4457610b43610bab565b5b80604052505050565b7f4e487b7100000000000000000000000000000000000000000000000000000000600052601160045260246000fd5b7f4e487b7100000000000000000000000000000000000000000000000000000000600052602260045260246000fd5b7f4e487b7100000000000000000000000000000000000000000000000000000000600052604160045260246000fd5b6000601f19601f8301169050919050565b610bf481610a6c565b8114610bff57600080fd5b50565b610c0b81610a9e565b8114610c1657600080fd5b5056fea2646970667358221220716726cc381ec01939d7b7ea438025d5c250d0bbfe0be3ebac4605486d98c8fb64736f6c63430008040033",
  "immutableReferences": {},
  "source": "// SPDX-License-Identifier: MIT\r\npragma solidity ^0.8;\r\n\r\n\r\n\r\ncontract Vault {\r\n    // Define a Struct to represent a position\r\n    struct Position {\r\n        string data;\r\n    }\r\n    // Next Define a ledger to hold everyone's positions\r\n    mapping(address => Position[]) internal positionLedger;\r\n    \r\n    function insertPosition(string memory _data) public {\r\n        Position memory newPosition;\r\n        newPosition.data = _data;\r\n        addPosition(newPosition);\r\n    }\r\n    \r\n    // Define a function to add a position\r\n    function addPosition(Position memory _newPosition) public {\r\n        // Initialize the Position in memory\r\n        positionLedger[msg.sender].push(_newPosition);\r\n    }\r\n    \r\n    function removePosition(uint256 _index) public {\r\n        // TODO Fix this being storage, use a memory array instead, or modify in place\r\n        Position[] storage currentPositions = positionLedger[msg.sender];\r\n        delete currentPositions[_index];\r\n        currentPositions[_index] = currentPositions[currentPositions.length-1];\r\n        delete currentPositions[currentPositions.length-1];\r\n        positionLedger[msg.sender] = currentPositions;\r\n    }\r\n    function viewPositions(address _personOfInterest) public view returns(Position[] memory) {\r\n        return positionLedger[_personOfInterest];\r\n    }\r\n}\r\n",
  "sourcePath": "B:\\Nebula Labs\\Phantasm\\contracts\\Vault.sol",
  "compiler": {
    "name": "solc",
    "version": "0.8.4+commit.c7e474f2.Emscripten.clang"
  },
  "schemaVersion": "3.4.2",
  "updatedAt": "2021-09-11T03:58:34.453Z",
  "devdoc": {
    "kind": "dev",
    "methods": {},
    "version": 1
  },
  "userdoc": {
    "kind": "user",
    "methods": {},
    "version": 1
  }
}